{
  "contractName": "BancorConverter",
  "abi": [
    {
      "constant": true,
      "inputs": [],
      "name": "BANCOR_CONVERTER_UPGRADER",
      "outputs": [
        {
          "name": "",
          "type": "bytes32"
        }
      ],
      "payable": false,
      "stateMutability": "view",
      "type": "function"
    },
    {
      "constant": true,
      "inputs": [
        {
          "name": "",
          "type": "address"
        }
      ],
      "name": "connectors",
      "outputs": [
        {
          "name": "virtualBalance",
          "type": "uint256"
        },
        {
          "name": "weight",
          "type": "uint32"
        },
        {
          "name": "isVirtualBalanceEnabled",
          "type": "bool"
        },
        {
          "name": "isSaleEnabled",
          "type": "bool"
        },
        {
          "name": "isSet",
          "type": "bool"
        }
      ],
      "payable": false,
      "stateMutability": "view",
      "type": "function"
    },
    {
      "constant": true,
      "inputs": [],
      "name": "bancorX",
      "outputs": [
        {
          "name": "",
          "type": "address"
        }
      ],
      "payable": false,
      "stateMutability": "view",
      "type": "function"
    },
    {
      "constant": true,
      "inputs": [
        {
          "name": "",
          "type": "uint256"
        }
      ],
      "name": "connectorTokens",
      "outputs": [
        {
          "name": "",
          "type": "address"
        }
      ],
      "payable": false,
      "stateMutability": "view",
      "type": "function"
    },
    {
      "constant": true,
      "inputs": [],
      "name": "BNT_TOKEN",
      "outputs": [
        {
          "name": "",
          "type": "bytes32"
        }
      ],
      "payable": false,
      "stateMutability": "view",
      "type": "function"
    },
    {
      "constant": true,
      "inputs": [],
      "name": "allowRegistryUpdate",
      "outputs": [
        {
          "name": "",
          "type": "bool"
        }
      ],
      "payable": false,
      "stateMutability": "view",
      "type": "function"
    },
    {
      "constant": true,
      "inputs": [],
      "name": "CONTRACT_REGISTRY",
      "outputs": [
        {
          "name": "",
          "type": "bytes32"
        }
      ],
      "payable": false,
      "stateMutability": "view",
      "type": "function"
    },
    {
      "constant": false,
      "inputs": [],
      "name": "acceptTokenOwnership",
      "outputs": [],
      "payable": false,
      "stateMutability": "nonpayable",
      "type": "function"
    },
    {
      "constant": true,
      "inputs": [],
      "name": "converterType",
      "outputs": [
        {
          "name": "",
          "type": "string"
        }
      ],
      "payable": false,
      "stateMutability": "view",
      "type": "function"
    },
    {
      "constant": false,
      "inputs": [
        {
          "name": "_token",
          "type": "address"
        },
        {
          "name": "_to",
          "type": "address"
        },
        {
          "name": "_amount",
          "type": "uint256"
        }
      ],
      "name": "withdrawFromToken",
      "outputs": [],
      "payable": false,
      "stateMutability": "nonpayable",
      "type": "function"
    },
    {
      "constant": true,
      "inputs": [],
      "name": "newManager",
      "outputs": [
        {
          "name": "",
          "type": "address"
        }
      ],
      "payable": false,
      "stateMutability": "view",
      "type": "function"
    },
    {
      "constant": true,
      "inputs": [],
      "name": "manager",
      "outputs": [
        {
          "name": "",
          "type": "address"
        }
      ],
      "payable": false,
      "stateMutability": "view",
      "type": "function"
    },
    {
      "constant": true,
      "inputs": [],
      "name": "version",
      "outputs": [
        {
          "name": "",
          "type": "uint16"
        }
      ],
      "payable": false,
      "stateMutability": "view",
      "type": "function"
    },
    {
      "constant": true,
      "inputs": [],
      "name": "conversionFee",
      "outputs": [
        {
          "name": "",
          "type": "uint32"
        }
      ],
      "payable": false,
      "stateMutability": "view",
      "type": "function"
    },
    {
      "constant": true,
      "inputs": [],
      "name": "BANCOR_CONVERTER_FACTORY",
      "outputs": [
        {
          "name": "",
          "type": "bytes32"
        }
      ],
      "payable": false,
      "stateMutability": "view",
      "type": "function"
    },
    {
      "constant": true,
      "inputs": [],
      "name": "prevRegistry",
      "outputs": [
        {
          "name": "",
          "type": "address"
        }
      ],
      "payable": false,
      "stateMutability": "view",
      "type": "function"
    },
    {
      "constant": true,
      "inputs": [],
      "name": "BNT_CONVERTER",
      "outputs": [
        {
          "name": "",
          "type": "bytes32"
        }
      ],
      "payable": false,
      "stateMutability": "view",
      "type": "function"
    },
    {
      "constant": true,
      "inputs": [],
      "name": "BANCOR_FORMULA",
      "outputs": [
        {
          "name": "",
          "type": "bytes32"
        }
      ],
      "payable": false,
      "stateMutability": "view",
      "type": "function"
    },
    {
      "constant": false,
      "inputs": [],
      "name": "acceptOwnership",
      "outputs": [],
      "payable": false,
      "stateMutability": "nonpayable",
      "type": "function"
    },
    {
      "constant": true,
      "inputs": [],
      "name": "registry",
      "outputs": [
        {
          "name": "",
          "type": "address"
        }
      ],
      "payable": false,
      "stateMutability": "view",
      "type": "function"
    },
    {
      "constant": true,
      "inputs": [],
      "name": "CONTRACT_FEATURES",
      "outputs": [
        {
          "name": "",
          "type": "bytes32"
        }
      ],
      "payable": false,
      "stateMutability": "view",
      "type": "function"
    },
    {
      "constant": false,
      "inputs": [
        {
          "name": "_disable",
          "type": "bool"
        }
      ],
      "name": "disableTokenTransfers",
      "outputs": [],
      "payable": false,
      "stateMutability": "nonpayable",
      "type": "function"
    },
    {
      "constant": true,
      "inputs": [],
      "name": "owner",
      "outputs": [
        {
          "name": "",
          "type": "address"
        }
      ],
      "payable": false,
      "stateMutability": "view",
      "type": "function"
    },
    {
      "constant": true,
      "inputs": [],
      "name": "BANCOR_NETWORK",
      "outputs": [
        {
          "name": "",
          "type": "bytes32"
        }
      ],
      "payable": false,
      "stateMutability": "view",
      "type": "function"
    },
    {
      "constant": true,
      "inputs": [],
      "name": "BANCOR_GAS_PRICE_LIMIT",
      "outputs": [
        {
          "name": "",
          "type": "bytes32"
        }
      ],
      "payable": false,
      "stateMutability": "view",
      "type": "function"
    },
    {
      "constant": true,
      "inputs": [],
      "name": "CONVERTER_CONVERSION_WHITELIST",
      "outputs": [
        {
          "name": "",
          "type": "uint256"
        }
      ],
      "payable": false,
      "stateMutability": "view",
      "type": "function"
    },
    {
      "constant": true,
      "inputs": [],
      "name": "maxConversionFee",
      "outputs": [
        {
          "name": "",
          "type": "uint32"
        }
      ],
      "payable": false,
      "stateMutability": "view",
      "type": "function"
    },
    {
      "constant": true,
      "inputs": [],
      "name": "conversionsEnabled",
      "outputs": [
        {
          "name": "",
          "type": "bool"
        }
      ],
      "payable": false,
      "stateMutability": "view",
      "type": "function"
    },
    {
      "constant": true,
      "inputs": [],
      "name": "conversionWhitelist",
      "outputs": [
        {
          "name": "",
          "type": "address"
        }
      ],
      "payable": false,
      "stateMutability": "view",
      "type": "function"
    },
    {
      "constant": true,
      "inputs": [],
      "name": "BANCOR_X",
      "outputs": [
        {
          "name": "",
          "type": "bytes32"
        }
      ],
      "payable": false,
      "stateMutability": "view",
      "type": "function"
    },
    {
      "constant": false,
      "inputs": [],
      "name": "acceptManagement",
      "outputs": [],
      "payable": false,
      "stateMutability": "nonpayable",
      "type": "function"
    },
    {
      "constant": true,
      "inputs": [],
      "name": "BANCOR_X_UPGRADER",
      "outputs": [
        {
          "name": "",
          "type": "bytes32"
        }
      ],
      "payable": false,
      "stateMutability": "view",
      "type": "function"
    },
    {
      "constant": true,
      "inputs": [],
      "name": "newOwner",
      "outputs": [
        {
          "name": "",
          "type": "address"
        }
      ],
      "payable": false,
      "stateMutability": "view",
      "type": "function"
    },
    {
      "constant": false,
      "inputs": [
        {
          "name": "_bancorX",
          "type": "address"
        }
      ],
      "name": "setBancorX",
      "outputs": [],
      "payable": false,
      "stateMutability": "nonpayable",
      "type": "function"
    },
    {
      "constant": false,
      "inputs": [
        {
          "name": "_newManager",
          "type": "address"
        }
      ],
      "name": "transferManagement",
      "outputs": [],
      "payable": false,
      "stateMutability": "nonpayable",
      "type": "function"
    },
    {
      "constant": false,
      "inputs": [
        {
          "name": "_newOwner",
          "type": "address"
        }
      ],
      "name": "transferOwnership",
      "outputs": [],
      "payable": false,
      "stateMutability": "nonpayable",
      "type": "function"
    },
    {
      "constant": true,
      "inputs": [],
      "name": "NON_STANDARD_TOKEN_REGISTRY",
      "outputs": [
        {
          "name": "",
          "type": "bytes32"
        }
      ],
      "payable": false,
      "stateMutability": "view",
      "type": "function"
    },
    {
      "constant": true,
      "inputs": [],
      "name": "token",
      "outputs": [
        {
          "name": "",
          "type": "address"
        }
      ],
      "payable": false,
      "stateMutability": "view",
      "type": "function"
    },
    {
      "constant": false,
      "inputs": [
        {
          "name": "_from",
          "type": "address"
        },
        {
          "name": "_amount",
          "type": "uint256"
        }
      ],
      "name": "claimTokens",
      "outputs": [],
      "payable": false,
      "stateMutability": "nonpayable",
      "type": "function"
    },
    {
      "inputs": [
        {
          "name": "_token",
          "type": "address"
        },
        {
          "name": "_registry",
          "type": "address"
        },
        {
          "name": "_maxConversionFee",
          "type": "uint32"
        },
        {
          "name": "_connectorToken",
          "type": "address"
        },
        {
          "name": "_connectorWeight",
          "type": "uint32"
        }
      ],
      "payable": false,
      "stateMutability": "nonpayable",
      "type": "constructor"
    },
    {
      "anonymous": false,
      "inputs": [
        {
          "indexed": true,
          "name": "_fromToken",
          "type": "address"
        },
        {
          "indexed": true,
          "name": "_toToken",
          "type": "address"
        },
        {
          "indexed": true,
          "name": "_trader",
          "type": "address"
        },
        {
          "indexed": false,
          "name": "_amount",
          "type": "uint256"
        },
        {
          "indexed": false,
          "name": "_return",
          "type": "uint256"
        },
        {
          "indexed": false,
          "name": "_conversionFee",
          "type": "int256"
        }
      ],
      "name": "Conversion",
      "type": "event"
    },
    {
      "anonymous": false,
      "inputs": [
        {
          "indexed": true,
          "name": "_connectorToken",
          "type": "address"
        },
        {
          "indexed": false,
          "name": "_tokenSupply",
          "type": "uint256"
        },
        {
          "indexed": false,
          "name": "_connectorBalance",
          "type": "uint256"
        },
        {
          "indexed": false,
          "name": "_connectorWeight",
          "type": "uint32"
        }
      ],
      "name": "PriceDataUpdate",
      "type": "event"
    },
    {
      "anonymous": false,
      "inputs": [
        {
          "indexed": false,
          "name": "_prevFee",
          "type": "uint32"
        },
        {
          "indexed": false,
          "name": "_newFee",
          "type": "uint32"
        }
      ],
      "name": "ConversionFeeUpdate",
      "type": "event"
    },
    {
      "anonymous": false,
      "inputs": [
        {
          "indexed": false,
          "name": "_conversionsEnabled",
          "type": "bool"
        }
      ],
      "name": "ConversionsEnable",
      "type": "event"
    },
    {
      "anonymous": false,
      "inputs": [
        {
          "indexed": true,
          "name": "_prevManager",
          "type": "address"
        },
        {
          "indexed": true,
          "name": "_newManager",
          "type": "address"
        }
      ],
      "name": "ManagerUpdate",
      "type": "event"
    },
    {
      "anonymous": false,
      "inputs": [
        {
          "indexed": true,
          "name": "_prevOwner",
          "type": "address"
        },
        {
          "indexed": true,
          "name": "_newOwner",
          "type": "address"
        }
      ],
      "name": "OwnerUpdate",
      "type": "event"
    },
    {
      "constant": false,
      "inputs": [],
      "name": "updateRegistry",
      "outputs": [],
      "payable": false,
      "stateMutability": "nonpayable",
      "type": "function"
    },
    {
      "constant": false,
      "inputs": [],
      "name": "restoreRegistry",
      "outputs": [],
      "payable": false,
      "stateMutability": "nonpayable",
      "type": "function"
    },
    {
      "constant": false,
      "inputs": [
        {
          "name": "_disable",
          "type": "bool"
        }
      ],
      "name": "disableRegistryUpdate",
      "outputs": [],
      "payable": false,
      "stateMutability": "nonpayable",
      "type": "function"
    },
    {
      "constant": true,
      "inputs": [],
      "name": "connectorTokenCount",
      "outputs": [
        {
          "name": "",
          "type": "uint16"
        }
      ],
      "payable": false,
      "stateMutability": "view",
      "type": "function"
    },
    {
      "constant": false,
      "inputs": [
        {
          "name": "_whitelist",
          "type": "address"
        }
      ],
      "name": "setConversionWhitelist",
      "outputs": [],
      "payable": false,
      "stateMutability": "nonpayable",
      "type": "function"
    },
    {
      "constant": false,
      "inputs": [
        {
          "name": "_disable",
          "type": "bool"
        }
      ],
      "name": "disableConversions",
      "outputs": [],
      "payable": false,
      "stateMutability": "nonpayable",
      "type": "function"
    },
    {
      "constant": false,
      "inputs": [
        {
          "name": "_newOwner",
          "type": "address"
        }
      ],
      "name": "transferTokenOwnership",
      "outputs": [],
      "payable": false,
      "stateMutability": "nonpayable",
      "type": "function"
    },
    {
      "constant": false,
      "inputs": [
        {
          "name": "_conversionFee",
          "type": "uint32"
        }
      ],
      "name": "setConversionFee",
      "outputs": [],
      "payable": false,
      "stateMutability": "nonpayable",
      "type": "function"
    },
    {
      "constant": true,
      "inputs": [
        {
          "name": "_amount",
          "type": "uint256"
        },
        {
          "name": "_magnitude",
          "type": "uint8"
        }
      ],
      "name": "getFinalAmount",
      "outputs": [
        {
          "name": "",
          "type": "uint256"
        }
      ],
      "payable": false,
      "stateMutability": "view",
      "type": "function"
    },
    {
      "constant": false,
      "inputs": [
        {
          "name": "_token",
          "type": "address"
        },
        {
          "name": "_to",
          "type": "address"
        },
        {
          "name": "_amount",
          "type": "uint256"
        }
      ],
      "name": "withdrawTokens",
      "outputs": [],
      "payable": false,
      "stateMutability": "nonpayable",
      "type": "function"
    },
    {
      "constant": false,
      "inputs": [],
      "name": "upgrade",
      "outputs": [],
      "payable": false,
      "stateMutability": "nonpayable",
      "type": "function"
    },
    {
      "constant": false,
      "inputs": [
        {
          "name": "_token",
          "type": "address"
        },
        {
          "name": "_weight",
          "type": "uint32"
        },
        {
          "name": "_enableVirtualBalance",
          "type": "bool"
        }
      ],
      "name": "addConnector",
      "outputs": [],
      "payable": false,
      "stateMutability": "nonpayable",
      "type": "function"
    },
    {
      "constant": false,
      "inputs": [
        {
          "name": "_connectorToken",
          "type": "address"
        },
        {
          "name": "_weight",
          "type": "uint32"
        },
        {
          "name": "_enableVirtualBalance",
          "type": "bool"
        },
        {
          "name": "_virtualBalance",
          "type": "uint256"
        }
      ],
      "name": "updateConnector",
      "outputs": [],
      "payable": false,
      "stateMutability": "nonpayable",
      "type": "function"
    },
    {
      "constant": false,
      "inputs": [
        {
          "name": "_connectorToken",
          "type": "address"
        },
        {
          "name": "_disable",
          "type": "bool"
        }
      ],
      "name": "disableConnectorSale",
      "outputs": [],
      "payable": false,
      "stateMutability": "nonpayable",
      "type": "function"
    },
    {
      "constant": true,
      "inputs": [
        {
          "name": "_connectorToken",
          "type": "address"
        }
      ],
      "name": "getConnectorBalance",
      "outputs": [
        {
          "name": "",
          "type": "uint256"
        }
      ],
      "payable": false,
      "stateMutability": "view",
      "type": "function"
    },
    {
      "constant": true,
      "inputs": [
        {
          "name": "_fromToken",
          "type": "address"
        },
        {
          "name": "_toToken",
          "type": "address"
        },
        {
          "name": "_amount",
          "type": "uint256"
        }
      ],
      "name": "getReturn",
      "outputs": [
        {
          "name": "",
          "type": "uint256"
        },
        {
          "name": "",
          "type": "uint256"
        }
      ],
      "payable": false,
      "stateMutability": "view",
      "type": "function"
    },
    {
      "constant": true,
      "inputs": [
        {
          "name": "_connectorToken",
          "type": "address"
        },
        {
          "name": "_depositAmount",
          "type": "uint256"
        }
      ],
      "name": "getPurchaseReturn",
      "outputs": [
        {
          "name": "",
          "type": "uint256"
        },
        {
          "name": "",
          "type": "uint256"
        }
      ],
      "payable": false,
      "stateMutability": "view",
      "type": "function"
    },
    {
      "constant": true,
      "inputs": [
        {
          "name": "_connectorToken",
          "type": "address"
        },
        {
          "name": "_sellAmount",
          "type": "uint256"
        }
      ],
      "name": "getSaleReturn",
      "outputs": [
        {
          "name": "",
          "type": "uint256"
        },
        {
          "name": "",
          "type": "uint256"
        }
      ],
      "payable": false,
      "stateMutability": "view",
      "type": "function"
    },
    {
      "constant": true,
      "inputs": [
        {
          "name": "_fromConnectorToken",
          "type": "address"
        },
        {
          "name": "_toConnectorToken",
          "type": "address"
        },
        {
          "name": "_sellAmount",
          "type": "uint256"
        }
      ],
      "name": "getCrossConnectorReturn",
      "outputs": [
        {
          "name": "",
          "type": "uint256"
        },
        {
          "name": "",
          "type": "uint256"
        }
      ],
      "payable": false,
      "stateMutability": "view",
      "type": "function"
    },
    {
      "constant": false,
      "inputs": [
        {
          "name": "_fromToken",
          "type": "address"
        },
        {
          "name": "_toToken",
          "type": "address"
        },
        {
          "name": "_amount",
          "type": "uint256"
        },
        {
          "name": "_minReturn",
          "type": "uint256"
        }
      ],
      "name": "convertInternal",
      "outputs": [
        {
          "name": "",
          "type": "uint256"
        }
      ],
      "payable": false,
      "stateMutability": "nonpayable",
      "type": "function"
    },
    {
      "constant": false,
      "inputs": [
        {
          "name": "_fromToken",
          "type": "address"
        },
        {
          "name": "_toToken",
          "type": "address"
        },
        {
          "name": "_amount",
          "type": "uint256"
        },
        {
          "name": "_minReturn",
          "type": "uint256"
        },
        {
          "name": "_affiliateAccount",
          "type": "address"
        },
        {
          "name": "_affiliateFee",
          "type": "uint256"
        }
      ],
      "name": "convert2",
      "outputs": [
        {
          "name": "",
          "type": "uint256"
        }
      ],
      "payable": false,
      "stateMutability": "nonpayable",
      "type": "function"
    },
    {
      "constant": false,
      "inputs": [
        {
          "name": "_path",
          "type": "address[]"
        },
        {
          "name": "_amount",
          "type": "uint256"
        },
        {
          "name": "_minReturn",
          "type": "uint256"
        },
        {
          "name": "_affiliateAccount",
          "type": "address"
        },
        {
          "name": "_affiliateFee",
          "type": "uint256"
        }
      ],
      "name": "quickConvert2",
      "outputs": [
        {
          "name": "",
          "type": "uint256"
        }
      ],
      "payable": true,
      "stateMutability": "payable",
      "type": "function"
    },
    {
      "constant": false,
      "inputs": [
        {
          "name": "_path",
          "type": "address[]"
        },
        {
          "name": "_amount",
          "type": "uint256"
        },
        {
          "name": "_minReturn",
          "type": "uint256"
        },
        {
          "name": "_signature",
          "type": "uint256[]"
        },
        {
          "name": "_affiliateAccount",
          "type": "address"
        },
        {
          "name": "_affiliateFee",
          "type": "uint256"
        }
      ],
      "name": "quickConvertPrioritized2",
      "outputs": [
        {
          "name": "",
          "type": "uint256"
        }
      ],
      "payable": true,
      "stateMutability": "payable",
      "type": "function"
    },
    {
      "constant": false,
      "inputs": [
        {
          "name": "_path",
          "type": "address[]"
        },
        {
          "name": "_minReturn",
          "type": "uint256"
        },
        {
          "name": "_conversionId",
          "type": "uint256"
        },
        {
          "name": "_signature",
          "type": "uint256[]"
        }
      ],
      "name": "completeXConversion2",
      "outputs": [
        {
          "name": "",
          "type": "uint256"
        }
      ],
      "payable": false,
      "stateMutability": "nonpayable",
      "type": "function"
    },
    {
      "constant": false,
      "inputs": [
        {
          "name": "_amount",
          "type": "uint256"
        }
      ],
      "name": "fund",
      "outputs": [],
      "payable": false,
      "stateMutability": "nonpayable",
      "type": "function"
    },
    {
      "constant": false,
      "inputs": [
        {
          "name": "_amount",
          "type": "uint256"
        }
      ],
      "name": "liquidate",
      "outputs": [],
      "payable": false,
      "stateMutability": "nonpayable",
      "type": "function"
    },
    {
      "constant": false,
      "inputs": [
        {
          "name": "_fromToken",
          "type": "address"
        },
        {
          "name": "_toToken",
          "type": "address"
        },
        {
          "name": "_amount",
          "type": "uint256"
        },
        {
          "name": "_minReturn",
          "type": "uint256"
        }
      ],
      "name": "change",
      "outputs": [
        {
          "name": "",
          "type": "uint256"
        }
      ],
      "payable": false,
      "stateMutability": "nonpayable",
      "type": "function"
    },
    {
      "constant": false,
      "inputs": [
        {
          "name": "_fromToken",
          "type": "address"
        },
        {
          "name": "_toToken",
          "type": "address"
        },
        {
          "name": "_amount",
          "type": "uint256"
        },
        {
          "name": "_minReturn",
          "type": "uint256"
        }
      ],
      "name": "convert",
      "outputs": [
        {
          "name": "",
          "type": "uint256"
        }
      ],
      "payable": false,
      "stateMutability": "nonpayable",
      "type": "function"
    },
    {
      "constant": false,
      "inputs": [
        {
          "name": "_path",
          "type": "address[]"
        },
        {
          "name": "_amount",
          "type": "uint256"
        },
        {
          "name": "_minReturn",
          "type": "uint256"
        }
      ],
      "name": "quickConvert",
      "outputs": [
        {
          "name": "",
          "type": "uint256"
        }
      ],
      "payable": true,
      "stateMutability": "payable",
      "type": "function"
    },
    {
      "constant": false,
      "inputs": [
        {
          "name": "_path",
          "type": "address[]"
        },
        {
          "name": "_amount",
          "type": "uint256"
        },
        {
          "name": "_minReturn",
          "type": "uint256"
        },
        {
          "name": "_block",
          "type": "uint256"
        },
        {
          "name": "_v",
          "type": "uint8"
        },
        {
          "name": "_r",
          "type": "bytes32"
        },
        {
          "name": "_s",
          "type": "bytes32"
        }
      ],
      "name": "quickConvertPrioritized",
      "outputs": [
        {
          "name": "",
          "type": "uint256"
        }
      ],
      "payable": true,
      "stateMutability": "payable",
      "type": "function"
    },
    {
      "constant": false,
      "inputs": [
        {
          "name": "_path",
          "type": "address[]"
        },
        {
          "name": "_minReturn",
          "type": "uint256"
        },
        {
          "name": "_conversionId",
          "type": "uint256"
        },
        {
          "name": "_block",
          "type": "uint256"
        },
        {
          "name": "_v",
          "type": "uint8"
        },
        {
          "name": "_r",
          "type": "bytes32"
        },
        {
          "name": "_s",
          "type": "bytes32"
        }
      ],
      "name": "completeXConversion",
      "outputs": [
        {
          "name": "",
          "type": "uint256"
        }
      ],
      "payable": false,
      "stateMutability": "nonpayable",
      "type": "function"
    }
  ],
  "bytecode": "0x6005805460a060020a61ffff0219167410000000000000000000000000000000000000000017905560c0604052600660808190527f62616e636f72000000000000000000000000000000000000000000000000000060a09081526200006691908162000588565b506007805460ff19166001179055600c80546001606860020a0319166c01000000000000000000000000179055348015620000a057600080fd5b5060405160a080620053d78339810160409081528151602083015191830151606084015160809094015160008054600160a060020a03191633178155929491928580600160a060020a0381161515620000f857600080fd5b5060028054600160a060020a03928316600160a060020a03199182161790915560048054909116331790558590811615156200013357600080fd5b8460008163ffffffff1610158015620001555750620f424063ffffffff821611155b15156200016157600080fd5b60088054600160a060020a031916600160a060020a03898116918217928390556007805461010060a860020a03191661010090930292909217909155604080517fbb34534c0000000000000000000000000000000000000000000000000000000081527f436f6e747261637446656174757265730000000000000000000000000000000060048201529051929091169163bb34534c916024808201926020929091908290030181600087803b1580156200021a57600080fd5b505af11580156200022f573d6000803e3d6000fd5b505050506040513d60208110156200024657600080fd5b50519250600160a060020a03831615620002dd57604080517f2c7077c000000000000000000000000000000000000000000000000000000000815260016004820181905260248201529051600160a060020a03851691632c7077c091604480830192600092919082900301818387803b158015620002c357600080fd5b505af1158015620002d8573d6000803e3d6000fd5b505050505b600c805467ffffffff00000000191664010000000063ffffffff891602179055600160a060020a038516156200032457620003248585600064010000000062000332810204565b50505050505050506200062d565b600054600160a060020a031633146200034a57600080fd5b600254604080517f8da5cb5b00000000000000000000000000000000000000000000000000000000815290513092600160a060020a031691638da5cb5b9160048083019260209291908290030181600087803b158015620003aa57600080fd5b505af1158015620003bf573d6000803e3d6000fd5b505050506040513d6020811015620003d657600080fd5b5051600160a060020a03161415620003ed57600080fd5b82600160a060020a03811615156200040457600080fd5b83600160a060020a0381163014156200041c57600080fd5b8360008163ffffffff161180156200043d5750620f424063ffffffff821611155b15156200044957600080fd5b600254600160a060020a038781169116148015906200048e5750600160a060020a0386166000908152600b60205260409020600101546601000000000000900460ff16155b8015620004ad5750600c54620f424063ffffffff918216870190911611155b1515620004b957600080fd5b505050600160a060020a039092166000818152600b602052604081208181556001908101805466ff0000000000001965ff0000000000199715156401000000000264ff000000001963ffffffff808a1663ffffffff1995861617919091169190911798909816650100000000001716660100000000000017909155600a805492830181559092527fc65a7bb8d6351c1cf70c95a316cc6a92839c986682d98bc35f958f4883f9d2a8018054600160a060020a031916909217909155600c80548085169093019093169116179055565b828054600181600116156101000203166002900490600052602060002090601f016020900481019282601f10620005cb57805160ff1916838001178555620005fb565b82800160010185558215620005fb579182015b82811115620005fb578251825591602001919060010190620005de565b50620006099291506200060d565b5090565b6200062a91905b8082111562000609576000815560010162000614565b90565b614d9a806200063d6000396000f30060806040526004361061031e5763ffffffff60e060020a6000350416630c87355e81146103235780630ca789231461034a5780630e53aae91461037e5780631120a776146103d357806319b64015146104045780631d000b611461041c5780631e1401f81461043157806320d7d3671461047457806321e6b53d1461049d57806322742564146104be578063228d28201461052657806325f9bfef146105405780632a2e2f0c146105555780632cc1cd651461058257806338a5e0161461061f5780633aa0145a146106345780633e8ff43f146106525780633f4d2fc2146106dc578063415f12401461070b57806341a5b33d14610723578063429060291461074d578063481c6a751461076257806349d10b64146107775780634af80f0e1461078c57806350057351146107ad57806354fd4d5014610822578063579cd3ca1461084e5780635a46f06c1461087c5780635e35359e146108915780635e5144eb146108bb57806361cd756e146108e857806362614ae6146108fd5780636d7bd3fc146109125780636ebf36c01461092757806371f52bf31461095f57806372b44b2c1461097457806375892cf11461099857806379ba5097146109c55780637b103999146109da57806383315b6e146109ef57806385d5e63114610a045780638da5cb5b14610a1e5780638e3047e014610a335780639232494e14610a5d5780639249993a14610a7257806392d1abb714610a8757806394c275ad14610a9c5780639e56855314610ab1578063a2c4c33614610ad7578063b3a426d514610afb578063b4a176d314610b9c578063bf75455814610bb1578063c45d3d9214610bc6578063c4a8598e14610bdb578063c8c2fe6c14610bf0578063ca1d209d14610c05578063cc97b38f14610c1d578063d4ee1d9014610c32578063d55ec69714610c47578063d895951214610c5c578063d924f0c314610c7d578063e4dd22f614610c9e578063e4edf85214610d01578063ecbca55d14610d22578063f0843ba914610d40578063f2fde38b14610d91578063f5286b9c14610db2578063fa1c594e14610dc7578063fc0c546a14610de1578063fe417fa514610df6575b600080fd5b34801561032f57600080fd5b50610338610e1a565b60408051918252519081900360200190f35b34801561035657600080fd5b5061037c600160a060020a036004351663ffffffff602435166044351515606435610e2c565b005b34801561038a57600080fd5b5061039f600160a060020a0360043516610f3f565b6040805195865263ffffffff9094166020860152911515848401521515606084015215156080830152519081900360a00190f35b3480156103df57600080fd5b506103e8610f85565b60408051600160a060020a039092168252519081900360200190f35b34801561041057600080fd5b506103e8600435610f94565b34801561042857600080fd5b50610338610fbc565b34801561043d57600080fd5b5061045b600160a060020a0360043581169060243516604435610fe0565b6040805192835260208301919091528051918290030190f35b34801561048057600080fd5b5061048961105d565b604080519115158252519081900360200190f35b3480156104a957600080fd5b5061037c600160a060020a0360043516611066565b6040805160206004803580820135838102808601850190965280855261033895369593946024949385019291829185019084908082843750949750508435955050506020830135926040810135925060ff606082013516915060808101359060a00135611130565b34801561053257600080fd5b5061037c6004351515611159565b34801561054c57600080fd5b50610338611218565b34801561056157600080fd5b50610338600160a060020a036004358116906024351660443560643561123c565b34801561058e57600080fd5b5060408051602060048035808201358381028086018501909652808552610338953695939460249493850192918291850190849080828437505060408051818801358901803560208181028481018201909552818452989b8a359b8a8c01359b919a909950606090910197509295509082019350918291850190849080828437509497506116079650505050505050565b34801561062b57600080fd5b5061037c611b06565b34801561064057600080fd5b5061033860043560ff60243516611b8a565b34801561065e57600080fd5b50610667611be8565b6040805160208082528351818301528351919283929083019185019080838360005b838110156106a1578181015183820152602001610689565b50505050905090810190601f1680156106ce5780820380516001836020036101000a031916815260200191505b509250505060405180910390f35b3480156106e857600080fd5b5061037c600160a060020a036004351663ffffffff602435166044351515611c76565b34801561071757600080fd5b5061037c600435611ec0565b34801561072f57600080fd5b5061037c600160a060020a03600435811690602435166044356120dc565b34801561075957600080fd5b506103e861217d565b34801561076e57600080fd5b506103e861218c565b34801561078357600080fd5b5061037c61219b565b34801561079857600080fd5b5061037c600160a060020a03600435166122e3565b3480156107b957600080fd5b506040805160206004803580820135838102808601850190965280855261033895369593946024949385019291829185019084908082843750949750508435955050506020830135926040810135925060ff606082013516915060808101359060a00135612334565b34801561082e57600080fd5b5061083761234e565b6040805161ffff9092168252519081900360200190f35b34801561085a57600080fd5b50610863612370565b6040805163ffffffff9092168252519081900360200190f35b34801561088857600080fd5b50610338612388565b34801561089d57600080fd5b5061037c600160a060020a03600435811690602435166044356123ac565b3480156108c757600080fd5b50610338600160a060020a036004358116906024351660443560643561252d565b3480156108f457600080fd5b506103e8612544565b34801561090957600080fd5b50610338612558565b34801561091e57600080fd5b5061033861257c565b34801561093357600080fd5b50610338600160a060020a0360043581169060243581169060443590606435906084351660a43561258e565b34801561096b57600080fd5b50610837612634565b34801561098057600080fd5b5061045b600160a060020a036004351660243561263a565b3480156109a457600080fd5b50610338600160a060020a036004358116906024351660443560643561291e565b3480156109d157600080fd5b5061037c61292f565b3480156109e657600080fd5b506103e86129aa565b3480156109fb57600080fd5b506103386129b9565b348015610a1057600080fd5b5061037c60043515156129dd565b348015610a2a57600080fd5b506103e8612a76565b348015610a3f57600080fd5b5061045b600160a060020a0360043581169060243516604435612a85565b348015610a6957600080fd5b50610338612d44565b348015610a7e57600080fd5b50610338612d56565b348015610a9357600080fd5b50610338612d7a565b348015610aa857600080fd5b50610863612d7f565b348015610abd57600080fd5b5061037c600160a060020a03600435166024351515612d93565b348015610ae357600080fd5b5061045b600160a060020a0360043516602435612e1b565b60408051602060048035808201358381028086018501909652808552610338953695939460249493850192918291850190849080828437505060408051818801358901803560208181028481018201909552818452989b8a359b8a8c01359b919a9099506060909101975092955090820193509182918501908490808284375094975050508335600160a060020a03169450505060209091013590506130cc565b348015610ba857600080fd5b5061037c613416565b348015610bbd57600080fd5b5061048961346f565b348015610bd257600080fd5b506103e8613488565b348015610be757600080fd5b50610338613497565b348015610bfc57600080fd5b5061037c6134bb565b348015610c1157600080fd5b5061037c600435613538565b348015610c2957600080fd5b50610338613793565b348015610c3e57600080fd5b506103e86137b7565b348015610c5357600080fd5b5061037c6137c6565b348015610c6857600080fd5b50610338600160a060020a0360043516613911565b348015610c8957600080fd5b5061037c600160a060020a0360043516613a15565b604080516020600480358082013583810280860185019096528085526103389536959394602494938501929182918501908490808284375094975050843595505050602083013592600160a060020a036040820135169250606001359050613a4e565b348015610d0d57600080fd5b5061037c600160a060020a0360043516613a74565b348015610d2e57600080fd5b5061037c63ffffffff60043516613adf565b6040805160206004803580820135838102808601850190965280855261033895369593946024949385019291829185019084908082843750949750508435955050506020909201359150613bc69050565b348015610d9d57600080fd5b5061037c600160a060020a0360043516613bd6565b348015610dbe57600080fd5b50610338613c2a565b348015610dd357600080fd5b5061037c6004351515613c4e565b348015610ded57600080fd5b506103e8613c8e565b348015610e0257600080fd5b5061037c600160a060020a0360043516602435613c9d565b600080516020614d2f83398151915281565b60008054600160a060020a03163314610e4457600080fd5b600160a060020a0385166000908152600b602052604090206001015485906601000000000000900460ff161515610e7a57600080fd5b8460008163ffffffff16118015610e9a5750620f424063ffffffff821611155b1515610ea557600080fd5b600160a060020a0387166000908152600b602052604090206001810154600c54919450620f424063ffffffff918216928216929092038801161115610ee957600080fd5b5050600181018054600c805463ffffffff928316818416038801831663ffffffff199182161790915582549515156401000000000264ff0000000019929097169516949094179390931693909317909155905550565b600b602052600090815260409020805460019091015463ffffffff81169060ff640100000000820481169165010000000000810482169166010000000000009091041685565b600354600160a060020a031681565b600a805482908110610fa257fe5b600091825260209091200154600160a060020a0316905081565b7f424e54546f6b656e00000000000000000000000000000000000000000000000081565b600080600160a060020a038581169085161415610ffc57600080fd5b600254600160a060020a03858116911614156110255761101c8584612e1b565b91509150611055565b600254600160a060020a03868116911614156110455761101c848461263a565b611050858585612a85565b915091505b935093915050565b60075460ff1681565b600054600160a060020a0316331461107d57600080fd5b6008546040805160e260020a632ecd14d3028152600080516020614d2f83398151915260048201529051600092600160a060020a03169163bb34534c91602480830192602092919082900301818787803b1580156110da57600080fd5b505af11580156110ee573d6000803e3d6000fd5b505050506040513d602081101561110457600080fd5b5051600054909150600160a060020a0380831691161461112357600080fd5b61112c82613d96565b5050565b600061114d8888886111458b8a8a8a8a613e14565b6000806130cc565b98975050505050505050565b600054600160a060020a031633148061117c5750600454600160a060020a031633145b151561118757600080fd5b600c5460ff6c01000000000000000000000000909104161515811515141561121557600c80546c01000000000000000000000000831581026cff000000000000000000000000199092169190911791829055604080519190920460ff161515815290517fb8e670608a57255ce4f35952b324cba70211a4200a91ce81d26e06d488c1f66b9181900360200190a15b50565b7f436f6e747261637452656769737472790000000000000000000000000000000081565b6008546040805160e260020a632ecd14d3028152600080516020614d0f83398151915260048201529051600092839283928392839283928392600160a060020a03169163bb34534c91602480830192602092919082900301818787803b1580156112a557600080fd5b505af11580156112b9573d6000803e3d6000fd5b505050506040513d60208110156112cf57600080fd5b5051905033600160a060020a038216146112e857600080fd5b600c546c01000000000000000000000000900460ff16151561130657fe5b876000811161131457600080fd5b600160a060020a038c8116908c16141561132d57600080fd5b600254600160a060020a038c8116911614156113555761134e8c8b8b613f03565b97506115f8565b600254600160a060020a038d8116911614156113765761134e8b8b8b6140dd565b6113818c8c8c612a85565b909750955086158015906113955750888710155b15156113a057600080fd5b600160a060020a038c166000908152600b602052604090206001810154909550640100000000900460ff16156113e55784546113e2908b63ffffffff61440616565b85555b600160a060020a038b166000908152600b602052604090206001810154909450640100000000900460ff161561142a578354611427908863ffffffff61442316565b84555b6114338b613911565b925082871061143e57fe5b61144a8c33308d614438565b6114558b33896147c7565b6114628c8c8c8a8a614b3d565b8b600160a060020a0316600080516020614d4f833981519152600260009054906101000a9004600160a060020a0316600160a060020a03166318160ddd6040518163ffffffff1660e060020a028152600401602060405180830381600087803b1580156114ce57600080fd5b505af11580156114e2573d6000803e3d6000fd5b505050506040513d60208110156114f857600080fd5b50516115038f613911565b600189015460408051938452602084019290925263ffffffff1682820152519081900360600190a28a600160a060020a0316600080516020614d4f833981519152600260009054906101000a9004600160a060020a0316600160a060020a03166318160ddd6040518163ffffffff1660e060020a028152600401602060405180830381600087803b15801561159757600080fd5b505af11580156115ab573d6000803e3d6000fd5b505050506040513d60208110156115c157600080fd5b50516115cc8e613911565b600188015460408051938452602084019290925263ffffffff1682820152519081900360600190a28697505b50505050505050949350505050565b60008060008084516000148061163457508585600081518110151561162857fe5b90602001906020020151145b151561163f57600080fd5b6008546040805160e260020a632ecd14d30281527f42616e636f72580000000000000000000000000000000000000000000000000060048201529051600160a060020a039092169163bb34534c916024808201926020929091908290030181600087803b1580156116af57600080fd5b505af11580156116c3573d6000803e3d6000fd5b505050506040513d60208110156116d957600080fd5b50516008546040805160e260020a632ecd14d3028152600080516020614d0f83398151915260048201529051929550600160a060020a039091169163bb34534c916024808201926020929091908290030181600087803b15801561173c57600080fd5b505af1158015611750573d6000803e3d6000fd5b505050506040513d602081101561176657600080fd5b50516008546040805160e260020a632ecd14d30281527f424e54546f6b656e00000000000000000000000000000000000000000000000060048201529051929450600160a060020a039091169163bb34534c916024808201926020929091908290030181600087803b1580156117db57600080fd5b505af11580156117ef573d6000803e3d6000fd5b505050506040513d602081101561180557600080fd5b50518851600160a060020a03909116908990600090811061182257fe5b60209081029091010151600160a060020a03161461183f57600080fd5b604080517faafd6b76000000000000000000000000000000000000000000000000000000008152600481018890523360248201529051600160a060020a0385169163aafd6b769160448083019260209291908290030181600087803b1580156118a757600080fd5b505af11580156118bb573d6000803e3d6000fd5b505050506040513d60208110156118d157600080fd5b50516002546040805160e060020a63a24835d1028152336004820152602481018490529051929350600160a060020a039091169163a24835d19160448082019260009290919082900301818387803b15801561192c57600080fd5b505af1158015611940573d6000803e3d6000fd5b50506002546040805160e260020a63219e412d028152600160a060020a03878116600483015260248201879052915191909216935063867904b49250604480830192600092919082900301818387803b15801561199c57600080fd5b505af11580156119b0573d6000803e3d6000fd5b5050505081600160a060020a0316634de006cb89838a338a6000806040518863ffffffff1660e060020a028152600401808060200188815260200187815260200186600160a060020a0316600160a060020a031681526020018060200185600160a060020a0316600160a060020a0316815260200184815260200183810383528a818151815260200191508051906020019060200280838360005b83811015611a63578181015183820152602001611a4b565b50505050905001838103825286818151815260200191508051906020019060200280838360005b83811015611aa2578181015183820152602001611a8a565b505050509050019950505050505050505050602060405180830381600087803b158015611ace57600080fd5b505af1158015611ae2573d6000803e3d6000fd5b505050506040513d6020811015611af857600080fd5b505198975050505050505050565b600054600160a060020a03163314611b1d57600080fd5b600260009054906101000a9004600160a060020a0316600160a060020a03166379ba50976040518163ffffffff1660e060020a028152600401600060405180830381600087803b158015611b7057600080fd5b505af1158015611b84573d6000803e3d6000fd5b50505050565b600c54600090611be19060ff8416620f424081810a67ffffffffffffffff90811693611bd593899363ffffffff680100000000000000009093048316900383160a90911690614bc016565b9063ffffffff614bee16565b9392505050565b6006805460408051602060026001851615610100026000190190941693909304601f81018490048402820184019092528181529291830182828015611c6e5780601f10611c4357610100808354040283529160200191611c6e565b820191906000526020600020905b815481529060010190602001808311611c5157829003601f168201915b505050505081565b600054600160a060020a03163314611c8d57600080fd5b600254604080517f8da5cb5b00000000000000000000000000000000000000000000000000000000815290513092600160a060020a031691638da5cb5b9160048083019260209291908290030181600087803b158015611cec57600080fd5b505af1158015611d00573d6000803e3d6000fd5b505050506040513d6020811015611d1657600080fd5b5051600160a060020a03161415611d2c57600080fd5b82600160a060020a0381161515611d4257600080fd5b83600160a060020a038116301415611d5957600080fd5b8360008163ffffffff16118015611d795750620f424063ffffffff821611155b1515611d8457600080fd5b600254600160a060020a03878116911614801590611dc85750600160a060020a0386166000908152600b60205260409020600101546601000000000000900460ff16155b8015611de65750600c54620f424063ffffffff918216870190911611155b1515611df157600080fd5b505050600160a060020a039092166000818152600b602052604081208181556001908101805466ff0000000000001965ff0000000000199715156401000000000264ff000000001963ffffffff808a1663ffffffff1995861617919091169190911798909816650100000000001716660100000000000017909155600a805492830181559092527fc65a7bb8d6351c1cf70c95a316cc6a92839c986682d98bc35f958f4883f9d2a8018054600160a060020a031916909217909155600c80548085169093019093169116179055565b600c546000908190819081908190819063ffffffff16620f424014611ee457600080fd5b600260009054906101000a9004600160a060020a0316600160a060020a03166318160ddd6040518163ffffffff1660e060020a028152600401602060405180830381600087803b158015611f3757600080fd5b505af1158015611f4b573d6000803e3d6000fd5b505050506040513d6020811015611f6157600080fd5b50516002546040805160e060020a63a24835d1028152336004820152602481018b90529051929850600160a060020a039091169163a24835d19160448082019260009290919082900301818387803b158015611fbc57600080fd5b505af1158015611fd0573d6000803e3d6000fd5b50505050600091505b600a5461ffff831610156120d357600a805461ffff8416908110611ff957fe5b600091825260209091200154600160a060020a0316945061201985613911565b935061202f86611bd5898763ffffffff614bc016565b600160a060020a0386166000908152600b6020526040902060018101549194509150640100000000900460ff1615612076578054612073908463ffffffff61442316565b81555b6120818533856147c7565b6001810154604080518989038152858703602082015263ffffffff9092168282015251600160a060020a03871691600080516020614d4f833981519152919081900360600190a2600190910190611fd9565b50505050505050565b600054600160a060020a031633146120f357600080fd5b600254604080517f5e35359e000000000000000000000000000000000000000000000000000000008152600160a060020a03868116600483015285811660248301526044820185905291519190921691635e35359e91606480830192600092919082900301818387803b15801561216957600080fd5b505af11580156120d3573d6000803e3d6000fd5b600554600160a060020a031681565b600454600160a060020a031681565b60075460009060ff16806121b95750600054600160a060020a031633145b15156121c457600080fd5b6008546040805160e260020a632ecd14d30281527f436f6e747261637452656769737472790000000000000000000000000000000060048201529051600160a060020a039092169163bb34534c916024808201926020929091908290030181600087803b15801561223457600080fd5b505af1158015612248573d6000803e3d6000fd5b505050506040513d602081101561225e57600080fd5b5051600854909150600160a060020a038083169116148015906122895750600160a060020a03811615155b151561229457600080fd5b600880546007805474ffffffffffffffffffffffffffffffffffffffff001916610100600160a060020a038085169190910291909117909155600160a060020a03199091169216919091179055565b600054600160a060020a031633146122fa57600080fd5b80600160a060020a03811630141561231157600080fd5b5060098054600160a060020a031916600160a060020a0392909216919091179055565b600061114d8888886123498a8a8a8a8a613e14565b611607565b60055474010000000000000000000000000000000000000000900461ffff1681565b600c5468010000000000000000900463ffffffff1681565b7f42616e636f72436f6e766572746572466163746f72790000000000000000000081565b6008546040805160e260020a632ecd14d3028152600080516020614d2f83398151915260048201529051600092600160a060020a03169163bb34534c91602480830192602092919082900301818787803b15801561240957600080fd5b505af115801561241d573d6000803e3d6000fd5b505050506040513d602081101561243357600080fd5b5051600160a060020a0385166000908152600b60205260409020600101549091506601000000000000900460ff1615806124ff5750600254604080517f8da5cb5b00000000000000000000000000000000000000000000000000000000815290513092600160a060020a031691638da5cb5b9160048083019260209291908290030181600087803b1580156124c757600080fd5b505af11580156124db573d6000803e3d6000fd5b505050506040513d60208110156124f157600080fd5b5051600160a060020a031614155b806125175750600054600160a060020a038281169116145b151561252257600080fd5b611b84848484614c11565b600061253b8585858561123c565b95945050505050565b6007546101009004600160a060020a031681565b7f424e54436f6e766572746572000000000000000000000000000000000000000081565b600080516020614cef83398151915281565b6040805160038082526080820190925260009160609190602082018380388339505060025482519293508a92600160a060020a0390911691508990849060009081106125d657fe5b9060200190602002018460018151811015156125ee57fe5b90602001906020020185600281518110151561260657fe5b600160a060020a039485166020918202909201015292821690925291909116905261114d8187878787613a4e565b600a5490565b60008060008060008060008030600160a060020a0316600260009054906101000a9004600160a060020a0316600160a060020a0316638da5cb5b6040518163ffffffff1660e060020a028152600401602060405180830381600087803b1580156126a357600080fd5b505af11580156126b7573d6000803e3d6000fd5b505050506040513d60208110156126cd57600080fd5b5051600160a060020a0316146126e257600080fd5b600160a060020a038a166000908152600b60205260409020600101548a906601000000000000900460ff16151561271857600080fd5b600160a060020a03808c166000908152600b6020908152604080832060025482517f18160ddd0000000000000000000000000000000000000000000000000000000081529251919c50909416936318160ddd93600480840194938390030190829087803b15801561278857600080fd5b505af115801561279c573d6000803e3d6000fd5b505050506040513d60208110156127b257600080fd5b505195506127bf8b613911565b6008546040805160e260020a632ecd14d3028152600080516020614cef83398151915260048201529051929750600160a060020a039091169163bb34534c916024808201926020929091908290030181600087803b15801561282057600080fd5b505af1158015612834573d6000803e3d6000fd5b505050506040513d602081101561284a57600080fd5b50516001880154604080517f49f9b0f7000000000000000000000000000000000000000000000000000000008152600481018a90526024810189905263ffffffff9092166044830152606482018d905251919550600160a060020a038616916349f9b0f7916084808201926020929091908290030181600087803b1580156128d157600080fd5b505af11580156128e5573d6000803e3d6000fd5b505050506040513d60208110156128fb57600080fd5b5051925061290a836001611b8a565b9b928c90039a509198505050505050505050565b600061253b8585858560008061258e565b600154600160a060020a0316331461294657600080fd5b60015460008054604051600160a060020a0393841693909116917f343765429aea5a34b3ff6a3785a98a5abb2597aca87bfbb58632c173d585373a91a36001805460008054600160a060020a0319908116600160a060020a03841617909155169055565b600854600160a060020a031681565b7f436f6e747261637446656174757265730000000000000000000000000000000081565b600054600160a060020a031633146129f457600080fd5b600254604080517f1608f18f00000000000000000000000000000000000000000000000000000000815283151560048201529051600160a060020a0390921691631608f18f9160248082019260009290919082900301818387803b158015612a5b57600080fd5b505af1158015612a6f573d6000803e3d6000fd5b5050505050565b600054600160a060020a031681565b600080600080600080600030600160a060020a0316600260009054906101000a9004600160a060020a0316600160a060020a0316638da5cb5b6040518163ffffffff1660e060020a028152600401602060405180830381600087803b158015612aed57600080fd5b505af1158015612b01573d6000803e3d6000fd5b505050506040513d6020811015612b1757600080fd5b5051600160a060020a031614612b2c57600080fd5b600160a060020a038a166000908152600b60205260409020600101548a906601000000000000900460ff161515612b6257600080fd5b600160a060020a038a166000908152600b60205260409020600101548a906601000000000000900460ff161515612b9857600080fd5b600160a060020a038c81166000908152600b6020526040808220928e16825290206001820154919850965065010000000000900460ff161515612bda57600080fd5b6008546040805160e260020a632ecd14d3028152600080516020614cef83398151915260048201529051600160a060020a039092169163bb34534c916024808201926020929091908290030181600087803b158015612c3857600080fd5b505af1158015612c4c573d6000803e3d6000fd5b505050506040513d6020811015612c6257600080fd5b50519450600160a060020a0385166365098bb3612c7e8e613911565b60018a015463ffffffff16612c928f613911565b60018b01546040805163ffffffff87811660e060020a028252600482019690965293851660248501526044840192909252929092166064820152608481018e9052905160a48083019260209291908290030181600087803b158015612cf657600080fd5b505af1158015612d0a573d6000803e3d6000fd5b505050506040513d6020811015612d2057600080fd5b50519350612d2f846002611b8a565b9c938d90039b50929950505050505050505050565b600080516020614d0f83398151915281565b7f42616e636f7247617350726963654c696d69740000000000000000000000000081565b600181565b600c54640100000000900463ffffffff1681565b600054600160a060020a03163314612daa57600080fd5b600160a060020a0382166000908152600b602052604090206001015482906601000000000000900460ff161515612de057600080fd5b50600160a060020a03919091166000908152600b60205260409020600101805465ff0000000000191691156501000000000002919091179055565b60008060008060008060008030600160a060020a0316600260009054906101000a9004600160a060020a0316600160a060020a0316638da5cb5b6040518163ffffffff1660e060020a028152600401602060405180830381600087803b158015612e8457600080fd5b505af1158015612e98573d6000803e3d6000fd5b505050506040513d6020811015612eae57600080fd5b5051600160a060020a031614612ec357600080fd5b600160a060020a038a166000908152600b60205260409020600101548a906601000000000000900460ff161515612ef957600080fd5b600160a060020a038b166000908152600b60205260409020600181015490975065010000000000900460ff161515612f3057600080fd5b600260009054906101000a9004600160a060020a0316600160a060020a03166318160ddd6040518163ffffffff1660e060020a028152600401602060405180830381600087803b158015612f8357600080fd5b505af1158015612f97573d6000803e3d6000fd5b505050506040513d6020811015612fad57600080fd5b50519550612fba8b613911565b6008546040805160e260020a632ecd14d3028152600080516020614cef83398151915260048201529051929750600160a060020a039091169163bb34534c916024808201926020929091908290030181600087803b15801561301b57600080fd5b505af115801561302f573d6000803e3d6000fd5b505050506040513d602081101561304557600080fd5b50516001880154604080517f29a00e7c000000000000000000000000000000000000000000000000000000008152600481018a90526024810189905263ffffffff9092166044830152606482018d905251919550600160a060020a038616916329a00e7c916084808201926020929091908290030181600087803b1580156128d157600080fd5b6000808451600014806130f65750868560008151811015156130ea57fe5b90602001906020020151145b151561310157600080fd5b6008546040805160e260020a632ecd14d3028152600080516020614d0f83398151915260048201529051600160a060020a039092169163bb34534c916024808201926020929091908290030181600087803b15801561315f57600080fd5b505af1158015613173573d6000803e3d6000fd5b505050506040513d602081101561318957600080fd5b505190503415156132d2576002548851600160a060020a0390911690899060009081106131b257fe5b90602001906020020151600160a060020a031614156132ae576002546040805160e060020a63a24835d1028152336004820152602481018a90529051600160a060020a039092169163a24835d19160448082019260009290919082900301818387803b15801561322157600080fd5b505af1158015613235573d6000803e3d6000fd5b50506002546040805160e260020a63219e412d028152600160a060020a038681166004830152602482018d9052915191909216935063867904b49250604480830192600092919082900301818387803b15801561329157600080fd5b505af11580156132a5573d6000803e3d6000fd5b505050506132d2565b6132d28860008151811015156132c057fe5b9060200190602002015133838a614438565b80600160a060020a0316634de006cb348a8a8a338b8b8b6040518963ffffffff1660e060020a028152600401808060200188815260200187815260200186600160a060020a0316600160a060020a031681526020018060200185600160a060020a0316600160a060020a0316815260200184815260200183810383528a818151815260200191508051906020019060200280838360005b83811015613381578181015183820152602001613369565b50505050905001838103825286818151815260200191508051906020019060200280838360005b838110156133c05781810151838201526020016133a8565b5050505090500199505050505050505050506020604051808303818588803b1580156133eb57600080fd5b505af11580156133ff573d6000803e3d6000fd5b50505050506040513d6020811015611af857600080fd5b600054600160a060020a03163314806134395750600454600160a060020a031633145b151561344457600080fd5b6007805460088054600160a060020a031916600160a060020a0361010084041617905560ff19169055565b600c546c01000000000000000000000000900460ff1681565b600954600160a060020a031681565b7f42616e636f72580000000000000000000000000000000000000000000000000081565b600554600160a060020a031633146134d257600080fd5b600554600454604051600160a060020a0392831692909116907fbe4cc281795971a471c980e842627a7f1ea3892ddfce8c5b6357cd2611c1973290600090a36005805460048054600160a060020a0319908116600160a060020a03841617909155169055565b600c546000908190819081908190819063ffffffff16620f42401461355c57600080fd5b600c546c01000000000000000000000000900460ff16151561357a57fe5b600260009054906101000a9004600160a060020a0316600160a060020a03166318160ddd6040518163ffffffff1660e060020a028152600401602060405180830381600087803b1580156135cd57600080fd5b505af11580156135e1573d6000803e3d6000fd5b505050506040513d60208110156135f757600080fd5b50519550600091505b600a5461ffff8316101561371c57600a805461ffff841690811061362057fe5b600091825260209091200154600160a060020a0316945061364085613911565b9350613677600161366b88611bd58361365f8d8b63ffffffff614bc016565b9063ffffffff61442316565b9063ffffffff61440616565b600160a060020a0386166000908152600b6020526040902060018101549194509150640100000000900460ff16156136be5780546136bb908463ffffffff61440616565b81555b6136ca85333086614438565b600181015460408051888a018152868601602082015263ffffffff9092168282015251600160a060020a03871691600080516020614d4f833981519152919081900360600190a2600190910190613600565b6002546040805160e260020a63219e412d028152336004820152602481018a90529051600160a060020a039092169163867904b49160448082019260009290919082900301818387803b15801561377257600080fd5b505af1158015613786573d6000803e3d6000fd5b5050505050505050505050565b7f42616e636f72585570677261646572000000000000000000000000000000000081565b600154600160a060020a031681565b60008054600160a060020a031633146137de57600080fd5b6008546040805160e260020a632ecd14d3028152600080516020614d2f83398151915260048201529051600160a060020a039092169163bb34534c916024808201926020929091908290030181600087803b15801561383c57600080fd5b505af1158015613850573d6000803e3d6000fd5b505050506040513d602081101561386657600080fd5b5051905061387381613bd6565b600554604080517f90f58c960000000000000000000000000000000000000000000000000000000081527401000000000000000000000000000000000000000090920461ffff16600483015251600160a060020a038316916390f58c9691602480830192600092919082900301818387803b1580156138f157600080fd5b505af1158015613905573d6000803e3d6000fd5b5050505061121561292f565b600160a060020a0381166000908152600b6020526040812060010154819083906601000000000000900460ff16151561394957600080fd5b600160a060020a0384166000908152600b602052604090206001810154909250640100000000900460ff16613a0a57604080517f70a082310000000000000000000000000000000000000000000000000000000081523060048201529051600160a060020a038616916370a082319160248083019260209291908290030181600087803b1580156139d957600080fd5b505af11580156139ed573d6000803e3d6000fd5b505050506040513d6020811015613a0357600080fd5b5051613a0d565b81545b949350505050565b600054600160a060020a03163314613a2c57600080fd5b60038054600160a060020a031916600160a060020a0392909216919091179055565b6000613a6a868686613a638580808080613e14565b87876130cc565b9695505050505050565b600054600160a060020a0316331480613a975750600454600160a060020a031633145b1515613aa257600080fd5b600454600160a060020a0382811691161415613abd57600080fd5b60058054600160a060020a031916600160a060020a0392909216919091179055565b600054600160a060020a0316331480613b025750600454600160a060020a031633145b1515613b0d57600080fd5b8060008163ffffffff1610158015613b395750600c5463ffffffff640100000000909104811690821611155b1515613b4457600080fd5b600c546040805163ffffffff6801000000000000000090930483168152918416602083015280517f81cd2ffb37dd237c0e4e2a3de5265fcf9deb43d3e7801e80db9f1ccfba7ee6009281900390910190a150600c805463ffffffff90921668010000000000000000026bffffffff000000000000000019909216919091179055565b6000613a0d848484600080613a4e565b600054600160a060020a03163314613bed57600080fd5b600054600160a060020a0382811691161415613c0857600080fd5b60018054600160a060020a031916600160a060020a0392909216919091179055565b7f4e6f6e5374616e64617264546f6b656e5265676973747279000000000000000081565b600054600160a060020a0316331480613c715750600454600160a060020a031633145b1515613c7c57600080fd5b6007805460ff19169115919091179055565b600254600160a060020a031681565b600354600160a060020a03163314613cb457600080fd5b6002546040805160e060020a63a24835d1028152600160a060020a038581166004830152602482018590529151919092169163a24835d191604480830192600092919082900301818387803b158015613d0c57600080fd5b505af1158015613d20573d6000803e3d6000fd5b50506002546040805160e260020a63219e412d028152336004820152602481018690529051600160a060020a03909216935063867904b4925060448082019260009290919082900301818387803b158015613d7a57600080fd5b505af1158015613d8e573d6000803e3d6000fd5b505050505050565b600054600160a060020a03163314613dad57600080fd5b600254604080517ff2fde38b000000000000000000000000000000000000000000000000000000008152600160a060020a0384811660048301529151919092169163f2fde38b91602480830192600092919082900301818387803b158015612a5b57600080fd5b60608060ff8516158015613e26575083155b8015613e30575082155b15613e4b576040805160008152602081019091529150613ef9565b60408051600580825260c08201909252906020820160a08038833901905050905086816000815181101515613e7c57fe5b602090810290910101528051869082906001908110613e9757fe5b60209081029091010152805160ff86169082906002908110613eb557fe5b602090810290910101528051849082906003908110613ed057fe5b602090810290910101528051839082906004908110613eeb57fe5b602090810290910101529050805b5095945050505050565b600080600080613f138787612e1b565b90935091508215801590613f275750848310155b1515613f3257600080fd5b50600160a060020a0386166000908152600b602052604090206001810154640100000000900460ff1615613f75578054613f72908763ffffffff61440616565b81555b613f8187333089614438565b6002546040805160e260020a63219e412d028152336004820152602481018690529051600160a060020a039092169163867904b49160448082019260009290919082900301818387803b158015613fd757600080fd5b505af1158015613feb573d6000803e3d6000fd5b50506002546140099250899150600160a060020a0316888686614b3d565b86600160a060020a0316600080516020614d4f833981519152600260009054906101000a9004600160a060020a0316600160a060020a03166318160ddd6040518163ffffffff1660e060020a028152600401602060405180830381600087803b15801561407557600080fd5b505af1158015614089573d6000803e3d6000fd5b505050506040513d602081101561409f57600080fd5b50516140aa8a613911565b600185015460408051938452602084019290925263ffffffff1682820152519081900360600190a2509095945050505050565b600254604080517f70a08231000000000000000000000000000000000000000000000000000000008152336004820152905160009283928392839283928392600160a060020a03909216916370a082319160248082019260209290919082900301818787803b15801561414f57600080fd5b505af1158015614163573d6000803e3d6000fd5b505050506040513d602081101561417957600080fd5b505188111561418757600080fd5b614191898961263a565b909550935084158015906141a55750868510155b15156141b057600080fd5b600260009054906101000a9004600160a060020a0316600160a060020a03166318160ddd6040518163ffffffff1660e060020a028152600401602060405180830381600087803b15801561420357600080fd5b505af1158015614217573d6000803e3d6000fd5b505050506040513d602081101561422d57600080fd5b5051925061423a89613911565b9150818510806142535750818514801561425357508288145b151561425b57fe5b50600160a060020a0388166000908152600b602052604090206001810154640100000000900460ff161561429e57805461429b908663ffffffff61442316565b81555b6002546040805160e060020a63a24835d1028152336004820152602481018b90529051600160a060020a039092169163a24835d19160448082019260009290919082900301818387803b1580156142f457600080fd5b505af1158015614308573d6000803e3d6000fd5b505050506143178933876147c7565b60025461433090600160a060020a03168a8a8888614b3d565b88600160a060020a0316600080516020614d4f833981519152600260009054906101000a9004600160a060020a0316600160a060020a03166318160ddd6040518163ffffffff1660e060020a028152600401602060405180830381600087803b15801561439c57600080fd5b505af11580156143b0573d6000803e3d6000fd5b505050506040513d60208110156143c657600080fd5b50516143d18c613911565b600185015460408051938452602084019290925263ffffffff1682820152519081900360600190a25092979650505050505050565b60008282018381101561441857600080fd5b8091505b5092915050565b60008183101561443257600080fd5b50900390565b6008546040805160e260020a632ecd14d30281527f4e6f6e5374616e64617264546f6b656e526567697374727900000000000000006004820152905160009283928392600160a060020a039092169163bb34534c9160248082019260209290919082900301818787803b1580156144ae57600080fd5b505af11580156144c2573d6000803e3d6000fd5b505050506040513d60208110156144d857600080fd5b5051604080517faeea10bd000000000000000000000000000000000000000000000000000000008152600160a060020a038a8116600483015291519295509085169163aeea10bd916024808201926020929091908290030181600087803b15801561454257600080fd5b505af1158015614556573d6000803e3d6000fd5b505050506040513d602081101561456c57600080fd5b50511561471f5786600160a060020a03166370a08231866040518263ffffffff1660e060020a0281526004018082600160a060020a0316600160a060020a03168152602001915050602060405180830381600087803b1580156145ce57600080fd5b505af11580156145e2573d6000803e3d6000fd5b505050506040513d60208110156145f857600080fd5b5051604080517f23b872dd000000000000000000000000000000000000000000000000000000008152600160a060020a0389811660048301528881166024830152604482018890529151929450908916916323b872dd9160648082019260009290919082900301818387803b15801561467057600080fd5b505af1158015614684573d6000803e3d6000fd5b5050505086600160a060020a03166370a08231866040518263ffffffff1660e060020a0281526004018082600160a060020a0316600160a060020a03168152602001915050602060405180830381600087803b1580156146e357600080fd5b505af11580156146f7573d6000803e3d6000fd5b505050506040513d602081101561470d57600080fd5b5051905081811161471a57fe5b6120d3565b604080517f23b872dd000000000000000000000000000000000000000000000000000000008152600160a060020a0388811660048301528781166024830152604482018790529151918916916323b872dd916064808201926020929091908290030181600087803b15801561479357600080fd5b505af11580156147a7573d6000803e3d6000fd5b505050506040513d60208110156147bd57600080fd5b505115156120d357fe5b6008546040805160e260020a632ecd14d30281527f4e6f6e5374616e64617264546f6b656e526567697374727900000000000000006004820152905160009283928392600160a060020a039092169163bb34534c9160248082019260209290919082900301818787803b15801561483d57600080fd5b505af1158015614851573d6000803e3d6000fd5b505050506040513d602081101561486757600080fd5b5051604080517faeea10bd000000000000000000000000000000000000000000000000000000008152600160a060020a03898116600483015291519295509085169163aeea10bd916024808201926020929091908290030181600087803b1580156148d157600080fd5b505af11580156148e5573d6000803e3d6000fd5b505050506040513d60208110156148fb57600080fd5b505115614aa65785600160a060020a03166370a08231866040518263ffffffff1660e060020a0281526004018082600160a060020a0316600160a060020a03168152602001915050602060405180830381600087803b15801561495d57600080fd5b505af1158015614971573d6000803e3d6000fd5b505050506040513d602081101561498757600080fd5b5051604080517fa9059cbb000000000000000000000000000000000000000000000000000000008152600160a060020a0388811660048301526024820188905291519294509088169163a9059cbb9160448082019260009290919082900301818387803b1580156149f757600080fd5b505af1158015614a0b573d6000803e3d6000fd5b5050505085600160a060020a03166370a08231866040518263ffffffff1660e060020a0281526004018082600160a060020a0316600160a060020a03168152602001915050602060405180830381600087803b158015614a6a57600080fd5b505af1158015614a7e573d6000803e3d6000fd5b505050506040513d6020811015614a9457600080fd5b50519050818111614aa157fe5b613d8e565b85600160a060020a031663a9059cbb86866040518363ffffffff1660e060020a0281526004018083600160a060020a0316600160a060020a0316815260200182815260200192505050602060405180830381600087803b158015614b0957600080fd5b505af1158015614b1d573d6000803e3d6000fd5b505050506040513d6020811015614b3357600080fd5b50511515613d8e57fe5b7f80000000000000000000000000000000000000000000000000000000000000008110614b6657fe5b604080518481526020810184905280820183905290513391600160a060020a0387811692908916917f276856b36cbc45526a0ba64f44611557a2a8b68662c5388e9fe6d72e86e1c8cb919081900360600190a45050505050565b600080831515614bd3576000915061441c565b50828202828482811515614be357fe5b041461441857600080fd5b600080808311614bfd57600080fd5b8284811515614c0857fe5b04949350505050565b600054600160a060020a03163314614c2857600080fd5b82600160a060020a0381161515614c3e57600080fd5b82600160a060020a0381161515614c5457600080fd5b83600160a060020a038116301415614c6b57600080fd5b85600160a060020a031663a9059cbb86866040518363ffffffff1660e060020a0281526004018083600160a060020a0316600160a060020a0316815260200182815260200192505050600060405180830381600087803b158015614cce57600080fd5b505af1158015614ce2573d6000803e3d6000fd5b50505050505050505050560042616e636f72466f726d756c610000000000000000000000000000000000000042616e636f724e6574776f726b0000000000000000000000000000000000000042616e636f72436f6e76657274657255706772616465720000000000000000008a6a7f53b3c8fa1dc4b83e3f1be668c1b251ff8d44cdcb83eb3acec3fec6a788a165627a7a723058205a6871c4e68b8ab15f97b97e53a1a8c26fc5eeec00acc5af32cb311a96bc89b40029",
  "source": "pragma solidity ^0.4.24;\r\nimport './interfaces/IBancorConverter.sol';\r\nimport './interfaces/IBancorConverterUpgrader.sol';\r\nimport './interfaces/IBancorFormula.sol';\r\nimport '../IBancorNetwork.sol';\r\nimport '../ContractIds.sol';\r\nimport '../FeatureIds.sol';\r\nimport '../utility/Managed.sol';\r\nimport '../utility/Utils.sol';\r\nimport '../utility/SafeMath.sol';\r\nimport '../utility/interfaces/IContractRegistry.sol';\r\nimport '../utility/interfaces/IContractFeatures.sol';\r\nimport '../utility/interfaces/IAddressList.sol';\r\nimport '../token/SmartTokenController.sol';\r\nimport '../token/interfaces/ISmartToken.sol';\r\nimport '../token/interfaces/INonStandardERC20.sol';\r\nimport '../token/interfaces/IEtherToken.sol';\r\nimport '../bancorx/interfaces/IBancorX.sol';\r\n\r\n/**\r\n  * @dev Bancor Converter\r\n  * \r\n  * The Bancor converter allows for conversions between a Smart Token and other ERC20 tokens and between different ERC20 tokens and themselves. \r\n  * \r\n  * The ERC20 connector balance can be virtual, meaning that the calculations are based on the virtual balance instead of relying on the actual connector balance.\r\n  * \r\n  * This is a security mechanism that prevents the need to keep a very large (and valuable) balance in a single contract. \r\n  * \r\n  * The converter is upgradable (just like any SmartTokenController) and all upgrades are opt-in. \r\n  * \r\n  * WARNING: It is NOT RECOMMENDED to use the converter with Smart Tokens that have less than 8 decimal digits or with very small numbers because of precision loss \r\n  * \r\n  * Open issues:\r\n  * - Front-running attacks are currently mitigated by the following mechanisms:\r\n  *     - minimum return argument for each conversion provides a way to define a minimum/maximum price for the transaction\r\n  *     - gas price limit prevents users from having control over the order of execution\r\n  *     - gas price limit check can be skipped if the transaction comes from a trusted, whitelisted signer\r\n  * \r\n  * Other potential solutions might include a commit/reveal based schemes\r\n  * - Possibly add getters for the connector fields so that the client won't need to rely on the order in the struct\r\n*/\r\ncontract BancorConverter is IBancorConverter, SmartTokenController, Managed, ContractIds, FeatureIds {\r\n    using SafeMath for uint256;\r\n\r\n    \r\n    uint32 private constant MAX_WEIGHT = 1000000;\r\n    uint64 private constant MAX_CONVERSION_FEE = 1000000;\r\n\r\n    struct Connector {\r\n        uint256 virtualBalance;         // connector virtual balance\r\n        uint32 weight;                  // connector weight, represented in ppm, 1-1000000\r\n        bool isVirtualBalanceEnabled;   // true if virtual balance is enabled, false if not\r\n        bool isSaleEnabled;             // is sale of the connector token enabled, can be set by the owner\r\n        bool isSet;                     // used to tell if the mapping element is defined\r\n    }\r\n\r\n    /**\r\n      * @dev version number\r\n    */\r\n    uint16 public version = 16;\r\n    string public converterType = 'bancor';\r\n\r\n    bool public allowRegistryUpdate = true;             // allows the owner to prevent/allow the registry to be updated\r\n    IContractRegistry public prevRegistry;              // address of previous registry as security mechanism\r\n    IContractRegistry public registry;                  // contract registry contract\r\n    IWhitelist public conversionWhitelist;              // whitelist contract with list of addresses that are allowed to use the converter\r\n    IERC20Token[] public connectorTokens;               // ERC20 standard token addresses\r\n    mapping (address => Connector) public connectors;   // connector token addresses -> connector data\r\n    uint32 private totalConnectorWeight = 0;            // used to efficiently prevent increasing the total connector weight above 100%\r\n    uint32 public maxConversionFee = 0;                 // maximum conversion fee for the lifetime of the contract,\r\n                                                        // represented in ppm, 0...1000000 (0 = no fee, 100 = 0.01%, 1000000 = 100%)\r\n    uint32 public conversionFee = 0;                    // current conversion fee, represented in ppm, 0...maxConversionFee\r\n    bool public conversionsEnabled = true;              // true if token conversions is enabled, false if not\r\n\r\n    /**\r\n      * @dev triggered when a conversion between two tokens occurs\r\n      * \r\n      * @param _fromToken       ERC20 token converted from\r\n      * @param _toToken         ERC20 token converted to\r\n      * @param _trader          wallet that initiated the trade\r\n      * @param _amount          amount converted, in fromToken\r\n      * @param _return          amount returned, minus conversion fee\r\n      * @param _conversionFee   conversion fee\r\n    */\r\n    event Conversion(\r\n        address indexed _fromToken,\r\n        address indexed _toToken,\r\n        address indexed _trader,\r\n        uint256 _amount,\r\n        uint256 _return,\r\n        int256 _conversionFee\r\n    );\r\n\r\n    /**\r\n      * @dev triggered after a conversion with new price data\r\n      * \r\n      * @param  _connectorToken     connector token\r\n      * @param  _tokenSupply        smart token supply\r\n      * @param  _connectorBalance   connector balance\r\n      * @param  _connectorWeight    connector weight\r\n    */\r\n    event PriceDataUpdate(\r\n        address indexed _connectorToken,\r\n        uint256 _tokenSupply,\r\n        uint256 _connectorBalance,\r\n        uint32 _connectorWeight\r\n    );\r\n\r\n    /**\r\n      * @dev triggered when the conversion fee is updated\r\n      * \r\n      * @param  _prevFee    previous fee percentage, represented in ppm\r\n      * @param  _newFee     new fee percentage, represented in ppm\r\n    */\r\n    event ConversionFeeUpdate(uint32 _prevFee, uint32 _newFee);\r\n\r\n    /**\r\n      * @dev triggered when conversions are enabled/disabled\r\n      * \r\n      * @param  _conversionsEnabled true if conversions are enabled, false if not\r\n    */\r\n    event ConversionsEnable(bool _conversionsEnabled);\r\n\r\n    /**\r\n      * @dev initializes a new BancorConverter instance\r\n      * \r\n      * @param  _token              smart token governed by the converter\r\n      * @param  _registry           address of a contract registry contract\r\n      * @param  _maxConversionFee   maximum conversion fee, represented in ppm\r\n      * @param  _connectorToken     optional, initial connector, allows defining the first connector at deployment time\r\n      * @param  _connectorWeight    optional, weight for the initial connector\r\n    */\r\n    constructor(\r\n        ISmartToken _token,\r\n        IContractRegistry _registry,\r\n        uint32 _maxConversionFee,\r\n        IERC20Token _connectorToken,\r\n        uint32 _connectorWeight\r\n    )\r\n        public\r\n        SmartTokenController(_token)\r\n        validAddress(_registry)\r\n        validMaxConversionFee(_maxConversionFee)\r\n    {\r\n        registry = _registry;\r\n        prevRegistry = _registry;\r\n        IContractFeatures features = IContractFeatures(registry.addressOf(ContractIds.CONTRACT_FEATURES));\r\n\r\n        // initialize supported features\r\n        if (features != address(0))\r\n            features.enableFeatures(FeatureIds.CONVERTER_CONVERSION_WHITELIST, true);\r\n\r\n        maxConversionFee = _maxConversionFee;\r\n\r\n        if (_connectorToken != address(0))\r\n            addConnector(_connectorToken, _connectorWeight, false);\r\n    }\r\n\r\n    // validates a connector token address - verifies that the address belongs to one of the connector tokens\r\n    modifier validConnector(IERC20Token _address) {\r\n        require(connectors[_address].isSet);\r\n        _;\r\n    }\r\n\r\n    // validates a token address - verifies that the address belongs to one of the convertible tokens\r\n    modifier validToken(IERC20Token _address) {\r\n        require(_address == token || connectors[_address].isSet);\r\n        _;\r\n    }\r\n\r\n    // validates maximum conversion fee\r\n    modifier validMaxConversionFee(uint32 _conversionFee) {\r\n        require(_conversionFee >= 0 && _conversionFee <= MAX_CONVERSION_FEE);\r\n        _;\r\n    }\r\n\r\n    // validates conversion fee\r\n    modifier validConversionFee(uint32 _conversionFee) {\r\n        require(_conversionFee >= 0 && _conversionFee <= maxConversionFee);\r\n        _;\r\n    }\r\n\r\n    // validates connector weight range\r\n    modifier validConnectorWeight(uint32 _weight) {\r\n        require(_weight > 0 && _weight <= MAX_WEIGHT);\r\n        _;\r\n    }\r\n\r\n    // allows execution only when the total weight is 100%\r\n    modifier maxTotalWeightOnly() {\r\n        require(totalConnectorWeight == MAX_WEIGHT);\r\n        _;\r\n    }\r\n\r\n    // allows execution only when conversions aren't disabled\r\n    modifier conversionsAllowed {\r\n        assert(conversionsEnabled);\r\n        _;\r\n    }\r\n\r\n    // allows execution by the BancorNetwork contract only\r\n    modifier bancorNetworkOnly {\r\n        IBancorNetwork bancorNetwork = IBancorNetwork(registry.addressOf(ContractIds.BANCOR_NETWORK));\r\n        require(msg.sender == address(bancorNetwork));\r\n        _;\r\n    }\r\n\r\n    // allows execution by the converter upgrader contract only\r\n    modifier converterUpgraderOnly {\r\n        address converterUpgrader = registry.addressOf(ContractIds.BANCOR_CONVERTER_UPGRADER);\r\n        require(owner == converterUpgrader);\r\n        _;\r\n    }\r\n\r\n    /**\r\n      * @dev sets the contract registry to whichever address the current registry is pointing to\r\n     */\r\n    function updateRegistry() public {\r\n        // require that upgrading is allowed or that the caller is the owner\r\n        require(allowRegistryUpdate || msg.sender == owner);\r\n\r\n        // get the address of whichever registry the current registry is pointing to\r\n        address newRegistry = registry.addressOf(ContractIds.CONTRACT_REGISTRY);\r\n\r\n        // if the new registry hasn't changed or is the zero address, revert\r\n        require(newRegistry != address(registry) && newRegistry != address(0));\r\n\r\n        // set the previous registry as current registry and current registry as newRegistry\r\n        prevRegistry = registry;\r\n        registry = IContractRegistry(newRegistry);\r\n    }\r\n\r\n    /**\r\n      * @dev security mechanism allowing the converter owner to revert to the previous registry,\r\n      * to be used in emergency scenario\r\n    */\r\n    function restoreRegistry() public ownerOrManagerOnly {\r\n        // set the registry as previous registry\r\n        registry = prevRegistry;\r\n\r\n        // after a previous registry is restored, only the owner can allow future updates\r\n        allowRegistryUpdate = false;\r\n    }\r\n\r\n    /**\r\n      * @dev disables the registry update functionality\r\n      * this is a safety mechanism in case of a emergency\r\n      * can only be called by the manager or owner\r\n      * \r\n      * @param _disable    true to disable registry updates, false to re-enable them\r\n    */\r\n    function disableRegistryUpdate(bool _disable) public ownerOrManagerOnly {\r\n        allowRegistryUpdate = !_disable;\r\n    }\r\n\r\n    /**\r\n      * @dev returns the number of connector tokens defined\r\n      * \r\n      * @return number of connector tokens\r\n    */\r\n    function connectorTokenCount() public view returns (uint16) {\r\n        return uint16(connectorTokens.length);\r\n    }\r\n\r\n    /**\r\n      * @dev allows the owner to update & enable the conversion whitelist contract address\r\n      * when set, only addresses that are whitelisted are actually allowed to use the converter\r\n      * note that the whitelist check is actually done by the BancorNetwork contract\r\n      * \r\n      * @param _whitelist    address of a whitelist contract\r\n    */\r\n    function setConversionWhitelist(IWhitelist _whitelist)\r\n        public\r\n        ownerOnly\r\n        notThis(_whitelist)\r\n    {\r\n        conversionWhitelist = _whitelist;\r\n    }\r\n\r\n    /**\r\n      * @dev disables the entire conversion functionality\r\n      * this is a safety mechanism in case of a emergency\r\n      * can only be called by the manager\r\n      * \r\n      * @param _disable true to disable conversions, false to re-enable them\r\n    */\r\n    function disableConversions(bool _disable) public ownerOrManagerOnly {\r\n        if (conversionsEnabled == _disable) {\r\n            conversionsEnabled = !_disable;\r\n            emit ConversionsEnable(conversionsEnabled);\r\n        }\r\n    }\r\n\r\n    /**\r\n      * @dev allows transferring the token ownership\r\n      * the new owner needs to accept the transfer\r\n      * can only be called by the contract owner\r\n      * note that token ownership can only be transferred while the owner is the converter upgrader contract\r\n      * \r\n      * @param _newOwner    new token owner\r\n    */\r\n    function transferTokenOwnership(address _newOwner)\r\n        public\r\n        ownerOnly\r\n        converterUpgraderOnly\r\n    {\r\n        super.transferTokenOwnership(_newOwner);\r\n    }\r\n\r\n    /**\r\n      * @dev updates the current conversion fee\r\n      * can only be called by the manager\r\n      * \r\n      * @param _conversionFee new conversion fee, represented in ppm\r\n    */\r\n    function setConversionFee(uint32 _conversionFee)\r\n        public\r\n        ownerOrManagerOnly\r\n        validConversionFee(_conversionFee)\r\n    {\r\n        emit ConversionFeeUpdate(conversionFee, _conversionFee);\r\n        conversionFee = _conversionFee;\r\n    }\r\n\r\n    /**\r\n      * @dev given a return amount, returns the amount minus the conversion fee\r\n      * \r\n      * @param _amount      return amount\r\n      * @param _magnitude   1 for standard conversion, 2 for cross connector conversion\r\n      * \r\n      * @return return amount minus conversion fee\r\n    */\r\n    function getFinalAmount(uint256 _amount, uint8 _magnitude) public view returns (uint256) {\r\n        return _amount.mul((MAX_CONVERSION_FEE - conversionFee) ** _magnitude).div(MAX_CONVERSION_FEE ** _magnitude);\r\n    }\r\n\r\n    /**\r\n      * @dev withdraws tokens held by the converter and sends them to an account\r\n      * can only be called by the owner\r\n      * note that connector tokens can only be withdrawn by the owner while the converter is inactive\r\n      * unless the owner is the converter upgrader contract\r\n      * \r\n      * @param _token   ERC20 token contract address\r\n      * @param _to      account to receive the new amount\r\n      * @param _amount  amount to withdraw\r\n    */\r\n    function withdrawTokens(IERC20Token _token, address _to, uint256 _amount) public {\r\n        address converterUpgrader = registry.addressOf(ContractIds.BANCOR_CONVERTER_UPGRADER);\r\n\r\n        // if the token is not a connector token, allow withdrawal\r\n        // otherwise verify that the converter is inactive or that the owner is the upgrader contract\r\n        require(!connectors[_token].isSet || token.owner() != address(this) || owner == converterUpgrader);\r\n        super.withdrawTokens(_token, _to, _amount);\r\n    }\r\n\r\n    /**\r\n      * @dev upgrades the converter to the latest version\r\n      * can only be called by the owner\r\n      * note that the owner needs to call acceptOwnership/acceptManagement on the new converter after the upgrade\r\n    */\r\n    function upgrade() public ownerOnly {\r\n        IBancorConverterUpgrader converterUpgrader = IBancorConverterUpgrader(registry.addressOf(ContractIds.BANCOR_CONVERTER_UPGRADER));\r\n\r\n        transferOwnership(converterUpgrader);\r\n        converterUpgrader.upgrade(version);\r\n        acceptOwnership();\r\n    }\r\n\r\n    /**\r\n      * @dev defines a new connector for the token\r\n      * can only be called by the owner while the converter is inactive\r\n      * \r\n      * @param _token                  address of the connector token\r\n      * @param _weight                 constant connector weight, represented in ppm, 1-1000000\r\n      * @param _enableVirtualBalance   true to enable virtual balance for the connector, false to disable it\r\n    */\r\n    function addConnector(IERC20Token _token, uint32 _weight, bool _enableVirtualBalance)\r\n        public\r\n        ownerOnly\r\n        inactive\r\n        validAddress(_token)\r\n        notThis(_token)\r\n        validConnectorWeight(_weight)\r\n    {\r\n        require(_token != token && !connectors[_token].isSet && totalConnectorWeight + _weight <= MAX_WEIGHT); // validate input\r\n\r\n        connectors[_token].virtualBalance = 0;\r\n        connectors[_token].weight = _weight;\r\n        connectors[_token].isVirtualBalanceEnabled = _enableVirtualBalance;\r\n        connectors[_token].isSaleEnabled = true;\r\n        connectors[_token].isSet = true;\r\n        connectorTokens.push(_token);\r\n        totalConnectorWeight += _weight;\r\n    }\r\n\r\n    /**\r\n      * @dev updates one of the token connectors\r\n      * can only be called by the owner\r\n      * \r\n      * @param _connectorToken         address of the connector token\r\n      * @param _weight                 constant connector weight, represented in ppm, 1-1000000\r\n      * @param _enableVirtualBalance   true to enable virtual balance for the connector, false to disable it\r\n      * @param _virtualBalance         new connector's virtual balance\r\n    */\r\n    function updateConnector(IERC20Token _connectorToken, uint32 _weight, bool _enableVirtualBalance, uint256 _virtualBalance)\r\n        public\r\n        ownerOnly\r\n        validConnector(_connectorToken)\r\n        validConnectorWeight(_weight)\r\n    {\r\n        Connector storage connector = connectors[_connectorToken];\r\n        require(totalConnectorWeight - connector.weight + _weight <= MAX_WEIGHT); // validate input\r\n\r\n        totalConnectorWeight = totalConnectorWeight - connector.weight + _weight;\r\n        connector.weight = _weight;\r\n        connector.isVirtualBalanceEnabled = _enableVirtualBalance;\r\n        connector.virtualBalance = _virtualBalance;\r\n    }\r\n\r\n    /**\r\n      * @dev disables converting from the given connector token in case the connector token got compromised\r\n      * can only be called by the owner\r\n      * note that converting to the token is still enabled regardless of this flag and it cannot be disabled by the owner\r\n      * \r\n      * @param _connectorToken  connector token contract address\r\n      * @param _disable         true to disable the token, false to re-enable it\r\n    */\r\n    function disableConnectorSale(IERC20Token _connectorToken, bool _disable)\r\n        public\r\n        ownerOnly\r\n        validConnector(_connectorToken)\r\n    {\r\n        connectors[_connectorToken].isSaleEnabled = !_disable;\r\n    }\r\n\r\n    /**\r\n      * @dev returns the connector's virtual balance if one is defined, otherwise returns the actual balance\r\n      * \r\n      * @param _connectorToken  connector token contract address\r\n      * \r\n      * @return connector balance\r\n    */\r\n    function getConnectorBalance(IERC20Token _connectorToken)\r\n        public\r\n        view\r\n        validConnector(_connectorToken)\r\n        returns (uint256)\r\n    {\r\n        Connector storage connector = connectors[_connectorToken];\r\n        return connector.isVirtualBalanceEnabled ? connector.virtualBalance : _connectorToken.balanceOf(this);\r\n    }\r\n\r\n    /**\r\n      * @dev returns the expected return for converting a specific amount of _fromToken to _toToken\r\n      * \r\n      * @param _fromToken  ERC20 token to convert from\r\n      * @param _toToken    ERC20 token to convert to\r\n      * @param _amount     amount to convert, in fromToken\r\n      * \r\n      * @return expected conversion return amount and conversion fee\r\n    */\r\n    function getReturn(IERC20Token _fromToken, IERC20Token _toToken, uint256 _amount) public view returns (uint256, uint256) {\r\n        require(_fromToken != _toToken); // validate input\r\n\r\n        // conversion between the token and one of its connectors\r\n        if (_toToken == token)\r\n            return getPurchaseReturn(_fromToken, _amount);\r\n        else if (_fromToken == token)\r\n            return getSaleReturn(_toToken, _amount);\r\n\r\n        // conversion between 2 connectors\r\n        return getCrossConnectorReturn(_fromToken, _toToken, _amount);\r\n    }\r\n\r\n    /**\r\n      * @dev returns the expected return for buying the token for a connector token\r\n      * \r\n      * @param _connectorToken  connector token contract address\r\n      * @param _depositAmount   amount to deposit (in the connector token)\r\n      * \r\n      * @return expected purchase return amount and conversion fee\r\n    */\r\n    function getPurchaseReturn(IERC20Token _connectorToken, uint256 _depositAmount)\r\n        public\r\n        view\r\n        active\r\n        validConnector(_connectorToken)\r\n        returns (uint256, uint256)\r\n    {\r\n        Connector storage connector = connectors[_connectorToken];\r\n        require(connector.isSaleEnabled); // validate input\r\n\r\n        uint256 tokenSupply = token.totalSupply();\r\n        uint256 connectorBalance = getConnectorBalance(_connectorToken);\r\n        IBancorFormula formula = IBancorFormula(registry.addressOf(ContractIds.BANCOR_FORMULA));\r\n        uint256 amount = formula.calculatePurchaseReturn(tokenSupply, connectorBalance, connector.weight, _depositAmount);\r\n        uint256 finalAmount = getFinalAmount(amount, 1);\r\n\r\n        // return the amount minus the conversion fee and the conversion fee\r\n        return (finalAmount, amount - finalAmount);\r\n    }\r\n\r\n    /**\r\n      * @dev returns the expected return for selling the token for one of its connector tokens\r\n      * \r\n      * @param _connectorToken  connector token contract address\r\n      * @param _sellAmount      amount to sell (in the smart token)\r\n      * \r\n      * @return expected sale return amount and conversion fee\r\n    */\r\n    function getSaleReturn(IERC20Token _connectorToken, uint256 _sellAmount)\r\n        public\r\n        view\r\n        active\r\n        validConnector(_connectorToken)\r\n        returns (uint256, uint256)\r\n    {\r\n        Connector storage connector = connectors[_connectorToken];\r\n        uint256 tokenSupply = token.totalSupply();\r\n        uint256 connectorBalance = getConnectorBalance(_connectorToken);\r\n        IBancorFormula formula = IBancorFormula(registry.addressOf(ContractIds.BANCOR_FORMULA));\r\n        uint256 amount = formula.calculateSaleReturn(tokenSupply, connectorBalance, connector.weight, _sellAmount);\r\n        uint256 finalAmount = getFinalAmount(amount, 1);\r\n\r\n        // return the amount minus the conversion fee and the conversion fee\r\n        return (finalAmount, amount - finalAmount);\r\n    }\r\n\r\n    /**\r\n      * @dev returns the expected return for selling one of the connector tokens for another connector token\r\n      * \r\n      * @param _fromConnectorToken  contract address of the connector token to convert from\r\n      * @param _toConnectorToken    contract address of the connector token to convert to\r\n      * @param _sellAmount          amount to sell (in the from connector token)\r\n      * \r\n      * @return expected sale return amount and conversion fee (in the to connector token)\r\n    */\r\n    function getCrossConnectorReturn(IERC20Token _fromConnectorToken, IERC20Token _toConnectorToken, uint256 _sellAmount)\r\n        public\r\n        view\r\n        active\r\n        validConnector(_fromConnectorToken)\r\n        validConnector(_toConnectorToken)\r\n        returns (uint256, uint256)\r\n    {\r\n        Connector storage fromConnector = connectors[_fromConnectorToken];\r\n        Connector storage toConnector = connectors[_toConnectorToken];\r\n        require(fromConnector.isSaleEnabled); // validate input\r\n\r\n        IBancorFormula formula = IBancorFormula(registry.addressOf(ContractIds.BANCOR_FORMULA));\r\n        uint256 amount = formula.calculateCrossConnectorReturn(\r\n            getConnectorBalance(_fromConnectorToken), \r\n            fromConnector.weight, \r\n            getConnectorBalance(_toConnectorToken), \r\n            toConnector.weight, \r\n            _sellAmount);\r\n        uint256 finalAmount = getFinalAmount(amount, 2);\r\n\r\n        // return the amount minus the conversion fee and the conversion fee\r\n        // the fee is higher (magnitude = 2) since cross connector conversion equals 2 conversions (from / to the smart token)\r\n        return (finalAmount, amount - finalAmount);\r\n    }\r\n\r\n    /**\r\n      * @dev converts a specific amount of _fromToken to _toToken\r\n      * can only be called by the bancor network contract\r\n      * \r\n      * @param _fromToken  ERC20 token to convert from\r\n      * @param _toToken    ERC20 token to convert to\r\n      * @param _amount     amount to convert, in fromToken\r\n      * @param _minReturn  if the conversion results in an amount smaller than the minimum return - it is cancelled, must be nonzero\r\n      * \r\n      * @return conversion return amount\r\n    */\r\n    function convertInternal(IERC20Token _fromToken, IERC20Token _toToken, uint256 _amount, uint256 _minReturn)\r\n        public\r\n        bancorNetworkOnly\r\n        conversionsAllowed\r\n        greaterThanZero(_minReturn)\r\n        returns (uint256)\r\n    {\r\n        require(_fromToken != _toToken); // validate input\r\n\r\n        // conversion between the token and one of its connectors\r\n        if (_toToken == token)\r\n            return buy(_fromToken, _amount, _minReturn);\r\n        else if (_fromToken == token)\r\n            return sell(_toToken, _amount, _minReturn);\r\n\r\n        uint256 amount;\r\n        uint256 feeAmount;\r\n\r\n        // conversion between 2 connectors\r\n        (amount, feeAmount) = getCrossConnectorReturn(_fromToken, _toToken, _amount);\r\n        // ensure the trade gives something in return and meets the minimum requested amount\r\n        require(amount != 0 && amount >= _minReturn);\r\n\r\n        // update the source token virtual balance if relevant\r\n        Connector storage fromConnector = connectors[_fromToken];\r\n        if (fromConnector.isVirtualBalanceEnabled)\r\n            fromConnector.virtualBalance = fromConnector.virtualBalance.add(_amount);\r\n\r\n        // update the target token virtual balance if relevant\r\n        Connector storage toConnector = connectors[_toToken];\r\n        if (toConnector.isVirtualBalanceEnabled)\r\n            toConnector.virtualBalance = toConnector.virtualBalance.sub(amount);\r\n\r\n        // ensure that the trade won't deplete the connector balance\r\n        uint256 toConnectorBalance = getConnectorBalance(_toToken);\r\n        assert(amount < toConnectorBalance);\r\n\r\n        // transfer funds from the caller in the from connector token\r\n        ensureTransferFrom(_fromToken, msg.sender, this, _amount);\r\n        // transfer funds to the caller in the to connector token\r\n        // the transfer might fail if the actual connector balance is smaller than the virtual balance\r\n        ensureTransfer(_toToken, msg.sender, amount);\r\n\r\n        // dispatch the conversion event\r\n        // the fee is higher (magnitude = 2) since cross connector conversion equals 2 conversions (from / to the smart token)\r\n        dispatchConversionEvent(_fromToken, _toToken, _amount, amount, feeAmount);\r\n\r\n        // dispatch price data updates for the smart token / both connectors\r\n        emit PriceDataUpdate(_fromToken, token.totalSupply(), getConnectorBalance(_fromToken), fromConnector.weight);\r\n        emit PriceDataUpdate(_toToken, token.totalSupply(), getConnectorBalance(_toToken), toConnector.weight);\r\n        return amount;\r\n    }\r\n\r\n    /**\r\n      * @dev buys the token by depositing one of its connector tokens\r\n      * \r\n      * @param _connectorToken  connector token contract address\r\n      * @param _depositAmount   amount to deposit (in the connector token)\r\n      * @param _minReturn       if the conversion results in an amount smaller than the minimum return - it is cancelled, must be nonzero\r\n      * \r\n      * @return buy return amount\r\n    */\r\n    function buy(IERC20Token _connectorToken, uint256 _depositAmount, uint256 _minReturn) internal returns (uint256) {\r\n        uint256 amount;\r\n        uint256 feeAmount;\r\n        (amount, feeAmount) = getPurchaseReturn(_connectorToken, _depositAmount);\r\n        // ensure the trade gives something in return and meets the minimum requested amount\r\n        require(amount != 0 && amount >= _minReturn);\r\n\r\n        // update virtual balance if relevant\r\n        Connector storage connector = connectors[_connectorToken];\r\n        if (connector.isVirtualBalanceEnabled)\r\n            connector.virtualBalance = connector.virtualBalance.add(_depositAmount);\r\n\r\n        // transfer funds from the caller in the connector token\r\n        ensureTransferFrom(_connectorToken, msg.sender, this, _depositAmount);\r\n        // issue new funds to the caller in the smart token\r\n        token.issue(msg.sender, amount);\r\n\r\n        // dispatch the conversion event\r\n        dispatchConversionEvent(_connectorToken, token, _depositAmount, amount, feeAmount);\r\n\r\n        // dispatch price data update for the smart token/connector\r\n        emit PriceDataUpdate(_connectorToken, token.totalSupply(), getConnectorBalance(_connectorToken), connector.weight);\r\n        return amount;\r\n    }\r\n\r\n    /**\r\n      * @dev sells the token by withdrawing from one of its connector tokens\r\n      * \r\n      * @param _connectorToken  connector token contract address\r\n      * @param _sellAmount      amount to sell (in the smart token)\r\n      * @param _minReturn       if the conversion results in an amount smaller the minimum return - it is cancelled, must be nonzero\r\n      * \r\n      * @return sell return amount\r\n    */\r\n    function sell(IERC20Token _connectorToken, uint256 _sellAmount, uint256 _minReturn) internal returns (uint256) {\r\n        require(_sellAmount <= token.balanceOf(msg.sender)); // validate input\r\n        uint256 amount;\r\n        uint256 feeAmount;\r\n        (amount, feeAmount) = getSaleReturn(_connectorToken, _sellAmount);\r\n        // ensure the trade gives something in return and meets the minimum requested amount\r\n        require(amount != 0 && amount >= _minReturn);\r\n\r\n        // ensure that the trade will only deplete the connector balance if the total supply is depleted as well\r\n        uint256 tokenSupply = token.totalSupply();\r\n        uint256 connectorBalance = getConnectorBalance(_connectorToken);\r\n        assert(amount < connectorBalance || (amount == connectorBalance && _sellAmount == tokenSupply));\r\n\r\n        // update virtual balance if relevant\r\n        Connector storage connector = connectors[_connectorToken];\r\n        if (connector.isVirtualBalanceEnabled)\r\n            connector.virtualBalance = connector.virtualBalance.sub(amount);\r\n\r\n        // destroy _sellAmount from the caller's balance in the smart token\r\n        token.destroy(msg.sender, _sellAmount);\r\n        // transfer funds to the caller in the connector token\r\n        // the transfer might fail if the actual connector balance is smaller than the virtual balance\r\n        ensureTransfer(_connectorToken, msg.sender, amount);\r\n\r\n        // dispatch the conversion event\r\n        dispatchConversionEvent(token, _connectorToken, _sellAmount, amount, feeAmount);\r\n\r\n        // dispatch price data update for the smart token/connector\r\n        emit PriceDataUpdate(_connectorToken, token.totalSupply(), getConnectorBalance(_connectorToken), connector.weight);\r\n        return amount;\r\n    }\r\n\r\n    /**\r\n      * @dev converts a specific amount of _fromToken to _toToken\r\n      * \r\n      * @param _fromToken           ERC20 token to convert from\r\n      * @param _toToken             ERC20 token to convert to\r\n      * @param _amount              amount to convert, in fromToken\r\n      * @param _minReturn           if the conversion results in an amount smaller than the minimum return - it is cancelled, must be nonzero\r\n      * @param _affiliateAccount    affiliate account\r\n      * @param _affiliateFee        affiliate fee in PPM\r\n      * \r\n      * @return conversion return amount\r\n    */\r\n    function convert2(IERC20Token _fromToken, IERC20Token _toToken, uint256 _amount, uint256 _minReturn, address _affiliateAccount, uint256 _affiliateFee) public returns (uint256) {\r\n        IERC20Token[] memory path = new IERC20Token[](3);\r\n        (path[0], path[1], path[2]) = (_fromToken, token, _toToken);\r\n        return quickConvert2(path, _amount, _minReturn, _affiliateAccount, _affiliateFee);\r\n    }\r\n\r\n    /**\r\n      * @dev converts the token to any other token in the bancor network by following a predefined conversion path\r\n      * note that when converting from an ERC20 token (as opposed to a smart token), allowance must be set beforehand\r\n      * \r\n      * @param _path                conversion path, see conversion path format in the BancorNetwork contract\r\n      * @param _amount              amount to convert from (in the initial source token)\r\n      * @param _minReturn           if the conversion results in an amount smaller than the minimum return - it is cancelled, must be nonzero\r\n      * @param _affiliateAccount    affiliate account\r\n      * @param _affiliateFee        affiliate fee in PPM\r\n      * \r\n      * @return tokens issued in return\r\n    */\r\n    function quickConvert2(IERC20Token[] _path, uint256 _amount, uint256 _minReturn, address _affiliateAccount, uint256 _affiliateFee)\r\n        public\r\n        payable\r\n        returns (uint256)\r\n    {\r\n        return quickConvertPrioritized2(_path, _amount, _minReturn, getSignature(0x0, 0x0, 0x0, 0x0, 0x0), _affiliateAccount, _affiliateFee);\r\n    }\r\n\r\n    /**\r\n      * @dev converts the token to any other token in the bancor network by following a predefined conversion path\r\n      * note that when converting from an ERC20 token (as opposed to a smart token), allowance must be set beforehand\r\n      * \r\n      * @param _path                conversion path, see conversion path format in the BancorNetwork contract\r\n      * @param _amount              amount to convert from (in the initial source token)\r\n      * @param _minReturn           if the conversion results in an amount smaller than the minimum return - it is cancelled, must be nonzero\r\n      * @param _signature           an array of the following elements:\r\n      *                             [0] uint256     custom value that was signed for prioritized conversion; must be equal to _amount\r\n      *                             [1] uint256     if the current block exceeded the given parameter - it is cancelled\r\n      *                             [2] uint8       (signature[128:130]) associated with the signer address and helps to validate if the signature is legit\r\n      *                             [3] bytes32     (signature[0:64]) associated with the signer address and helps to validate if the signature is legit\r\n      *                             [4] bytes32     (signature[64:128]) associated with the signer address and helps to validate if the signature is legit\r\n      *                             if the array is empty (length == 0), then the gas-price limit is verified instead of the signature\r\n      * @param _affiliateAccount    affiliate account\r\n      * @param _affiliateFee        affiliate fee in PPM\r\n      * \r\n      * @return tokens issued in return\r\n    */\r\n    function quickConvertPrioritized2(IERC20Token[] _path, uint256 _amount, uint256 _minReturn, uint256[] memory _signature, address _affiliateAccount, uint256 _affiliateFee)\r\n        public\r\n        payable\r\n        returns (uint256)\r\n    {\r\n        require(_signature.length == 0 || _signature[0] == _amount);\r\n\r\n        IBancorNetwork bancorNetwork = IBancorNetwork(registry.addressOf(ContractIds.BANCOR_NETWORK));\r\n\r\n        // we need to transfer the source tokens from the caller to the BancorNetwork contract,\r\n        // so it can execute the conversion on behalf of the caller\r\n        if (msg.value == 0) {\r\n            // not ETH, send the source tokens to the BancorNetwork contract\r\n            // if the token is the smart token, no allowance is required - destroy the tokens\r\n            // from the caller and issue them to the BancorNetwork contract\r\n            if (_path[0] == token) {\r\n                token.destroy(msg.sender, _amount); // destroy _amount tokens from the caller's balance in the smart token\r\n                token.issue(bancorNetwork, _amount); // issue _amount new tokens to the BancorNetwork contract\r\n            } else {\r\n                // otherwise, we assume we already have allowance, transfer the tokens directly to the BancorNetwork contract\r\n                ensureTransferFrom(_path[0], msg.sender, bancorNetwork, _amount);\r\n            }\r\n        }\r\n\r\n        // execute the conversion and pass on the ETH with the call\r\n        return bancorNetwork.convertForPrioritized4.value(msg.value)(_path, _amount, _minReturn, msg.sender, _signature, _affiliateAccount, _affiliateFee);\r\n    }\r\n\r\n    /**\r\n      * @dev allows a user to convert BNT that was sent from another blockchain into any other\r\n      * token on the BancorNetwork without specifying the amount of BNT to be converted, but\r\n      * rather by providing the xTransferId which allows us to get the amount from BancorX.\r\n      * \r\n      * @param _path            conversion path, see conversion path format in the BancorNetwork contract\r\n      * @param _minReturn       if the conversion results in an amount smaller than the minimum return - it is cancelled, must be nonzero\r\n      * @param _conversionId    pre-determined unique (if non zero) id which refers to this transaction \r\n      * @param _signature       an array of the following elements:\r\n      *                         [0] uint256     custom value that was signed for prioritized conversion; must be equal to _conversionId\r\n      *                         [1] uint256     if the current block exceeded the given parameter - it is cancelled\r\n      *                         [2] uint8       (signature[128:130]) associated with the signer address and helps to validate if the signature is legit\r\n      *                         [3] bytes32     (signature[0:64]) associated with the signer address and helps to validate if the signature is legit\r\n      *                         [4] bytes32     (signature[64:128]) associated with the signer address and helps to validate if the signature is legit\r\n      *                         if the array is empty (length == 0), then the gas-price limit is verified instead of the signature\r\n      * \r\n      * @return tokens issued in return\r\n    */\r\n    function completeXConversion2(\r\n        IERC20Token[] _path,\r\n        uint256 _minReturn,\r\n        uint256 _conversionId,\r\n        uint256[] memory _signature\r\n    )\r\n        public\r\n        returns (uint256)\r\n    {\r\n        // verify that the custom value (if valid) is equal to _conversionId\r\n        require(_signature.length == 0 || _signature[0] == _conversionId);\r\n\r\n        IBancorX bancorX = IBancorX(registry.addressOf(ContractIds.BANCOR_X));\r\n        IBancorNetwork bancorNetwork = IBancorNetwork(registry.addressOf(ContractIds.BANCOR_NETWORK));\r\n\r\n        // verify that the first token in the path is BNT\r\n        require(_path[0] == registry.addressOf(ContractIds.BNT_TOKEN));\r\n\r\n        // get conversion amount from BancorX contract\r\n        uint256 amount = bancorX.getXTransferAmount(_conversionId, msg.sender);\r\n\r\n        // send BNT from msg.sender to the BancorNetwork contract\r\n        token.destroy(msg.sender, amount);\r\n        token.issue(bancorNetwork, amount);\r\n\r\n        return bancorNetwork.convertForPrioritized4(_path, amount, _minReturn, msg.sender, _signature, address(0), 0);\r\n    }\r\n\r\n    /**\r\n      * @dev ensures transfer of tokens, taking into account that some ERC-20 implementations don't return\r\n      * true on success but revert on failure instead\r\n      * \r\n      * @param _token     the token to transfer\r\n      * @param _to        the address to transfer the tokens to\r\n      * @param _amount    the amount to transfer\r\n    */\r\n    function ensureTransfer(IERC20Token _token, address _to, uint256 _amount) private {\r\n        IAddressList addressList = IAddressList(registry.addressOf(ContractIds.NON_STANDARD_TOKEN_REGISTRY));\r\n\r\n        if (addressList.listedAddresses(_token)) {\r\n            uint256 prevBalance = _token.balanceOf(_to);\r\n            // we have to cast the token contract in an interface which has no return value\r\n            INonStandardERC20(_token).transfer(_to, _amount);\r\n            uint256 postBalance = _token.balanceOf(_to);\r\n            assert(postBalance > prevBalance);\r\n        } else {\r\n            // if the token isn't whitelisted, we assert on transfer\r\n            assert(_token.transfer(_to, _amount));\r\n        }\r\n    }\r\n\r\n    /**\r\n      * @dev ensures transfer of tokens, taking into account that some ERC-20 implementations don't return\r\n      * true on success but revert on failure instead\r\n      * \r\n      * @param _token     the token to transfer\r\n      * @param _from      the address to transfer the tokens from\r\n      * @param _to        the address to transfer the tokens to\r\n      * @param _amount    the amount to transfer\r\n    */\r\n    function ensureTransferFrom(IERC20Token _token, address _from, address _to, uint256 _amount) private {\r\n        IAddressList addressList = IAddressList(registry.addressOf(ContractIds.NON_STANDARD_TOKEN_REGISTRY));\r\n\r\n        if (addressList.listedAddresses(_token)) {\r\n            uint256 prevBalance = _token.balanceOf(_to);\r\n            // we have to cast the token contract in an interface which has no return value\r\n            INonStandardERC20(_token).transferFrom(_from, _to, _amount);\r\n            uint256 postBalance = _token.balanceOf(_to);\r\n            assert(postBalance > prevBalance);\r\n        } else {\r\n            // if the token is standard, we assert on transfer\r\n            assert(_token.transferFrom(_from, _to, _amount));\r\n        }\r\n    }\r\n\r\n    /**\r\n      * @dev buys the token with all connector tokens using the same percentage\r\n      * i.e. if the caller increases the supply by 10%, it will cost an amount equal to\r\n      * 10% of each connector token balance\r\n      * can only be called if the max total weight is exactly 100% and while conversions are enabled\r\n      * \r\n      * @param _amount  amount to increase the supply by (in the smart token)\r\n    */\r\n    function fund(uint256 _amount)\r\n        public\r\n        maxTotalWeightOnly\r\n        conversionsAllowed\r\n    {\r\n        uint256 supply = token.totalSupply();\r\n\r\n        // iterate through the connector tokens and transfer a percentage equal to the ratio between _amount\r\n        // and the total supply in each connector from the caller to the converter\r\n        IERC20Token connectorToken;\r\n        uint256 connectorBalance;\r\n        uint256 connectorAmount;\r\n        for (uint16 i = 0; i < connectorTokens.length; i++) {\r\n            connectorToken = connectorTokens[i];\r\n            connectorBalance = getConnectorBalance(connectorToken);\r\n            connectorAmount = _amount.mul(connectorBalance).sub(1).div(supply).add(1);\r\n\r\n            // update virtual balance if relevant\r\n            Connector storage connector = connectors[connectorToken];\r\n            if (connector.isVirtualBalanceEnabled)\r\n                connector.virtualBalance = connector.virtualBalance.add(connectorAmount);\r\n\r\n            // transfer funds from the caller in the connector token\r\n            ensureTransferFrom(connectorToken, msg.sender, this, connectorAmount);\r\n\r\n            // dispatch price data update for the smart token/connector\r\n            emit PriceDataUpdate(connectorToken, supply + _amount, connectorBalance + connectorAmount, connector.weight);\r\n        }\r\n\r\n        // issue new funds to the caller in the smart token\r\n        token.issue(msg.sender, _amount);\r\n    }\r\n\r\n    /**\r\n      * @dev sells the token for all connector tokens using the same percentage\r\n      * i.e. if the holder sells 10% of the supply, they will receive 10% of each\r\n      * connector token balance in return\r\n      * can only be called if the max total weight is exactly 100%\r\n      * note that the function can also be called if conversions are disabled\r\n      * \r\n      * @param _amount  amount to liquidate (in the smart token)\r\n    */\r\n    function liquidate(uint256 _amount) public maxTotalWeightOnly {\r\n        uint256 supply = token.totalSupply();\r\n\r\n        // destroy _amount from the caller's balance in the smart token\r\n        token.destroy(msg.sender, _amount);\r\n\r\n        // iterate through the connector tokens and send a percentage equal to the ratio between _amount\r\n        // and the total supply from each connector balance to the caller\r\n        IERC20Token connectorToken;\r\n        uint256 connectorBalance;\r\n        uint256 connectorAmount;\r\n        for (uint16 i = 0; i < connectorTokens.length; i++) {\r\n            connectorToken = connectorTokens[i];\r\n            connectorBalance = getConnectorBalance(connectorToken);\r\n            connectorAmount = _amount.mul(connectorBalance).div(supply);\r\n\r\n            // update virtual balance if relevant\r\n            Connector storage connector = connectors[connectorToken];\r\n            if (connector.isVirtualBalanceEnabled)\r\n                connector.virtualBalance = connector.virtualBalance.sub(connectorAmount);\r\n\r\n            // transfer funds to the caller in the connector token\r\n            // the transfer might fail if the actual connector balance is smaller than the virtual balance\r\n            ensureTransfer(connectorToken, msg.sender, connectorAmount);\r\n\r\n            // dispatch price data update for the smart token/connector\r\n            emit PriceDataUpdate(connectorToken, supply - _amount, connectorBalance - connectorAmount, connector.weight);\r\n        }\r\n    }\r\n\r\n    /**\r\n      * @dev deprecated, backward compatibility\r\n    */\r\n    function change(IERC20Token _fromToken, IERC20Token _toToken, uint256 _amount, uint256 _minReturn) public returns (uint256) {\r\n        return convertInternal(_fromToken, _toToken, _amount, _minReturn);\r\n    }\r\n\r\n    /**\r\n      * @dev helper, dispatches the Conversion event\r\n      * \r\n      * @param _fromToken       ERC20 token to convert from\r\n      * @param _toToken         ERC20 token to convert to\r\n      * @param _amount          amount purchased/sold (in the source token)\r\n      * @param _returnAmount    amount returned (in the target token)\r\n    */\r\n    function dispatchConversionEvent(IERC20Token _fromToken, IERC20Token _toToken, uint256 _amount, uint256 _returnAmount, uint256 _feeAmount) private {\r\n        // fee amount is converted to 255 bits -\r\n        // negative amount means the fee is taken from the source token, positive amount means its taken from the target token\r\n        // currently the fee is always taken from the target token\r\n        // since we convert it to a signed number, we first ensure that it's capped at 255 bits to prevent overflow\r\n        assert(_feeAmount < 2 ** 255);\r\n        emit Conversion(_fromToken, _toToken, msg.sender, _amount, _returnAmount, int256(_feeAmount));\r\n    }\r\n\r\n    function getSignature(\r\n        uint256 _customVal,\r\n        uint256 _block,\r\n        uint8 _v,\r\n        bytes32 _r,\r\n        bytes32 _s\r\n    ) private pure returns (uint256[] memory) {\r\n        if (_v == 0x0 && _r == 0x0 && _s == 0x0)\r\n            return new uint256[](0);\r\n        uint256[] memory signature = new uint256[](5);\r\n        signature[0] = _customVal;\r\n        signature[1] = _block;\r\n        signature[2] = uint256(_v);\r\n        signature[3] = uint256(_r);\r\n        signature[4] = uint256(_s);\r\n        return signature;\r\n    }\r\n\r\n    /**\r\n      * @dev deprecated, backward compatibility\r\n    */\r\n    function convert(IERC20Token _fromToken, IERC20Token _toToken, uint256 _amount, uint256 _minReturn) public returns (uint256) {\r\n        return convert2(_fromToken, _toToken, _amount, _minReturn, address(0), 0);\r\n    }\r\n\r\n    /**\r\n      * @dev deprecated, backward compatibility\r\n    */\r\n    function quickConvert(IERC20Token[] _path, uint256 _amount, uint256 _minReturn) public payable returns (uint256) {\r\n        return quickConvert2(_path, _amount, _minReturn, address(0), 0);\r\n    }\r\n\r\n    /**\r\n      * @dev deprecated, backward compatibility\r\n    */\r\n    function quickConvertPrioritized(IERC20Token[] _path, uint256 _amount, uint256 _minReturn, uint256 _block, uint8 _v, bytes32 _r, bytes32 _s) public payable returns (uint256) {\r\n        return quickConvertPrioritized2(_path, _amount, _minReturn, getSignature(_amount, _block, _v, _r, _s), address(0), 0);\r\n    }\r\n\r\n    /**\r\n      * @dev deprecated, backward compatibility\r\n    */\r\n    function completeXConversion(IERC20Token[] _path, uint256 _minReturn, uint256 _conversionId, uint256 _block, uint8 _v, bytes32 _r, bytes32 _s) public returns (uint256) {\r\n        return completeXConversion2(_path, _minReturn, _conversionId, getSignature(_conversionId, _block, _v, _r, _s));\r\n    }\r\n}\r\n",
  "sourcePath": "/Users/cryptotom/code/gitcoin/communiteths/contracts/bancor/converter/BancorConverter.sol",
  "compiler": {
    "name": "solc",
    "version": "0.4.26+commit.4563c3fc.Emscripten.clang"
  },
  "schemaVersion": "3.0.11",
  "updatedAt": "2019-10-30T08:54:36.871Z",
  "devdoc": {
    "methods": {
      "acceptManagement()": {
        "details": "used by a new manager to accept a management transfer\r"
      },
      "acceptOwnership()": {
        "details": "used by a new owner to accept an ownership transfer\r"
      },
      "acceptTokenOwnership()": {
        "details": "used by a new owner to accept a token ownership transfer\r can only be called by the contract owner\r"
      },
      "addConnector(address,uint32,bool)": {
        "details": "defines a new connector for the token\r can only be called by the owner while the converter is inactive\r \r",
        "params": {
          "_enableVirtualBalance": "true to enable virtual balance for the connector, false to disable it\r",
          "_token": "address of the connector token\r",
          "_weight": "constant connector weight, represented in ppm, 1-1000000\r"
        }
      },
      "change(address,address,uint256,uint256)": {
        "details": "deprecated, backward compatibility\r"
      },
      "claimTokens(address,uint256)": {
        "details": "allows the associated BancorX contract to claim tokens from any address (so that users\r dont have to first give allowance when calling BancorX)\r \r",
        "params": {
          "_amount": "the amount of tokens to claim\r",
          "_from": "address to claim the tokens from\r"
        }
      },
      "completeXConversion(address[],uint256,uint256,uint256,uint8,bytes32,bytes32)": {
        "details": "deprecated, backward compatibility\r"
      },
      "completeXConversion2(address[],uint256,uint256,uint256[])": {
        "details": "allows a user to convert BNT that was sent from another blockchain into any other\r token on the BancorNetwork without specifying the amount of BNT to be converted, but\r rather by providing the xTransferId which allows us to get the amount from BancorX.\r \r",
        "params": {
          "_conversionId": "pre-determined unique (if non zero) id which refers to this transaction \r",
          "_minReturn": "if the conversion results in an amount smaller than the minimum return - it is cancelled, must be nonzero\r",
          "_path": "conversion path, see conversion path format in the BancorNetwork contract\r",
          "_signature": "an array of the following elements:\r                        [0] uint256     custom value that was signed for prioritized conversion; must be equal to _conversionId\r                        [1] uint256     if the current block exceeded the given parameter - it is cancelled\r                        [2] uint8       (signature[128:130]) associated with the signer address and helps to validate if the signature is legit\r                        [3] bytes32     (signature[0:64]) associated with the signer address and helps to validate if the signature is legit\r                        [4] bytes32     (signature[64:128]) associated with the signer address and helps to validate if the signature is legit\r                        if the array is empty (length == 0), then the gas-price limit is verified instead of the signature\r \r"
        },
        "return": "tokens issued in return\r"
      },
      "connectorTokenCount()": {
        "details": "returns the number of connector tokens defined\r \r",
        "return": "number of connector tokens\r"
      },
      "convert(address,address,uint256,uint256)": {
        "details": "deprecated, backward compatibility\r"
      },
      "convert2(address,address,uint256,uint256,address,uint256)": {
        "details": "converts a specific amount of _fromToken to _toToken\r \r",
        "params": {
          "_affiliateAccount": "affiliate account\r",
          "_affiliateFee": "affiliate fee in PPM\r \r",
          "_amount": "amount to convert, in fromToken\r",
          "_fromToken": "ERC20 token to convert from\r",
          "_minReturn": "if the conversion results in an amount smaller than the minimum return - it is cancelled, must be nonzero\r",
          "_toToken": "ERC20 token to convert to\r"
        },
        "return": "conversion return amount\r"
      },
      "convertInternal(address,address,uint256,uint256)": {
        "details": "converts a specific amount of _fromToken to _toToken\r can only be called by the bancor network contract\r \r",
        "params": {
          "_amount": "amount to convert, in fromToken\r",
          "_fromToken": "ERC20 token to convert from\r",
          "_minReturn": "if the conversion results in an amount smaller than the minimum return - it is cancelled, must be nonzero\r \r",
          "_toToken": "ERC20 token to convert to\r"
        },
        "return": "conversion return amount\r"
      },
      "disableConnectorSale(address,bool)": {
        "details": "disables converting from the given connector token in case the connector token got compromised\r can only be called by the owner\r note that converting to the token is still enabled regardless of this flag and it cannot be disabled by the owner\r \r",
        "params": {
          "_connectorToken": "connector token contract address\r",
          "_disable": "true to disable the token, false to re-enable it\r"
        }
      },
      "disableConversions(bool)": {
        "details": "disables the entire conversion functionality\r this is a safety mechanism in case of a emergency\r can only be called by the manager\r \r",
        "params": {
          "_disable": "true to disable conversions, false to re-enable them\r"
        }
      },
      "disableRegistryUpdate(bool)": {
        "details": "disables the registry update functionality\r this is a safety mechanism in case of a emergency\r can only be called by the manager or owner\r \r",
        "params": {
          "_disable": "true to disable registry updates, false to re-enable them\r"
        }
      },
      "disableTokenTransfers(bool)": {
        "details": "disables/enables token transfers\r can only be called by the contract owner\r \r",
        "params": {
          "_disable": "true to disable transfers, false to enable them\r"
        }
      },
      "fund(uint256)": {
        "details": "buys the token with all connector tokens using the same percentage\r i.e. if the caller increases the supply by 10%, it will cost an amount equal to\r 10% of each connector token balance\r can only be called if the max total weight is exactly 100% and while conversions are enabled\r \r",
        "params": {
          "_amount": "amount to increase the supply by (in the smart token)\r"
        }
      },
      "getConnectorBalance(address)": {
        "details": "returns the connector's virtual balance if one is defined, otherwise returns the actual balance\r \r",
        "params": {
          "_connectorToken": "connector token contract address\r \r"
        },
        "return": "connector balance\r"
      },
      "getCrossConnectorReturn(address,address,uint256)": {
        "details": "returns the expected return for selling one of the connector tokens for another connector token\r \r",
        "params": {
          "_fromConnectorToken": "contract address of the connector token to convert from\r",
          "_sellAmount": "amount to sell (in the from connector token)\r \r",
          "_toConnectorToken": "contract address of the connector token to convert to\r"
        },
        "return": "expected sale return amount and conversion fee (in the to connector token)\r"
      },
      "getFinalAmount(uint256,uint8)": {
        "details": "given a return amount, returns the amount minus the conversion fee\r \r",
        "params": {
          "_amount": "return amount\r",
          "_magnitude": "1 for standard conversion, 2 for cross connector conversion\r \r"
        },
        "return": "return amount minus conversion fee\r"
      },
      "getPurchaseReturn(address,uint256)": {
        "details": "returns the expected return for buying the token for a connector token\r \r",
        "params": {
          "_connectorToken": "connector token contract address\r",
          "_depositAmount": "amount to deposit (in the connector token)\r \r"
        },
        "return": "expected purchase return amount and conversion fee\r"
      },
      "getReturn(address,address,uint256)": {
        "details": "returns the expected return for converting a specific amount of _fromToken to _toToken\r \r",
        "params": {
          "_amount": "amount to convert, in fromToken\r \r",
          "_fromToken": "ERC20 token to convert from\r",
          "_toToken": "ERC20 token to convert to\r"
        },
        "return": "expected conversion return amount and conversion fee\r"
      },
      "getSaleReturn(address,uint256)": {
        "details": "returns the expected return for selling the token for one of its connector tokens\r \r",
        "params": {
          "_connectorToken": "connector token contract address\r",
          "_sellAmount": "amount to sell (in the smart token)\r \r"
        },
        "return": "expected sale return amount and conversion fee\r"
      },
      "liquidate(uint256)": {
        "details": "sells the token for all connector tokens using the same percentage\r i.e. if the holder sells 10% of the supply, they will receive 10% of each\r connector token balance in return\r can only be called if the max total weight is exactly 100%\r note that the function can also be called if conversions are disabled\r \r",
        "params": {
          "_amount": "amount to liquidate (in the smart token)\r"
        }
      },
      "quickConvert(address[],uint256,uint256)": {
        "details": "deprecated, backward compatibility\r"
      },
      "quickConvert2(address[],uint256,uint256,address,uint256)": {
        "details": "converts the token to any other token in the bancor network by following a predefined conversion path\r note that when converting from an ERC20 token (as opposed to a smart token), allowance must be set beforehand\r \r",
        "params": {
          "_affiliateAccount": "affiliate account\r",
          "_affiliateFee": "affiliate fee in PPM\r \r",
          "_amount": "amount to convert from (in the initial source token)\r",
          "_minReturn": "if the conversion results in an amount smaller than the minimum return - it is cancelled, must be nonzero\r",
          "_path": "conversion path, see conversion path format in the BancorNetwork contract\r"
        },
        "return": "tokens issued in return\r"
      },
      "quickConvertPrioritized(address[],uint256,uint256,uint256,uint8,bytes32,bytes32)": {
        "details": "deprecated, backward compatibility\r"
      },
      "quickConvertPrioritized2(address[],uint256,uint256,uint256[],address,uint256)": {
        "details": "converts the token to any other token in the bancor network by following a predefined conversion path\r note that when converting from an ERC20 token (as opposed to a smart token), allowance must be set beforehand\r \r",
        "params": {
          "_affiliateAccount": "affiliate account\r",
          "_affiliateFee": "affiliate fee in PPM\r \r",
          "_amount": "amount to convert from (in the initial source token)\r",
          "_minReturn": "if the conversion results in an amount smaller than the minimum return - it is cancelled, must be nonzero\r",
          "_path": "conversion path, see conversion path format in the BancorNetwork contract\r",
          "_signature": "an array of the following elements:\r                            [0] uint256     custom value that was signed for prioritized conversion; must be equal to _amount\r                            [1] uint256     if the current block exceeded the given parameter - it is cancelled\r                            [2] uint8       (signature[128:130]) associated with the signer address and helps to validate if the signature is legit\r                            [3] bytes32     (signature[0:64]) associated with the signer address and helps to validate if the signature is legit\r                            [4] bytes32     (signature[64:128]) associated with the signer address and helps to validate if the signature is legit\r                            if the array is empty (length == 0), then the gas-price limit is verified instead of the signature\r"
        },
        "return": "tokens issued in return\r"
      },
      "restoreRegistry()": {
        "details": "security mechanism allowing the converter owner to revert to the previous registry,\r to be used in emergency scenario\r"
      },
      "setBancorX(address)": {
        "details": "allows the owner to set the associated BancorX contract\r",
        "params": {
          "_bancorX": "BancorX contract\r"
        }
      },
      "setConversionFee(uint32)": {
        "details": "updates the current conversion fee\r can only be called by the manager\r \r",
        "params": {
          "_conversionFee": "new conversion fee, represented in ppm\r"
        }
      },
      "setConversionWhitelist(address)": {
        "details": "allows the owner to update & enable the conversion whitelist contract address\r when set, only addresses that are whitelisted are actually allowed to use the converter\r note that the whitelist check is actually done by the BancorNetwork contract\r \r",
        "params": {
          "_whitelist": "address of a whitelist contract\r"
        }
      },
      "transferManagement(address)": {
        "details": "allows transferring the contract management\r the new manager still needs to accept the transfer\r can only be called by the contract manager\r \r",
        "params": {
          "_newManager": "new contract manager\r"
        }
      },
      "transferOwnership(address)": {
        "details": "allows transferring the contract ownership\r the new owner still needs to accept the transfer\r can only be called by the contract owner\r \r",
        "params": {
          "_newOwner": "new contract owner\r"
        }
      },
      "transferTokenOwnership(address)": {
        "details": "allows transferring the token ownership\r the new owner needs to accept the transfer\r can only be called by the contract owner\r note that token ownership can only be transferred while the owner is the converter upgrader contract\r \r",
        "params": {
          "_newOwner": "new token owner\r"
        }
      },
      "updateConnector(address,uint32,bool,uint256)": {
        "details": "updates one of the token connectors\r can only be called by the owner\r \r",
        "params": {
          "_connectorToken": "address of the connector token\r",
          "_enableVirtualBalance": "true to enable virtual balance for the connector, false to disable it\r",
          "_virtualBalance": "new connector's virtual balance\r",
          "_weight": "constant connector weight, represented in ppm, 1-1000000\r"
        }
      },
      "updateRegistry()": {
        "details": "sets the contract registry to whichever address the current registry is pointing to\r"
      },
      "upgrade()": {
        "details": "upgrades the converter to the latest version\r can only be called by the owner\r note that the owner needs to call acceptOwnership/acceptManagement on the new converter after the upgrade\r"
      },
      "withdrawFromToken(address,address,uint256)": {
        "details": "withdraws tokens held by the controller and sends them to an account\r can only be called by the owner\r \r",
        "params": {
          "_amount": "amount to withdraw\r",
          "_to": "account to receive the new amount\r",
          "_token": "ERC20 token contract address\r"
        }
      },
      "withdrawTokens(address,address,uint256)": {
        "details": "withdraws tokens held by the converter and sends them to an account\r can only be called by the owner\r note that connector tokens can only be withdrawn by the owner while the converter is inactive\r unless the owner is the converter upgrader contract\r \r",
        "params": {
          "_amount": "amount to withdraw\r",
          "_to": "account to receive the new amount\r",
          "_token": "ERC20 token contract address\r"
        }
      }
    }
  },
  "userdoc": {
    "methods": {}
  }
}