{
  "contractName": "BancorNetwork",
  "abi": [
    {
      "constant": true,
      "inputs": [],
      "name": "BANCOR_CONVERTER_UPGRADER",
      "outputs": [
        {
          "name": "",
          "type": "bytes32"
        }
      ],
      "payable": false,
      "stateMutability": "view",
      "type": "function"
    },
    {
      "constant": true,
      "inputs": [],
      "name": "BNT_TOKEN",
      "outputs": [
        {
          "name": "",
          "type": "bytes32"
        }
      ],
      "payable": false,
      "stateMutability": "view",
      "type": "function"
    },
    {
      "constant": true,
      "inputs": [],
      "name": "CONTRACT_REGISTRY",
      "outputs": [
        {
          "name": "",
          "type": "bytes32"
        }
      ],
      "payable": false,
      "stateMutability": "view",
      "type": "function"
    },
    {
      "constant": true,
      "inputs": [],
      "name": "BANCOR_CONVERTER_FACTORY",
      "outputs": [
        {
          "name": "",
          "type": "bytes32"
        }
      ],
      "payable": false,
      "stateMutability": "view",
      "type": "function"
    },
    {
      "constant": true,
      "inputs": [],
      "name": "signerAddress",
      "outputs": [
        {
          "name": "",
          "type": "address"
        }
      ],
      "payable": false,
      "stateMutability": "view",
      "type": "function"
    },
    {
      "constant": true,
      "inputs": [],
      "name": "maxAffiliateFee",
      "outputs": [
        {
          "name": "",
          "type": "uint256"
        }
      ],
      "payable": false,
      "stateMutability": "view",
      "type": "function"
    },
    {
      "constant": false,
      "inputs": [
        {
          "name": "_token",
          "type": "address"
        },
        {
          "name": "_to",
          "type": "address"
        },
        {
          "name": "_amount",
          "type": "uint256"
        }
      ],
      "name": "withdrawTokens",
      "outputs": [],
      "payable": false,
      "stateMutability": "nonpayable",
      "type": "function"
    },
    {
      "constant": true,
      "inputs": [],
      "name": "BNT_CONVERTER",
      "outputs": [
        {
          "name": "",
          "type": "bytes32"
        }
      ],
      "payable": false,
      "stateMutability": "view",
      "type": "function"
    },
    {
      "constant": true,
      "inputs": [],
      "name": "BANCOR_FORMULA",
      "outputs": [
        {
          "name": "",
          "type": "bytes32"
        }
      ],
      "payable": false,
      "stateMutability": "view",
      "type": "function"
    },
    {
      "constant": false,
      "inputs": [],
      "name": "acceptOwnership",
      "outputs": [],
      "payable": false,
      "stateMutability": "nonpayable",
      "type": "function"
    },
    {
      "constant": true,
      "inputs": [],
      "name": "registry",
      "outputs": [
        {
          "name": "",
          "type": "address"
        }
      ],
      "payable": false,
      "stateMutability": "view",
      "type": "function"
    },
    {
      "constant": true,
      "inputs": [
        {
          "name": "",
          "type": "address"
        }
      ],
      "name": "etherTokens",
      "outputs": [
        {
          "name": "",
          "type": "bool"
        }
      ],
      "payable": false,
      "stateMutability": "view",
      "type": "function"
    },
    {
      "constant": true,
      "inputs": [],
      "name": "CONTRACT_FEATURES",
      "outputs": [
        {
          "name": "",
          "type": "bytes32"
        }
      ],
      "payable": false,
      "stateMutability": "view",
      "type": "function"
    },
    {
      "constant": true,
      "inputs": [
        {
          "name": "",
          "type": "bytes32"
        }
      ],
      "name": "conversionHashes",
      "outputs": [
        {
          "name": "",
          "type": "bool"
        }
      ],
      "payable": false,
      "stateMutability": "view",
      "type": "function"
    },
    {
      "constant": true,
      "inputs": [],
      "name": "owner",
      "outputs": [
        {
          "name": "",
          "type": "address"
        }
      ],
      "payable": false,
      "stateMutability": "view",
      "type": "function"
    },
    {
      "constant": true,
      "inputs": [],
      "name": "BANCOR_NETWORK",
      "outputs": [
        {
          "name": "",
          "type": "bytes32"
        }
      ],
      "payable": false,
      "stateMutability": "view",
      "type": "function"
    },
    {
      "constant": true,
      "inputs": [],
      "name": "BANCOR_GAS_PRICE_LIMIT",
      "outputs": [
        {
          "name": "",
          "type": "bytes32"
        }
      ],
      "payable": false,
      "stateMutability": "view",
      "type": "function"
    },
    {
      "constant": true,
      "inputs": [],
      "name": "CONVERTER_CONVERSION_WHITELIST",
      "outputs": [
        {
          "name": "",
          "type": "uint256"
        }
      ],
      "payable": false,
      "stateMutability": "view",
      "type": "function"
    },
    {
      "constant": true,
      "inputs": [],
      "name": "BANCOR_X",
      "outputs": [
        {
          "name": "",
          "type": "bytes32"
        }
      ],
      "payable": false,
      "stateMutability": "view",
      "type": "function"
    },
    {
      "constant": true,
      "inputs": [],
      "name": "BANCOR_X_UPGRADER",
      "outputs": [
        {
          "name": "",
          "type": "bytes32"
        }
      ],
      "payable": false,
      "stateMutability": "view",
      "type": "function"
    },
    {
      "constant": true,
      "inputs": [],
      "name": "newOwner",
      "outputs": [
        {
          "name": "",
          "type": "address"
        }
      ],
      "payable": false,
      "stateMutability": "view",
      "type": "function"
    },
    {
      "constant": false,
      "inputs": [
        {
          "name": "_newOwner",
          "type": "address"
        }
      ],
      "name": "transferOwnership",
      "outputs": [],
      "payable": false,
      "stateMutability": "nonpayable",
      "type": "function"
    },
    {
      "constant": true,
      "inputs": [],
      "name": "NON_STANDARD_TOKEN_REGISTRY",
      "outputs": [
        {
          "name": "",
          "type": "bytes32"
        }
      ],
      "payable": false,
      "stateMutability": "view",
      "type": "function"
    },
    {
      "inputs": [
        {
          "name": "_registry",
          "type": "address"
        }
      ],
      "payable": false,
      "stateMutability": "nonpayable",
      "type": "constructor"
    },
    {
      "anonymous": false,
      "inputs": [
        {
          "indexed": true,
          "name": "_prevOwner",
          "type": "address"
        },
        {
          "indexed": true,
          "name": "_newOwner",
          "type": "address"
        }
      ],
      "name": "OwnerUpdate",
      "type": "event"
    },
    {
      "constant": false,
      "inputs": [
        {
          "name": "_maxAffiliateFee",
          "type": "uint256"
        }
      ],
      "name": "setMaxAffiliateFee",
      "outputs": [],
      "payable": false,
      "stateMutability": "nonpayable",
      "type": "function"
    },
    {
      "constant": false,
      "inputs": [
        {
          "name": "_registry",
          "type": "address"
        }
      ],
      "name": "setRegistry",
      "outputs": [],
      "payable": false,
      "stateMutability": "nonpayable",
      "type": "function"
    },
    {
      "constant": false,
      "inputs": [
        {
          "name": "_signerAddress",
          "type": "address"
        }
      ],
      "name": "setSignerAddress",
      "outputs": [],
      "payable": false,
      "stateMutability": "nonpayable",
      "type": "function"
    },
    {
      "constant": false,
      "inputs": [
        {
          "name": "_token",
          "type": "address"
        },
        {
          "name": "_register",
          "type": "bool"
        }
      ],
      "name": "registerEtherToken",
      "outputs": [],
      "payable": false,
      "stateMutability": "nonpayable",
      "type": "function"
    },
    {
      "constant": false,
      "inputs": [
        {
          "name": "_path",
          "type": "address[]"
        },
        {
          "name": "_amount",
          "type": "uint256"
        },
        {
          "name": "_minReturn",
          "type": "uint256"
        },
        {
          "name": "_for",
          "type": "address"
        },
        {
          "name": "_affiliateAccount",
          "type": "address"
        },
        {
          "name": "_affiliateFee",
          "type": "uint256"
        }
      ],
      "name": "convertFor2",
      "outputs": [
        {
          "name": "",
          "type": "uint256"
        }
      ],
      "payable": true,
      "stateMutability": "payable",
      "type": "function"
    },
    {
      "constant": false,
      "inputs": [
        {
          "name": "_path",
          "type": "address[]"
        },
        {
          "name": "_amount",
          "type": "uint256"
        },
        {
          "name": "_minReturn",
          "type": "uint256"
        },
        {
          "name": "_for",
          "type": "address"
        },
        {
          "name": "_signature",
          "type": "uint256[]"
        },
        {
          "name": "_affiliateAccount",
          "type": "address"
        },
        {
          "name": "_affiliateFee",
          "type": "uint256"
        }
      ],
      "name": "convertForPrioritized4",
      "outputs": [
        {
          "name": "",
          "type": "uint256"
        }
      ],
      "payable": true,
      "stateMutability": "payable",
      "type": "function"
    },
    {
      "constant": false,
      "inputs": [
        {
          "name": "_path",
          "type": "address[]"
        },
        {
          "name": "_amount",
          "type": "uint256"
        },
        {
          "name": "_minReturn",
          "type": "uint256"
        },
        {
          "name": "_toBlockchain",
          "type": "bytes32"
        },
        {
          "name": "_to",
          "type": "bytes32"
        },
        {
          "name": "_conversionId",
          "type": "uint256"
        }
      ],
      "name": "xConvert",
      "outputs": [
        {
          "name": "",
          "type": "uint256"
        }
      ],
      "payable": true,
      "stateMutability": "payable",
      "type": "function"
    },
    {
      "constant": false,
      "inputs": [
        {
          "name": "_path",
          "type": "address[]"
        },
        {
          "name": "_amount",
          "type": "uint256"
        },
        {
          "name": "_minReturn",
          "type": "uint256"
        },
        {
          "name": "_toBlockchain",
          "type": "bytes32"
        },
        {
          "name": "_to",
          "type": "bytes32"
        },
        {
          "name": "_conversionId",
          "type": "uint256"
        },
        {
          "name": "_signature",
          "type": "uint256[]"
        }
      ],
      "name": "xConvertPrioritized2",
      "outputs": [
        {
          "name": "",
          "type": "uint256"
        }
      ],
      "payable": true,
      "stateMutability": "payable",
      "type": "function"
    },
    {
      "constant": true,
      "inputs": [
        {
          "name": "_path",
          "type": "address[]"
        },
        {
          "name": "_amount",
          "type": "uint256"
        }
      ],
      "name": "getReturnByPath",
      "outputs": [
        {
          "name": "",
          "type": "uint256"
        },
        {
          "name": "",
          "type": "uint256"
        }
      ],
      "payable": false,
      "stateMutability": "view",
      "type": "function"
    },
    {
      "constant": false,
      "inputs": [
        {
          "name": "_path",
          "type": "address[]"
        },
        {
          "name": "_amount",
          "type": "uint256"
        },
        {
          "name": "_minReturn",
          "type": "uint256"
        },
        {
          "name": "_for",
          "type": "address"
        },
        {
          "name": "_affiliateAccount",
          "type": "address"
        },
        {
          "name": "_affiliateFee",
          "type": "uint256"
        }
      ],
      "name": "claimAndConvertFor2",
      "outputs": [
        {
          "name": "",
          "type": "uint256"
        }
      ],
      "payable": false,
      "stateMutability": "nonpayable",
      "type": "function"
    },
    {
      "constant": false,
      "inputs": [
        {
          "name": "_path",
          "type": "address[]"
        },
        {
          "name": "_amount",
          "type": "uint256"
        },
        {
          "name": "_minReturn",
          "type": "uint256"
        },
        {
          "name": "_affiliateAccount",
          "type": "address"
        },
        {
          "name": "_affiliateFee",
          "type": "uint256"
        }
      ],
      "name": "convert2",
      "outputs": [
        {
          "name": "",
          "type": "uint256"
        }
      ],
      "payable": true,
      "stateMutability": "payable",
      "type": "function"
    },
    {
      "constant": false,
      "inputs": [
        {
          "name": "_path",
          "type": "address[]"
        },
        {
          "name": "_amount",
          "type": "uint256"
        },
        {
          "name": "_minReturn",
          "type": "uint256"
        },
        {
          "name": "_affiliateAccount",
          "type": "address"
        },
        {
          "name": "_affiliateFee",
          "type": "uint256"
        }
      ],
      "name": "claimAndConvert2",
      "outputs": [
        {
          "name": "",
          "type": "uint256"
        }
      ],
      "payable": false,
      "stateMutability": "nonpayable",
      "type": "function"
    },
    {
      "constant": false,
      "inputs": [
        {
          "name": "_path",
          "type": "address[]"
        },
        {
          "name": "_amount",
          "type": "uint256"
        },
        {
          "name": "_minReturn",
          "type": "uint256"
        }
      ],
      "name": "convert",
      "outputs": [
        {
          "name": "",
          "type": "uint256"
        }
      ],
      "payable": true,
      "stateMutability": "payable",
      "type": "function"
    },
    {
      "constant": false,
      "inputs": [
        {
          "name": "_path",
          "type": "address[]"
        },
        {
          "name": "_amount",
          "type": "uint256"
        },
        {
          "name": "_minReturn",
          "type": "uint256"
        }
      ],
      "name": "claimAndConvert",
      "outputs": [
        {
          "name": "",
          "type": "uint256"
        }
      ],
      "payable": false,
      "stateMutability": "nonpayable",
      "type": "function"
    },
    {
      "constant": false,
      "inputs": [
        {
          "name": "_path",
          "type": "address[]"
        },
        {
          "name": "_amount",
          "type": "uint256"
        },
        {
          "name": "_minReturn",
          "type": "uint256"
        },
        {
          "name": "_for",
          "type": "address"
        }
      ],
      "name": "convertFor",
      "outputs": [
        {
          "name": "",
          "type": "uint256"
        }
      ],
      "payable": true,
      "stateMutability": "payable",
      "type": "function"
    },
    {
      "constant": false,
      "inputs": [
        {
          "name": "_path",
          "type": "address[]"
        },
        {
          "name": "_amount",
          "type": "uint256"
        },
        {
          "name": "_minReturn",
          "type": "uint256"
        },
        {
          "name": "_for",
          "type": "address"
        }
      ],
      "name": "claimAndConvertFor",
      "outputs": [
        {
          "name": "",
          "type": "uint256"
        }
      ],
      "payable": false,
      "stateMutability": "nonpayable",
      "type": "function"
    },
    {
      "constant": false,
      "inputs": [
        {
          "name": "_path",
          "type": "address[]"
        },
        {
          "name": "_amount",
          "type": "uint256"
        },
        {
          "name": "_minReturn",
          "type": "uint256"
        },
        {
          "name": "_toBlockchain",
          "type": "bytes32"
        },
        {
          "name": "_to",
          "type": "bytes32"
        },
        {
          "name": "_conversionId",
          "type": "uint256"
        },
        {
          "name": "_block",
          "type": "uint256"
        },
        {
          "name": "_v",
          "type": "uint8"
        },
        {
          "name": "_r",
          "type": "bytes32"
        },
        {
          "name": "_s",
          "type": "bytes32"
        }
      ],
      "name": "xConvertPrioritized",
      "outputs": [
        {
          "name": "",
          "type": "uint256"
        }
      ],
      "payable": true,
      "stateMutability": "payable",
      "type": "function"
    },
    {
      "constant": false,
      "inputs": [
        {
          "name": "_path",
          "type": "address[]"
        },
        {
          "name": "_amount",
          "type": "uint256"
        },
        {
          "name": "_minReturn",
          "type": "uint256"
        },
        {
          "name": "_for",
          "type": "address"
        },
        {
          "name": "_customVal",
          "type": "uint256"
        },
        {
          "name": "_block",
          "type": "uint256"
        },
        {
          "name": "_v",
          "type": "uint8"
        },
        {
          "name": "_r",
          "type": "bytes32"
        },
        {
          "name": "_s",
          "type": "bytes32"
        }
      ],
      "name": "convertForPrioritized3",
      "outputs": [
        {
          "name": "",
          "type": "uint256"
        }
      ],
      "payable": true,
      "stateMutability": "payable",
      "type": "function"
    },
    {
      "constant": false,
      "inputs": [
        {
          "name": "_path",
          "type": "address[]"
        },
        {
          "name": "_amount",
          "type": "uint256"
        },
        {
          "name": "_minReturn",
          "type": "uint256"
        },
        {
          "name": "_for",
          "type": "address"
        },
        {
          "name": "_block",
          "type": "uint256"
        },
        {
          "name": "_v",
          "type": "uint8"
        },
        {
          "name": "_r",
          "type": "bytes32"
        },
        {
          "name": "_s",
          "type": "bytes32"
        }
      ],
      "name": "convertForPrioritized2",
      "outputs": [
        {
          "name": "",
          "type": "uint256"
        }
      ],
      "payable": true,
      "stateMutability": "payable",
      "type": "function"
    },
    {
      "constant": false,
      "inputs": [
        {
          "name": "_path",
          "type": "address[]"
        },
        {
          "name": "_amount",
          "type": "uint256"
        },
        {
          "name": "_minReturn",
          "type": "uint256"
        },
        {
          "name": "_for",
          "type": "address"
        },
        {
          "name": "_block",
          "type": "uint256"
        },
        {
          "name": "_nonce",
          "type": "uint256"
        },
        {
          "name": "_v",
          "type": "uint8"
        },
        {
          "name": "_r",
          "type": "bytes32"
        },
        {
          "name": "_s",
          "type": "bytes32"
        }
      ],
      "name": "convertForPrioritized",
      "outputs": [
        {
          "name": "",
          "type": "uint256"
        }
      ],
      "payable": true,
      "stateMutability": "payable",
      "type": "function"
    }
  ],
  "bytecode": "0x608060405261753060025560038054600160a060020a031916905534801561002657600080fd5b5060405160208061386b833981016040525160008054600160a060020a0319163317905580600160a060020a038116151561006057600080fd5b5060048054600160a060020a031916600160a060020a03929092169190911790556137db806100906000396000f3006080604052600436106101f55763ffffffff60e060020a60003504166302ef521e81146101fa578063046dc166146102225780630c8496cc146102435780630c87355e146102b35780631134269a146102da5780631d000b611461035757806325f9bfef1461036c5780632978c10e146103815780634de006cb146103f8578063569706eb146104a45780635a46f06c146105075780635b7633d01461051c5780635d732ff21461054d5780635e35359e1461056257806362614ae61461058c5780636896b999146105a15780636b08f2ef1461061c5780636d7bd3fc1461069357806379ba5097146106a85780637b103999146106bd5780638077ccf7146106d257806383315b6e1461070757806389e63a601461071c5780638da5cb5b146107345780639232494e146107495780639249993a1461075e57806392d1abb714610773578063a91ee0dc14610788578063ab6214ce146107a9578063b1e9932b14610813578063b406d3861461087e578063c4a8598e146108fb578063c52173de14610910578063c7ba24bc1461096f578063c98fefed146109cd578063cc97b38f14610a2b578063ce20096314610a40578063d4ee1d9014610add578063e57738e514610af2578063f2fde38b14610b62578063f3898a9714610b83578063f3bc7d2a14610bd4578063f5286b9c14610bec575b600080fd5b34801561020657600080fd5b50610220600160a060020a03600435166024351515610c01565b005b34801561022e57600080fd5b50610220600160a060020a0360043516610c72565b34801561024f57600080fd5b506040805160206004803580820135838102808601850190965280855261029a953695939460249493850192918291850190849080828437509497505093359450610ce79350505050565b6040805192835260208301919091528051918290030190f35b3480156102bf57600080fd5b506102c86114b2565b60408051918252519081900360200190f35b604080516020600480358082013583810280860185019096528085526102c89536959394602494938501929182918501908490808284375094975050843595505050602083013592600160a060020a0360408201351692506060810135915060808101359060ff60a0820135169060c08101359060e001356114d6565b34801561036357600080fd5b506102c8611502565b34801561037857600080fd5b506102c8611526565b34801561038d57600080fd5b50604080516020600480358082013583810280860185019096528085526102c89536959394602494938501929182918501908490808284375094975050843595505050602083013592600160a060020a0360408201358116935060608201351691506080013561154a565b604080516020600480358082013583810280860185019096528085526102c8953695939460249493850192918291850190849080828437505060408051602060608901358a01803582810280850184018652818552999c8b359c848d01359c96870135600160a060020a03169b919a5098506080909501965092945081019282918501908490808284375094975050508335600160a060020a031694505050602090910135905061158e565b604080516020600480358082013583810280860185019096528085526102c89536959394602494938501929182918501908490808284375094975050843595505050602083013592600160a060020a0360408201351692506060013590506116ac565b34801561051357600080fd5b506102c86116c6565b34801561052857600080fd5b506105316116ea565b60408051600160a060020a039092168252519081900360200190f35b34801561055957600080fd5b506102c86116f9565b34801561056e57600080fd5b50610220600160a060020a03600435811690602435166044356116ff565b34801561059857600080fd5b506102c86117dc565b604080516020600480358082013583810280860185019096528085526102c89536959394602494938501929182918501908490808284375094975050843595505050602083013592604081013592506060810135915060808101359060a08101359060ff60c0820135169060e0810135906101000135611800565b604080516020600480358082013583810280860185019096528085526102c89536959394602494938501929182918501908490808284375094975050843595505050602083013592600160a060020a0360408201351692506060810135915060ff6080820135169060a08101359060c00135611832565b34801561069f57600080fd5b506102c8611855565b3480156106b457600080fd5b50610220611879565b3480156106c957600080fd5b50610531611901565b3480156106de57600080fd5b506106f3600160a060020a0360043516611910565b604080519115158252519081900360200190f35b34801561071357600080fd5b506102c8611925565b34801561072857600080fd5b506106f3600435611949565b34801561074057600080fd5b5061053161195e565b34801561075557600080fd5b506102c861196d565b34801561076a57600080fd5b506102c8611991565b34801561077f57600080fd5b506102c86119b5565b34801561079457600080fd5b50610220600160a060020a03600435166119ba565b604080516020600480358082013583810280860185019096528085526102c89536959394602494938501929182918501908490808284375094975050843595505050602083013592600160a060020a03604082013581169350606082013516915060800135611a2f565b34801561081f57600080fd5b50604080516020600480358082013583810280860185019096528085526102c8953695939460249493850192918291850190849080828437509497505084359550505060208301359260400135600160a060020a03169150611a579050565b604080516020600480358082013583810280860185019096528085526102c89536959394602494938501929182918501908490808284375094975050843595505050602083013592600160a060020a0360408201351692506060810135915060808101359060ff60a0820135169060c08101359060e00135611a71565b34801561090757600080fd5b506102c8611a87565b604080516020600480358082013583810280860185019096528085526102c89536959394602494938501929182918501908490808284375094975050843595505050602083013592604081013592506060810135915060800135611aab565b34801561097b57600080fd5b50604080516020600480358082013583810280860185019096528085526102c895369593946024949385019291829185019084908082843750949750508435955050506020909201359150611ac89050565b604080516020600480358082013583810280860185019096528085526102c8953695939460249493850192918291850190849080828437509497505084359550505060208301359260400135600160a060020a03169150611ae09050565b348015610a3757600080fd5b506102c8611af1565b604080516020600480358082013583810280860185019096528085526102c895369593946024949385019291829185019084908082843750506040805160a088013589018035602081810284810182018652828552999c8b359c828d01359c968701359b60608801359b5060808801359a50919850965060c09095019492810192829185019084908082843750949750611b159650505050505050565b348015610ae957600080fd5b50610531611d9c565b348015610afe57600080fd5b50604080516020600480358082013583810280860185019096528085526102c89536959394602494938501929182918501908490808284375094975050843595505050602083013592600160a060020a036040820135169250606001359050611dab565b348015610b6e57600080fd5b50610220600160a060020a0360043516611dbb565b604080516020600480358082013583810280860185019096528085526102c895369593946024949385019291829185019084908082843750949750508435955050506020909201359150611e1c9050565b348015610be057600080fd5b50610220600435611e2c565b348015610bf857600080fd5b506102c8611e58565b600054600160a060020a03163314610c1857600080fd5b81600160a060020a0381161515610c2e57600080fd5b82600160a060020a038116301415610c4557600080fd5b5050600160a060020a03919091166000908152600560205260409020805460ff1916911515919091179055565b600054600160a060020a03163314610c8957600080fd5b80600160a060020a0381161515610c9f57600080fd5b81600160a060020a038116301415610cb657600080fd5b50506003805473ffffffffffffffffffffffffffffffffffffffff1916600160a060020a0392909216919091179055565b600080600080600080600080600080600080600080600460009054906101000a9004600160a060020a0316600160a060020a03166321f8a7217f42616e636f72466f726d756c61000000000000000000000000000000000000006040518263ffffffff1660e060020a028152600401808260001916600019168152602001915050602060405180830381600087803b158015610d8257600080fd5b505af1158015610d96573d6000803e3d6000fd5b505050506040513d6020811015610dac57600080fd5b810190808051906020019092919050505091508e97508f6000815181101515610dd157fe5b906020019060200201519b50600190505b8f5181101561149c578f81815181101515610df957fe5b906020019060200201519a508f81600101815181101515610e1657fe5b9060200190602002015199508a600160a060020a0316638da5cb5b6040518163ffffffff1660e060020a028152600401602060405180830381600087803b158015610e6057600080fd5b505af1158015610e74573d6000803e3d6000fd5b505050506040513d6020811015610e8a57600080fd5b50519850600160a060020a038a8116908c1614156111b05782600160a060020a03168b600160a060020a031614610f2a578a600160a060020a03166318160ddd6040518163ffffffff1660e060020a028152600401602060405180830381600087803b158015610ef957600080fd5b505af1158015610f0d573d6000803e3d6000fd5b505050506040513d6020811015610f2357600080fd5b5051610f2c565b855b9550610f38898d611e7c565b1515610f4357600080fd5b88600160a060020a031663d89595128d6040518263ffffffff1660e060020a0281526004018082600160a060020a0316600160a060020a03168152602001915050602060405180830381600087803b158015610f9e57600080fd5b505af1158015610fb2573d6000803e3d6000fd5b505050506040513d6020811015610fc857600080fd5b50519450610fd6898d611f1b565b604080517f29a00e7c000000000000000000000000000000000000000000000000000000008152600481018990526024810188905263ffffffff83166044820152606481018b90529051919550600160a060020a038416916329a00e7c916084808201926020929091908290030181600087803b15801561105657600080fd5b505af115801561106a573d6000803e3d6000fd5b505050506040513d602081101561108057600080fd5b5051604080517f579cd3ca000000000000000000000000000000000000000000000000000000008152905191995061113691620f42409161112a91600160a060020a038e169163579cd3ca9160048083019260209291908290030181600087803b1580156110ed57600080fd5b505af1158015611101573d6000803e3d6000fd5b505050506040513d602081101561111757600080fd5b50518b9063ffffffff90811690611fba16565b9063ffffffff611ff316565b96508688039750878b600160a060020a03166318160ddd6040518163ffffffff1660e060020a028152600401602060405180830381600087803b15801561117c57600080fd5b505af1158015611190573d6000803e3d6000fd5b505050506040513d60208110156111a657600080fd5b505101955061148c565b8a600160a060020a03168c600160a060020a0316141561147a5782600160a060020a03168b600160a060020a031614611252578a600160a060020a03166318160ddd6040518163ffffffff1660e060020a028152600401602060405180830381600087803b15801561122157600080fd5b505af1158015611235573d6000803e3d6000fd5b505050506040513d602081101561124b57600080fd5b5051611254565b855b955088600160a060020a031663d89595128b6040518263ffffffff1660e060020a0281526004018082600160a060020a0316600160a060020a03168152602001915050602060405180830381600087803b1580156112b157600080fd5b505af11580156112c5573d6000803e3d6000fd5b505050506040513d60208110156112db57600080fd5b505194506112e9898b611f1b565b604080517f49f9b0f7000000000000000000000000000000000000000000000000000000008152600481018990526024810188905263ffffffff83166044820152606481018b90529051919550600160a060020a038416916349f9b0f7916084808201926020929091908290030181600087803b15801561136957600080fd5b505af115801561137d573d6000803e3d6000fd5b505050506040513d602081101561139357600080fd5b5051604080517f579cd3ca000000000000000000000000000000000000000000000000000000008152905191995061140091620f42409161112a91600160a060020a038e169163579cd3ca9160048083019260209291908290030181600087803b1580156110ed57600080fd5b96508688039750878b600160a060020a03166318160ddd6040518163ffffffff1660e060020a028152600401602060405180830381600087803b15801561144657600080fd5b505af115801561145a573d6000803e3d6000fd5b505050506040513d602081101561147057600080fd5b505103955061148c565b611486898d8c8b612016565b90985096505b989a508a988a9250600201610de2565b50959e949d50939b505050505050505050505050565b7f42616e636f72436f6e766572746572557067726164657200000000000000000081565b60006114f48a8a8a8a6114ec8e8c8b8b8b612134565b60008061158e565b9a9950505050505050505050565b7f424e54546f6b656e00000000000000000000000000000000000000000000000081565b7f436f6e747261637452656769737472790000000000000000000000000000000081565b60008087600081518110151561155c57fe5b9060200190602002015190506115748133308a612223565b611582888888888888611a2f565b98975050505050505050565b600080600061159f8a8889896125bc565b6115c38a60008151811015156115b157fe5b906020019060200201518a6000612a1a565b6115d08a8a8a8888612ac8565b91508960018b51038151811015156115e457fe5b6020908102909101810151600160a060020a0381166000908152600590925260409091205490915060ff16156116945780600160a060020a031663205c287888846040518363ffffffff1660e060020a0281526004018083600160a060020a0316600160a060020a0316815260200182815260200192505050600060405180830381600087803b15801561167757600080fd5b505af115801561168b573d6000803e3d6000fd5b5050505061169f565b61169f818884612ed3565b5098975050505050505050565b60006116bc868686338787611a2f565b9695505050505050565b7f42616e636f72436f6e766572746572466163746f72790000000000000000000081565b600354600160a060020a031681565b60025481565b600054600160a060020a0316331461171657600080fd5b82600160a060020a038116151561172c57600080fd5b82600160a060020a038116151561174257600080fd5b83600160a060020a03811630141561175957600080fd5b85600160a060020a031663a9059cbb86866040518363ffffffff1660e060020a0281526004018083600160a060020a0316600160a060020a0316815260200182815260200192505050600060405180830381600087803b1580156117bc57600080fd5b505af11580156117d0573d6000803e3d6000fd5b50505050505050505050565b7f424e54436f6e766572746572000000000000000000000000000000000000000081565b600060606118118b87878787612134565b90506118228c8c8c8c8c8c87611b15565b9c9b505050505050505050505050565b6000611848898989896114ec8d8b8b8b8b612134565b9998505050505050505050565b7f42616e636f72466f726d756c610000000000000000000000000000000000000081565b600154600160a060020a0316331461189057600080fd5b60015460008054604051600160a060020a0393841693909116917f343765429aea5a34b3ff6a3785a98a5abb2597aca87bfbb58632c173d585373a91a3600180546000805473ffffffffffffffffffffffffffffffffffffffff19908116600160a060020a03841617909155169055565b600454600160a060020a031681565b60056020526000908152604090205460ff1681565b7f436f6e747261637446656174757265730000000000000000000000000000000081565b60066020526000908152604090205460ff1681565b600054600160a060020a031681565b7f42616e636f724e6574776f726b0000000000000000000000000000000000000081565b7f42616e636f7247617350726963654c696d69740000000000000000000000000081565b600181565b600054600160a060020a031633146119d157600080fd5b80600160a060020a03811615156119e757600080fd5b81600160a060020a0381163014156119fe57600080fd5b50506004805473ffffffffffffffffffffffffffffffffffffffff1916600160a060020a0392909216919091179055565b6000611a4c87878787611a458680808080612134565b888861158e565b979650505050505050565b6000611a688585858560008061154a565b95945050505050565b60006114f48a8a8a8a6114ec8b8b8b8b8b612134565b7f42616e636f72580000000000000000000000000000000000000000000000000081565b6000611a4c878787878787611ac38880808080612134565b611b15565b6000611ad8848484600080611dab565b949350505050565b6000611a6885858585600080611a2f565b7f42616e636f72585570677261646572000000000000000000000000000000000081565b600080825160001480611b3f575087836000815181101515611b3357fe5b90602001906020020151145b1515611b4a57600080fd5b611b56893330866125bc565b600480546040805160e260020a632ecd14d30281527f424e54546f6b656e0000000000000000000000000000000000000000000000009381019390935251600160a060020a039091169163bb34534c9160248083019260209291908290030181600087803b158015611bc757600080fd5b505af1158015611bdb573d6000803e3d6000fd5b505050506040513d6020811015611bf157600080fd5b50518951600160a060020a03909116908a906000198101908110611c1157fe5b60209081029091010151600160a060020a031614611c2e57600080fd5b611c52896000815181101515611c4057fe5b90602001906020020151896001612a1a565b611c60898989600080612ac8565b600480546040805160e260020a632ecd14d30281527f42616e636f7258000000000000000000000000000000000000000000000000009381019390935251929350600160a060020a03169163bb34534c916024808201926020929091908290030181600087803b158015611cd357600080fd5b505af1158015611ce7573d6000803e3d6000fd5b505050506040513d6020811015611cfd57600080fd5b5051604080517f427c0374000000000000000000000000000000000000000000000000000000008152600481018990526024810188905260448101849052606481018790529051600160a060020a039092169163427c03749160848082019260009290919082900301818387803b158015611d7757600080fd5b505af1158015611d8b573d6000803e3d6000fd5b50929b9a5050505050505050505050565b600154600160a060020a031681565b60006116bc86868633878761154a565b600054600160a060020a03163314611dd257600080fd5b600054600160a060020a0382811691161415611ded57600080fd5b6001805473ffffffffffffffffffffffffffffffffffffffff1916600160a060020a0392909216919091179055565b6000611ad88484846000806116ac565b600054600160a060020a03163314611e4357600080fd5b620f4240811115611e5357600080fd5b600255565b7f4e6f6e5374616e64617264546f6b656e5265676973747279000000000000000081565b60008060008060008087600160a060020a0316630e53aae9886040518263ffffffff1660e060020a0281526004018082600160a060020a0316600160a060020a0316815260200191505060a060405180830381600087803b158015611ee057600080fd5b505af1158015611ef4573d6000803e3d6000fd5b505050506040513d60a0811015611f0a57600080fd5b506060015198975050505050505050565b60008060008060008087600160a060020a0316630e53aae9886040518263ffffffff1660e060020a0281526004018082600160a060020a0316600160a060020a0316815260200191505060a060405180830381600087803b158015611f7f57600080fd5b505af1158015611f93573d6000803e3d6000fd5b505050506040513d60a0811015611fa957600080fd5b506020015198975050505050505050565b600080831515611fcd5760009150611fec565b50828202828482811515611fdd57fe5b0414611fe857600080fd5b8091505b5092915050565b60008080831161200257600080fd5b828481151561200d57fe5b04949350505050565b600080612021613794565b604080517f67657452657475726e28616464726573732c616464726573732c75696e74323581527f36290000000000000000000000000000000000000000000000000000000000006020808301919091528251918290036022018220600160a060020a03808b166024850152891660448401526064808401899052845180850390910181526084909301845290820180517bffffffffffffffffffffffffffffffffffffffffffffffffffffffff167fffffffff0000000000000000000000000000000000000000000000000000000060e060020a9384900490930292909216919091178152815191929184918b5afa80151561211d57600080fd5b505080516020909101519097909650945050505050565b60608060ff8516158015612146575083155b8015612150575082155b1561216b576040805160008152602081019091529150612219565b60408051600580825260c08201909252906020820160a0803883390190505090508681600081518110151561219c57fe5b6020908102909101015280518690829060019081106121b757fe5b60209081029091010152805160ff861690829060029081106121d557fe5b6020908102909101015280518490829060039081106121f057fe5b60209081029091010152805183908290600490811061220b57fe5b602090810290910101529050805b5095945050505050565b600480546040805160e260020a632ecd14d30281527f4e6f6e5374616e64617264546f6b656e52656769737472790000000000000000938101939093525160009283928392600160a060020a039091169163bb34534c91602480830192602092919082900301818787803b15801561229a57600080fd5b505af11580156122ae573d6000803e3d6000fd5b505050506040513d60208110156122c457600080fd5b5051604080517faeea10bd000000000000000000000000000000000000000000000000000000008152600160a060020a038a8116600483015291519295509085169163aeea10bd916024808201926020929091908290030181600087803b15801561232e57600080fd5b505af1158015612342573d6000803e3d6000fd5b505050506040513d602081101561235857600080fd5b50511561250b5786600160a060020a03166370a08231866040518263ffffffff1660e060020a0281526004018082600160a060020a0316600160a060020a03168152602001915050602060405180830381600087803b1580156123ba57600080fd5b505af11580156123ce573d6000803e3d6000fd5b505050506040513d60208110156123e457600080fd5b5051604080517f23b872dd000000000000000000000000000000000000000000000000000000008152600160a060020a0389811660048301528881166024830152604482018890529151929450908916916323b872dd9160648082019260009290919082900301818387803b15801561245c57600080fd5b505af1158015612470573d6000803e3d6000fd5b5050505086600160a060020a03166370a08231866040518263ffffffff1660e060020a0281526004018082600160a060020a0316600160a060020a03168152602001915050602060405180830381600087803b1580156124cf57600080fd5b505af11580156124e3573d6000803e3d6000fd5b505050506040513d60208110156124f957600080fd5b5051905081811161250657fe5b6125b3565b604080517f23b872dd000000000000000000000000000000000000000000000000000000008152600160a060020a0388811660048301528781166024830152604482018790529151918916916323b872dd916064808201926020929091908290030181600087803b15801561257f57600080fd5b505af1158015612593573d6000803e3d6000fd5b505050506040513d60208110156125a957600080fd5b505115156125b357fe5b50505050505050565b6000806000806000600289511180156125d757506015895111155b80156125e857508851600290066001145b15156125f357600080fd5b600480546040805160e260020a632ecd14d30281527f436f6e74726163744665617475726573000000000000000000000000000000009381019390935251600160a060020a039091169163bb34534c9160248083019260209291908290030181600087803b15801561266457600080fd5b505af1158015612678573d6000803e3d6000fd5b505050506040513d602081101561268e57600080fd5b50519450600193505b88518410156128dc5788848151811015156126ae57fe5b90602001906020020151600160a060020a0316638da5cb5b6040518163ffffffff1660e060020a028152600401602060405180830381600087803b1580156126f557600080fd5b505af1158015612709573d6000803e3d6000fd5b505050506040513d602081101561271f57600080fd5b5051604080517fa5fbf287000000000000000000000000000000000000000000000000000000008152600160a060020a0380841660048301526001602483015291519295509087169163a5fbf287916044808201926020929091908290030181600087803b15801561279057600080fd5b505af11580156127a4573d6000803e3d6000fd5b505050506040513d60208110156127ba57600080fd5b5051156128d15782600160a060020a031663c45d3d926040518163ffffffff1660e060020a028152600401602060405180830381600087803b1580156127ff57600080fd5b505af1158015612813573d6000803e3d6000fd5b505050506040513d602081101561282957600080fd5b50519150600160a060020a03821615806128c6575081600160a060020a0316633af32abf886040518263ffffffff1660e060020a0281526004018082600160a060020a0316600160a060020a03168152602001915050602060405180830381600087803b15801561289957600080fd5b505af11580156128ad573d6000803e3d6000fd5b505050506040513d60208110156128c357600080fd5b50515b15156128d157600080fd5b600284019350612697565b85516005116128f5576128f0898988613252565b612a0f565b600480546040805160e260020a632ecd14d30281527f42616e636f7247617350726963654c696d6974000000000000000000000000009381019390935251600160a060020a039091169163bb34534c9160248083019260209291908290030181600087803b15801561296657600080fd5b505af115801561297a573d6000803e3d6000fd5b505050506040513d602081101561299057600080fd5b5051604080517f6b4dff1f0000000000000000000000000000000000000000000000000000000081523a60048201529051919250600160a060020a03831691636b4dff1f9160248082019260009290919082900301818387803b1580156129f657600080fd5b505af1158015612a0a573d6000803e3d6000fd5b505050505b505050505050505050565b6000341115612ab1573482148015612a4a5750600160a060020a03831660009081526005602052604090205460ff165b1515612a5557600080fd5b82600160a060020a031663d0e30db0346040518263ffffffff1660e060020a0281526004016000604051808303818588803b158015612a9357600080fd5b505af1158015612aa7573d6000803e3d6000fd5b5050505050612ac3565b8015612ac357612ac383333085612223565b505050565b845160009085906000190182808080600160a060020a0389161515612afb578715612af257600080fd5b60009350612bb8565b876000108015612b0d57506002548811155b1515612b1857600080fd5b600480546040805160e260020a632ecd14d30281527f424e54546f6b656e0000000000000000000000000000000000000000000000009381019390935251600160a060020a039091169163bb34534c9160248083019260209291908290030181600087803b158015612b8957600080fd5b505af1158015612b9d573d6000803e3d6000fd5b505050506040513d6020811015612bb357600080fd5b505193505b600292505b848311612ec3578b60018403815181101515612bd557fe5b90602001906020020151600160a060020a0316638da5cb5b6040518163ffffffff1660e060020a028152600401602060405180830381600087803b158015612c1c57600080fd5b505af1158015612c30573d6000803e3d6000fd5b505050506040513d6020811015612c4657600080fd5b50518c519092508c906001198501908110612c5d57fe5b90602001906020020151600160a060020a03168c60018503815181101515612c8157fe5b60209081029091010151600160a060020a031614612cbe57612cbe8c60028503815181101515612cad57fe5b90602001906020020151838861355f565b81600160a060020a0316635e5144eb8d60028603815181101515612cde57fe5b906020019060200201518e86815181101515612cf657fe5b9060200190602002015189898814612d0f576001612d11565b8e5b6040518563ffffffff1660e060020a0281526004018085600160a060020a0316600160a060020a0316815260200184600160a060020a0316600160a060020a03168152602001838152602001828152602001945050505050602060405180830381600087803b158015612d8357600080fd5b505af1158015612d97573d6000803e3d6000fd5b505050506040513d6020811015612dad57600080fd5b50518c51909650600160a060020a038516908d9085908110612dcb57fe5b90602001906020020151600160a060020a03161415612eb857612dfb620f424061112a888b63ffffffff611fba16565b90508b83815181101515612e0b57fe5b90602001906020020151600160a060020a031663a9059cbb8a836040518363ffffffff1660e060020a0281526004018083600160a060020a0316600160a060020a0316815260200182815260200192505050602060405180830381600087803b158015612e7757600080fd5b505af1158015612e8b573d6000803e3d6000fd5b505050506040513d6020811015612ea157600080fd5b50511515612eae57600080fd5b8086039550600093505b600283019250612bbd565b50939a9950505050505050505050565b600480546040805160e260020a632ecd14d30281527f4e6f6e5374616e64617264546f6b656e52656769737472790000000000000000938101939093525160009283928392600160a060020a039091169163bb34534c91602480830192602092919082900301818787803b158015612f4a57600080fd5b505af1158015612f5e573d6000803e3d6000fd5b505050506040513d6020811015612f7457600080fd5b5051604080517faeea10bd000000000000000000000000000000000000000000000000000000008152600160a060020a03898116600483015291519295509085169163aeea10bd916024808201926020929091908290030181600087803b158015612fde57600080fd5b505af1158015612ff2573d6000803e3d6000fd5b505050506040513d602081101561300857600080fd5b5051156131b35785600160a060020a03166370a08231866040518263ffffffff1660e060020a0281526004018082600160a060020a0316600160a060020a03168152602001915050602060405180830381600087803b15801561306a57600080fd5b505af115801561307e573d6000803e3d6000fd5b505050506040513d602081101561309457600080fd5b5051604080517fa9059cbb000000000000000000000000000000000000000000000000000000008152600160a060020a0388811660048301526024820188905291519294509088169163a9059cbb9160448082019260009290919082900301818387803b15801561310457600080fd5b505af1158015613118573d6000803e3d6000fd5b5050505085600160a060020a03166370a08231866040518263ffffffff1660e060020a0281526004018082600160a060020a0316600160a060020a03168152602001915050602060405180830381600087803b15801561317757600080fd5b505af115801561318b573d6000803e3d6000fd5b505050506040513d60208110156131a157600080fd5b505190508181116131ae57fe5b61324a565b85600160a060020a031663a9059cbb86866040518363ffffffff1660e060020a0281526004018083600160a060020a0316600160a060020a0316815260200182815260200192505050602060405180830381600087803b15801561321657600080fd5b505af115801561322a573d6000803e3d6000fd5b505050506040513d602081101561324057600080fd5b5051151561324a57fe5b505050505050565b600080600083600181518110151561326657fe5b90602001906020020151925082431115151561328157600080fd5b823a863387600081518110151561329457fe5b906020019060200201518a6040516020018087815260200186815260200185600160a060020a0316600160a060020a03166c0100000000000000000000000002815260140184600160a060020a0316600160a060020a03166c01000000000000000000000000028152601401838152602001828051906020019060200280838360005b8381101561332f578181015183820152602001613317565b5050505090500196505050505050506040516020818303038152906040526040518082805190602001908083835b6020831061337c5780518252601f19909201916020918201910161335d565b51815160209384036101000a6000190180199092169116179052604080519290940182900390912060008181526006909252929020549195505060ff161591506133c7905057600080fd5b604080517f19457468657265756d205369676e6564204d6573736167653a0a333200000000602080830191909152603c80830186905283518084039091018152605c90920192839052815191929182918401908083835b6020831061343d5780518252601f19909201916020918201910161341e565b5181516020939093036101000a600019018019909116921691909117905260405192018290039091206003548851919550600160a060020a03169350600192508491508790600290811061348d57fe5b906020019060200201518760038151811015156134a657fe5b602090810290910101518851899060049081106134bf57fe5b60209081029091018101516040805160008082528185018084529790975260ff9095168582015260608501939093526080840152905160a0808401949293601f19830193908390039091019190865af1158015613520573d6000803e3d6000fd5b50505060206040510351600160a060020a031614151561353f57600080fd5b506000908152600660205260409020805460ff1916600117905550505050565b604080517fdd62ed3e000000000000000000000000000000000000000000000000000000008152306004820152600160a060020a0384811660248301529151839286169163dd62ed3e9160448083019260209291908290030181600087803b1580156135ca57600080fd5b505af11580156135de573d6000803e3d6000fd5b505050506040513d60208110156135f457600080fd5b50511061360057612ac3565b604080517fdd62ed3e000000000000000000000000000000000000000000000000000000008152306004820152600160a060020a03848116602483015291519185169163dd62ed3e916044808201926020929091908290030181600087803b15801561366b57600080fd5b505af115801561367f573d6000803e3d6000fd5b505050506040513d602081101561369557600080fd5b50511561371d57604080517f095ea7b3000000000000000000000000000000000000000000000000000000008152600160a060020a03848116600483015260006024830181905292519086169263095ea7b3926044808201939182900301818387803b15801561370457600080fd5b505af1158015613718573d6000803e3d6000fd5b505050505b82600160a060020a031663095ea7b383836040518363ffffffff1660e060020a0281526004018083600160a060020a0316600160a060020a0316815260200182815260200192505050600060405180830381600087803b15801561378057600080fd5b505af11580156125b3573d6000803e3d6000fd5b604080518082018252906002908290803883395091929150505600a165627a7a72305820ad96ef5b7c36f9633995fc1cf6f91ae051e166ef2242d277f4c22061555222fd0029",
  "source": "pragma solidity ^0.4.24;\r\nimport './IBancorNetwork.sol';\r\nimport './ContractIds.sol';\r\nimport './FeatureIds.sol';\r\nimport './converter/interfaces/IBancorConverter.sol';\r\nimport './converter/interfaces/IBancorFormula.sol';\r\nimport './converter/interfaces/IBancorGasPriceLimit.sol';\r\nimport './utility/TokenHolder.sol';\r\nimport './utility/SafeMath.sol';\r\nimport './utility/interfaces/IContractRegistry.sol';\r\nimport './utility/interfaces/IContractFeatures.sol';\r\nimport './utility/interfaces/IWhitelist.sol';\r\nimport './utility/interfaces/IAddressList.sol';\r\nimport './token/interfaces/IEtherToken.sol';\r\nimport './token/interfaces/ISmartToken.sol';\r\nimport './token/interfaces/INonStandardERC20.sol';\r\nimport './bancorx/interfaces/IBancorX.sol';\r\n\r\n/**\r\n  * @dev The BancorNetwork contract is the main entry point for Bancor token conversions. It also allows for the conversion of any token in the Bancor Network to any other token in a single transaction by providing a conversion path. \r\n  * \r\n  * A note on Conversion Path: Conversion path is a data structure that is used when converting a token to another token in the Bancor Network when the conversion cannot necessarily be done by a single converter and might require multiple 'hops'. The path defines which converters should be used and what kind of conversion should be done in each step. \r\n  * \r\n  * The path format doesn't include complex structure; instead, it is represented by a single array in which each 'hop' is represented by a 2-tuple - smart token & to token. In addition, the first element is always the source token. The smart token is only used as a pointer to a converter (since converter addresses are more likely to change as opposed to smart token addresses).\r\n  * \r\n  * Format:\r\n  * [source token, smart token, to token, smart token, to token...]\r\n*/\r\ncontract BancorNetwork is IBancorNetwork, TokenHolder, ContractIds, FeatureIds {\r\n    using SafeMath for uint256;\r\n\r\n    uint256 private constant CONVERSION_FEE_RESOLUTION = 1000000;\r\n    uint256 private constant AFFILIATE_FEE_RESOLUTION = 1000000;\r\n\r\n    uint256 public maxAffiliateFee = 30000;     // maximum affiliate-fee\r\n    address public signerAddress = 0x0;         // verified address that allows conversions with higher gas price\r\n    IContractRegistry public registry;          // contract registry contract address\r\n\r\n    mapping (address => bool) public etherTokens;       // list of all supported ether tokens\r\n    mapping (bytes32 => bool) public conversionHashes;  // list of conversion hashes, to prevent re-use of the same hash\r\n\r\n    /**\r\n      * @dev initializes a new BancorNetwork instance\r\n      * \r\n      * @param _registry    address of a contract registry contract\r\n    */\r\n    constructor(IContractRegistry _registry) public validAddress(_registry) {\r\n        registry = _registry;\r\n    }\r\n\r\n    /**\r\n      * @dev allows the owner to update the maximum affiliate-fee\r\n      * \r\n      * @param _maxAffiliateFee   maximum affiliate-fee\r\n    */\r\n    function setMaxAffiliateFee(uint256 _maxAffiliateFee)\r\n        public\r\n        ownerOnly\r\n    {\r\n        require(_maxAffiliateFee <= AFFILIATE_FEE_RESOLUTION);\r\n        maxAffiliateFee = _maxAffiliateFee;\r\n    }\r\n\r\n    /**\r\n      * @dev allows the owner to update the contract registry contract address\r\n      * \r\n      * @param _registry   address of a contract registry contract\r\n    */\r\n    function setRegistry(IContractRegistry _registry)\r\n        public\r\n        ownerOnly\r\n        validAddress(_registry)\r\n        notThis(_registry)\r\n    {\r\n        registry = _registry;\r\n    }\r\n\r\n    /**\r\n      * @dev allows the owner to update the signer address\r\n      * \r\n      * @param _signerAddress    new signer address\r\n    */\r\n    function setSignerAddress(address _signerAddress)\r\n        public\r\n        ownerOnly\r\n        validAddress(_signerAddress)\r\n        notThis(_signerAddress)\r\n    {\r\n        signerAddress = _signerAddress;\r\n    }\r\n\r\n    /**\r\n      * @dev allows the owner to register/unregister ether tokens\r\n      * \r\n      * @param _token       ether token contract address\r\n      * @param _register    true to register, false to unregister\r\n    */\r\n    function registerEtherToken(IEtherToken _token, bool _register)\r\n        public\r\n        ownerOnly\r\n        validAddress(_token)\r\n        notThis(_token)\r\n    {\r\n        etherTokens[_token] = _register;\r\n    }\r\n\r\n    /**\r\n      * @dev verifies that the signer address is trusted by recovering \r\n      * the address associated with the public key from elliptic \r\n      * curve signature, returns zero on error.\r\n      * notice that the signature is valid only for one conversion\r\n      * and expires after the give block.\r\n    */\r\n    function verifyTrustedSender(IERC20Token[] _path, address _addr, uint256[] memory _signature) private {\r\n        uint256 blockNumber = _signature[1];\r\n\r\n        // check that the current block number doesn't exceeded the maximum allowed with the current signature\r\n        require(block.number <= blockNumber);\r\n\r\n        // create the hash of the given signature\r\n        bytes32 hash = keccak256(abi.encodePacked(blockNumber, tx.gasprice, _addr, msg.sender, _signature[0], _path));\r\n\r\n        // check that it is the first conversion with the given signature\r\n        require(!conversionHashes[hash]);\r\n\r\n        // verify that the signing address is identical to the trusted signer address in the contract\r\n        bytes32 prefixedHash = keccak256(abi.encodePacked(\"\\x19Ethereum Signed Message:\\n32\", hash));\r\n        require(ecrecover(prefixedHash, uint8(_signature[2]), bytes32(_signature[3]), bytes32(_signature[4])) == signerAddress);\r\n\r\n        // mark the hash so that it can't be used multiple times\r\n        conversionHashes[hash] = true;\r\n    }\r\n\r\n    /**\r\n      * @dev converts the token to any other token in the bancor network by following\r\n      * a predefined conversion path and transfers the result tokens to a target account\r\n      * note that the converter should already own the source tokens\r\n      * \r\n      * @param _path                conversion path, see conversion path format above\r\n      * @param _amount              amount to convert from (in the initial source token)\r\n      * @param _minReturn           if the conversion results in an amount smaller than the minimum return - it is cancelled, must be nonzero\r\n      * @param _for                 account that will receive the conversion result\r\n      * @param _affiliateAccount    affiliate account\r\n      * @param _affiliateFee        affiliate fee in PPM\r\n      * \r\n      * @return tokens issued in return\r\n    */\r\n    function convertFor2(IERC20Token[] _path, uint256 _amount, uint256 _minReturn, address _for, address _affiliateAccount, uint256 _affiliateFee) public payable returns (uint256) {\r\n        return convertForPrioritized4(_path, _amount, _minReturn, _for, getSignature(0x0, 0x0, 0x0, 0x0, 0x0), _affiliateAccount, _affiliateFee);\r\n    }\r\n\r\n    /**\r\n      * @dev converts the token to any other token in the bancor network\r\n      * by following a predefined conversion path and transfers the result\r\n      * tokens to a target account.\r\n      * this version of the function also allows the verified signer\r\n      * to bypass the universal gas price limit.\r\n      * note that the converter should already own the source tokens\r\n      * \r\n      * @param _path                conversion path, see conversion path format above\r\n      * @param _amount              amount to convert from (in the initial source token)\r\n      * @param _minReturn           if the conversion results in an amount smaller than the minimum return - it is cancelled, must be nonzero\r\n      * @param _for                 account that will receive the conversion result\r\n      * @param _signature           an array of the following elements:\r\n      *                             [0] uint256     custom value that was signed for prioritized conversion\r\n      *                             [1] uint256     if the current block exceeded the given parameter - it is cancelled\r\n      *                             [2] uint8       (signature[128:130]) associated with the signer address and helps to validate if the signature is legit\r\n      *                             [3] bytes32     (signature[0:64]) associated with the signer address and helps to validate if the signature is legit\r\n      *                             [4] bytes32     (signature[64:128]) associated with the signer address and helps to validate if the signature is legit\r\n      *                             if the array is empty (length == 0), then the gas-price limit is verified instead of the signature\r\n      * @param _affiliateAccount    affiliate account\r\n      * @param _affiliateFee        affiliate fee in PPM\r\n      * \r\n      * @return tokens issued in return\r\n    */\r\n    function convertForPrioritized4(\r\n        IERC20Token[] _path,\r\n        uint256 _amount,\r\n        uint256 _minReturn,\r\n        address _for,\r\n        uint256[] memory _signature,\r\n        address _affiliateAccount,\r\n        uint256 _affiliateFee\r\n    )\r\n        public\r\n        payable\r\n        returns (uint256)\r\n    {\r\n        // verify that the conversion parameters are legal\r\n        verifyConversionParams(_path, _for, _for, _signature);\r\n\r\n        // handle msg.value\r\n        handleValue(_path[0], _amount, false);\r\n\r\n        // convert and get the resulting amount\r\n        uint256 amount = convertByPath(_path, _amount, _minReturn, _affiliateAccount, _affiliateFee);\r\n\r\n        // finished the conversion, transfer the funds to the target account\r\n        // if the target token is an ether token, withdraw the tokens and send them as ETH\r\n        // otherwise, transfer the tokens as is\r\n        IERC20Token toToken = _path[_path.length - 1];\r\n        if (etherTokens[toToken])\r\n            IEtherToken(toToken).withdrawTo(_for, amount);\r\n        else\r\n            ensureTransfer(toToken, _for, amount);\r\n\r\n        return amount;\r\n    }\r\n\r\n    /**\r\n      * @dev converts any other token to BNT in the bancor network\r\n      * by following a predefined conversion path and transfers the resulting\r\n      * tokens to BancorX.\r\n      * note that the network should already have been given allowance of the source token (if not ETH)\r\n      * \r\n      * @param _path             conversion path, see conversion path format above\r\n      * @param _amount           amount to convert from (in the initial source token)\r\n      * @param _minReturn        if the conversion results in an amount smaller than the minimum return - it is cancelled, must be nonzero\r\n      * @param _toBlockchain     blockchain BNT will be issued on\r\n      * @param _to               address/account on _toBlockchain to send the BNT to\r\n      * @param _conversionId     pre-determined unique (if non zero) id which refers to this transaction \r\n      * \r\n      * @return the amount of BNT received from this conversion\r\n    */\r\n    function xConvert(\r\n        IERC20Token[] _path,\r\n        uint256 _amount,\r\n        uint256 _minReturn,\r\n        bytes32 _toBlockchain,\r\n        bytes32 _to,\r\n        uint256 _conversionId\r\n    )\r\n        public\r\n        payable\r\n        returns (uint256)\r\n    {\r\n        return xConvertPrioritized2(_path, _amount, _minReturn, _toBlockchain, _to, _conversionId, getSignature(0x0, 0x0, 0x0, 0x0, 0x0));\r\n    }\r\n\r\n    /**\r\n      * @dev converts any other token to BNT in the bancor network\r\n      * by following a predefined conversion path and transfers the resulting\r\n      * tokens to BancorX.\r\n      * this version of the function also allows the verified signer\r\n      * to bypass the universal gas price limit.\r\n      * note that the network should already have been given allowance of the source token (if not ETH)\r\n      * \r\n      * @param _path            conversion path, see conversion path format above\r\n      * @param _amount          amount to convert from (in the initial source token)\r\n      * @param _minReturn       if the conversion results in an amount smaller than the minimum return - it is cancelled, must be nonzero\r\n      * @param _toBlockchain    blockchain BNT will be issued on\r\n      * @param _to              address/account on _toBlockchain to send the BNT to\r\n      * @param _conversionId    pre-determined unique (if non zero) id which refers to this transaction \r\n      * @param _signature       an array of the following elements:\r\n      *                         [0] uint256     custom value that was signed for prioritized conversion; must be equal to _amount\r\n      *                         [1] uint256     if the current block exceeded the given parameter - it is cancelled\r\n      *                         [2] uint8       (signature[128:130]) associated with the signer address and helps to validate if the signature is legit\r\n      *                         [3] bytes32     (signature[0:64]) associated with the signer address and helps to validate if the signature is legit\r\n      *                         [4] bytes32     (signature[64:128]) associated with the signer address and helps to validate if the signature is legit\r\n      *                         if the array is empty (length == 0), then the gas-price limit is verified instead of the signature\r\n      * \r\n      * @return the amount of BNT received from this conversion\r\n    */\r\n    function xConvertPrioritized2(\r\n        IERC20Token[] _path,\r\n        uint256 _amount,\r\n        uint256 _minReturn,\r\n        bytes32 _toBlockchain,\r\n        bytes32 _to,\r\n        uint256 _conversionId,\r\n        uint256[] memory _signature\r\n    )\r\n        public\r\n        payable\r\n        returns (uint256)\r\n    {\r\n        // verify that the custom value (if valid) is equal to _amount\r\n        require(_signature.length == 0 || _signature[0] == _amount);\r\n\r\n        // verify that the conversion parameters are legal\r\n        verifyConversionParams(_path, msg.sender, this, _signature);\r\n\r\n        // verify that the destination token is BNT\r\n        require(_path[_path.length - 1] == registry.addressOf(ContractIds.BNT_TOKEN));\r\n\r\n        // handle msg.value\r\n        handleValue(_path[0], _amount, true);\r\n\r\n        // convert and get the resulting amount\r\n        uint256 amount = convertByPath(_path, _amount, _minReturn, address(0), 0);\r\n\r\n        // transfer the resulting amount to BancorX\r\n        IBancorX(registry.addressOf(ContractIds.BANCOR_X)).xTransfer(_toBlockchain, _to, amount, _conversionId);\r\n\r\n        return amount;\r\n    }\r\n\r\n    /**\r\n      * @dev executes the actual conversion by following the conversion path\r\n      * \r\n      * @param _path                conversion path, see conversion path format above\r\n      * @param _amount              amount to convert from (in the initial source token)\r\n      * @param _minReturn           if the conversion results in an amount smaller than the minimum return - it is cancelled, must be nonzero\r\n      * @param _affiliateAccount    affiliate account\r\n      * @param _affiliateFee        affiliate fee in PPM\r\n      * \r\n      * @return amount of tokens issued\r\n    */\r\n    function convertByPath(\r\n        IERC20Token[] _path,\r\n        uint256 _amount,\r\n        uint256 _minReturn,\r\n        address _affiliateAccount,\r\n        uint256 _affiliateFee\r\n    ) private returns (uint256) {\r\n        uint256 amount = _amount;\r\n        uint256 lastIndex = _path.length - 1;\r\n\r\n        address bntToken;\r\n        if (address(_affiliateAccount) == 0) {\r\n            require(_affiliateFee == 0);\r\n            bntToken = address(0);\r\n        }\r\n        else {\r\n            require(0 < _affiliateFee && _affiliateFee <= maxAffiliateFee);\r\n            bntToken = registry.addressOf(ContractIds.BNT_TOKEN);\r\n        }\r\n\r\n        // iterate over the conversion path\r\n        for (uint256 i = 2; i <= lastIndex; i += 2) {\r\n            IBancorConverter converter = IBancorConverter(ISmartToken(_path[i - 1]).owner());\r\n\r\n            // if the smart token isn't the source (from token), the converter doesn't have control over it and thus we need to approve the request\r\n            if (_path[i - 1] != _path[i - 2])\r\n                ensureAllowance(_path[i - 2], converter, amount);\r\n\r\n            // make the conversion - if it's the last one, also provide the minimum return value\r\n            amount = converter.change(_path[i - 2], _path[i], amount, i == lastIndex ? _minReturn : 1);\r\n\r\n            // pay affiliate-fee if needed\r\n            if (address(_path[i]) == bntToken) {\r\n                uint256 affiliateAmount = amount.mul(_affiliateFee).div(AFFILIATE_FEE_RESOLUTION);\r\n                require(_path[i].transfer(_affiliateAccount, affiliateAmount));\r\n                amount -= affiliateAmount;\r\n                bntToken = address(0);\r\n            }\r\n        }\r\n\r\n        return amount;\r\n    }\r\n\r\n    bytes4 private constant GET_RETURN_FUNC_SELECTOR = bytes4(uint256(keccak256(\"getReturn(address,address,uint256)\") >> (256 - 4 * 8)));\r\n\r\n    function getReturn(address _dest, address _fromToken, address _toToken, uint256 _amount) internal view returns (uint256, uint256) {\r\n        uint256[2] memory ret;\r\n        bytes memory data = abi.encodeWithSelector(GET_RETURN_FUNC_SELECTOR, _fromToken, _toToken, _amount);\r\n\r\n        assembly {\r\n            let success := staticcall(\r\n                gas,           // gas remaining\r\n                _dest,         // destination address\r\n                add(data, 32), // input buffer (starts after the first 32 bytes in the `data` array)\r\n                mload(data),   // input length (loaded from the first 32 bytes in the `data` array)\r\n                ret,           // output buffer\r\n                64             // output length\r\n            )\r\n            if iszero(success) {\r\n                revert(0, 0)\r\n            }\r\n        }\r\n\r\n        return (ret[0], ret[1]);\r\n    }\r\n\r\n    /**\r\n      * @dev returns the expected return amount for converting a specific amount by following\r\n      * a given conversion path.\r\n      * notice that there is no support for circular paths.\r\n      * \r\n      * @param _path        conversion path, see conversion path format above\r\n      * @param _amount      amount to convert from (in the initial source token)\r\n      * \r\n      * @return expected conversion return amount and conversion fee\r\n    */\r\n    function getReturnByPath(IERC20Token[] _path, uint256 _amount) public view returns (uint256, uint256) {\r\n        IERC20Token fromToken;\r\n        ISmartToken smartToken; \r\n        IERC20Token toToken;\r\n        IBancorConverter converter;\r\n        uint256 amount;\r\n        uint256 fee;\r\n        uint256 supply;\r\n        uint256 balance;\r\n        uint32 weight;\r\n        ISmartToken prevSmartToken;\r\n        IBancorFormula formula = IBancorFormula(registry.getAddress(ContractIds.BANCOR_FORMULA));\r\n\r\n        amount = _amount;\r\n        fromToken = _path[0];\r\n\r\n        // iterate over the conversion path\r\n        for (uint256 i = 1; i < _path.length; i += 2) {\r\n            smartToken = ISmartToken(_path[i]);\r\n            toToken = _path[i + 1];\r\n            converter = IBancorConverter(smartToken.owner());\r\n\r\n            if (toToken == smartToken) { // buy the smart token\r\n                // check if the current smart token supply was changed in the previous iteration\r\n                supply = smartToken == prevSmartToken ? supply : smartToken.totalSupply();\r\n\r\n                // validate input\r\n                require(getConnectorSaleEnabled(converter, fromToken));\r\n\r\n                // calculate the amount & the conversion fee\r\n                balance = converter.getConnectorBalance(fromToken);\r\n                weight = getConnectorWeight(converter, fromToken);\r\n                amount = formula.calculatePurchaseReturn(supply, balance, weight, amount);\r\n                fee = amount.mul(converter.conversionFee()).div(CONVERSION_FEE_RESOLUTION);\r\n                amount -= fee;\r\n\r\n                // update the smart token supply for the next iteration\r\n                supply = smartToken.totalSupply() + amount;\r\n            }\r\n            else if (fromToken == smartToken) { // sell the smart token\r\n                // check if the current smart token supply was changed in the previous iteration\r\n                supply = smartToken == prevSmartToken ? supply : smartToken.totalSupply();\r\n\r\n                // calculate the amount & the conversion fee\r\n                balance = converter.getConnectorBalance(toToken);\r\n                weight = getConnectorWeight(converter, toToken);\r\n                amount = formula.calculateSaleReturn(supply, balance, weight, amount);\r\n                fee = amount.mul(converter.conversionFee()).div(CONVERSION_FEE_RESOLUTION);\r\n                amount -= fee;\r\n\r\n                // update the smart token supply for the next iteration\r\n                supply = smartToken.totalSupply() - amount;\r\n            }\r\n            else { // cross connector conversion\r\n                (amount, fee) = getReturn(converter, fromToken, toToken, amount);\r\n            }\r\n\r\n            prevSmartToken = smartToken;\r\n            fromToken = toToken;\r\n        }\r\n\r\n        return (amount, fee);\r\n    }\r\n\r\n    /**\r\n      * @dev claims the caller's tokens, converts them to any other token in the bancor network\r\n      * by following a predefined conversion path and transfers the result tokens to a target account\r\n      * note that allowance must be set beforehand\r\n      * \r\n      * @param _path                conversion path, see conversion path format above\r\n      * @param _amount              amount to convert from (in the initial source token)\r\n      * @param _minReturn           if the conversion results in an amount smaller than the minimum return - it is cancelled, must be nonzero\r\n      * @param _for                 account that will receive the conversion result\r\n      * @param _affiliateAccount    affiliate account\r\n      * @param _affiliateFee        affiliate fee in PPM\r\n      * \r\n      * @return tokens issued in return\r\n    */\r\n    function claimAndConvertFor2(IERC20Token[] _path, uint256 _amount, uint256 _minReturn, address _for, address _affiliateAccount, uint256 _affiliateFee) public returns (uint256) {\r\n        // we need to transfer the tokens from the caller to the converter before we follow\r\n        // the conversion path, to allow it to execute the conversion on behalf of the caller\r\n        // note: we assume we already have allowance\r\n        IERC20Token fromToken = _path[0];\r\n        ensureTransferFrom(fromToken, msg.sender, this, _amount);\r\n        return convertFor2(_path, _amount, _minReturn, _for, _affiliateAccount, _affiliateFee);\r\n    }\r\n\r\n    /**\r\n      * @dev converts the token to any other token in the bancor network by following\r\n      * a predefined conversion path and transfers the result tokens back to the sender\r\n      * note that the converter should already own the source tokens\r\n      * \r\n      * @param _path                conversion path, see conversion path format above\r\n      * @param _amount              amount to convert from (in the initial source token)\r\n      * @param _minReturn           if the conversion results in an amount smaller than the minimum return - it is cancelled, must be nonzero\r\n      * @param _affiliateAccount    affiliate account\r\n      * @param _affiliateFee        affiliate fee in PPM\r\n      * \r\n      * @return tokens issued in return\r\n    */\r\n    function convert2(IERC20Token[] _path, uint256 _amount, uint256 _minReturn, address _affiliateAccount, uint256 _affiliateFee) public payable returns (uint256) {\r\n        return convertFor2(_path, _amount, _minReturn, msg.sender, _affiliateAccount, _affiliateFee);\r\n    }\r\n\r\n    /**\r\n      * @dev claims the caller's tokens, converts them to any other token in the bancor network\r\n      * by following a predefined conversion path and transfers the result tokens back to the sender\r\n      * note that allowance must be set beforehand\r\n      * \r\n      * @param _path                conversion path, see conversion path format above\r\n      * @param _amount              amount to convert from (in the initial source token)\r\n      * @param _minReturn           if the conversion results in an amount smaller than the minimum return - it is cancelled, must be nonzero\r\n      * @param _affiliateAccount    affiliate account\r\n      * @param _affiliateFee        affiliate fee in PPM\r\n      * \r\n      * @return tokens issued in return\r\n    */\r\n    function claimAndConvert2(IERC20Token[] _path, uint256 _amount, uint256 _minReturn, address _affiliateAccount, uint256 _affiliateFee) public returns (uint256) {\r\n        return claimAndConvertFor2(_path, _amount, _minReturn, msg.sender, _affiliateAccount, _affiliateFee);\r\n    }\r\n\r\n    /**\r\n      * @dev ensures transfer of tokens, taking into account that some ERC-20 implementations don't return\r\n      * true on success but revert on failure instead\r\n      * \r\n      * @param _token     the token to transfer\r\n      * @param _to        the address to transfer the tokens to\r\n      * @param _amount    the amount to transfer\r\n    */\r\n    function ensureTransfer(IERC20Token _token, address _to, uint256 _amount) private {\r\n        IAddressList addressList = IAddressList(registry.addressOf(ContractIds.NON_STANDARD_TOKEN_REGISTRY));\r\n\r\n        if (addressList.listedAddresses(_token)) {\r\n            uint256 prevBalance = _token.balanceOf(_to);\r\n            // we have to cast the token contract in an interface which has no return value\r\n            INonStandardERC20(_token).transfer(_to, _amount);\r\n            uint256 postBalance = _token.balanceOf(_to);\r\n            assert(postBalance > prevBalance);\r\n        } else {\r\n            // if the token isn't whitelisted, we assert on transfer\r\n            assert(_token.transfer(_to, _amount));\r\n        }\r\n    }\r\n\r\n    /**\r\n      * @dev ensures transfer of tokens, taking into account that some ERC-20 implementations don't return\r\n      * true on success but revert on failure instead\r\n      * \r\n      * @param _token     the token to transfer\r\n      * @param _from      the address to transfer the tokens from\r\n      * @param _to        the address to transfer the tokens to\r\n      * @param _amount    the amount to transfer\r\n    */\r\n    function ensureTransferFrom(IERC20Token _token, address _from, address _to, uint256 _amount) private {\r\n        IAddressList addressList = IAddressList(registry.addressOf(ContractIds.NON_STANDARD_TOKEN_REGISTRY));\r\n\r\n        if (addressList.listedAddresses(_token)) {\r\n            uint256 prevBalance = _token.balanceOf(_to);\r\n            // we have to cast the token contract in an interface which has no return value\r\n            INonStandardERC20(_token).transferFrom(_from, _to, _amount);\r\n            uint256 postBalance = _token.balanceOf(_to);\r\n            assert(postBalance > prevBalance);\r\n        } else {\r\n            // if the token isn't whitelisted, we assert on transfer\r\n            assert(_token.transferFrom(_from, _to, _amount));\r\n        }\r\n    }\r\n\r\n    /**\r\n      * @dev utility, checks whether allowance for the given spender exists and approves one if it doesn't.\r\n      * Note that we use the non standard erc-20 interface in which `approve` has no return value so that\r\n      * this function will work for both standard and non standard tokens\r\n      * \r\n      * @param _token   token to check the allowance in\r\n      * @param _spender approved address\r\n      * @param _value   allowance amount\r\n    */\r\n    function ensureAllowance(IERC20Token _token, address _spender, uint256 _value) private {\r\n        // check if allowance for the given amount already exists\r\n        if (_token.allowance(this, _spender) >= _value)\r\n            return;\r\n\r\n        // if the allowance is nonzero, must reset it to 0 first\r\n        if (_token.allowance(this, _spender) != 0)\r\n            INonStandardERC20(_token).approve(_spender, 0);\r\n\r\n        // approve the new allowance\r\n        INonStandardERC20(_token).approve(_spender, _value);\r\n    }\r\n\r\n    /**\r\n      * @dev returns the connector weight\r\n      * \r\n      * @param _converter       converter contract address\r\n      * @param _connector       connector's address to read from\r\n      * \r\n      * @return connector's weight\r\n    */\r\n    function getConnectorWeight(IBancorConverter _converter, IERC20Token _connector) \r\n        private\r\n        view\r\n        returns(uint32)\r\n    {\r\n        uint256 virtualBalance;\r\n        uint32 weight;\r\n        bool isVirtualBalanceEnabled;\r\n        bool isSaleEnabled;\r\n        bool isSet;\r\n        (virtualBalance, weight, isVirtualBalanceEnabled, isSaleEnabled, isSet) = _converter.connectors(_connector);\r\n        return weight;\r\n    }\r\n\r\n    /**\r\n      * @dev returns true if connector sale is enabled\r\n      * \r\n      * @param _converter       converter contract address\r\n      * @param _connector       connector's address to read from\r\n      * \r\n      * @return true if connector sale is enabled, otherwise - false\r\n    */\r\n    function getConnectorSaleEnabled(IBancorConverter _converter, IERC20Token _connector) \r\n        private\r\n        view\r\n        returns(bool)\r\n    {\r\n        uint256 virtualBalance;\r\n        uint32 weight;\r\n        bool isVirtualBalanceEnabled;\r\n        bool isSaleEnabled;\r\n        bool isSet;\r\n        (virtualBalance, weight, isVirtualBalanceEnabled, isSaleEnabled, isSet) = _converter.connectors(_connector);\r\n        return isSaleEnabled;\r\n    }\r\n\r\n    function getSignature(\r\n        uint256 _customVal,\r\n        uint256 _block,\r\n        uint8 _v,\r\n        bytes32 _r,\r\n        bytes32 _s\r\n    ) private pure returns (uint256[] memory) {\r\n        if (_v == 0x0 && _r == 0x0 && _s == 0x0)\r\n            return new uint256[](0);\r\n        uint256[] memory signature = new uint256[](5);\r\n        signature[0] = _customVal;\r\n        signature[1] = _block;\r\n        signature[2] = uint256(_v);\r\n        signature[3] = uint256(_r);\r\n        signature[4] = uint256(_s);\r\n        return signature;\r\n    }\r\n\r\n    function verifyConversionParams(\r\n        IERC20Token[] _path,\r\n        address _sender,\r\n        address _receiver,\r\n        uint256[] memory _signature\r\n    )\r\n        private\r\n    {\r\n        // verify that the number of elements is odd and that maximum number of 'hops' is 10\r\n        require(_path.length > 2 && _path.length <= (1 + 2 * 10) && _path.length % 2 == 1);\r\n\r\n        // verify that the account which should receive the conversion result is whitelisted\r\n        IContractFeatures features = IContractFeatures(registry.addressOf(ContractIds.CONTRACT_FEATURES));\r\n        for (uint256 i = 1; i < _path.length; i += 2) {\r\n            IBancorConverter converter = IBancorConverter(ISmartToken(_path[i]).owner());\r\n            if (features.isSupported(converter, FeatureIds.CONVERTER_CONVERSION_WHITELIST)) {\r\n                IWhitelist whitelist = converter.conversionWhitelist();\r\n                require (whitelist == address(0) || whitelist.isWhitelisted(_receiver));\r\n            }\r\n        }\r\n\r\n        if (_signature.length >= 5) {\r\n            // verify signature\r\n            verifyTrustedSender(_path, _sender, _signature);\r\n        }\r\n        else {\r\n            // verify gas price limit\r\n            IBancorGasPriceLimit gasPriceLimit = IBancorGasPriceLimit(registry.addressOf(ContractIds.BANCOR_GAS_PRICE_LIMIT));\r\n            gasPriceLimit.validateGasPrice(tx.gasprice);\r\n        }\r\n    }\r\n\r\n    function handleValue(IERC20Token _token, uint256 _amount, bool _claim) private {\r\n        // if ETH is provided, ensure that the amount is identical to _amount, verify that the source token is an ether token and deposit the ETH in it\r\n        if (msg.value > 0) {\r\n            require(_amount == msg.value && etherTokens[_token]);\r\n            IEtherToken(_token).deposit.value(msg.value)();\r\n        }\r\n        // Otherwise, claim the tokens from the sender if needed\r\n        else if (_claim) {\r\n            ensureTransferFrom(_token, msg.sender, this, _amount);\r\n        }\r\n    }\r\n\r\n    /**\r\n      * @dev deprecated, backward compatibility\r\n    */\r\n    function convert(\r\n        IERC20Token[] _path,\r\n        uint256 _amount,\r\n        uint256 _minReturn\r\n    ) public payable returns (uint256)\r\n    {\r\n        return convert2(_path, _amount, _minReturn, address(0), 0);\r\n    }\r\n\r\n    /**\r\n      * @dev deprecated, backward compatibility\r\n    */\r\n    function claimAndConvert(\r\n        IERC20Token[] _path,\r\n        uint256 _amount,\r\n        uint256 _minReturn\r\n    ) public returns (uint256)\r\n    {\r\n        return claimAndConvert2(_path, _amount, _minReturn, address(0), 0);\r\n    }\r\n\r\n    /**\r\n      * @dev deprecated, backward compatibility\r\n    */\r\n    function convertFor(\r\n        IERC20Token[] _path,\r\n        uint256 _amount,\r\n        uint256 _minReturn,\r\n        address _for\r\n    ) public payable returns (uint256)\r\n    {\r\n        return convertFor2(_path, _amount, _minReturn, _for, address(0), 0);\r\n    }\r\n\r\n    /**\r\n      * @dev deprecated, backward compatibility\r\n    */\r\n    function claimAndConvertFor(\r\n        IERC20Token[] _path,\r\n        uint256 _amount,\r\n        uint256 _minReturn,\r\n        address _for\r\n    ) public returns (uint256)\r\n    {\r\n        return claimAndConvertFor2(_path, _amount, _minReturn, _for, address(0), 0);\r\n    }\r\n\r\n    /**\r\n      * @dev deprecated, backward compatibility\r\n    */\r\n    function xConvertPrioritized(\r\n        IERC20Token[] _path,\r\n        uint256 _amount,\r\n        uint256 _minReturn,\r\n        bytes32 _toBlockchain,\r\n        bytes32 _to,\r\n        uint256 _conversionId,\r\n        uint256 _block,\r\n        uint8 _v,\r\n        bytes32 _r,\r\n        bytes32 _s\r\n    )\r\n        public\r\n        payable\r\n        returns (uint256)\r\n    {\r\n        // workaround the 'stack too deep' compilation error\r\n        uint256[] memory signature = getSignature(_amount, _block, _v, _r, _s);\r\n        return xConvertPrioritized2(_path, _amount, _minReturn, _toBlockchain, _to, _conversionId, signature);\r\n        // return xConvertPrioritized2(_path, _amount, _minReturn, _toBlockchain, _to, _conversionId, getSignature(_amount, _block, _v, _r, _s));\r\n    }\r\n\r\n    /**\r\n      * @dev deprecated, backward compatibility\r\n    */\r\n    function convertForPrioritized3(\r\n        IERC20Token[] _path,\r\n        uint256 _amount,\r\n        uint256 _minReturn,\r\n        address _for,\r\n        uint256 _customVal,\r\n        uint256 _block,\r\n        uint8 _v,\r\n        bytes32 _r,\r\n        bytes32 _s\r\n    )\r\n        public\r\n        payable\r\n        returns (uint256)\r\n    {\r\n        return convertForPrioritized4(_path, _amount, _minReturn, _for, getSignature(_customVal, _block, _v, _r, _s), address(0), 0);\r\n    }\r\n\r\n    /**\r\n      * @dev deprecated, backward compatibility\r\n    */\r\n    function convertForPrioritized2(\r\n        IERC20Token[] _path,\r\n        uint256 _amount,\r\n        uint256 _minReturn,\r\n        address _for,\r\n        uint256 _block,\r\n        uint8 _v,\r\n        bytes32 _r,\r\n        bytes32 _s\r\n    )\r\n        public\r\n        payable\r\n        returns (uint256)\r\n    {\r\n        return convertForPrioritized4(_path, _amount, _minReturn, _for, getSignature(_amount, _block, _v, _r, _s), address(0), 0);\r\n    }\r\n\r\n    /**\r\n      * @dev deprecated, backward compatibility\r\n    */\r\n    function convertForPrioritized(\r\n        IERC20Token[] _path,\r\n        uint256 _amount,\r\n        uint256 _minReturn,\r\n        address _for,\r\n        uint256 _block,\r\n        uint256 _nonce,\r\n        uint8 _v,\r\n        bytes32 _r,\r\n        bytes32 _s)\r\n        public payable returns (uint256)\r\n    {\r\n        _nonce;\r\n        return convertForPrioritized4(_path, _amount, _minReturn, _for, getSignature(_amount, _block, _v, _r, _s), address(0), 0);\r\n    }\r\n}\r\n",
  "sourcePath": "/Users/cryptotom/code/gitcoin/communiteths/contracts/bancor/BancorNetwork.sol",
  "compiler": {
    "name": "solc",
    "version": "0.4.26+commit.4563c3fc.Emscripten.clang"
  },
  "schemaVersion": "3.0.11",
  "updatedAt": "2019-10-27T15:36:05.356Z",
  "devdoc": {
    "methods": {
      "acceptOwnership()": {
        "details": "used by a new owner to accept an ownership transfer\r"
      },
      "claimAndConvert(address[],uint256,uint256)": {
        "details": "deprecated, backward compatibility\r"
      },
      "claimAndConvert2(address[],uint256,uint256,address,uint256)": {
        "details": "claims the caller's tokens, converts them to any other token in the bancor network\r by following a predefined conversion path and transfers the result tokens back to the sender\r note that allowance must be set beforehand\r \r",
        "params": {
          "_affiliateAccount": "affiliate account\r",
          "_affiliateFee": "affiliate fee in PPM\r \r",
          "_amount": "amount to convert from (in the initial source token)\r",
          "_minReturn": "if the conversion results in an amount smaller than the minimum return - it is cancelled, must be nonzero\r",
          "_path": "conversion path, see conversion path format above\r"
        },
        "return": "tokens issued in return\r"
      },
      "claimAndConvertFor(address[],uint256,uint256,address)": {
        "details": "deprecated, backward compatibility\r"
      },
      "claimAndConvertFor2(address[],uint256,uint256,address,address,uint256)": {
        "details": "claims the caller's tokens, converts them to any other token in the bancor network\r by following a predefined conversion path and transfers the result tokens to a target account\r note that allowance must be set beforehand\r \r",
        "params": {
          "_affiliateAccount": "affiliate account\r",
          "_affiliateFee": "affiliate fee in PPM\r \r",
          "_amount": "amount to convert from (in the initial source token)\r",
          "_for": "account that will receive the conversion result\r",
          "_minReturn": "if the conversion results in an amount smaller than the minimum return - it is cancelled, must be nonzero\r",
          "_path": "conversion path, see conversion path format above\r"
        },
        "return": "tokens issued in return\r"
      },
      "convert(address[],uint256,uint256)": {
        "details": "deprecated, backward compatibility\r"
      },
      "convert2(address[],uint256,uint256,address,uint256)": {
        "details": "converts the token to any other token in the bancor network by following\r a predefined conversion path and transfers the result tokens back to the sender\r note that the converter should already own the source tokens\r \r",
        "params": {
          "_affiliateAccount": "affiliate account\r",
          "_affiliateFee": "affiliate fee in PPM\r \r",
          "_amount": "amount to convert from (in the initial source token)\r",
          "_minReturn": "if the conversion results in an amount smaller than the minimum return - it is cancelled, must be nonzero\r",
          "_path": "conversion path, see conversion path format above\r"
        },
        "return": "tokens issued in return\r"
      },
      "convertFor(address[],uint256,uint256,address)": {
        "details": "deprecated, backward compatibility\r"
      },
      "convertFor2(address[],uint256,uint256,address,address,uint256)": {
        "details": "converts the token to any other token in the bancor network by following\r a predefined conversion path and transfers the result tokens to a target account\r note that the converter should already own the source tokens\r \r",
        "params": {
          "_affiliateAccount": "affiliate account\r",
          "_affiliateFee": "affiliate fee in PPM\r \r",
          "_amount": "amount to convert from (in the initial source token)\r",
          "_for": "account that will receive the conversion result\r",
          "_minReturn": "if the conversion results in an amount smaller than the minimum return - it is cancelled, must be nonzero\r",
          "_path": "conversion path, see conversion path format above\r"
        },
        "return": "tokens issued in return\r"
      },
      "convertForPrioritized(address[],uint256,uint256,address,uint256,uint256,uint8,bytes32,bytes32)": {
        "details": "deprecated, backward compatibility\r"
      },
      "convertForPrioritized2(address[],uint256,uint256,address,uint256,uint8,bytes32,bytes32)": {
        "details": "deprecated, backward compatibility\r"
      },
      "convertForPrioritized3(address[],uint256,uint256,address,uint256,uint256,uint8,bytes32,bytes32)": {
        "details": "deprecated, backward compatibility\r"
      },
      "convertForPrioritized4(address[],uint256,uint256,address,uint256[],address,uint256)": {
        "details": "converts the token to any other token in the bancor network\r by following a predefined conversion path and transfers the result\r tokens to a target account.\r this version of the function also allows the verified signer\r to bypass the universal gas price limit.\r note that the converter should already own the source tokens\r \r",
        "params": {
          "_affiliateAccount": "affiliate account\r",
          "_affiliateFee": "affiliate fee in PPM\r \r",
          "_amount": "amount to convert from (in the initial source token)\r",
          "_for": "account that will receive the conversion result\r",
          "_minReturn": "if the conversion results in an amount smaller than the minimum return - it is cancelled, must be nonzero\r",
          "_path": "conversion path, see conversion path format above\r",
          "_signature": "an array of the following elements:\r                            [0] uint256     custom value that was signed for prioritized conversion\r                            [1] uint256     if the current block exceeded the given parameter - it is cancelled\r                            [2] uint8       (signature[128:130]) associated with the signer address and helps to validate if the signature is legit\r                            [3] bytes32     (signature[0:64]) associated with the signer address and helps to validate if the signature is legit\r                            [4] bytes32     (signature[64:128]) associated with the signer address and helps to validate if the signature is legit\r                            if the array is empty (length == 0), then the gas-price limit is verified instead of the signature\r"
        },
        "return": "tokens issued in return\r"
      },
      "getReturnByPath(address[],uint256)": {
        "details": "returns the expected return amount for converting a specific amount by following\r a given conversion path.\r notice that there is no support for circular paths.\r \r",
        "params": {
          "_amount": "amount to convert from (in the initial source token)\r \r",
          "_path": "conversion path, see conversion path format above\r"
        },
        "return": "expected conversion return amount and conversion fee\r"
      },
      "registerEtherToken(address,bool)": {
        "details": "allows the owner to register/unregister ether tokens\r \r",
        "params": {
          "_register": "true to register, false to unregister\r",
          "_token": "ether token contract address\r"
        }
      },
      "setMaxAffiliateFee(uint256)": {
        "details": "allows the owner to update the maximum affiliate-fee\r \r",
        "params": {
          "_maxAffiliateFee": "maximum affiliate-fee\r"
        }
      },
      "setRegistry(address)": {
        "details": "allows the owner to update the contract registry contract address\r \r",
        "params": {
          "_registry": "address of a contract registry contract\r"
        }
      },
      "setSignerAddress(address)": {
        "details": "allows the owner to update the signer address\r \r",
        "params": {
          "_signerAddress": "new signer address\r"
        }
      },
      "transferOwnership(address)": {
        "details": "allows transferring the contract ownership\r the new owner still needs to accept the transfer\r can only be called by the contract owner\r \r",
        "params": {
          "_newOwner": "new contract owner\r"
        }
      },
      "withdrawTokens(address,address,uint256)": {
        "details": "withdraws tokens held by the contract and sends them to an account\r can only be called by the owner\r \r",
        "params": {
          "_amount": "amount to withdraw\r",
          "_to": "account to receive the new amount\r",
          "_token": "ERC20 token contract address\r"
        }
      },
      "xConvert(address[],uint256,uint256,bytes32,bytes32,uint256)": {
        "details": "converts any other token to BNT in the bancor network\r by following a predefined conversion path and transfers the resulting\r tokens to BancorX.\r note that the network should already have been given allowance of the source token (if not ETH)\r \r",
        "params": {
          "_amount": "amount to convert from (in the initial source token)\r",
          "_conversionId": "pre-determined unique (if non zero) id which refers to this transaction \r \r",
          "_minReturn": "if the conversion results in an amount smaller than the minimum return - it is cancelled, must be nonzero\r",
          "_path": "conversion path, see conversion path format above\r",
          "_to": "address/account on _toBlockchain to send the BNT to\r",
          "_toBlockchain": "blockchain BNT will be issued on\r"
        },
        "return": "the amount of BNT received from this conversion\r"
      },
      "xConvertPrioritized(address[],uint256,uint256,bytes32,bytes32,uint256,uint256,uint8,bytes32,bytes32)": {
        "details": "deprecated, backward compatibility\r"
      },
      "xConvertPrioritized2(address[],uint256,uint256,bytes32,bytes32,uint256,uint256[])": {
        "details": "converts any other token to BNT in the bancor network\r by following a predefined conversion path and transfers the resulting\r tokens to BancorX.\r this version of the function also allows the verified signer\r to bypass the universal gas price limit.\r note that the network should already have been given allowance of the source token (if not ETH)\r \r",
        "params": {
          "_amount": "amount to convert from (in the initial source token)\r",
          "_conversionId": "pre-determined unique (if non zero) id which refers to this transaction \r",
          "_minReturn": "if the conversion results in an amount smaller than the minimum return - it is cancelled, must be nonzero\r",
          "_path": "conversion path, see conversion path format above\r",
          "_signature": "an array of the following elements:\r                        [0] uint256     custom value that was signed for prioritized conversion; must be equal to _amount\r                        [1] uint256     if the current block exceeded the given parameter - it is cancelled\r                        [2] uint8       (signature[128:130]) associated with the signer address and helps to validate if the signature is legit\r                        [3] bytes32     (signature[0:64]) associated with the signer address and helps to validate if the signature is legit\r                        [4] bytes32     (signature[64:128]) associated with the signer address and helps to validate if the signature is legit\r                        if the array is empty (length == 0), then the gas-price limit is verified instead of the signature\r \r",
          "_to": "address/account on _toBlockchain to send the BNT to\r",
          "_toBlockchain": "blockchain BNT will be issued on\r"
        },
        "return": "the amount of BNT received from this conversion\r"
      }
    }
  },
  "userdoc": {
    "methods": {}
  }
}