{
  "contractName": "BancorX",
  "abi": [
    {
      "constant": true,
      "inputs": [],
      "name": "BANCOR_CONVERTER_UPGRADER",
      "outputs": [
        {
          "name": "",
          "type": "bytes32"
        }
      ],
      "payable": false,
      "stateMutability": "view",
      "type": "function"
    },
    {
      "constant": true,
      "inputs": [],
      "name": "prevLockLimit",
      "outputs": [
        {
          "name": "",
          "type": "uint256"
        }
      ],
      "payable": false,
      "stateMutability": "view",
      "type": "function"
    },
    {
      "constant": true,
      "inputs": [],
      "name": "prevLockBlockNumber",
      "outputs": [
        {
          "name": "",
          "type": "uint256"
        }
      ],
      "payable": false,
      "stateMutability": "view",
      "type": "function"
    },
    {
      "constant": true,
      "inputs": [],
      "name": "BNT_TOKEN",
      "outputs": [
        {
          "name": "",
          "type": "bytes32"
        }
      ],
      "payable": false,
      "stateMutability": "view",
      "type": "function"
    },
    {
      "constant": true,
      "inputs": [],
      "name": "minLimit",
      "outputs": [
        {
          "name": "",
          "type": "uint256"
        }
      ],
      "payable": false,
      "stateMutability": "view",
      "type": "function"
    },
    {
      "constant": true,
      "inputs": [],
      "name": "allowRegistryUpdate",
      "outputs": [
        {
          "name": "",
          "type": "bool"
        }
      ],
      "payable": false,
      "stateMutability": "view",
      "type": "function"
    },
    {
      "constant": true,
      "inputs": [],
      "name": "CONTRACT_REGISTRY",
      "outputs": [
        {
          "name": "",
          "type": "bytes32"
        }
      ],
      "payable": false,
      "stateMutability": "view",
      "type": "function"
    },
    {
      "constant": true,
      "inputs": [
        {
          "name": "",
          "type": "address"
        }
      ],
      "name": "reporters",
      "outputs": [
        {
          "name": "",
          "type": "bool"
        }
      ],
      "payable": false,
      "stateMutability": "view",
      "type": "function"
    },
    {
      "constant": true,
      "inputs": [],
      "name": "isSmartToken",
      "outputs": [
        {
          "name": "",
          "type": "bool"
        }
      ],
      "payable": false,
      "stateMutability": "view",
      "type": "function"
    },
    {
      "constant": true,
      "inputs": [],
      "name": "prevReleaseBlockNumber",
      "outputs": [
        {
          "name": "",
          "type": "uint256"
        }
      ],
      "payable": false,
      "stateMutability": "view",
      "type": "function"
    },
    {
      "constant": true,
      "inputs": [],
      "name": "maxReleaseLimit",
      "outputs": [
        {
          "name": "",
          "type": "uint256"
        }
      ],
      "payable": false,
      "stateMutability": "view",
      "type": "function"
    },
    {
      "constant": true,
      "inputs": [],
      "name": "version",
      "outputs": [
        {
          "name": "",
          "type": "uint16"
        }
      ],
      "payable": false,
      "stateMutability": "view",
      "type": "function"
    },
    {
      "constant": true,
      "inputs": [],
      "name": "BANCOR_CONVERTER_FACTORY",
      "outputs": [
        {
          "name": "",
          "type": "bytes32"
        }
      ],
      "payable": false,
      "stateMutability": "view",
      "type": "function"
    },
    {
      "constant": false,
      "inputs": [
        {
          "name": "_token",
          "type": "address"
        },
        {
          "name": "_to",
          "type": "address"
        },
        {
          "name": "_amount",
          "type": "uint256"
        }
      ],
      "name": "withdrawTokens",
      "outputs": [],
      "payable": false,
      "stateMutability": "nonpayable",
      "type": "function"
    },
    {
      "constant": true,
      "inputs": [],
      "name": "prevRegistry",
      "outputs": [
        {
          "name": "",
          "type": "address"
        }
      ],
      "payable": false,
      "stateMutability": "view",
      "type": "function"
    },
    {
      "constant": true,
      "inputs": [],
      "name": "BNT_CONVERTER",
      "outputs": [
        {
          "name": "",
          "type": "bytes32"
        }
      ],
      "payable": false,
      "stateMutability": "view",
      "type": "function"
    },
    {
      "constant": true,
      "inputs": [],
      "name": "BANCOR_FORMULA",
      "outputs": [
        {
          "name": "",
          "type": "bytes32"
        }
      ],
      "payable": false,
      "stateMutability": "view",
      "type": "function"
    },
    {
      "constant": true,
      "inputs": [],
      "name": "limitIncPerBlock",
      "outputs": [
        {
          "name": "",
          "type": "uint256"
        }
      ],
      "payable": false,
      "stateMutability": "view",
      "type": "function"
    },
    {
      "constant": false,
      "inputs": [],
      "name": "acceptOwnership",
      "outputs": [],
      "payable": false,
      "stateMutability": "nonpayable",
      "type": "function"
    },
    {
      "constant": true,
      "inputs": [],
      "name": "registry",
      "outputs": [
        {
          "name": "",
          "type": "address"
        }
      ],
      "payable": false,
      "stateMutability": "view",
      "type": "function"
    },
    {
      "constant": true,
      "inputs": [],
      "name": "CONTRACT_FEATURES",
      "outputs": [
        {
          "name": "",
          "type": "bytes32"
        }
      ],
      "payable": false,
      "stateMutability": "view",
      "type": "function"
    },
    {
      "constant": true,
      "inputs": [
        {
          "name": "",
          "type": "uint256"
        },
        {
          "name": "",
          "type": "address"
        }
      ],
      "name": "reportedTxs",
      "outputs": [
        {
          "name": "",
          "type": "bool"
        }
      ],
      "payable": false,
      "stateMutability": "view",
      "type": "function"
    },
    {
      "constant": true,
      "inputs": [],
      "name": "owner",
      "outputs": [
        {
          "name": "",
          "type": "address"
        }
      ],
      "payable": false,
      "stateMutability": "view",
      "type": "function"
    },
    {
      "constant": true,
      "inputs": [],
      "name": "BANCOR_NETWORK",
      "outputs": [
        {
          "name": "",
          "type": "bytes32"
        }
      ],
      "payable": false,
      "stateMutability": "view",
      "type": "function"
    },
    {
      "constant": true,
      "inputs": [],
      "name": "BANCOR_GAS_PRICE_LIMIT",
      "outputs": [
        {
          "name": "",
          "type": "bytes32"
        }
      ],
      "payable": false,
      "stateMutability": "view",
      "type": "function"
    },
    {
      "constant": true,
      "inputs": [],
      "name": "reportingEnabled",
      "outputs": [
        {
          "name": "",
          "type": "bool"
        }
      ],
      "payable": false,
      "stateMutability": "view",
      "type": "function"
    },
    {
      "constant": true,
      "inputs": [
        {
          "name": "",
          "type": "uint256"
        }
      ],
      "name": "transactions",
      "outputs": [
        {
          "name": "amount",
          "type": "uint256"
        },
        {
          "name": "fromBlockchain",
          "type": "bytes32"
        },
        {
          "name": "to",
          "type": "address"
        },
        {
          "name": "numOfReports",
          "type": "uint8"
        },
        {
          "name": "completed",
          "type": "bool"
        }
      ],
      "payable": false,
      "stateMutability": "view",
      "type": "function"
    },
    {
      "constant": true,
      "inputs": [],
      "name": "maxLockLimit",
      "outputs": [
        {
          "name": "",
          "type": "uint256"
        }
      ],
      "payable": false,
      "stateMutability": "view",
      "type": "function"
    },
    {
      "constant": true,
      "inputs": [],
      "name": "BANCOR_X",
      "outputs": [
        {
          "name": "",
          "type": "bytes32"
        }
      ],
      "payable": false,
      "stateMutability": "view",
      "type": "function"
    },
    {
      "constant": true,
      "inputs": [],
      "name": "minRequiredReports",
      "outputs": [
        {
          "name": "",
          "type": "uint256"
        }
      ],
      "payable": false,
      "stateMutability": "view",
      "type": "function"
    },
    {
      "constant": true,
      "inputs": [],
      "name": "BANCOR_X_UPGRADER",
      "outputs": [
        {
          "name": "",
          "type": "bytes32"
        }
      ],
      "payable": false,
      "stateMutability": "view",
      "type": "function"
    },
    {
      "constant": true,
      "inputs": [],
      "name": "newOwner",
      "outputs": [
        {
          "name": "",
          "type": "address"
        }
      ],
      "payable": false,
      "stateMutability": "view",
      "type": "function"
    },
    {
      "constant": true,
      "inputs": [
        {
          "name": "",
          "type": "uint256"
        }
      ],
      "name": "transactionIds",
      "outputs": [
        {
          "name": "",
          "type": "uint256"
        }
      ],
      "payable": false,
      "stateMutability": "view",
      "type": "function"
    },
    {
      "constant": false,
      "inputs": [
        {
          "name": "_newOwner",
          "type": "address"
        }
      ],
      "name": "transferOwnership",
      "outputs": [],
      "payable": false,
      "stateMutability": "nonpayable",
      "type": "function"
    },
    {
      "constant": true,
      "inputs": [],
      "name": "NON_STANDARD_TOKEN_REGISTRY",
      "outputs": [
        {
          "name": "",
          "type": "bytes32"
        }
      ],
      "payable": false,
      "stateMutability": "view",
      "type": "function"
    },
    {
      "constant": true,
      "inputs": [],
      "name": "prevReleaseLimit",
      "outputs": [
        {
          "name": "",
          "type": "uint256"
        }
      ],
      "payable": false,
      "stateMutability": "view",
      "type": "function"
    },
    {
      "constant": true,
      "inputs": [],
      "name": "xTransfersEnabled",
      "outputs": [
        {
          "name": "",
          "type": "bool"
        }
      ],
      "payable": false,
      "stateMutability": "view",
      "type": "function"
    },
    {
      "constant": true,
      "inputs": [],
      "name": "token",
      "outputs": [
        {
          "name": "",
          "type": "address"
        }
      ],
      "payable": false,
      "stateMutability": "view",
      "type": "function"
    },
    {
      "inputs": [
        {
          "name": "_maxLockLimit",
          "type": "uint256"
        },
        {
          "name": "_maxReleaseLimit",
          "type": "uint256"
        },
        {
          "name": "_minLimit",
          "type": "uint256"
        },
        {
          "name": "_limitIncPerBlock",
          "type": "uint256"
        },
        {
          "name": "_minRequiredReports",
          "type": "uint256"
        },
        {
          "name": "_registry",
          "type": "address"
        },
        {
          "name": "_token",
          "type": "address"
        },
        {
          "name": "_isSmartToken",
          "type": "bool"
        }
      ],
      "payable": false,
      "stateMutability": "nonpayable",
      "type": "constructor"
    },
    {
      "anonymous": false,
      "inputs": [
        {
          "indexed": true,
          "name": "_from",
          "type": "address"
        },
        {
          "indexed": false,
          "name": "_amount",
          "type": "uint256"
        }
      ],
      "name": "TokensLock",
      "type": "event"
    },
    {
      "anonymous": false,
      "inputs": [
        {
          "indexed": true,
          "name": "_to",
          "type": "address"
        },
        {
          "indexed": false,
          "name": "_amount",
          "type": "uint256"
        }
      ],
      "name": "TokensRelease",
      "type": "event"
    },
    {
      "anonymous": false,
      "inputs": [
        {
          "indexed": true,
          "name": "_from",
          "type": "address"
        },
        {
          "indexed": false,
          "name": "_toBlockchain",
          "type": "bytes32"
        },
        {
          "indexed": true,
          "name": "_to",
          "type": "bytes32"
        },
        {
          "indexed": false,
          "name": "_amount",
          "type": "uint256"
        },
        {
          "indexed": false,
          "name": "_id",
          "type": "uint256"
        }
      ],
      "name": "XTransfer",
      "type": "event"
    },
    {
      "anonymous": false,
      "inputs": [
        {
          "indexed": true,
          "name": "_reporter",
          "type": "address"
        },
        {
          "indexed": false,
          "name": "_fromBlockchain",
          "type": "bytes32"
        },
        {
          "indexed": false,
          "name": "_txId",
          "type": "uint256"
        },
        {
          "indexed": false,
          "name": "_to",
          "type": "address"
        },
        {
          "indexed": false,
          "name": "_amount",
          "type": "uint256"
        },
        {
          "indexed": false,
          "name": "_xTransferId",
          "type": "uint256"
        }
      ],
      "name": "TxReport",
      "type": "event"
    },
    {
      "anonymous": false,
      "inputs": [
        {
          "indexed": false,
          "name": "_to",
          "type": "address"
        },
        {
          "indexed": false,
          "name": "_id",
          "type": "uint256"
        }
      ],
      "name": "XTransferComplete",
      "type": "event"
    },
    {
      "anonymous": false,
      "inputs": [
        {
          "indexed": true,
          "name": "_prevOwner",
          "type": "address"
        },
        {
          "indexed": true,
          "name": "_newOwner",
          "type": "address"
        }
      ],
      "name": "OwnerUpdate",
      "type": "event"
    },
    {
      "constant": false,
      "inputs": [
        {
          "name": "_maxLockLimit",
          "type": "uint256"
        }
      ],
      "name": "setMaxLockLimit",
      "outputs": [],
      "payable": false,
      "stateMutability": "nonpayable",
      "type": "function"
    },
    {
      "constant": false,
      "inputs": [
        {
          "name": "_maxReleaseLimit",
          "type": "uint256"
        }
      ],
      "name": "setMaxReleaseLimit",
      "outputs": [],
      "payable": false,
      "stateMutability": "nonpayable",
      "type": "function"
    },
    {
      "constant": false,
      "inputs": [
        {
          "name": "_minLimit",
          "type": "uint256"
        }
      ],
      "name": "setMinLimit",
      "outputs": [],
      "payable": false,
      "stateMutability": "nonpayable",
      "type": "function"
    },
    {
      "constant": false,
      "inputs": [
        {
          "name": "_limitIncPerBlock",
          "type": "uint256"
        }
      ],
      "name": "setLimitIncPerBlock",
      "outputs": [],
      "payable": false,
      "stateMutability": "nonpayable",
      "type": "function"
    },
    {
      "constant": false,
      "inputs": [
        {
          "name": "_minRequiredReports",
          "type": "uint256"
        }
      ],
      "name": "setMinRequiredReports",
      "outputs": [],
      "payable": false,
      "stateMutability": "nonpayable",
      "type": "function"
    },
    {
      "constant": false,
      "inputs": [
        {
          "name": "_reporter",
          "type": "address"
        },
        {
          "name": "_active",
          "type": "bool"
        }
      ],
      "name": "setReporter",
      "outputs": [],
      "payable": false,
      "stateMutability": "nonpayable",
      "type": "function"
    },
    {
      "constant": false,
      "inputs": [
        {
          "name": "_enable",
          "type": "bool"
        }
      ],
      "name": "enableXTransfers",
      "outputs": [],
      "payable": false,
      "stateMutability": "nonpayable",
      "type": "function"
    },
    {
      "constant": false,
      "inputs": [
        {
          "name": "_enable",
          "type": "bool"
        }
      ],
      "name": "enableReporting",
      "outputs": [],
      "payable": false,
      "stateMutability": "nonpayable",
      "type": "function"
    },
    {
      "constant": false,
      "inputs": [
        {
          "name": "_disable",
          "type": "bool"
        }
      ],
      "name": "disableRegistryUpdate",
      "outputs": [],
      "payable": false,
      "stateMutability": "nonpayable",
      "type": "function"
    },
    {
      "constant": false,
      "inputs": [],
      "name": "updateRegistry",
      "outputs": [],
      "payable": false,
      "stateMutability": "nonpayable",
      "type": "function"
    },
    {
      "constant": false,
      "inputs": [],
      "name": "restoreRegistry",
      "outputs": [],
      "payable": false,
      "stateMutability": "nonpayable",
      "type": "function"
    },
    {
      "constant": false,
      "inputs": [
        {
          "name": "_reporters",
          "type": "address[]"
        }
      ],
      "name": "upgrade",
      "outputs": [],
      "payable": false,
      "stateMutability": "nonpayable",
      "type": "function"
    },
    {
      "constant": false,
      "inputs": [
        {
          "name": "_toBlockchain",
          "type": "bytes32"
        },
        {
          "name": "_to",
          "type": "bytes32"
        },
        {
          "name": "_amount",
          "type": "uint256"
        }
      ],
      "name": "xTransfer",
      "outputs": [],
      "payable": false,
      "stateMutability": "nonpayable",
      "type": "function"
    },
    {
      "constant": false,
      "inputs": [
        {
          "name": "_toBlockchain",
          "type": "bytes32"
        },
        {
          "name": "_to",
          "type": "bytes32"
        },
        {
          "name": "_amount",
          "type": "uint256"
        },
        {
          "name": "_id",
          "type": "uint256"
        }
      ],
      "name": "xTransfer",
      "outputs": [],
      "payable": false,
      "stateMutability": "nonpayable",
      "type": "function"
    },
    {
      "constant": false,
      "inputs": [
        {
          "name": "_fromBlockchain",
          "type": "bytes32"
        },
        {
          "name": "_txId",
          "type": "uint256"
        },
        {
          "name": "_to",
          "type": "address"
        },
        {
          "name": "_amount",
          "type": "uint256"
        },
        {
          "name": "_xTransferId",
          "type": "uint256"
        }
      ],
      "name": "reportTx",
      "outputs": [],
      "payable": false,
      "stateMutability": "nonpayable",
      "type": "function"
    },
    {
      "constant": true,
      "inputs": [
        {
          "name": "_xTransferId",
          "type": "uint256"
        },
        {
          "name": "_for",
          "type": "address"
        }
      ],
      "name": "getXTransferAmount",
      "outputs": [
        {
          "name": "",
          "type": "uint256"
        }
      ],
      "payable": false,
      "stateMutability": "view",
      "type": "function"
    },
    {
      "constant": true,
      "inputs": [],
      "name": "getCurrentLockLimit",
      "outputs": [
        {
          "name": "",
          "type": "uint256"
        }
      ],
      "payable": false,
      "stateMutability": "view",
      "type": "function"
    },
    {
      "constant": true,
      "inputs": [],
      "name": "getCurrentReleaseLimit",
      "outputs": [
        {
          "name": "",
          "type": "uint256"
        }
      ],
      "payable": false,
      "stateMutability": "view",
      "type": "function"
    }
  ],
  "bytecode": "0x6080604052600180547403000000000000000000000000000000000000000060a060020a61ffff0219909116179055600d805460b860020a60ff021960b060020a60ff021960a860020a60ff0219909216750100000000000000000000000000000000000000000017919091167601000000000000000000000000000000000000000000001716770100000000000000000000000000000000000000000000001790553480156100ae57600080fd5b5060405161010080611d1683398101604090815281516020830151918301516060840151608085015160a086015160c087015160e09097015160008054600160a060020a0319908116331790915560028790556003889055600495909555600793909355600a91909155600593909355600693909355436008819055600955600b8054600160a060020a039384169083168117909155600c805483169091179055600d8054931515740100000000000000000000000000000000000000000260a060020a60ff021993909516939091169290921716919091179055611b7e806101986000396000f3006080604052600436106102845763ffffffff60e060020a6000350416630183592b81146102895780630c87355e146102e057806316c76c2714610307578063199674391461031c5780631aff29eb146103315780631d000b61146103465780631e04a5931461035b5780631fd8088d1461037057806320d7d3671461038557806325f9bfef146103ae5780632cc1cd9e146103c35780633383a28a146103e4578063427c0374146103f9578063492825381461041a57806349d10b64146104385780634b3e475c1461044d57806352e94ce31461046257806354fd4d50146104775780635a46f06c146104a35780635e35359e146104b857806361cd756e146104e257806362614ae6146105135780636d7bd3fc146105285780636dc6a01b1461053d5780636ec6d4a61461056a57806372f43d191461058257806379ba5097146105975780637b103999146105ac57806383315b6e146105c15780638544c52d146105d65780638da5cb5b146105fa5780639232494e1461060f5780639249993a146106245780639390701c146106395780639ace38c21461064e578063a50c326c1461069e578063a5c670ca146106b6578063a8c36a90146106d0578063aafd6b76146106e5578063af2b961814610709578063b4a176d314610721578063bf28ece414610736578063c4a8598e1461074e578063ca27e01114610763578063cc97b38f14610778578063d4ee1d901461078d578063df68ab02146107a2578063e1bb5133146107ba578063e36f8dc5146107e0578063ed1d73a6146107f8578063f2fde38b14610812578063f5286b9c14610833578063f7385f7614610848578063fa1c594e1461085d578063fbb2469214610877578063fc0c546a1461088c575b600080fd5b34801561029557600080fd5b50604080516020600480358082013583810280860185019096528085526102de953695939460249493850192918291850190849080828437509497506108a19650505050505050565b005b3480156102ec57600080fd5b506102f5610a4c565b60408051918252519081900360200190f35b34801561031357600080fd5b506102f5610a70565b34801561032857600080fd5b506102f5610a76565b34801561033d57600080fd5b506102f5610ad0565b34801561035257600080fd5b506102f5610ad6565b34801561036757600080fd5b506102f5610afa565b34801561037c57600080fd5b506102f5610b40565b34801561039157600080fd5b5061039a610b46565b604080519115158252519081900360200190f35b3480156103ba57600080fd5b506102f5610b6a565b3480156103cf57600080fd5b5061039a600160a060020a0360043516610b8e565b3480156103f057600080fd5b5061039a610ba3565b34801561040557600080fd5b506102de600435602435604435606435610bb3565b34801561042657600080fd5b506102de600435602435604435610c60565b34801561044457600080fd5b506102de610d0c565b34801561045957600080fd5b506102f5610e73565b34801561046e57600080fd5b506102f5610e79565b34801561048357600080fd5b5061048c610e7f565b6040805161ffff9092168252519081900360200190f35b3480156104af57600080fd5b506102f5610e90565b3480156104c457600080fd5b506102de600160a060020a0360043581169060243516604435610eb4565b3480156104ee57600080fd5b506104f7610f91565b60408051600160a060020a039092168252519081900360200190f35b34801561051f57600080fd5b506102f5610fa0565b34801561053457600080fd5b506102f5610fc4565b34801561054957600080fd5b506102de600435602435600160a060020a0360443516606435608435610fe8565b34801561057657600080fd5b506102de6004356112b7565b34801561058e57600080fd5b506102f56112d3565b3480156105a357600080fd5b506102de6112d9565b3480156105b857600080fd5b506104f7611361565b3480156105cd57600080fd5b506102f5611370565b3480156105e257600080fd5b5061039a600435600160a060020a0360243516611394565b34801561060657600080fd5b506104f76113b4565b34801561061b57600080fd5b506102f56113c3565b34801561063057600080fd5b506102f56113e7565b34801561064557600080fd5b5061039a61140b565b34801561065a57600080fd5b5061066660043561142e565b604080519586526020860194909452600160a060020a039092168484015260ff16606084015215156080830152519081900360a00190f35b3480156106aa57600080fd5b506102de60043561146e565b3480156106c257600080fd5b506102de600435151561148a565b3480156106dc57600080fd5b506102f56114d1565b3480156106f157600080fd5b506102f5600435600160a060020a03602435166114d7565b34801561071557600080fd5b506102de60043561151a565b34801561072d57600080fd5b506102de611536565b34801561074257600080fd5b506102de60043561159f565b34801561075a57600080fd5b506102f56115bb565b34801561076f57600080fd5b506102f56115df565b34801561078457600080fd5b506102f56115e5565b34801561079957600080fd5b506104f7611609565b3480156107ae57600080fd5b506102de600435611618565b3480156107c657600080fd5b506102de600160a060020a03600435166024351515611634565b3480156107ec57600080fd5b506102f5600435611676565b34801561080457600080fd5b506102de6004351515611688565b34801561081e57600080fd5b506102de600160a060020a03600435166116e3565b34801561083f57600080fd5b506102f5611744565b34801561085457600080fd5b506102f5611768565b34801561086957600080fd5b506102de600435151561176e565b34801561088357600080fd5b5061039a6117c8565b34801561089857600080fd5b506104f76117d8565b60008054600160a060020a031633146108b957600080fd5b600b54604080517fbb34534c0000000000000000000000000000000000000000000000000000000081527f42616e636f72585570677261646572000000000000000000000000000000000060048201529051600160a060020a039092169163bb34534c916024808201926020929091908290030181600087803b15801561093f57600080fd5b505af1158015610953573d6000803e3d6000fd5b505050506040513d602081101561096957600080fd5b50519050610976816116e3565b600154604080517f546872cc00000000000000000000000000000000000000000000000000000000815260a060020a90920461ffff166004830181815260248401928352855160448501528551600160a060020a0386169463546872cc948893929091606401906020808601910280838360005b83811015610a025781810151838201526020016109ea565b505050509050019350505050600060405180830381600087803b158015610a2857600080fd5b505af1158015610a3c573d6000803e3d6000fd5b50505050610a486112d9565b5050565b7f42616e636f72436f6e766572746572557067726164657200000000000000000081565b60055481565b600080610ab2610aa3600754610a97600854436117e790919063ffffffff16565b9063ffffffff6117fc16565b6005549063ffffffff61183116565b9050600254811115610ac8576002549150610acc565b8091505b5090565b60085481565b7f424e54546f6b656e00000000000000000000000000000000000000000000000081565b600080610b2a610b1b600754610a97600954436117e790919063ffffffff16565b6006549063ffffffff61183116565b9050600354811115610ac8576003549150610acc565b60045481565b600d5477010000000000000000000000000000000000000000000000900460ff1681565b7f436f6e747261637452656769737472790000000000000000000000000000000081565b60116020526000908152604090205460ff1681565b600d5460a060020a900460ff1681565b600d5460009060a860020a900460ff161515610bce57600080fd5b610bd6610a76565b90506004548310158015610bea5750808311155b1515610bf557600080fd5b610bfe83611843565b610c0e818463ffffffff6117e716565b6005554360085560408051868152602081018590528082018490529051859133917f4780f3edc9124597ede658e04ed3d8887b58c86943b2a805dc961cf512570b629181900360600190a35050505050565b600d5460009060a860020a900460ff161515610c7b57600080fd5b610c83610a76565b90506004548210158015610c975750808211155b1515610ca257600080fd5b610cab82611843565b610cbb818363ffffffff6117e716565b6005554360085560408051858152602081018490526000818301529051849133917f4780f3edc9124597ede658e04ed3d8887b58c86943b2a805dc961cf512570b629181900360600190a350505050565b600d5460009077010000000000000000000000000000000000000000000000900460ff1680610d455750600054600160a060020a031633145b1515610d5057600080fd5b600b54604080517fbb34534c0000000000000000000000000000000000000000000000000000000081527f436f6e747261637452656769737472790000000000000000000000000000000060048201529051600160a060020a039092169163bb34534c916024808201926020929091908290030181600087803b158015610dd657600080fd5b505af1158015610dea573d6000803e3d6000fd5b505050506040513d6020811015610e0057600080fd5b5051600b54909150600160a060020a03808316911614801590610e2b5750600160a060020a03811615155b1515610e3657600080fd5b600b8054600c8054600160a060020a0380841673ffffffffffffffffffffffffffffffffffffffff19928316179092559091169216919091179055565b60095481565b60035481565b60015460a060020a900461ffff1681565b7f42616e636f72436f6e766572746572466163746f72790000000000000000000081565b600054600160a060020a03163314610ecb57600080fd5b82600160a060020a0381161515610ee157600080fd5b82600160a060020a0381161515610ef757600080fd5b83600160a060020a038116301415610f0e57600080fd5b85600160a060020a031663a9059cbb86866040518363ffffffff1660e060020a0281526004018083600160a060020a0316600160a060020a0316815260200182815260200192505050600060405180830381600087803b158015610f7157600080fd5b505af1158015610f85573d6000803e3d6000fd5b50505050505050505050565b600c54600160a060020a031681565b7f424e54436f6e766572746572000000000000000000000000000000000000000081565b7f42616e636f72466f726d756c610000000000000000000000000000000000000081565b3360009081526011602052604081205460ff16151561100657600080fd5b600d54760100000000000000000000000000000000000000000000900460ff16151561103157600080fd5b600085815260106020908152604080832033845290915290205460ff161561105857600080fd5b5060008481526010602090815260408083203384528252808320805460ff19166001179055868352600e9091529020600281015460a060020a900460ff1615156111065760028101805473ffffffffffffffffffffffffffffffffffffffff1916600160a060020a038616179055828155600181018690558115611101576000828152600f6020526040902054156110ef57600080fd5b6000828152600f602052604090208590555b61115f565b6002810154600160a060020a0385811691161480156111255750805483145b80156111345750600181015486145b151561113f57600080fd5b811561115f576000828152600f6020526040902054851461115f57600080fd5b600281018054600160ff60a060020a808404821692909201160274ff0000000000000000000000000000000000000000199091161790556040805187815260208101879052600160a060020a038616818301526060810185905260808101849052905133917f5e77831e701760f7f4a1e61a8e9834d773b52c45d91ba9006b7d2afb7a144739919081900360a00190a2600a54600282015460a060020a900460ff16106112af576000858152600e602052604090206002015460a860020a900460ff161561122c57600080fd5b6000858152600e6020908152604091829020600201805475ff000000000000000000000000000000000000000000191660a860020a1790558151600160a060020a038716815290810184905281517fd87906b7fce534fc5e6dde30064e777d92d0aaf3a28c72315de8ef2e4134dfef929181900390910190a16112af8484611a33565b505050505050565b600054600160a060020a031633146112ce57600080fd5b600455565b60075481565b600154600160a060020a031633146112f057600080fd5b60015460008054604051600160a060020a0393841693909116917f343765429aea5a34b3ff6a3785a98a5abb2597aca87bfbb58632c173d585373a91a3600180546000805473ffffffffffffffffffffffffffffffffffffffff19908116600160a060020a03841617909155169055565b600b54600160a060020a031681565b7f436f6e747261637446656174757265730000000000000000000000000000000081565b601060209081526000928352604080842090915290825290205460ff1681565b600054600160a060020a031681565b7f42616e636f724e6574776f726b0000000000000000000000000000000000000081565b7f42616e636f7247617350726963654c696d69740000000000000000000000000081565b600d54760100000000000000000000000000000000000000000000900460ff1681565b600e60205260009081526040902080546001820154600290920154909190600160a060020a0381169060ff60a060020a820481169160a860020a90041685565b600054600160a060020a0316331461148557600080fd5b600755565b600054600160a060020a031633146114a157600080fd5b600d805491151560a860020a0275ff00000000000000000000000000000000000000000019909216919091179055565b60025481565b6000828152600f60209081526040808320548352600e90915281206002810154600160a060020a0384811691161461150e57600080fd5b805491505b5092915050565b600054600160a060020a0316331461153157600080fd5b600255565b600054600160a060020a0316331461154d57600080fd5b600c54600b805473ffffffffffffffffffffffffffffffffffffffff1916600160a060020a03909216919091179055600d805477ff000000000000000000000000000000000000000000000019169055565b600054600160a060020a031633146115b657600080fd5b600355565b7f42616e636f72580000000000000000000000000000000000000000000000000081565b600a5481565b7f42616e636f72585570677261646572000000000000000000000000000000000081565b600154600160a060020a031681565b600054600160a060020a0316331461162f57600080fd5b600a55565b600054600160a060020a0316331461164b57600080fd5b600160a060020a03919091166000908152601160205260409020805460ff1916911515919091179055565b600f6020526000908152604090205481565b600054600160a060020a0316331461169f57600080fd5b600d80549115157601000000000000000000000000000000000000000000000276ff0000000000000000000000000000000000000000000019909216919091179055565b600054600160a060020a031633146116fa57600080fd5b600054600160a060020a038281169116141561171557600080fd5b6001805473ffffffffffffffffffffffffffffffffffffffff1916600160a060020a0392909216919091179055565b7f4e6f6e5374616e64617264546f6b656e5265676973747279000000000000000081565b60065481565b600054600160a060020a0316331461178557600080fd5b600d805477ff0000000000000000000000000000000000000000000000191691157701000000000000000000000000000000000000000000000002919091179055565b600d5460a860020a900460ff1681565b600d54600160a060020a031681565b6000818310156117f657600080fd5b50900390565b60008083151561180f5760009150611513565b5082820282848281151561181f57fe5b041461182a57600080fd5b9392505050565b60008282018381101561182a57600080fd5b600d5460a060020a900460ff161561195a57600d60009054906101000a9004600160a060020a0316600160a060020a0316638da5cb5b6040518163ffffffff1660e060020a028152600401602060405180830381600087803b1580156118a857600080fd5b505af11580156118bc573d6000803e3d6000fd5b505050506040513d60208110156118d257600080fd5b5051604080517ffe417fa5000000000000000000000000000000000000000000000000000000008152336004820152602481018490529051600160a060020a039092169163fe417fa59160448082019260009290919082900301818387803b15801561193d57600080fd5b505af1158015611951573d6000803e3d6000fd5b505050506119fa565b600d54604080517f23b872dd000000000000000000000000000000000000000000000000000000008152336004820152306024820152604481018490529051600160a060020a03909216916323b872dd916064808201926020929091908290030181600087803b1580156119cd57600080fd5b505af11580156119e1573d6000803e3d6000fd5b505050506040513d60208110156119f757600080fd5b50505b60408051828152905133917ff5d7535a395393675f56d066384113754ca9cf4abd37298469934e2e9c2ec902919081900360200190a250565b6000611a3d610afa565b90506004548210158015611a515750808211155b1515611a5c57600080fd5b611a6c818363ffffffff6117e716565b60065543600955600d54604080517fa9059cbb000000000000000000000000000000000000000000000000000000008152600160a060020a038681166004830152602482018690529151919092169163a9059cbb9160448083019260209291908290030181600087803b158015611ae257600080fd5b505af1158015611af6573d6000803e3d6000fd5b505050506040513d6020811015611b0c57600080fd5b5050604080518381529051600160a060020a038516917fbfdc1f3c02b4715077e0be4a262f967d53d4d0fcd76c6987fa2ad6e2257d7c8f919081900360200190a25050505600a165627a7a72305820e4a1d399098625e8930323adea18b2de3327860cb66ddee3f849bb59d9f360090029",
  "source": "pragma solidity ^0.4.24;\r\n\r\nimport './interfaces/IBancorXUpgrader.sol';\r\nimport './interfaces/IBancorX.sol';\r\nimport '../ContractIds.sol';\r\nimport '../token/interfaces/ISmartTokenController.sol';\r\nimport '../utility/interfaces/IContractRegistry.sol';\r\nimport '../utility/Owned.sol';\r\nimport '../utility/SafeMath.sol';\r\nimport '../utility/TokenHolder.sol';\r\nimport '../token/interfaces/ISmartToken.sol';\r\n\r\n/**\r\n  * @dev The BancorX contract allows cross chain token transfers.\r\n  * \r\n  * There are two processes that take place in the contract -\r\n  * - Initiate a cross chain transfer to a target blockchain (locks tokens from the caller account on Ethereum)\r\n  * - Report a cross chain transfer initiated on a source blockchain (releases tokens to an account on Ethereum)\r\n  * \r\n  * Reporting cross chain transfers works similar to standard multisig contracts, meaning that multiple\r\n  * callers are required to report a transfer before tokens are released to the target account.\r\n*/\r\ncontract BancorX is IBancorX, Owned, TokenHolder, ContractIds {\r\n    using SafeMath for uint256;\r\n\r\n    // represents a transaction on another blockchain where tokens were destroyed/locked\r\n    struct Transaction {\r\n        uint256 amount;\r\n        bytes32 fromBlockchain;\r\n        address to;\r\n        uint8 numOfReports;\r\n        bool completed;\r\n    }\r\n\r\n    uint16 public version = 3;\r\n\r\n    uint256 public maxLockLimit;            // the maximum amount of tokens that can be locked in one transaction\r\n    uint256 public maxReleaseLimit;         // the maximum amount of tokens that can be released in one transaction\r\n    uint256 public minLimit;                // the minimum amount of tokens that can be transferred in one transaction\r\n    uint256 public prevLockLimit;           // the lock limit *after* the last transaction\r\n    uint256 public prevReleaseLimit;        // the release limit *after* the last transaction\r\n    uint256 public limitIncPerBlock;        // how much the limit increases per block\r\n    uint256 public prevLockBlockNumber;     // the block number of the last lock transaction\r\n    uint256 public prevReleaseBlockNumber;  // the block number of the last release transaction\r\n    uint256 public minRequiredReports;      // minimum number of required reports to release tokens\r\n    \r\n    IContractRegistry public registry;      // contract registry\r\n    IContractRegistry public prevRegistry;  // address of previous registry as security mechanism\r\n\r\n    IERC20Token public token;               // erc20 token or smart token\r\n    bool public isSmartToken;               // false - erc20 token; true - smart token\r\n\r\n    bool public xTransfersEnabled = true;   // true if x transfers are enabled, false if not\r\n    bool public reportingEnabled = true;    // true if reporting is enabled, false if not\r\n    bool public allowRegistryUpdate = true; // allows the owner to prevent/allow the registry to be updated\r\n\r\n    // txId -> Transaction\r\n    mapping (uint256 => Transaction) public transactions;\r\n\r\n    // xTransferId -> txId\r\n    mapping (uint256 => uint256) public transactionIds;\r\n\r\n    // txId -> reporter -> true if reporter already reported txId\r\n    mapping (uint256 => mapping (address => bool)) public reportedTxs;\r\n\r\n    // address -> true if address is reporter\r\n    mapping (address => bool) public reporters;\r\n\r\n    /**\r\n      * @dev triggered when tokens are locked in smart contract\r\n      * \r\n      * @param _from    wallet address that the tokens are locked from\r\n      * @param _amount  amount locked\r\n    */\r\n    event TokensLock(\r\n        address indexed _from,\r\n        uint256 _amount\r\n    );\r\n\r\n    /**\r\n      * @dev triggered when tokens are released by the smart contract\r\n      * \r\n      * @param _to      wallet address that the tokens are released to\r\n      * @param _amount  amount released\r\n    */\r\n    event TokensRelease(\r\n        address indexed _to,\r\n        uint256 _amount\r\n    );\r\n\r\n    /**\r\n      * @dev triggered when xTransfer is successfully called\r\n      * \r\n      * @param _from            wallet address that initiated the xtransfer\r\n      * @param _toBlockchain    target blockchain\r\n      * @param _to              target wallet\r\n      * @param _amount          transfer amount\r\n      * @param _id              xtransfer id\r\n    */\r\n    event XTransfer(\r\n        address indexed _from,\r\n        bytes32 _toBlockchain,\r\n        bytes32 indexed _to,\r\n        uint256 _amount,\r\n        uint256 _id\r\n    );\r\n\r\n    /**\r\n      * @dev triggered when report is successfully submitted\r\n      * \r\n      * @param _reporter        reporter wallet\r\n      * @param _fromBlockchain  source blockchain\r\n      * @param _txId            tx id on the source blockchain\r\n      * @param _to              target wallet\r\n      * @param _amount          transfer amount\r\n      * @param _xTransferId     xtransfer id\r\n    */\r\n    event TxReport(\r\n        address indexed _reporter,\r\n        bytes32 _fromBlockchain,\r\n        uint256 _txId,\r\n        address _to,\r\n        uint256 _amount,\r\n        uint256 _xTransferId\r\n    );\r\n\r\n    /**\r\n      * @dev triggered when final report is successfully submitted\r\n      * \r\n      * @param _to  target wallet\r\n      * @param _id  xtransfer id\r\n    */\r\n    event XTransferComplete(\r\n        address _to,\r\n        uint256 _id\r\n    );\r\n\r\n    /**\r\n      * @dev initializes a new BancorX instance\r\n      * \r\n      * @param _maxLockLimit          maximum amount of tokens that can be locked in one transaction\r\n      * @param _maxReleaseLimit       maximum amount of tokens that can be released in one transaction\r\n      * @param _minLimit              minimum amount of tokens that can be transferred in one transaction\r\n      * @param _limitIncPerBlock      how much the limit increases per block\r\n      * @param _minRequiredReports    minimum number of reporters to report transaction before tokens can be released\r\n      * @param _registry              address of contract registry\r\n      * @param _token                 erc20 token or smart token\r\n      * @param _isSmartToken          false - erc20 token; true - smart token\r\n     */\r\n    constructor(\r\n        uint256 _maxLockLimit,\r\n        uint256 _maxReleaseLimit,\r\n        uint256 _minLimit,\r\n        uint256 _limitIncPerBlock,\r\n        uint256 _minRequiredReports,\r\n        address _registry,\r\n        IERC20Token _token,\r\n        bool _isSmartToken\r\n    )\r\n        public\r\n    {\r\n        // the maximum limits, minimum limit, and limit increase per block\r\n        maxLockLimit = _maxLockLimit;\r\n        maxReleaseLimit = _maxReleaseLimit;\r\n        minLimit = _minLimit;\r\n        limitIncPerBlock = _limitIncPerBlock;\r\n        minRequiredReports = _minRequiredReports;\r\n\r\n        // previous limit is _maxLimit, and previous block number is current block number\r\n        prevLockLimit = _maxLockLimit;\r\n        prevReleaseLimit = _maxReleaseLimit;\r\n        prevLockBlockNumber = block.number;\r\n        prevReleaseBlockNumber = block.number;\r\n\r\n        registry = IContractRegistry(_registry);\r\n        prevRegistry = IContractRegistry(_registry);\r\n\r\n        token = _token;\r\n        isSmartToken = _isSmartToken;\r\n    }\r\n\r\n    // validates that the caller is a reporter\r\n    modifier isReporter {\r\n        require(reporters[msg.sender]);\r\n        _;\r\n    }\r\n\r\n    // allows execution only when x transfers are enabled\r\n    modifier whenXTransfersEnabled {\r\n        require(xTransfersEnabled);\r\n        _;\r\n    }\r\n\r\n    // allows execution only when reporting is enabled\r\n    modifier whenReportingEnabled {\r\n        require(reportingEnabled);\r\n        _;\r\n    }\r\n\r\n    /**\r\n      * @dev setter\r\n      * \r\n      * @param _maxLockLimit    new maxLockLimit\r\n     */\r\n    function setMaxLockLimit(uint256 _maxLockLimit) public ownerOnly {\r\n        maxLockLimit = _maxLockLimit;\r\n    }\r\n    \r\n    /**\r\n      * @dev setter\r\n      * \r\n      * @param _maxReleaseLimit    new maxReleaseLimit\r\n     */\r\n    function setMaxReleaseLimit(uint256 _maxReleaseLimit) public ownerOnly {\r\n        maxReleaseLimit = _maxReleaseLimit;\r\n    }\r\n    \r\n    /**\r\n      * @dev setter\r\n      * \r\n      * @param _minLimit    new minLimit\r\n     */\r\n    function setMinLimit(uint256 _minLimit) public ownerOnly {\r\n        minLimit = _minLimit;\r\n    }\r\n\r\n    /**\r\n      * @dev setter\r\n      * \r\n      * @param _limitIncPerBlock    new limitIncPerBlock\r\n     */\r\n    function setLimitIncPerBlock(uint256 _limitIncPerBlock) public ownerOnly {\r\n        limitIncPerBlock = _limitIncPerBlock;\r\n    }\r\n\r\n    /**\r\n      * @dev setter\r\n      * \r\n      * @param _minRequiredReports    new minRequiredReports\r\n     */\r\n    function setMinRequiredReports(uint256 _minRequiredReports) public ownerOnly {\r\n        minRequiredReports = _minRequiredReports;\r\n    }\r\n\r\n    /**\r\n      * @dev allows the owner to set/remove reporters\r\n      * \r\n      * @param _reporter    reporter whos status is to be set\r\n      * @param _active      true if the reporter is approved, false otherwise\r\n     */\r\n    function setReporter(address _reporter, bool _active) public ownerOnly {\r\n        reporters[_reporter] = _active;\r\n    }\r\n\r\n    /**\r\n      * @dev allows the owner enable/disable the xTransfer method\r\n      * \r\n      * @param _enable     true to enable, false to disable\r\n     */\r\n    function enableXTransfers(bool _enable) public ownerOnly {\r\n        xTransfersEnabled = _enable;\r\n    }\r\n\r\n    /**\r\n      * @dev allows the owner enable/disable the reportTransaction method\r\n      * \r\n      * @param _enable     true to enable, false to disable\r\n     */\r\n    function enableReporting(bool _enable) public ownerOnly {\r\n        reportingEnabled = _enable;\r\n    }\r\n\r\n    /**\r\n      * @dev disables the registry update functionality\r\n      * this is a safety mechanism in case of a emergency\r\n      * can only be called by the manager or owner\r\n      * \r\n      * @param _disable    true to disable registry updates, false to re-enable them\r\n    */\r\n    function disableRegistryUpdate(bool _disable) public ownerOnly {\r\n        allowRegistryUpdate = !_disable;\r\n    }\r\n\r\n    /**\r\n      * @dev sets the contract registry to whichever address the current registry is pointing to\r\n     */\r\n    function updateRegistry() public {\r\n        // require that upgrading is allowed or that the caller is the owner\r\n        require(allowRegistryUpdate || msg.sender == owner);\r\n\r\n        // get the address of whichever registry the current registry is pointing to\r\n        address newRegistry = registry.addressOf(ContractIds.CONTRACT_REGISTRY);\r\n\r\n        // if the new registry hasn't changed or is the zero address, revert\r\n        require(newRegistry != address(registry) && newRegistry != address(0));\r\n\r\n        // set the previous registry as current registry and current registry as newRegistry\r\n        prevRegistry = registry;\r\n        registry = IContractRegistry(newRegistry);\r\n    }\r\n\r\n    /**\r\n      * @dev security mechanism allowing the converter owner to revert to the previous registry,\r\n      * to be used in emergency scenario\r\n    */\r\n    function restoreRegistry() public ownerOnly {\r\n        // set the registry as previous registry\r\n        registry = prevRegistry;\r\n\r\n        // after a previous registry is restored, only the owner can allow future updates\r\n        allowRegistryUpdate = false;\r\n    }\r\n\r\n    /**\r\n      * @dev upgrades the contract to the latest version\r\n      * can only be called by the owner\r\n      * note that the owner needs to call acceptOwnership on the new contract after the upgrade\r\n      * \r\n      * @param _reporters    new list of reporters\r\n    */\r\n    function upgrade(address[] _reporters) public ownerOnly {\r\n        IBancorXUpgrader bancorXUpgrader = IBancorXUpgrader(registry.addressOf(ContractIds.BANCOR_X_UPGRADER));\r\n\r\n        transferOwnership(bancorXUpgrader);\r\n        bancorXUpgrader.upgrade(version, _reporters);\r\n        acceptOwnership();\r\n    }\r\n\r\n    /**\r\n      * @dev claims tokens from msg.sender to be converted to tokens on another blockchain\r\n      * \r\n      * @param _toBlockchain    blockchain on which tokens will be issued\r\n      * @param _to              address to send the tokens to\r\n      * @param _amount          the amount of tokens to transfer\r\n     */\r\n    function xTransfer(bytes32 _toBlockchain, bytes32 _to, uint256 _amount) public whenXTransfersEnabled {\r\n        // get the current lock limit\r\n        uint256 currentLockLimit = getCurrentLockLimit();\r\n\r\n        // require that; minLimit <= _amount <= currentLockLimit\r\n        require(_amount >= minLimit && _amount <= currentLockLimit);\r\n        \r\n        lockTokens(_amount);\r\n\r\n        // set the previous lock limit and block number\r\n        prevLockLimit = currentLockLimit.sub(_amount);\r\n        prevLockBlockNumber = block.number;\r\n\r\n        // emit XTransfer event with id of 0\r\n        emit XTransfer(msg.sender, _toBlockchain, _to, _amount, 0);\r\n    }\r\n\r\n    /**\r\n      * @dev claims tokens from msg.sender to be converted to tokens on another blockchain\r\n      * \r\n      * @param _toBlockchain    blockchain on which tokens will be issued\r\n      * @param _to              address to send the tokens to\r\n      * @param _amount          the amount of tokens to transfer\r\n      * @param _id              pre-determined unique (if non zero) id which refers to this transaction \r\n     */\r\n    function xTransfer(bytes32 _toBlockchain, bytes32 _to, uint256 _amount, uint256 _id) public whenXTransfersEnabled {\r\n        // get the current lock limit\r\n        uint256 currentLockLimit = getCurrentLockLimit();\r\n\r\n        // require that; minLimit <= _amount <= currentLockLimit\r\n        require(_amount >= minLimit && _amount <= currentLockLimit);\r\n        \r\n        lockTokens(_amount);\r\n\r\n        // set the previous lock limit and block number\r\n        prevLockLimit = currentLockLimit.sub(_amount);\r\n        prevLockBlockNumber = block.number;\r\n\r\n        // emit XTransfer event\r\n        emit XTransfer(msg.sender, _toBlockchain, _to, _amount, _id);\r\n    }\r\n\r\n    /**\r\n      * @dev allows reporter to report transaction which occured on another blockchain\r\n      * \r\n      * @param _fromBlockchain  blockchain in which tokens were destroyed\r\n      * @param _txId            transactionId of transaction thats being reported\r\n      * @param _to              address to receive tokens\r\n      * @param _amount          amount of tokens destroyed on another blockchain\r\n      * @param _xTransferId     unique (if non zero) pre-determined id (unlike _txId which is determined after the transactions been mined)\r\n     */\r\n    function reportTx(\r\n        bytes32 _fromBlockchain,\r\n        uint256 _txId,\r\n        address _to,\r\n        uint256 _amount,\r\n        uint256 _xTransferId \r\n    )\r\n        public\r\n        isReporter\r\n        whenReportingEnabled\r\n    {\r\n        // require that the transaction has not been reported yet by the reporter\r\n        require(!reportedTxs[_txId][msg.sender]);\r\n\r\n        // set reported as true\r\n        reportedTxs[_txId][msg.sender] = true;\r\n\r\n        Transaction storage txn = transactions[_txId];\r\n\r\n        // If the caller is the first reporter, set the transaction details\r\n        if (txn.numOfReports == 0) {\r\n            txn.to = _to;\r\n            txn.amount = _amount;\r\n            txn.fromBlockchain = _fromBlockchain;\r\n\r\n            if (_xTransferId != 0) {\r\n                // verify uniqueness of xTransfer id to prevent overwriting\r\n                require(transactionIds[_xTransferId] == 0);\r\n                transactionIds[_xTransferId] = _txId;\r\n            }\r\n        } else {\r\n            // otherwise, verify transaction details\r\n            require(txn.to == _to && txn.amount == _amount && txn.fromBlockchain == _fromBlockchain);\r\n            \r\n            if (_xTransferId != 0) {\r\n                require(transactionIds[_xTransferId] == _txId);\r\n            }\r\n        }\r\n        \r\n        // increment the number of reports\r\n        txn.numOfReports++;\r\n\r\n        emit TxReport(msg.sender, _fromBlockchain, _txId, _to, _amount, _xTransferId);\r\n\r\n        // if theres enough reports, try to release tokens\r\n        if (txn.numOfReports >= minRequiredReports) {\r\n            require(!transactions[_txId].completed);\r\n\r\n            // set the transaction as completed\r\n            transactions[_txId].completed = true;\r\n\r\n            emit XTransferComplete(_to, _xTransferId);\r\n\r\n            releaseTokens(_to, _amount);\r\n        }\r\n    }\r\n\r\n    /**\r\n      * @dev gets x transfer amount by xTransferId (not txId)\r\n      * \r\n      * @param _xTransferId    unique (if non zero) pre-determined id (unlike _txId which is determined after the transactions been broadcasted)\r\n      * @param _for            address corresponding to xTransferId\r\n      * \r\n      * @return amount that was sent in xTransfer corresponding to _xTransferId\r\n    */\r\n    function getXTransferAmount(uint256 _xTransferId, address _for) public view returns (uint256) {\r\n        // xTransferId -> txId -> Transaction\r\n        Transaction storage transaction = transactions[transactionIds[_xTransferId]];\r\n\r\n        // verify that the xTransferId is for _for\r\n        require(transaction.to == _for);\r\n\r\n        return transaction.amount;\r\n    }\r\n\r\n    /**\r\n      * @dev method for calculating current lock limit\r\n      * \r\n      * @return the current maximum limit of tokens that can be locked\r\n     */\r\n    function getCurrentLockLimit() public view returns (uint256) {\r\n        // prevLockLimit + ((currBlockNumber - prevLockBlockNumber) * limitIncPerBlock)\r\n        uint256 currentLockLimit = prevLockLimit.add(((block.number).sub(prevLockBlockNumber)).mul(limitIncPerBlock));\r\n        if (currentLockLimit > maxLockLimit)\r\n            return maxLockLimit;\r\n        return currentLockLimit;\r\n    }\r\n \r\n    /**\r\n      * @dev method for calculating current release limit\r\n      * \r\n      * @return the current maximum limit of tokens that can be released\r\n     */\r\n    function getCurrentReleaseLimit() public view returns (uint256) {\r\n        // prevReleaseLimit + ((currBlockNumber - prevReleaseBlockNumber) * limitIncPerBlock)\r\n        uint256 currentReleaseLimit = prevReleaseLimit.add(((block.number).sub(prevReleaseBlockNumber)).mul(limitIncPerBlock));\r\n        if (currentReleaseLimit > maxReleaseLimit)\r\n            return maxReleaseLimit;\r\n        return currentReleaseLimit;\r\n    }\r\n\r\n    /**\r\n      * @dev claims and locks tokens from msg.sender to be converted to tokens on another blockchain\r\n      * \r\n      * @param _amount  the amount of tokens to lock\r\n     */\r\n    function lockTokens(uint256 _amount) private {\r\n        if (isSmartToken)\r\n            ISmartTokenController(ISmartToken(token).owner()).claimTokens(msg.sender, _amount);\r\n        else\r\n            token.transferFrom(msg.sender, address(this), _amount);\r\n        emit TokensLock(msg.sender, _amount);\r\n    }\r\n\r\n    /**\r\n      * @dev private method to release tokens held by the contract\r\n      * \r\n      * @param _to      the address to release tokens to\r\n      * @param _amount  the amount of tokens to release\r\n     */\r\n    function releaseTokens(address _to, uint256 _amount) private {\r\n        // get the current release limit\r\n        uint256 currentReleaseLimit = getCurrentReleaseLimit();\r\n\r\n        require(_amount >= minLimit && _amount <= currentReleaseLimit);\r\n        \r\n        // update the previous release limit and block number\r\n        prevReleaseLimit = currentReleaseLimit.sub(_amount);\r\n        prevReleaseBlockNumber = block.number;\r\n\r\n        // no need to require, reverts on failure\r\n        token.transfer(_to, _amount);\r\n\r\n        emit TokensRelease(_to, _amount);\r\n    }\r\n}",
  "sourcePath": "/Users/cryptotom/code/gitcoin/communiteths/contracts/bancor/bancorx/BancorX.sol",
  "compiler": {
    "name": "solc",
    "version": "0.4.26+commit.4563c3fc.Emscripten.clang"
  },
  "schemaVersion": "3.0.11",
  "updatedAt": "2019-09-14T02:07:59.077Z",
  "devdoc": {
    "methods": {
      "acceptOwnership()": {
        "details": "used by a new owner to accept an ownership transfer\r"
      },
      "disableRegistryUpdate(bool)": {
        "details": "disables the registry update functionality\r this is a safety mechanism in case of a emergency\r can only be called by the manager or owner\r \r",
        "params": {
          "_disable": "true to disable registry updates, false to re-enable them\r"
        }
      },
      "enableReporting(bool)": {
        "details": "allows the owner enable/disable the reportTransaction method\r \r",
        "params": {
          "_enable": "true to enable, false to disable\r"
        }
      },
      "enableXTransfers(bool)": {
        "details": "allows the owner enable/disable the xTransfer method\r \r",
        "params": {
          "_enable": "true to enable, false to disable\r"
        }
      },
      "getCurrentLockLimit()": {
        "details": "method for calculating current lock limit\r \r",
        "return": "the current maximum limit of tokens that can be locked\r"
      },
      "getCurrentReleaseLimit()": {
        "details": "method for calculating current release limit\r \r",
        "return": "the current maximum limit of tokens that can be released\r"
      },
      "getXTransferAmount(uint256,address)": {
        "details": "gets x transfer amount by xTransferId (not txId)\r \r",
        "params": {
          "_for": "address corresponding to xTransferId\r \r",
          "_xTransferId": "unique (if non zero) pre-determined id (unlike _txId which is determined after the transactions been broadcasted)\r"
        },
        "return": "amount that was sent in xTransfer corresponding to _xTransferId\r"
      },
      "reportTx(bytes32,uint256,address,uint256,uint256)": {
        "details": "allows reporter to report transaction which occured on another blockchain\r \r",
        "params": {
          "_amount": "amount of tokens destroyed on another blockchain\r",
          "_fromBlockchain": "blockchain in which tokens were destroyed\r",
          "_to": "address to receive tokens\r",
          "_txId": "transactionId of transaction thats being reported\r",
          "_xTransferId": "unique (if non zero) pre-determined id (unlike _txId which is determined after the transactions been mined)\r"
        }
      },
      "restoreRegistry()": {
        "details": "security mechanism allowing the converter owner to revert to the previous registry,\r to be used in emergency scenario\r"
      },
      "setLimitIncPerBlock(uint256)": {
        "details": "setter\r \r",
        "params": {
          "_limitIncPerBlock": "new limitIncPerBlock\r"
        }
      },
      "setMaxLockLimit(uint256)": {
        "details": "setter\r \r",
        "params": {
          "_maxLockLimit": "new maxLockLimit\r"
        }
      },
      "setMaxReleaseLimit(uint256)": {
        "details": "setter\r \r",
        "params": {
          "_maxReleaseLimit": "new maxReleaseLimit\r"
        }
      },
      "setMinLimit(uint256)": {
        "details": "setter\r \r",
        "params": {
          "_minLimit": "new minLimit\r"
        }
      },
      "setMinRequiredReports(uint256)": {
        "details": "setter\r \r",
        "params": {
          "_minRequiredReports": "new minRequiredReports\r"
        }
      },
      "setReporter(address,bool)": {
        "details": "allows the owner to set/remove reporters\r \r",
        "params": {
          "_active": "true if the reporter is approved, false otherwise\r",
          "_reporter": "reporter whos status is to be set\r"
        }
      },
      "transferOwnership(address)": {
        "details": "allows transferring the contract ownership\r the new owner still needs to accept the transfer\r can only be called by the contract owner\r \r",
        "params": {
          "_newOwner": "new contract owner\r"
        }
      },
      "updateRegistry()": {
        "details": "sets the contract registry to whichever address the current registry is pointing to\r"
      },
      "upgrade(address[])": {
        "details": "upgrades the contract to the latest version\r can only be called by the owner\r note that the owner needs to call acceptOwnership on the new contract after the upgrade\r \r",
        "params": {
          "_reporters": "new list of reporters\r"
        }
      },
      "withdrawTokens(address,address,uint256)": {
        "details": "withdraws tokens held by the contract and sends them to an account\r can only be called by the owner\r \r",
        "params": {
          "_amount": "amount to withdraw\r",
          "_to": "account to receive the new amount\r",
          "_token": "ERC20 token contract address\r"
        }
      },
      "xTransfer(bytes32,bytes32,uint256)": {
        "details": "claims tokens from msg.sender to be converted to tokens on another blockchain\r \r",
        "params": {
          "_amount": "the amount of tokens to transfer\r",
          "_to": "address to send the tokens to\r",
          "_toBlockchain": "blockchain on which tokens will be issued\r"
        }
      },
      "xTransfer(bytes32,bytes32,uint256,uint256)": {
        "details": "claims tokens from msg.sender to be converted to tokens on another blockchain\r \r",
        "params": {
          "_amount": "the amount of tokens to transfer\r",
          "_id": "pre-determined unique (if non zero) id which refers to this transaction \r",
          "_to": "address to send the tokens to\r",
          "_toBlockchain": "blockchain on which tokens will be issued\r"
        }
      }
    }
  },
  "userdoc": {
    "methods": {}
  }
}