{
  "contractName": "BancorPriceFloor",
  "abi": [
    {
      "constant": true,
      "inputs": [],
      "name": "TOKEN_PRICE_D",
      "outputs": [
        {
          "name": "",
          "type": "uint256"
        }
      ],
      "payable": false,
      "stateMutability": "view",
      "type": "function"
    },
    {
      "constant": true,
      "inputs": [],
      "name": "TOKEN_PRICE_N",
      "outputs": [
        {
          "name": "",
          "type": "uint256"
        }
      ],
      "payable": false,
      "stateMutability": "view",
      "type": "function"
    },
    {
      "constant": true,
      "inputs": [],
      "name": "version",
      "outputs": [
        {
          "name": "",
          "type": "string"
        }
      ],
      "payable": false,
      "stateMutability": "view",
      "type": "function"
    },
    {
      "constant": false,
      "inputs": [
        {
          "name": "_token",
          "type": "address"
        },
        {
          "name": "_to",
          "type": "address"
        },
        {
          "name": "_amount",
          "type": "uint256"
        }
      ],
      "name": "withdrawTokens",
      "outputs": [],
      "payable": false,
      "stateMutability": "nonpayable",
      "type": "function"
    },
    {
      "constant": false,
      "inputs": [],
      "name": "acceptOwnership",
      "outputs": [],
      "payable": false,
      "stateMutability": "nonpayable",
      "type": "function"
    },
    {
      "constant": true,
      "inputs": [],
      "name": "owner",
      "outputs": [
        {
          "name": "",
          "type": "address"
        }
      ],
      "payable": false,
      "stateMutability": "view",
      "type": "function"
    },
    {
      "constant": true,
      "inputs": [],
      "name": "newOwner",
      "outputs": [
        {
          "name": "",
          "type": "address"
        }
      ],
      "payable": false,
      "stateMutability": "view",
      "type": "function"
    },
    {
      "constant": false,
      "inputs": [
        {
          "name": "_newOwner",
          "type": "address"
        }
      ],
      "name": "transferOwnership",
      "outputs": [],
      "payable": false,
      "stateMutability": "nonpayable",
      "type": "function"
    },
    {
      "constant": true,
      "inputs": [],
      "name": "token",
      "outputs": [
        {
          "name": "",
          "type": "address"
        }
      ],
      "payable": false,
      "stateMutability": "view",
      "type": "function"
    },
    {
      "inputs": [
        {
          "name": "_token",
          "type": "address"
        }
      ],
      "payable": false,
      "stateMutability": "nonpayable",
      "type": "constructor"
    },
    {
      "payable": true,
      "stateMutability": "payable",
      "type": "fallback"
    },
    {
      "anonymous": false,
      "inputs": [
        {
          "indexed": true,
          "name": "_prevOwner",
          "type": "address"
        },
        {
          "indexed": true,
          "name": "_newOwner",
          "type": "address"
        }
      ],
      "name": "OwnerUpdate",
      "type": "event"
    },
    {
      "constant": false,
      "inputs": [],
      "name": "sell",
      "outputs": [
        {
          "name": "amount",
          "type": "uint256"
        }
      ],
      "payable": false,
      "stateMutability": "nonpayable",
      "type": "function"
    },
    {
      "constant": false,
      "inputs": [
        {
          "name": "_amount",
          "type": "uint256"
        }
      ],
      "name": "withdraw",
      "outputs": [],
      "payable": false,
      "stateMutability": "nonpayable",
      "type": "function"
    }
  ],
  "bytecode": "0x60c0604052600360808190527f302e31000000000000000000000000000000000000000000000000000000000060a090815261003e91600291906100ab565b5034801561004b57600080fd5b506040516020806108c1833981016040525160008054600160a060020a0319163317905580600160a060020a038116151561008557600080fd5b5060038054600160a060020a031916600160a060020a0392909216919091179055610146565b828054600181600116156101000203166002900490600052602060002090601f016020900481019282601f106100ec57805160ff1916838001178555610119565b82800160010185558215610119579182015b828111156101195782518255916020019190600101906100fe565b50610125929150610129565b5090565b61014391905b80821115610125576000815560010161012f565b90565b61076c806101556000396000f3006080604052600436106100ae5763ffffffff7c01000000000000000000000000000000000000000000000000000000006000350416630d2806ad81146100b05780632e1a7d4d146100d757806345710074146100ef57806345cfad3e1461010457806354fd4d50146101195780635e35359e146101a357806379ba5097146101cd5780638da5cb5b146101e2578063d4ee1d9014610213578063f2fde38b14610228578063fc0c546a14610249575b005b3480156100bc57600080fd5b506100c561025e565b60408051918252519081900360200190f35b3480156100e357600080fd5b506100ae600435610263565b3480156100fb57600080fd5b506100c56102ab565b34801561011057600080fd5b506100c561044c565b34801561012557600080fd5b5061012e610451565b6040805160208082528351818301528351919283929083019185019080838360005b83811015610168578181015183820152602001610150565b50505050905090810190601f1680156101955780820380516001836020036101000a031916815260200191505b509250505060405180910390f35b3480156101af57600080fd5b506100ae600160a060020a03600435811690602435166044356104dc565b3480156101d957600080fd5b506100ae6105d2565b3480156101ee57600080fd5b506101f761065a565b60408051600160a060020a039092168252519081900360200190f35b34801561021f57600080fd5b506101f7610669565b34801561023457600080fd5b506100ae600160a060020a0360043516610678565b34801561025557600080fd5b506101f76106d9565b606481565b600054600160a060020a0316331461027a57600080fd5b604051339082156108fc029083906000818181858888f193505050501580156102a7573d6000803e3d6000fd5b5050565b600354604080517fdd62ed3e000000000000000000000000000000000000000000000000000000008152336004820152306024820152905160009283928392600160a060020a039092169163dd62ed3e9160448082019260209290919082900301818787803b15801561031d57600080fd5b505af1158015610331573d6000803e3d6000fd5b505050506040513d602081101561034757600080fd5b5051600354604080517f23b872dd000000000000000000000000000000000000000000000000000000008152336004820152306024820152604481018490529051929450600160a060020a03909116916323b872dd916064808201926020929091908290030181600087803b1580156103bf57600080fd5b505af11580156103d3573d6000803e3d6000fd5b505050506040513d60208110156103e957600080fd5b505115156103f357fe5b610415606461040984600163ffffffff6106e816565b9063ffffffff61071d16565b604051909150339082156108fc029083906000818181858888f19350505050158015610445573d6000803e3d6000fd5b5092915050565b600181565b6002805460408051602060018416156101000260001901909316849004601f810184900484028201840190925281815292918301828280156104d45780601f106104a9576101008083540402835291602001916104d4565b820191906000526020600020905b8154815290600101906020018083116104b757829003601f168201915b505050505081565b600054600160a060020a031633146104f357600080fd5b82600160a060020a038116151561050957600080fd5b82600160a060020a038116151561051f57600080fd5b83600160a060020a03811630141561053657600080fd5b85600160a060020a031663a9059cbb86866040518363ffffffff167c01000000000000000000000000000000000000000000000000000000000281526004018083600160a060020a0316600160a060020a0316815260200182815260200192505050600060405180830381600087803b1580156105b257600080fd5b505af11580156105c6573d6000803e3d6000fd5b50505050505050505050565b600154600160a060020a031633146105e957600080fd5b60015460008054604051600160a060020a0393841693909116917f343765429aea5a34b3ff6a3785a98a5abb2597aca87bfbb58632c173d585373a91a3600180546000805473ffffffffffffffffffffffffffffffffffffffff19908116600160a060020a03841617909155169055565b600054600160a060020a031681565b600154600160a060020a031681565b600054600160a060020a0316331461068f57600080fd5b600054600160a060020a03828116911614156106aa57600080fd5b6001805473ffffffffffffffffffffffffffffffffffffffff1916600160a060020a0392909216919091179055565b600354600160a060020a031681565b6000808315156106fb5760009150610445565b5082820282848281151561070b57fe5b041461071657600080fd5b9392505050565b60008080831161072c57600080fd5b828481151561073757fe5b049493505050505600a165627a7a72305820ca07ff5335d4737450b05dfe3f2d305762daee8d1e0abce581e1f12de3375cdb0029",
  "source": "pragma solidity ^0.4.24;\r\nimport '../utility/TokenHolder.sol';\r\nimport '../utility/Owned.sol';\r\nimport '../utility/Utils.sol';\r\nimport '../utility/SafeMath.sol';\r\nimport '../token/interfaces/ISmartToken.sol';\r\n\r\n/**\r\n  * @dev BancorPriceFloor\r\n  * \r\n  * The bancor price floor contract is a simple contract that allows selling smart tokens for a constant ETH price\r\n  * \r\n  * 'Owned' is specified here for readability reasons\r\n*/\r\ncontract BancorPriceFloor is Owned, TokenHolder {\r\n    using SafeMath for uint256;\r\n\r\n\r\n    uint256 public constant TOKEN_PRICE_N = 1;      // crowdsale price in wei (numerator)\r\n    uint256 public constant TOKEN_PRICE_D = 100;    // crowdsale price in wei (denominator)\r\n\r\n    string public version = '0.1';\r\n    ISmartToken public token; // smart token the contract allows selling\r\n\r\n    /**\r\n      * @dev initializes a new BancorPriceFloor instance\r\n      * \r\n      * @param _token   smart token the contract allows selling\r\n    */\r\n    constructor(ISmartToken _token)\r\n        public\r\n        validAddress(_token)\r\n    {\r\n        token = _token;\r\n    }\r\n\r\n    /**\r\n      * @dev sells the smart token for ETH\r\n      * note that the function will sell the full allowance amount\r\n      * \r\n      * @return ETH sent in return\r\n    */\r\n    function sell() public returns (uint256 amount) {\r\n        uint256 allowance = token.allowance(msg.sender, this); // get the full allowance amount\r\n        assert(token.transferFrom(msg.sender, this, allowance)); // transfer all tokens from the sender to the contract\r\n        uint256 etherValue = allowance.mul(TOKEN_PRICE_N).div(TOKEN_PRICE_D); // calculate ETH value of the tokens\r\n        msg.sender.transfer(etherValue); // send the ETH amount to the seller\r\n        return etherValue;\r\n    }\r\n\r\n    /**\r\n      * @dev withdraws ETH from the contract\r\n      * \r\n      * @param _amount  amount of ETH to withdraw\r\n    */\r\n    function withdraw(uint256 _amount) public ownerOnly {\r\n        msg.sender.transfer(_amount); // send the amount\r\n    }\r\n\r\n    /**\r\n      * @dev deposits ETH in the contract\r\n    */\r\n    function() public payable {\r\n    }\r\n}\r\n",
  "sourcePath": "/Users/cryptotom/code/gitcoin/communiteths/contracts/bancor/legacy/BancorPriceFloor.sol",
  "compiler": {
    "name": "solc",
    "version": "0.4.26+commit.4563c3fc.Emscripten.clang"
  },
  "schemaVersion": "3.0.11",
  "updatedAt": "2019-09-14T02:07:59.184Z",
  "devdoc": {
    "methods": {
      "acceptOwnership()": {
        "details": "used by a new owner to accept an ownership transfer\r"
      },
      "sell()": {
        "details": "sells the smart token for ETH\r note that the function will sell the full allowance amount\r \r",
        "return": "ETH sent in return\r"
      },
      "transferOwnership(address)": {
        "details": "allows transferring the contract ownership\r the new owner still needs to accept the transfer\r can only be called by the contract owner\r \r",
        "params": {
          "_newOwner": "new contract owner\r"
        }
      },
      "withdraw(uint256)": {
        "details": "withdraws ETH from the contract\r \r",
        "params": {
          "_amount": "amount of ETH to withdraw\r"
        }
      },
      "withdrawTokens(address,address,uint256)": {
        "details": "withdraws tokens held by the contract and sends them to an account\r can only be called by the owner\r \r",
        "params": {
          "_amount": "amount to withdraw\r",
          "_to": "account to receive the new amount\r",
          "_token": "ERC20 token contract address\r"
        }
      }
    }
  },
  "userdoc": {
    "methods": {}
  }
}