{
  "contractName": "BancorGasPriceLimit",
  "abi": [
    {
      "constant": false,
      "inputs": [],
      "name": "acceptOwnership",
      "outputs": [],
      "payable": false,
      "stateMutability": "nonpayable",
      "type": "function"
    },
    {
      "constant": true,
      "inputs": [],
      "name": "owner",
      "outputs": [
        {
          "name": "",
          "type": "address"
        }
      ],
      "payable": false,
      "stateMutability": "view",
      "type": "function"
    },
    {
      "constant": true,
      "inputs": [],
      "name": "newOwner",
      "outputs": [
        {
          "name": "",
          "type": "address"
        }
      ],
      "payable": false,
      "stateMutability": "view",
      "type": "function"
    },
    {
      "constant": false,
      "inputs": [
        {
          "name": "_newOwner",
          "type": "address"
        }
      ],
      "name": "transferOwnership",
      "outputs": [],
      "payable": false,
      "stateMutability": "nonpayable",
      "type": "function"
    },
    {
      "constant": true,
      "inputs": [],
      "name": "gasPrice",
      "outputs": [
        {
          "name": "",
          "type": "uint256"
        }
      ],
      "payable": false,
      "stateMutability": "view",
      "type": "function"
    },
    {
      "inputs": [
        {
          "name": "_gasPrice",
          "type": "uint256"
        }
      ],
      "payable": false,
      "stateMutability": "nonpayable",
      "type": "constructor"
    },
    {
      "anonymous": false,
      "inputs": [
        {
          "indexed": true,
          "name": "_prevOwner",
          "type": "address"
        },
        {
          "indexed": true,
          "name": "_newOwner",
          "type": "address"
        }
      ],
      "name": "OwnerUpdate",
      "type": "event"
    },
    {
      "constant": false,
      "inputs": [
        {
          "name": "_gasPrice",
          "type": "uint256"
        }
      ],
      "name": "setGasPrice",
      "outputs": [],
      "payable": false,
      "stateMutability": "nonpayable",
      "type": "function"
    },
    {
      "constant": true,
      "inputs": [
        {
          "name": "_gasPrice",
          "type": "uint256"
        }
      ],
      "name": "validateGasPrice",
      "outputs": [],
      "payable": false,
      "stateMutability": "view",
      "type": "function"
    }
  ],
  "bytecode": "0x6080604052600060025534801561001557600080fd5b5060405160208061033a833981016040525160008054600160a060020a031916331781558190811161004657600080fd5b506002556102e1806100596000396000f3006080604052600436106100825763ffffffff7c01000000000000000000000000000000000000000000000000000000006000350416636b4dff1f811461008757806379ba5097146100a15780638da5cb5b146100b6578063bf1fe420146100e7578063d4ee1d90146100ff578063f2fde38b14610114578063fe173b9714610135575b600080fd5b34801561009357600080fd5b5061009f60043561015c565b005b3480156100ad57600080fd5b5061009f61017d565b3480156100c257600080fd5b506100cb610205565b60408051600160a060020a039092168252519081900360200190f35b3480156100f357600080fd5b5061009f600435610214565b34801561010b57600080fd5b506100cb61023f565b34801561012057600080fd5b5061009f600160a060020a036004351661024e565b34801561014157600080fd5b5061014a6102af565b60408051918252519081900360200190f35b806000811161016a57600080fd5b60025482111561017957600080fd5b5050565b600154600160a060020a0316331461019457600080fd5b60015460008054604051600160a060020a0393841693909116917f343765429aea5a34b3ff6a3785a98a5abb2597aca87bfbb58632c173d585373a91a3600180546000805473ffffffffffffffffffffffffffffffffffffffff19908116600160a060020a03841617909155169055565b600054600160a060020a031681565b600054600160a060020a0316331461022b57600080fd5b806000811161023957600080fd5b50600255565b600154600160a060020a031681565b600054600160a060020a0316331461026557600080fd5b600054600160a060020a038281169116141561028057600080fd5b6001805473ffffffffffffffffffffffffffffffffffffffff1916600160a060020a0392909216919091179055565b600254815600a165627a7a7230582076ed8c1c169b6bde6c75428cdf9f16e1255e5eb0596d572d99e051ed03be2bf00029",
  "source": "pragma solidity ^0.4.24;\r\nimport './interfaces/IBancorGasPriceLimit.sol';\r\nimport '../utility/Owned.sol';\r\nimport '../utility/Utils.sol';\r\n\r\n/**\r\n  * @dev The BancorGasPriceLimit contract serves as an extra front-running attack mitigation mechanism.\r\n  * It sets a maximum gas price on all bancor conversions, which prevents users from \"cutting in line\"\r\n  * in order to front-run other transactions.\r\n  * The gas price limit is universal to all converters and it can be updated by the owner to be in line\r\n  * with the network's current gas price.\r\n*/\r\ncontract BancorGasPriceLimit is IBancorGasPriceLimit, Owned, Utils {\r\n    uint256 public gasPrice = 0 wei;    // maximum gas price for bancor transactions\r\n    \r\n    /**\r\n      * @dev initializes a new BancorGasPriceLimit instance\r\n      * \r\n      * @param _gasPrice    gas price limit\r\n    */\r\n    constructor(uint256 _gasPrice)\r\n        public\r\n        greaterThanZero(_gasPrice)\r\n    {\r\n        gasPrice = _gasPrice;\r\n    }\r\n\r\n    /**\r\n      * @dev allows the owner to update the gas price limit\r\n      * \r\n      * @param _gasPrice    new gas price limit\r\n    */\r\n    function setGasPrice(uint256 _gasPrice)\r\n        public\r\n        ownerOnly\r\n        greaterThanZero(_gasPrice)\r\n    {\r\n        gasPrice = _gasPrice;\r\n    }\r\n\r\n    /**\r\n      * @dev validate that the given gas price is equal to the current network gas price\r\n      * \r\n      * @param _gasPrice    tested gas price\r\n    */\r\n    function validateGasPrice(uint256 _gasPrice)\r\n        public\r\n        view\r\n        greaterThanZero(_gasPrice)\r\n    {\r\n        require(_gasPrice <= gasPrice);\r\n    }\r\n}\r\n",
  "sourcePath": "/Users/cryptotom/code/gitcoin/communiteths/contracts/bancor/converter/BancorGasPriceLimit.sol",
  "compiler": {
    "name": "solc",
    "version": "0.4.26+commit.4563c3fc.Emscripten.clang"
  },
  "schemaVersion": "3.0.11",
  "updatedAt": "2019-09-14T02:19:49.781Z",
  "devdoc": {
    "methods": {
      "acceptOwnership()": {
        "details": "used by a new owner to accept an ownership transfer\r"
      },
      "setGasPrice(uint256)": {
        "details": "allows the owner to update the gas price limit\r \r",
        "params": {
          "_gasPrice": "new gas price limit\r"
        }
      },
      "transferOwnership(address)": {
        "details": "allows transferring the contract ownership\r the new owner still needs to accept the transfer\r can only be called by the contract owner\r \r",
        "params": {
          "_newOwner": "new contract owner\r"
        }
      },
      "validateGasPrice(uint256)": {
        "details": "validate that the given gas price is equal to the current network gas price\r \r",
        "params": {
          "_gasPrice": "tested gas price\r"
        }
      }
    }
  },
  "userdoc": {
    "methods": {}
  }
}