{
  "contractName": "BancorConverterFactory",
  "abi": [
    {
      "inputs": [],
      "payable": false,
      "stateMutability": "nonpayable",
      "type": "constructor"
    },
    {
      "anonymous": false,
      "inputs": [
        {
          "indexed": true,
          "name": "_converter",
          "type": "address"
        },
        {
          "indexed": true,
          "name": "_owner",
          "type": "address"
        }
      ],
      "name": "NewConverter",
      "type": "event"
    },
    {
      "constant": false,
      "inputs": [
        {
          "name": "_token",
          "type": "address"
        },
        {
          "name": "_registry",
          "type": "address"
        },
        {
          "name": "_maxConversionFee",
          "type": "uint32"
        },
        {
          "name": "_connectorToken",
          "type": "address"
        },
        {
          "name": "_connectorWeight",
          "type": "uint32"
        }
      ],
      "name": "createConverter",
      "outputs": [
        {
          "name": "converterAddress",
          "type": "address"
        }
      ],
      "payable": false,
      "stateMutability": "nonpayable",
      "type": "function"
    }
  ],
  "bytecode": "0x608060405234801561001057600080fd5b5061569f806100206000396000f3006080604052600436106100405763ffffffff7c0100000000000000000000000000000000000000000000000000000000600035041663034efaeb8114610045575b600080fd5b34801561005157600080fd5b5061008f73ffffffffffffffffffffffffffffffffffffffff60043581169060243581169063ffffffff6044358116916064351690608435166100b8565b6040805173ffffffffffffffffffffffffffffffffffffffff9092168252519081900360200190f35b600080600087878787876100ca61028c565b73ffffffffffffffffffffffffffffffffffffffff9586168152938516602085015263ffffffff9283166040808601919091529190941660608401529216608082015290519081900360a001906000f08015801561012c573d6000803e3d6000fd5b50604080517ff2fde38b000000000000000000000000000000000000000000000000000000008152336004820152905191935073ffffffffffffffffffffffffffffffffffffffff84169163f2fde38b9160248082019260009290919082900301818387803b15801561019e57600080fd5b505af11580156101b2573d6000803e3d6000fd5b5050604080517fe4edf852000000000000000000000000000000000000000000000000000000008152336004820152905173ffffffffffffffffffffffffffffffffffffffff8616935063e4edf8529250602480830192600092919082900301818387803b15801561022357600080fd5b505af1158015610237573d6000803e3d6000fd5b505060405184935033925073ffffffffffffffffffffffffffffffffffffffff841691507fb54eb8f70476910bea510b4ca1ece1fdb11eeb345b0d46221dd40ba86e64953390600090a3979650505050505050565b6040516153d78061029d8339019056006005805460a060020a61ffff0219167410000000000000000000000000000000000000000017905560c0604052600660808190527f62616e636f72000000000000000000000000000000000000000000000000000060a09081526200006691908162000588565b506007805460ff19166001179055600c80546001606860020a0319166c01000000000000000000000000179055348015620000a057600080fd5b5060405160a080620053d78339810160409081528151602083015191830151606084015160809094015160008054600160a060020a03191633178155929491928580600160a060020a0381161515620000f857600080fd5b5060028054600160a060020a03928316600160a060020a03199182161790915560048054909116331790558590811615156200013357600080fd5b8460008163ffffffff1610158015620001555750620f424063ffffffff821611155b15156200016157600080fd5b60088054600160a060020a031916600160a060020a03898116918217928390556007805461010060a860020a03191661010090930292909217909155604080517fbb34534c0000000000000000000000000000000000000000000000000000000081527f436f6e747261637446656174757265730000000000000000000000000000000060048201529051929091169163bb34534c916024808201926020929091908290030181600087803b1580156200021a57600080fd5b505af11580156200022f573d6000803e3d6000fd5b505050506040513d60208110156200024657600080fd5b50519250600160a060020a03831615620002dd57604080517f2c7077c000000000000000000000000000000000000000000000000000000000815260016004820181905260248201529051600160a060020a03851691632c7077c091604480830192600092919082900301818387803b158015620002c357600080fd5b505af1158015620002d8573d6000803e3d6000fd5b505050505b600c805467ffffffff00000000191664010000000063ffffffff891602179055600160a060020a038516156200032457620003248585600064010000000062000332810204565b50505050505050506200062d565b600054600160a060020a031633146200034a57600080fd5b600254604080517f8da5cb5b00000000000000000000000000000000000000000000000000000000815290513092600160a060020a031691638da5cb5b9160048083019260209291908290030181600087803b158015620003aa57600080fd5b505af1158015620003bf573d6000803e3d6000fd5b505050506040513d6020811015620003d657600080fd5b5051600160a060020a03161415620003ed57600080fd5b82600160a060020a03811615156200040457600080fd5b83600160a060020a0381163014156200041c57600080fd5b8360008163ffffffff161180156200043d5750620f424063ffffffff821611155b15156200044957600080fd5b600254600160a060020a038781169116148015906200048e5750600160a060020a0386166000908152600b60205260409020600101546601000000000000900460ff16155b8015620004ad5750600c54620f424063ffffffff918216870190911611155b1515620004b957600080fd5b505050600160a060020a039092166000818152600b602052604081208181556001908101805466ff0000000000001965ff0000000000199715156401000000000264ff000000001963ffffffff808a1663ffffffff1995861617919091169190911798909816650100000000001716660100000000000017909155600a805492830181559092527fc65a7bb8d6351c1cf70c95a316cc6a92839c986682d98bc35f958f4883f9d2a8018054600160a060020a031916909217909155600c80548085169093019093169116179055565b828054600181600116156101000203166002900490600052602060002090601f016020900481019282601f10620005cb57805160ff1916838001178555620005fb565b82800160010185558215620005fb579182015b82811115620005fb578251825591602001919060010190620005de565b50620006099291506200060d565b5090565b6200062a91905b8082111562000609576000815560010162000614565b90565b614d9a806200063d6000396000f30060806040526004361061031e5763ffffffff60e060020a6000350416630c87355e81146103235780630ca789231461034a5780630e53aae91461037e5780631120a776146103d357806319b64015146104045780631d000b611461041c5780631e1401f81461043157806320d7d3671461047457806321e6b53d1461049d57806322742564146104be578063228d28201461052657806325f9bfef146105405780632a2e2f0c146105555780632cc1cd651461058257806338a5e0161461061f5780633aa0145a146106345780633e8ff43f146106525780633f4d2fc2146106dc578063415f12401461070b57806341a5b33d14610723578063429060291461074d578063481c6a751461076257806349d10b64146107775780634af80f0e1461078c57806350057351146107ad57806354fd4d5014610822578063579cd3ca1461084e5780635a46f06c1461087c5780635e35359e146108915780635e5144eb146108bb57806361cd756e146108e857806362614ae6146108fd5780636d7bd3fc146109125780636ebf36c01461092757806371f52bf31461095f57806372b44b2c1461097457806375892cf11461099857806379ba5097146109c55780637b103999146109da57806383315b6e146109ef57806385d5e63114610a045780638da5cb5b14610a1e5780638e3047e014610a335780639232494e14610a5d5780639249993a14610a7257806392d1abb714610a8757806394c275ad14610a9c5780639e56855314610ab1578063a2c4c33614610ad7578063b3a426d514610afb578063b4a176d314610b9c578063bf75455814610bb1578063c45d3d9214610bc6578063c4a8598e14610bdb578063c8c2fe6c14610bf0578063ca1d209d14610c05578063cc97b38f14610c1d578063d4ee1d9014610c32578063d55ec69714610c47578063d895951214610c5c578063d924f0c314610c7d578063e4dd22f614610c9e578063e4edf85214610d01578063ecbca55d14610d22578063f0843ba914610d40578063f2fde38b14610d91578063f5286b9c14610db2578063fa1c594e14610dc7578063fc0c546a14610de1578063fe417fa514610df6575b600080fd5b34801561032f57600080fd5b50610338610e1a565b60408051918252519081900360200190f35b34801561035657600080fd5b5061037c600160a060020a036004351663ffffffff602435166044351515606435610e2c565b005b34801561038a57600080fd5b5061039f600160a060020a0360043516610f3f565b6040805195865263ffffffff9094166020860152911515848401521515606084015215156080830152519081900360a00190f35b3480156103df57600080fd5b506103e8610f85565b60408051600160a060020a039092168252519081900360200190f35b34801561041057600080fd5b506103e8600435610f94565b34801561042857600080fd5b50610338610fbc565b34801561043d57600080fd5b5061045b600160a060020a0360043581169060243516604435610fe0565b6040805192835260208301919091528051918290030190f35b34801561048057600080fd5b5061048961105d565b604080519115158252519081900360200190f35b3480156104a957600080fd5b5061037c600160a060020a0360043516611066565b6040805160206004803580820135838102808601850190965280855261033895369593946024949385019291829185019084908082843750949750508435955050506020830135926040810135925060ff606082013516915060808101359060a00135611130565b34801561053257600080fd5b5061037c6004351515611159565b34801561054c57600080fd5b50610338611218565b34801561056157600080fd5b50610338600160a060020a036004358116906024351660443560643561123c565b34801561058e57600080fd5b5060408051602060048035808201358381028086018501909652808552610338953695939460249493850192918291850190849080828437505060408051818801358901803560208181028481018201909552818452989b8a359b8a8c01359b919a909950606090910197509295509082019350918291850190849080828437509497506116079650505050505050565b34801561062b57600080fd5b5061037c611b06565b34801561064057600080fd5b5061033860043560ff60243516611b8a565b34801561065e57600080fd5b50610667611be8565b6040805160208082528351818301528351919283929083019185019080838360005b838110156106a1578181015183820152602001610689565b50505050905090810190601f1680156106ce5780820380516001836020036101000a031916815260200191505b509250505060405180910390f35b3480156106e857600080fd5b5061037c600160a060020a036004351663ffffffff602435166044351515611c76565b34801561071757600080fd5b5061037c600435611ec0565b34801561072f57600080fd5b5061037c600160a060020a03600435811690602435166044356120dc565b34801561075957600080fd5b506103e861217d565b34801561076e57600080fd5b506103e861218c565b34801561078357600080fd5b5061037c61219b565b34801561079857600080fd5b5061037c600160a060020a03600435166122e3565b3480156107b957600080fd5b506040805160206004803580820135838102808601850190965280855261033895369593946024949385019291829185019084908082843750949750508435955050506020830135926040810135925060ff606082013516915060808101359060a00135612334565b34801561082e57600080fd5b5061083761234e565b6040805161ffff9092168252519081900360200190f35b34801561085a57600080fd5b50610863612370565b6040805163ffffffff9092168252519081900360200190f35b34801561088857600080fd5b50610338612388565b34801561089d57600080fd5b5061037c600160a060020a03600435811690602435166044356123ac565b3480156108c757600080fd5b50610338600160a060020a036004358116906024351660443560643561252d565b3480156108f457600080fd5b506103e8612544565b34801561090957600080fd5b50610338612558565b34801561091e57600080fd5b5061033861257c565b34801561093357600080fd5b50610338600160a060020a0360043581169060243581169060443590606435906084351660a43561258e565b34801561096b57600080fd5b50610837612634565b34801561098057600080fd5b5061045b600160a060020a036004351660243561263a565b3480156109a457600080fd5b50610338600160a060020a036004358116906024351660443560643561291e565b3480156109d157600080fd5b5061037c61292f565b3480156109e657600080fd5b506103e86129aa565b3480156109fb57600080fd5b506103386129b9565b348015610a1057600080fd5b5061037c60043515156129dd565b348015610a2a57600080fd5b506103e8612a76565b348015610a3f57600080fd5b5061045b600160a060020a0360043581169060243516604435612a85565b348015610a6957600080fd5b50610338612d44565b348015610a7e57600080fd5b50610338612d56565b348015610a9357600080fd5b50610338612d7a565b348015610aa857600080fd5b50610863612d7f565b348015610abd57600080fd5b5061037c600160a060020a03600435166024351515612d93565b348015610ae357600080fd5b5061045b600160a060020a0360043516602435612e1b565b60408051602060048035808201358381028086018501909652808552610338953695939460249493850192918291850190849080828437505060408051818801358901803560208181028481018201909552818452989b8a359b8a8c01359b919a9099506060909101975092955090820193509182918501908490808284375094975050508335600160a060020a03169450505060209091013590506130cc565b348015610ba857600080fd5b5061037c613416565b348015610bbd57600080fd5b5061048961346f565b348015610bd257600080fd5b506103e8613488565b348015610be757600080fd5b50610338613497565b348015610bfc57600080fd5b5061037c6134bb565b348015610c1157600080fd5b5061037c600435613538565b348015610c2957600080fd5b50610338613793565b348015610c3e57600080fd5b506103e86137b7565b348015610c5357600080fd5b5061037c6137c6565b348015610c6857600080fd5b50610338600160a060020a0360043516613911565b348015610c8957600080fd5b5061037c600160a060020a0360043516613a15565b604080516020600480358082013583810280860185019096528085526103389536959394602494938501929182918501908490808284375094975050843595505050602083013592600160a060020a036040820135169250606001359050613a4e565b348015610d0d57600080fd5b5061037c600160a060020a0360043516613a74565b348015610d2e57600080fd5b5061037c63ffffffff60043516613adf565b6040805160206004803580820135838102808601850190965280855261033895369593946024949385019291829185019084908082843750949750508435955050506020909201359150613bc69050565b348015610d9d57600080fd5b5061037c600160a060020a0360043516613bd6565b348015610dbe57600080fd5b50610338613c2a565b348015610dd357600080fd5b5061037c6004351515613c4e565b348015610ded57600080fd5b506103e8613c8e565b348015610e0257600080fd5b5061037c600160a060020a0360043516602435613c9d565b600080516020614d2f83398151915281565b60008054600160a060020a03163314610e4457600080fd5b600160a060020a0385166000908152600b602052604090206001015485906601000000000000900460ff161515610e7a57600080fd5b8460008163ffffffff16118015610e9a5750620f424063ffffffff821611155b1515610ea557600080fd5b600160a060020a0387166000908152600b602052604090206001810154600c54919450620f424063ffffffff918216928216929092038801161115610ee957600080fd5b5050600181018054600c805463ffffffff928316818416038801831663ffffffff199182161790915582549515156401000000000264ff0000000019929097169516949094179390931693909317909155905550565b600b602052600090815260409020805460019091015463ffffffff81169060ff640100000000820481169165010000000000810482169166010000000000009091041685565b600354600160a060020a031681565b600a805482908110610fa257fe5b600091825260209091200154600160a060020a0316905081565b7f424e54546f6b656e00000000000000000000000000000000000000000000000081565b600080600160a060020a038581169085161415610ffc57600080fd5b600254600160a060020a03858116911614156110255761101c8584612e1b565b91509150611055565b600254600160a060020a03868116911614156110455761101c848461263a565b611050858585612a85565b915091505b935093915050565b60075460ff1681565b600054600160a060020a0316331461107d57600080fd5b6008546040805160e260020a632ecd14d3028152600080516020614d2f83398151915260048201529051600092600160a060020a03169163bb34534c91602480830192602092919082900301818787803b1580156110da57600080fd5b505af11580156110ee573d6000803e3d6000fd5b505050506040513d602081101561110457600080fd5b5051600054909150600160a060020a0380831691161461112357600080fd5b61112c82613d96565b5050565b600061114d8888886111458b8a8a8a8a613e14565b6000806130cc565b98975050505050505050565b600054600160a060020a031633148061117c5750600454600160a060020a031633145b151561118757600080fd5b600c5460ff6c01000000000000000000000000909104161515811515141561121557600c80546c01000000000000000000000000831581026cff000000000000000000000000199092169190911791829055604080519190920460ff161515815290517fb8e670608a57255ce4f35952b324cba70211a4200a91ce81d26e06d488c1f66b9181900360200190a15b50565b7f436f6e747261637452656769737472790000000000000000000000000000000081565b6008546040805160e260020a632ecd14d3028152600080516020614d0f83398151915260048201529051600092839283928392839283928392600160a060020a03169163bb34534c91602480830192602092919082900301818787803b1580156112a557600080fd5b505af11580156112b9573d6000803e3d6000fd5b505050506040513d60208110156112cf57600080fd5b5051905033600160a060020a038216146112e857600080fd5b600c546c01000000000000000000000000900460ff16151561130657fe5b876000811161131457600080fd5b600160a060020a038c8116908c16141561132d57600080fd5b600254600160a060020a038c8116911614156113555761134e8c8b8b613f03565b97506115f8565b600254600160a060020a038d8116911614156113765761134e8b8b8b6140dd565b6113818c8c8c612a85565b909750955086158015906113955750888710155b15156113a057600080fd5b600160a060020a038c166000908152600b602052604090206001810154909550640100000000900460ff16156113e55784546113e2908b63ffffffff61440616565b85555b600160a060020a038b166000908152600b602052604090206001810154909450640100000000900460ff161561142a578354611427908863ffffffff61442316565b84555b6114338b613911565b925082871061143e57fe5b61144a8c33308d614438565b6114558b33896147c7565b6114628c8c8c8a8a614b3d565b8b600160a060020a0316600080516020614d4f833981519152600260009054906101000a9004600160a060020a0316600160a060020a03166318160ddd6040518163ffffffff1660e060020a028152600401602060405180830381600087803b1580156114ce57600080fd5b505af11580156114e2573d6000803e3d6000fd5b505050506040513d60208110156114f857600080fd5b50516115038f613911565b600189015460408051938452602084019290925263ffffffff1682820152519081900360600190a28a600160a060020a0316600080516020614d4f833981519152600260009054906101000a9004600160a060020a0316600160a060020a03166318160ddd6040518163ffffffff1660e060020a028152600401602060405180830381600087803b15801561159757600080fd5b505af11580156115ab573d6000803e3d6000fd5b505050506040513d60208110156115c157600080fd5b50516115cc8e613911565b600188015460408051938452602084019290925263ffffffff1682820152519081900360600190a28697505b50505050505050949350505050565b60008060008084516000148061163457508585600081518110151561162857fe5b90602001906020020151145b151561163f57600080fd5b6008546040805160e260020a632ecd14d30281527f42616e636f72580000000000000000000000000000000000000000000000000060048201529051600160a060020a039092169163bb34534c916024808201926020929091908290030181600087803b1580156116af57600080fd5b505af11580156116c3573d6000803e3d6000fd5b505050506040513d60208110156116d957600080fd5b50516008546040805160e260020a632ecd14d3028152600080516020614d0f83398151915260048201529051929550600160a060020a039091169163bb34534c916024808201926020929091908290030181600087803b15801561173c57600080fd5b505af1158015611750573d6000803e3d6000fd5b505050506040513d602081101561176657600080fd5b50516008546040805160e260020a632ecd14d30281527f424e54546f6b656e00000000000000000000000000000000000000000000000060048201529051929450600160a060020a039091169163bb34534c916024808201926020929091908290030181600087803b1580156117db57600080fd5b505af11580156117ef573d6000803e3d6000fd5b505050506040513d602081101561180557600080fd5b50518851600160a060020a03909116908990600090811061182257fe5b60209081029091010151600160a060020a03161461183f57600080fd5b604080517faafd6b76000000000000000000000000000000000000000000000000000000008152600481018890523360248201529051600160a060020a0385169163aafd6b769160448083019260209291908290030181600087803b1580156118a757600080fd5b505af11580156118bb573d6000803e3d6000fd5b505050506040513d60208110156118d157600080fd5b50516002546040805160e060020a63a24835d1028152336004820152602481018490529051929350600160a060020a039091169163a24835d19160448082019260009290919082900301818387803b15801561192c57600080fd5b505af1158015611940573d6000803e3d6000fd5b50506002546040805160e260020a63219e412d028152600160a060020a03878116600483015260248201879052915191909216935063867904b49250604480830192600092919082900301818387803b15801561199c57600080fd5b505af11580156119b0573d6000803e3d6000fd5b5050505081600160a060020a0316634de006cb89838a338a6000806040518863ffffffff1660e060020a028152600401808060200188815260200187815260200186600160a060020a0316600160a060020a031681526020018060200185600160a060020a0316600160a060020a0316815260200184815260200183810383528a818151815260200191508051906020019060200280838360005b83811015611a63578181015183820152602001611a4b565b50505050905001838103825286818151815260200191508051906020019060200280838360005b83811015611aa2578181015183820152602001611a8a565b505050509050019950505050505050505050602060405180830381600087803b158015611ace57600080fd5b505af1158015611ae2573d6000803e3d6000fd5b505050506040513d6020811015611af857600080fd5b505198975050505050505050565b600054600160a060020a03163314611b1d57600080fd5b600260009054906101000a9004600160a060020a0316600160a060020a03166379ba50976040518163ffffffff1660e060020a028152600401600060405180830381600087803b158015611b7057600080fd5b505af1158015611b84573d6000803e3d6000fd5b50505050565b600c54600090611be19060ff8416620f424081810a67ffffffffffffffff90811693611bd593899363ffffffff680100000000000000009093048316900383160a90911690614bc016565b9063ffffffff614bee16565b9392505050565b6006805460408051602060026001851615610100026000190190941693909304601f81018490048402820184019092528181529291830182828015611c6e5780601f10611c4357610100808354040283529160200191611c6e565b820191906000526020600020905b815481529060010190602001808311611c5157829003601f168201915b505050505081565b600054600160a060020a03163314611c8d57600080fd5b600254604080517f8da5cb5b00000000000000000000000000000000000000000000000000000000815290513092600160a060020a031691638da5cb5b9160048083019260209291908290030181600087803b158015611cec57600080fd5b505af1158015611d00573d6000803e3d6000fd5b505050506040513d6020811015611d1657600080fd5b5051600160a060020a03161415611d2c57600080fd5b82600160a060020a0381161515611d4257600080fd5b83600160a060020a038116301415611d5957600080fd5b8360008163ffffffff16118015611d795750620f424063ffffffff821611155b1515611d8457600080fd5b600254600160a060020a03878116911614801590611dc85750600160a060020a0386166000908152600b60205260409020600101546601000000000000900460ff16155b8015611de65750600c54620f424063ffffffff918216870190911611155b1515611df157600080fd5b505050600160a060020a039092166000818152600b602052604081208181556001908101805466ff0000000000001965ff0000000000199715156401000000000264ff000000001963ffffffff808a1663ffffffff1995861617919091169190911798909816650100000000001716660100000000000017909155600a805492830181559092527fc65a7bb8d6351c1cf70c95a316cc6a92839c986682d98bc35f958f4883f9d2a8018054600160a060020a031916909217909155600c80548085169093019093169116179055565b600c546000908190819081908190819063ffffffff16620f424014611ee457600080fd5b600260009054906101000a9004600160a060020a0316600160a060020a03166318160ddd6040518163ffffffff1660e060020a028152600401602060405180830381600087803b158015611f3757600080fd5b505af1158015611f4b573d6000803e3d6000fd5b505050506040513d6020811015611f6157600080fd5b50516002546040805160e060020a63a24835d1028152336004820152602481018b90529051929850600160a060020a039091169163a24835d19160448082019260009290919082900301818387803b158015611fbc57600080fd5b505af1158015611fd0573d6000803e3d6000fd5b50505050600091505b600a5461ffff831610156120d357600a805461ffff8416908110611ff957fe5b600091825260209091200154600160a060020a0316945061201985613911565b935061202f86611bd5898763ffffffff614bc016565b600160a060020a0386166000908152600b6020526040902060018101549194509150640100000000900460ff1615612076578054612073908463ffffffff61442316565b81555b6120818533856147c7565b6001810154604080518989038152858703602082015263ffffffff9092168282015251600160a060020a03871691600080516020614d4f833981519152919081900360600190a2600190910190611fd9565b50505050505050565b600054600160a060020a031633146120f357600080fd5b600254604080517f5e35359e000000000000000000000000000000000000000000000000000000008152600160a060020a03868116600483015285811660248301526044820185905291519190921691635e35359e91606480830192600092919082900301818387803b15801561216957600080fd5b505af11580156120d3573d6000803e3d6000fd5b600554600160a060020a031681565b600454600160a060020a031681565b60075460009060ff16806121b95750600054600160a060020a031633145b15156121c457600080fd5b6008546040805160e260020a632ecd14d30281527f436f6e747261637452656769737472790000000000000000000000000000000060048201529051600160a060020a039092169163bb34534c916024808201926020929091908290030181600087803b15801561223457600080fd5b505af1158015612248573d6000803e3d6000fd5b505050506040513d602081101561225e57600080fd5b5051600854909150600160a060020a038083169116148015906122895750600160a060020a03811615155b151561229457600080fd5b600880546007805474ffffffffffffffffffffffffffffffffffffffff001916610100600160a060020a038085169190910291909117909155600160a060020a03199091169216919091179055565b600054600160a060020a031633146122fa57600080fd5b80600160a060020a03811630141561231157600080fd5b5060098054600160a060020a031916600160a060020a0392909216919091179055565b600061114d8888886123498a8a8a8a8a613e14565b611607565b60055474010000000000000000000000000000000000000000900461ffff1681565b600c5468010000000000000000900463ffffffff1681565b7f42616e636f72436f6e766572746572466163746f72790000000000000000000081565b6008546040805160e260020a632ecd14d3028152600080516020614d2f83398151915260048201529051600092600160a060020a03169163bb34534c91602480830192602092919082900301818787803b15801561240957600080fd5b505af115801561241d573d6000803e3d6000fd5b505050506040513d602081101561243357600080fd5b5051600160a060020a0385166000908152600b60205260409020600101549091506601000000000000900460ff1615806124ff5750600254604080517f8da5cb5b00000000000000000000000000000000000000000000000000000000815290513092600160a060020a031691638da5cb5b9160048083019260209291908290030181600087803b1580156124c757600080fd5b505af11580156124db573d6000803e3d6000fd5b505050506040513d60208110156124f157600080fd5b5051600160a060020a031614155b806125175750600054600160a060020a038281169116145b151561252257600080fd5b611b84848484614c11565b600061253b8585858561123c565b95945050505050565b6007546101009004600160a060020a031681565b7f424e54436f6e766572746572000000000000000000000000000000000000000081565b600080516020614cef83398151915281565b6040805160038082526080820190925260009160609190602082018380388339505060025482519293508a92600160a060020a0390911691508990849060009081106125d657fe5b9060200190602002018460018151811015156125ee57fe5b90602001906020020185600281518110151561260657fe5b600160a060020a039485166020918202909201015292821690925291909116905261114d8187878787613a4e565b600a5490565b60008060008060008060008030600160a060020a0316600260009054906101000a9004600160a060020a0316600160a060020a0316638da5cb5b6040518163ffffffff1660e060020a028152600401602060405180830381600087803b1580156126a357600080fd5b505af11580156126b7573d6000803e3d6000fd5b505050506040513d60208110156126cd57600080fd5b5051600160a060020a0316146126e257600080fd5b600160a060020a038a166000908152600b60205260409020600101548a906601000000000000900460ff16151561271857600080fd5b600160a060020a03808c166000908152600b6020908152604080832060025482517f18160ddd0000000000000000000000000000000000000000000000000000000081529251919c50909416936318160ddd93600480840194938390030190829087803b15801561278857600080fd5b505af115801561279c573d6000803e3d6000fd5b505050506040513d60208110156127b257600080fd5b505195506127bf8b613911565b6008546040805160e260020a632ecd14d3028152600080516020614cef83398151915260048201529051929750600160a060020a039091169163bb34534c916024808201926020929091908290030181600087803b15801561282057600080fd5b505af1158015612834573d6000803e3d6000fd5b505050506040513d602081101561284a57600080fd5b50516001880154604080517f49f9b0f7000000000000000000000000000000000000000000000000000000008152600481018a90526024810189905263ffffffff9092166044830152606482018d905251919550600160a060020a038616916349f9b0f7916084808201926020929091908290030181600087803b1580156128d157600080fd5b505af11580156128e5573d6000803e3d6000fd5b505050506040513d60208110156128fb57600080fd5b5051925061290a836001611b8a565b9b928c90039a509198505050505050505050565b600061253b8585858560008061258e565b600154600160a060020a0316331461294657600080fd5b60015460008054604051600160a060020a0393841693909116917f343765429aea5a34b3ff6a3785a98a5abb2597aca87bfbb58632c173d585373a91a36001805460008054600160a060020a0319908116600160a060020a03841617909155169055565b600854600160a060020a031681565b7f436f6e747261637446656174757265730000000000000000000000000000000081565b600054600160a060020a031633146129f457600080fd5b600254604080517f1608f18f00000000000000000000000000000000000000000000000000000000815283151560048201529051600160a060020a0390921691631608f18f9160248082019260009290919082900301818387803b158015612a5b57600080fd5b505af1158015612a6f573d6000803e3d6000fd5b5050505050565b600054600160a060020a031681565b600080600080600080600030600160a060020a0316600260009054906101000a9004600160a060020a0316600160a060020a0316638da5cb5b6040518163ffffffff1660e060020a028152600401602060405180830381600087803b158015612aed57600080fd5b505af1158015612b01573d6000803e3d6000fd5b505050506040513d6020811015612b1757600080fd5b5051600160a060020a031614612b2c57600080fd5b600160a060020a038a166000908152600b60205260409020600101548a906601000000000000900460ff161515612b6257600080fd5b600160a060020a038a166000908152600b60205260409020600101548a906601000000000000900460ff161515612b9857600080fd5b600160a060020a038c81166000908152600b6020526040808220928e16825290206001820154919850965065010000000000900460ff161515612bda57600080fd5b6008546040805160e260020a632ecd14d3028152600080516020614cef83398151915260048201529051600160a060020a039092169163bb34534c916024808201926020929091908290030181600087803b158015612c3857600080fd5b505af1158015612c4c573d6000803e3d6000fd5b505050506040513d6020811015612c6257600080fd5b50519450600160a060020a0385166365098bb3612c7e8e613911565b60018a015463ffffffff16612c928f613911565b60018b01546040805163ffffffff87811660e060020a028252600482019690965293851660248501526044840192909252929092166064820152608481018e9052905160a48083019260209291908290030181600087803b158015612cf657600080fd5b505af1158015612d0a573d6000803e3d6000fd5b505050506040513d6020811015612d2057600080fd5b50519350612d2f846002611b8a565b9c938d90039b50929950505050505050505050565b600080516020614d0f83398151915281565b7f42616e636f7247617350726963654c696d69740000000000000000000000000081565b600181565b600c54640100000000900463ffffffff1681565b600054600160a060020a03163314612daa57600080fd5b600160a060020a0382166000908152600b602052604090206001015482906601000000000000900460ff161515612de057600080fd5b50600160a060020a03919091166000908152600b60205260409020600101805465ff0000000000191691156501000000000002919091179055565b60008060008060008060008030600160a060020a0316600260009054906101000a9004600160a060020a0316600160a060020a0316638da5cb5b6040518163ffffffff1660e060020a028152600401602060405180830381600087803b158015612e8457600080fd5b505af1158015612e98573d6000803e3d6000fd5b505050506040513d6020811015612eae57600080fd5b5051600160a060020a031614612ec357600080fd5b600160a060020a038a166000908152600b60205260409020600101548a906601000000000000900460ff161515612ef957600080fd5b600160a060020a038b166000908152600b60205260409020600181015490975065010000000000900460ff161515612f3057600080fd5b600260009054906101000a9004600160a060020a0316600160a060020a03166318160ddd6040518163ffffffff1660e060020a028152600401602060405180830381600087803b158015612f8357600080fd5b505af1158015612f97573d6000803e3d6000fd5b505050506040513d6020811015612fad57600080fd5b50519550612fba8b613911565b6008546040805160e260020a632ecd14d3028152600080516020614cef83398151915260048201529051929750600160a060020a039091169163bb34534c916024808201926020929091908290030181600087803b15801561301b57600080fd5b505af115801561302f573d6000803e3d6000fd5b505050506040513d602081101561304557600080fd5b50516001880154604080517f29a00e7c000000000000000000000000000000000000000000000000000000008152600481018a90526024810189905263ffffffff9092166044830152606482018d905251919550600160a060020a038616916329a00e7c916084808201926020929091908290030181600087803b1580156128d157600080fd5b6000808451600014806130f65750868560008151811015156130ea57fe5b90602001906020020151145b151561310157600080fd5b6008546040805160e260020a632ecd14d3028152600080516020614d0f83398151915260048201529051600160a060020a039092169163bb34534c916024808201926020929091908290030181600087803b15801561315f57600080fd5b505af1158015613173573d6000803e3d6000fd5b505050506040513d602081101561318957600080fd5b505190503415156132d2576002548851600160a060020a0390911690899060009081106131b257fe5b90602001906020020151600160a060020a031614156132ae576002546040805160e060020a63a24835d1028152336004820152602481018a90529051600160a060020a039092169163a24835d19160448082019260009290919082900301818387803b15801561322157600080fd5b505af1158015613235573d6000803e3d6000fd5b50506002546040805160e260020a63219e412d028152600160a060020a038681166004830152602482018d9052915191909216935063867904b49250604480830192600092919082900301818387803b15801561329157600080fd5b505af11580156132a5573d6000803e3d6000fd5b505050506132d2565b6132d28860008151811015156132c057fe5b9060200190602002015133838a614438565b80600160a060020a0316634de006cb348a8a8a338b8b8b6040518963ffffffff1660e060020a028152600401808060200188815260200187815260200186600160a060020a0316600160a060020a031681526020018060200185600160a060020a0316600160a060020a0316815260200184815260200183810383528a818151815260200191508051906020019060200280838360005b83811015613381578181015183820152602001613369565b50505050905001838103825286818151815260200191508051906020019060200280838360005b838110156133c05781810151838201526020016133a8565b5050505090500199505050505050505050506020604051808303818588803b1580156133eb57600080fd5b505af11580156133ff573d6000803e3d6000fd5b50505050506040513d6020811015611af857600080fd5b600054600160a060020a03163314806134395750600454600160a060020a031633145b151561344457600080fd5b6007805460088054600160a060020a031916600160a060020a0361010084041617905560ff19169055565b600c546c01000000000000000000000000900460ff1681565b600954600160a060020a031681565b7f42616e636f72580000000000000000000000000000000000000000000000000081565b600554600160a060020a031633146134d257600080fd5b600554600454604051600160a060020a0392831692909116907fbe4cc281795971a471c980e842627a7f1ea3892ddfce8c5b6357cd2611c1973290600090a36005805460048054600160a060020a0319908116600160a060020a03841617909155169055565b600c546000908190819081908190819063ffffffff16620f42401461355c57600080fd5b600c546c01000000000000000000000000900460ff16151561357a57fe5b600260009054906101000a9004600160a060020a0316600160a060020a03166318160ddd6040518163ffffffff1660e060020a028152600401602060405180830381600087803b1580156135cd57600080fd5b505af11580156135e1573d6000803e3d6000fd5b505050506040513d60208110156135f757600080fd5b50519550600091505b600a5461ffff8316101561371c57600a805461ffff841690811061362057fe5b600091825260209091200154600160a060020a0316945061364085613911565b9350613677600161366b88611bd58361365f8d8b63ffffffff614bc016565b9063ffffffff61442316565b9063ffffffff61440616565b600160a060020a0386166000908152600b6020526040902060018101549194509150640100000000900460ff16156136be5780546136bb908463ffffffff61440616565b81555b6136ca85333086614438565b600181015460408051888a018152868601602082015263ffffffff9092168282015251600160a060020a03871691600080516020614d4f833981519152919081900360600190a2600190910190613600565b6002546040805160e260020a63219e412d028152336004820152602481018a90529051600160a060020a039092169163867904b49160448082019260009290919082900301818387803b15801561377257600080fd5b505af1158015613786573d6000803e3d6000fd5b5050505050505050505050565b7f42616e636f72585570677261646572000000000000000000000000000000000081565b600154600160a060020a031681565b60008054600160a060020a031633146137de57600080fd5b6008546040805160e260020a632ecd14d3028152600080516020614d2f83398151915260048201529051600160a060020a039092169163bb34534c916024808201926020929091908290030181600087803b15801561383c57600080fd5b505af1158015613850573d6000803e3d6000fd5b505050506040513d602081101561386657600080fd5b5051905061387381613bd6565b600554604080517f90f58c960000000000000000000000000000000000000000000000000000000081527401000000000000000000000000000000000000000090920461ffff16600483015251600160a060020a038316916390f58c9691602480830192600092919082900301818387803b1580156138f157600080fd5b505af1158015613905573d6000803e3d6000fd5b5050505061121561292f565b600160a060020a0381166000908152600b6020526040812060010154819083906601000000000000900460ff16151561394957600080fd5b600160a060020a0384166000908152600b602052604090206001810154909250640100000000900460ff16613a0a57604080517f70a082310000000000000000000000000000000000000000000000000000000081523060048201529051600160a060020a038616916370a082319160248083019260209291908290030181600087803b1580156139d957600080fd5b505af11580156139ed573d6000803e3d6000fd5b505050506040513d6020811015613a0357600080fd5b5051613a0d565b81545b949350505050565b600054600160a060020a03163314613a2c57600080fd5b60038054600160a060020a031916600160a060020a0392909216919091179055565b6000613a6a868686613a638580808080613e14565b87876130cc565b9695505050505050565b600054600160a060020a0316331480613a975750600454600160a060020a031633145b1515613aa257600080fd5b600454600160a060020a0382811691161415613abd57600080fd5b60058054600160a060020a031916600160a060020a0392909216919091179055565b600054600160a060020a0316331480613b025750600454600160a060020a031633145b1515613b0d57600080fd5b8060008163ffffffff1610158015613b395750600c5463ffffffff640100000000909104811690821611155b1515613b4457600080fd5b600c546040805163ffffffff6801000000000000000090930483168152918416602083015280517f81cd2ffb37dd237c0e4e2a3de5265fcf9deb43d3e7801e80db9f1ccfba7ee6009281900390910190a150600c805463ffffffff90921668010000000000000000026bffffffff000000000000000019909216919091179055565b6000613a0d848484600080613a4e565b600054600160a060020a03163314613bed57600080fd5b600054600160a060020a0382811691161415613c0857600080fd5b60018054600160a060020a031916600160a060020a0392909216919091179055565b7f4e6f6e5374616e64617264546f6b656e5265676973747279000000000000000081565b600054600160a060020a0316331480613c715750600454600160a060020a031633145b1515613c7c57600080fd5b6007805460ff19169115919091179055565b600254600160a060020a031681565b600354600160a060020a03163314613cb457600080fd5b6002546040805160e060020a63a24835d1028152600160a060020a038581166004830152602482018590529151919092169163a24835d191604480830192600092919082900301818387803b158015613d0c57600080fd5b505af1158015613d20573d6000803e3d6000fd5b50506002546040805160e260020a63219e412d028152336004820152602481018690529051600160a060020a03909216935063867904b4925060448082019260009290919082900301818387803b158015613d7a57600080fd5b505af1158015613d8e573d6000803e3d6000fd5b505050505050565b600054600160a060020a03163314613dad57600080fd5b600254604080517ff2fde38b000000000000000000000000000000000000000000000000000000008152600160a060020a0384811660048301529151919092169163f2fde38b91602480830192600092919082900301818387803b158015612a5b57600080fd5b60608060ff8516158015613e26575083155b8015613e30575082155b15613e4b576040805160008152602081019091529150613ef9565b60408051600580825260c08201909252906020820160a08038833901905050905086816000815181101515613e7c57fe5b602090810290910101528051869082906001908110613e9757fe5b60209081029091010152805160ff86169082906002908110613eb557fe5b602090810290910101528051849082906003908110613ed057fe5b602090810290910101528051839082906004908110613eeb57fe5b602090810290910101529050805b5095945050505050565b600080600080613f138787612e1b565b90935091508215801590613f275750848310155b1515613f3257600080fd5b50600160a060020a0386166000908152600b602052604090206001810154640100000000900460ff1615613f75578054613f72908763ffffffff61440616565b81555b613f8187333089614438565b6002546040805160e260020a63219e412d028152336004820152602481018690529051600160a060020a039092169163867904b49160448082019260009290919082900301818387803b158015613fd757600080fd5b505af1158015613feb573d6000803e3d6000fd5b50506002546140099250899150600160a060020a0316888686614b3d565b86600160a060020a0316600080516020614d4f833981519152600260009054906101000a9004600160a060020a0316600160a060020a03166318160ddd6040518163ffffffff1660e060020a028152600401602060405180830381600087803b15801561407557600080fd5b505af1158015614089573d6000803e3d6000fd5b505050506040513d602081101561409f57600080fd5b50516140aa8a613911565b600185015460408051938452602084019290925263ffffffff1682820152519081900360600190a2509095945050505050565b600254604080517f70a08231000000000000000000000000000000000000000000000000000000008152336004820152905160009283928392839283928392600160a060020a03909216916370a082319160248082019260209290919082900301818787803b15801561414f57600080fd5b505af1158015614163573d6000803e3d6000fd5b505050506040513d602081101561417957600080fd5b505188111561418757600080fd5b614191898961263a565b909550935084158015906141a55750868510155b15156141b057600080fd5b600260009054906101000a9004600160a060020a0316600160a060020a03166318160ddd6040518163ffffffff1660e060020a028152600401602060405180830381600087803b15801561420357600080fd5b505af1158015614217573d6000803e3d6000fd5b505050506040513d602081101561422d57600080fd5b5051925061423a89613911565b9150818510806142535750818514801561425357508288145b151561425b57fe5b50600160a060020a0388166000908152600b602052604090206001810154640100000000900460ff161561429e57805461429b908663ffffffff61442316565b81555b6002546040805160e060020a63a24835d1028152336004820152602481018b90529051600160a060020a039092169163a24835d19160448082019260009290919082900301818387803b1580156142f457600080fd5b505af1158015614308573d6000803e3d6000fd5b505050506143178933876147c7565b60025461433090600160a060020a03168a8a8888614b3d565b88600160a060020a0316600080516020614d4f833981519152600260009054906101000a9004600160a060020a0316600160a060020a03166318160ddd6040518163ffffffff1660e060020a028152600401602060405180830381600087803b15801561439c57600080fd5b505af11580156143b0573d6000803e3d6000fd5b505050506040513d60208110156143c657600080fd5b50516143d18c613911565b600185015460408051938452602084019290925263ffffffff1682820152519081900360600190a25092979650505050505050565b60008282018381101561441857600080fd5b8091505b5092915050565b60008183101561443257600080fd5b50900390565b6008546040805160e260020a632ecd14d30281527f4e6f6e5374616e64617264546f6b656e526567697374727900000000000000006004820152905160009283928392600160a060020a039092169163bb34534c9160248082019260209290919082900301818787803b1580156144ae57600080fd5b505af11580156144c2573d6000803e3d6000fd5b505050506040513d60208110156144d857600080fd5b5051604080517faeea10bd000000000000000000000000000000000000000000000000000000008152600160a060020a038a8116600483015291519295509085169163aeea10bd916024808201926020929091908290030181600087803b15801561454257600080fd5b505af1158015614556573d6000803e3d6000fd5b505050506040513d602081101561456c57600080fd5b50511561471f5786600160a060020a03166370a08231866040518263ffffffff1660e060020a0281526004018082600160a060020a0316600160a060020a03168152602001915050602060405180830381600087803b1580156145ce57600080fd5b505af11580156145e2573d6000803e3d6000fd5b505050506040513d60208110156145f857600080fd5b5051604080517f23b872dd000000000000000000000000000000000000000000000000000000008152600160a060020a0389811660048301528881166024830152604482018890529151929450908916916323b872dd9160648082019260009290919082900301818387803b15801561467057600080fd5b505af1158015614684573d6000803e3d6000fd5b5050505086600160a060020a03166370a08231866040518263ffffffff1660e060020a0281526004018082600160a060020a0316600160a060020a03168152602001915050602060405180830381600087803b1580156146e357600080fd5b505af11580156146f7573d6000803e3d6000fd5b505050506040513d602081101561470d57600080fd5b5051905081811161471a57fe5b6120d3565b604080517f23b872dd000000000000000000000000000000000000000000000000000000008152600160a060020a0388811660048301528781166024830152604482018790529151918916916323b872dd916064808201926020929091908290030181600087803b15801561479357600080fd5b505af11580156147a7573d6000803e3d6000fd5b505050506040513d60208110156147bd57600080fd5b505115156120d357fe5b6008546040805160e260020a632ecd14d30281527f4e6f6e5374616e64617264546f6b656e526567697374727900000000000000006004820152905160009283928392600160a060020a039092169163bb34534c9160248082019260209290919082900301818787803b15801561483d57600080fd5b505af1158015614851573d6000803e3d6000fd5b505050506040513d602081101561486757600080fd5b5051604080517faeea10bd000000000000000000000000000000000000000000000000000000008152600160a060020a03898116600483015291519295509085169163aeea10bd916024808201926020929091908290030181600087803b1580156148d157600080fd5b505af11580156148e5573d6000803e3d6000fd5b505050506040513d60208110156148fb57600080fd5b505115614aa65785600160a060020a03166370a08231866040518263ffffffff1660e060020a0281526004018082600160a060020a0316600160a060020a03168152602001915050602060405180830381600087803b15801561495d57600080fd5b505af1158015614971573d6000803e3d6000fd5b505050506040513d602081101561498757600080fd5b5051604080517fa9059cbb000000000000000000000000000000000000000000000000000000008152600160a060020a0388811660048301526024820188905291519294509088169163a9059cbb9160448082019260009290919082900301818387803b1580156149f757600080fd5b505af1158015614a0b573d6000803e3d6000fd5b5050505085600160a060020a03166370a08231866040518263ffffffff1660e060020a0281526004018082600160a060020a0316600160a060020a03168152602001915050602060405180830381600087803b158015614a6a57600080fd5b505af1158015614a7e573d6000803e3d6000fd5b505050506040513d6020811015614a9457600080fd5b50519050818111614aa157fe5b613d8e565b85600160a060020a031663a9059cbb86866040518363ffffffff1660e060020a0281526004018083600160a060020a0316600160a060020a0316815260200182815260200192505050602060405180830381600087803b158015614b0957600080fd5b505af1158015614b1d573d6000803e3d6000fd5b505050506040513d6020811015614b3357600080fd5b50511515613d8e57fe5b7f80000000000000000000000000000000000000000000000000000000000000008110614b6657fe5b604080518481526020810184905280820183905290513391600160a060020a0387811692908916917f276856b36cbc45526a0ba64f44611557a2a8b68662c5388e9fe6d72e86e1c8cb919081900360600190a45050505050565b600080831515614bd3576000915061441c565b50828202828482811515614be357fe5b041461441857600080fd5b600080808311614bfd57600080fd5b8284811515614c0857fe5b04949350505050565b600054600160a060020a03163314614c2857600080fd5b82600160a060020a0381161515614c3e57600080fd5b82600160a060020a0381161515614c5457600080fd5b83600160a060020a038116301415614c6b57600080fd5b85600160a060020a031663a9059cbb86866040518363ffffffff1660e060020a0281526004018083600160a060020a0316600160a060020a0316815260200182815260200192505050600060405180830381600087803b158015614cce57600080fd5b505af1158015614ce2573d6000803e3d6000fd5b50505050505050505050560042616e636f72466f726d756c610000000000000000000000000000000000000042616e636f724e6574776f726b0000000000000000000000000000000000000042616e636f72436f6e76657274657255706772616465720000000000000000008a6a7f53b3c8fa1dc4b83e3f1be668c1b251ff8d44cdcb83eb3acec3fec6a788a165627a7a723058205a6871c4e68b8ab15f97b97e53a1a8c26fc5eeec00acc5af32cb311a96bc89b40029a165627a7a723058201e256d503ac9656733be27e4ccd36031cc581dbe7e9d0ed8f12b3191b02669740029",
  "source": "pragma solidity ^0.4.24;\r\nimport './BancorConverter.sol';\r\nimport './interfaces/IBancorConverterFactory.sol';\r\nimport '../utility/interfaces/IContractRegistry.sol';\r\n\r\n/*\r\n    Bancor Converter Factory\r\n*/\r\ncontract BancorConverterFactory is IBancorConverterFactory {\r\n    /**\r\n      * @dev triggered when a new converter is created\r\n      * \r\n      * @param _converter   new converter address\r\n      * @param _owner       converter owner address\r\n    */\r\n    event NewConverter(address indexed _converter, address indexed _owner);\r\n\r\n    /**\r\n      * @dev initializes a new BancorConverterFactory instance\r\n    */\r\n    constructor() public {\r\n    }\r\n\r\n    /**\r\n      * @dev creates a new converter with the given arguments and transfers\r\n      * the ownership and management to the sender.\r\n      * \r\n      * @param  _token              smart token governed by the converter\r\n      * @param  _registry           address of a contract registry contract\r\n      * @param  _maxConversionFee   maximum conversion fee, represented in ppm\r\n      * @param  _connectorToken     optional, initial connector, allows defining the first connector at deployment time\r\n      * @param  _connectorWeight    optional, weight for the initial connector\r\n      * \r\n      * @return a new converter\r\n    */\r\n    function createConverter(\r\n        ISmartToken _token,\r\n        IContractRegistry _registry,\r\n        uint32 _maxConversionFee,\r\n        IERC20Token _connectorToken,\r\n        uint32 _connectorWeight\r\n    ) public returns(address converterAddress) {\r\n        BancorConverter converter = new BancorConverter(\r\n            _token,\r\n            _registry,\r\n            _maxConversionFee,\r\n            _connectorToken,\r\n            _connectorWeight\r\n        );\r\n\r\n        converter.transferOwnership(msg.sender);\r\n        converter.transferManagement(msg.sender);\r\n\r\n        address _converterAddress = address(converter);\r\n        emit NewConverter(_converterAddress, msg.sender);\r\n        return _converterAddress;\r\n    }\r\n}\r\n",
  "sourcePath": "/Users/cryptotom/code/gitcoin/communiteths/contracts/bancor/converter/BancorConverterFactory.sol",
  "compiler": {
    "name": "solc",
    "version": "0.4.26+commit.4563c3fc.Emscripten.clang"
  },
  "schemaVersion": "3.0.11",
  "updatedAt": "2019-10-30T08:52:19.034Z",
  "devdoc": {
    "methods": {
      "createConverter(address,address,uint32,address,uint32)": {
        "details": "creates a new converter with the given arguments and transfers\r the ownership and management to the sender.\r \r",
        "params": {
          "_connectorToken": "optional, initial connector, allows defining the first connector at deployment time\r",
          "_connectorWeight": "optional, weight for the initial connector\r \r",
          "_maxConversionFee": "maximum conversion fee, represented in ppm\r",
          "_registry": "address of a contract registry contract\r",
          "_token": "smart token governed by the converter\r"
        },
        "return": "a new converter\r"
      }
    }
  },
  "userdoc": {
    "methods": {}
  }
}