{
  "contractName": "ERC20Token",
  "abi": [
    {
      "constant": true,
      "inputs": [],
      "name": "name",
      "outputs": [
        {
          "name": "",
          "type": "string"
        }
      ],
      "payable": false,
      "stateMutability": "view",
      "type": "function"
    },
    {
      "constant": true,
      "inputs": [],
      "name": "totalSupply",
      "outputs": [
        {
          "name": "",
          "type": "uint256"
        }
      ],
      "payable": false,
      "stateMutability": "view",
      "type": "function"
    },
    {
      "constant": true,
      "inputs": [],
      "name": "decimals",
      "outputs": [
        {
          "name": "",
          "type": "uint8"
        }
      ],
      "payable": false,
      "stateMutability": "view",
      "type": "function"
    },
    {
      "constant": true,
      "inputs": [],
      "name": "standard",
      "outputs": [
        {
          "name": "",
          "type": "string"
        }
      ],
      "payable": false,
      "stateMutability": "view",
      "type": "function"
    },
    {
      "constant": true,
      "inputs": [
        {
          "name": "",
          "type": "address"
        }
      ],
      "name": "balanceOf",
      "outputs": [
        {
          "name": "",
          "type": "uint256"
        }
      ],
      "payable": false,
      "stateMutability": "view",
      "type": "function"
    },
    {
      "constant": true,
      "inputs": [],
      "name": "symbol",
      "outputs": [
        {
          "name": "",
          "type": "string"
        }
      ],
      "payable": false,
      "stateMutability": "view",
      "type": "function"
    },
    {
      "constant": true,
      "inputs": [
        {
          "name": "",
          "type": "address"
        },
        {
          "name": "",
          "type": "address"
        }
      ],
      "name": "allowance",
      "outputs": [
        {
          "name": "",
          "type": "uint256"
        }
      ],
      "payable": false,
      "stateMutability": "view",
      "type": "function"
    },
    {
      "inputs": [
        {
          "name": "_name",
          "type": "string"
        },
        {
          "name": "_symbol",
          "type": "string"
        },
        {
          "name": "_decimals",
          "type": "uint8"
        }
      ],
      "payable": false,
      "stateMutability": "nonpayable",
      "type": "constructor"
    },
    {
      "anonymous": false,
      "inputs": [
        {
          "indexed": true,
          "name": "_from",
          "type": "address"
        },
        {
          "indexed": true,
          "name": "_to",
          "type": "address"
        },
        {
          "indexed": false,
          "name": "_value",
          "type": "uint256"
        }
      ],
      "name": "Transfer",
      "type": "event"
    },
    {
      "anonymous": false,
      "inputs": [
        {
          "indexed": true,
          "name": "_owner",
          "type": "address"
        },
        {
          "indexed": true,
          "name": "_spender",
          "type": "address"
        },
        {
          "indexed": false,
          "name": "_value",
          "type": "uint256"
        }
      ],
      "name": "Approval",
      "type": "event"
    },
    {
      "constant": false,
      "inputs": [
        {
          "name": "_to",
          "type": "address"
        },
        {
          "name": "_value",
          "type": "uint256"
        }
      ],
      "name": "transfer",
      "outputs": [
        {
          "name": "success",
          "type": "bool"
        }
      ],
      "payable": false,
      "stateMutability": "nonpayable",
      "type": "function"
    },
    {
      "constant": false,
      "inputs": [
        {
          "name": "_from",
          "type": "address"
        },
        {
          "name": "_to",
          "type": "address"
        },
        {
          "name": "_value",
          "type": "uint256"
        }
      ],
      "name": "transferFrom",
      "outputs": [
        {
          "name": "success",
          "type": "bool"
        }
      ],
      "payable": false,
      "stateMutability": "nonpayable",
      "type": "function"
    },
    {
      "constant": false,
      "inputs": [
        {
          "name": "_spender",
          "type": "address"
        },
        {
          "name": "_value",
          "type": "uint256"
        }
      ],
      "name": "approve",
      "outputs": [
        {
          "name": "success",
          "type": "bool"
        }
      ],
      "payable": false,
      "stateMutability": "nonpayable",
      "type": "function"
    }
  ],
  "bytecode": "0x60c0604052600960808190527f546f6b656e20302e31000000000000000000000000000000000000000000000060a090815261003e9160009190610124565b5060408051602081019182905260009081905261005d91600191610124565b5060408051602081019182905260009081905261007c91600291610124565b506003805460ff19169055600060045534801561009857600080fd5b506040516108df3803806108df833981016040908152815160208301519183015190830180519093929092019160001080156100d5575060008251115b15156100e057600080fd5b82516100f3906001906020860190610124565b508151610107906002906020850190610124565b506003805460ff191660ff92909216919091179055506101bf9050565b828054600181600116156101000203166002900490600052602060002090601f016020900481019282601f1061016557805160ff1916838001178555610192565b82800160010185558215610192579182015b82811115610192578251825591602001919060010190610177565b5061019e9291506101a2565b5090565b6101bc91905b8082111561019e57600081556001016101a8565b90565b610711806101ce6000396000f3006080604052600436106100a35763ffffffff7c010000000000000000000000000000000000000000000000000000000060003504166306fdde0381146100a8578063095ea7b31461013257806318160ddd1461016a57806323b872dd14610191578063313ce567146101bb5780635a3b7e42146101e657806370a08231146101fb57806395d89b411461021c578063a9059cbb14610231578063dd62ed3e14610255575b600080fd5b3480156100b457600080fd5b506100bd61027c565b6040805160208082528351818301528351919283929083019185019080838360005b838110156100f75781810151838201526020016100df565b50505050905090810190601f1680156101245780820380516001836020036101000a031916815260200191505b509250505060405180910390f35b34801561013e57600080fd5b50610156600160a060020a0360043516602435610309565b604080519115158252519081900360200190f35b34801561017657600080fd5b5061017f6103c2565b60408051918252519081900360200190f35b34801561019d57600080fd5b50610156600160a060020a03600435811690602435166044356103c8565b3480156101c757600080fd5b506101d0610503565b6040805160ff9092168252519081900360200190f35b3480156101f257600080fd5b506100bd61050c565b34801561020757600080fd5b5061017f600160a060020a0360043516610567565b34801561022857600080fd5b506100bd610579565b34801561023d57600080fd5b50610156600160a060020a03600435166024356105d1565b34801561026157600080fd5b5061017f600160a060020a036004358116906024351661069a565b60018054604080516020600284861615610100026000190190941693909304601f810184900484028201840190925281815292918301828280156103015780601f106102d657610100808354040283529160200191610301565b820191906000526020600020905b8154815290600101906020018083116102e457829003601f168201915b505050505081565b600082600160a060020a038116151561032157600080fd5b82158061034f5750336000908152600660209081526040808320600160a060020a0388168452909152902054155b151561035a57600080fd5b336000818152600660209081526040808320600160a060020a03891680855290835292819020879055805187815290519293927f8c5be1e5ebec7d5bd14f71427d1e84f3dd0314c0f7b2291e5b200ac8c7c3b925929181900390910190a35060019392505050565b60045481565b600083600160a060020a03811615156103e057600080fd5b83600160a060020a03811615156103f657600080fd5b600160a060020a038616600090815260066020908152604080832033845290915290205461042a908563ffffffff6106b716565b600160a060020a03871660008181526006602090815260408083203384528252808320949094559181526005909152205461046b908563ffffffff6106b716565b600160a060020a0380881660009081526005602052604080822093909355908716815220546104a0908563ffffffff6106cc16565b600160a060020a0380871660008181526005602090815260409182902094909455805188815290519193928a16927fddf252ad1be2c89b69c2b068fc378daa952ba7f163c4a11628f55a4df523b3ef92918290030190a350600195945050505050565b60035460ff1681565b6000805460408051602060026001851615610100026000190190941693909304601f810184900484028201840190925281815292918301828280156103015780601f106102d657610100808354040283529160200191610301565b60056020526000908152604090205481565b6002805460408051602060018416156101000260001901909316849004601f810184900484028201840190925281815292918301828280156103015780601f106102d657610100808354040283529160200191610301565b600082600160a060020a03811615156105e957600080fd5b33600090815260056020526040902054610609908463ffffffff6106b716565b3360009081526005602052604080822092909255600160a060020a0386168152205461063b908463ffffffff6106cc16565b600160a060020a0385166000818152600560209081526040918290209390935580518681529051919233927fddf252ad1be2c89b69c2b068fc378daa952ba7f163c4a11628f55a4df523b3ef9281900390910190a35060019392505050565b600660209081526000928352604080842090915290825290205481565b6000818310156106c657600080fd5b50900390565b6000828201838110156106de57600080fd5b93925050505600a165627a7a723058201a7c407f72b253e4b332c8d418ad4cb1ea80c37b6ad108c23d405627c5e2a93f0029",
  "source": "pragma solidity ^0.4.24;\r\nimport './interfaces/IERC20Token.sol';\r\nimport '../utility/Utils.sol';\r\nimport '../utility/SafeMath.sol';\r\n\r\n/**\r\n  * @dev ERC20 Standard Token implementation\r\n*/\r\ncontract ERC20Token is IERC20Token, Utils {\r\n    using SafeMath for uint256;\r\n\r\n\r\n    string public standard = 'Token 0.1';\r\n    string public name = '';\r\n    string public symbol = '';\r\n    uint8 public decimals = 0;\r\n    uint256 public totalSupply = 0;\r\n    mapping (address => uint256) public balanceOf;\r\n    mapping (address => mapping (address => uint256)) public allowance;\r\n\r\n    /**\r\n      * @dev triggered when tokens are transferred between wallets\r\n      * \r\n      * @param _from    source address\r\n      * @param _to      target address\r\n      * @param _value   transfer amount\r\n    */\r\n    event Transfer(address indexed _from, address indexed _to, uint256 _value);\r\n\r\n    /**\r\n      * @dev triggered when a wallet allows another wallet to transfer tokens from on its behalf\r\n      * \r\n      * @param _owner   wallet that approves the allowance\r\n      * @param _spender wallet that receives the allowance\r\n      * @param _value   allowance amount\r\n    */\r\n    event Approval(address indexed _owner, address indexed _spender, uint256 _value);\r\n\r\n    /**\r\n      * @dev initializes a new ERC20Token instance\r\n      * \r\n      * @param _name        token name\r\n      * @param _symbol      token symbol\r\n      * @param _decimals    decimal points, for display purposes\r\n    */\r\n    constructor(string _name, string _symbol, uint8 _decimals) public {\r\n        require(bytes(_name).length > 0 && bytes(_symbol).length > 0); // validate input\r\n\r\n        name = _name;\r\n        symbol = _symbol;\r\n        decimals = _decimals;\r\n    }\r\n\r\n    /**\r\n      * @dev send coins\r\n      * throws on any error rather then return a false flag to minimize user errors\r\n      * \r\n      * @param _to      target address\r\n      * @param _value   transfer amount\r\n      * \r\n      * @return true if the transfer was successful, false if it wasn't\r\n    */\r\n    function transfer(address _to, uint256 _value)\r\n        public\r\n        validAddress(_to)\r\n        returns (bool success)\r\n    {\r\n        balanceOf[msg.sender] = balanceOf[msg.sender].sub(_value);\r\n        balanceOf[_to] = balanceOf[_to].add(_value);\r\n        emit Transfer(msg.sender, _to, _value);\r\n        return true;\r\n    }\r\n\r\n    /**\r\n      * @dev an account/contract attempts to get the coins\r\n      * throws on any error rather then return a false flag to minimize user errors\r\n      * \r\n      * @param _from    source address\r\n      * @param _to      target address\r\n      * @param _value   transfer amount\r\n      * \r\n      * @return true if the transfer was successful, false if it wasn't\r\n    */\r\n    function transferFrom(address _from, address _to, uint256 _value)\r\n        public\r\n        validAddress(_from)\r\n        validAddress(_to)\r\n        returns (bool success)\r\n    {\r\n        allowance[_from][msg.sender] = allowance[_from][msg.sender].sub(_value);\r\n        balanceOf[_from] = balanceOf[_from].sub(_value);\r\n        balanceOf[_to] = balanceOf[_to].add(_value);\r\n        emit Transfer(_from, _to, _value);\r\n        return true;\r\n    }\r\n\r\n    /**\r\n      * @dev allow another account/contract to spend some tokens on your behalf\r\n      * throws on any error rather then return a false flag to minimize user errors\r\n      * \r\n      * also, to minimize the risk of the approve/transferFrom attack vector\r\n      * (see https://docs.google.com/document/d/1YLPtQxZu1UAvO9cZ1O2RPXBbT0mooh4DYKjA_jp-RLM/), approve has to be called twice\r\n      * in 2 separate transactions - once to change the allowance to 0 and secondly to change it to the new allowance value\r\n      * \r\n      * @param _spender approved address\r\n      * @param _value   allowance amount\r\n      * \r\n      * @return true if the approval was successful, false if it wasn't\r\n    */\r\n    function approve(address _spender, uint256 _value)\r\n        public\r\n        validAddress(_spender)\r\n        returns (bool success)\r\n    {\r\n        // if the allowance isn't 0, it can only be updated to 0 to prevent an allowance change immediately after withdrawal\r\n        require(_value == 0 || allowance[msg.sender][_spender] == 0);\r\n\r\n        allowance[msg.sender][_spender] = _value;\r\n        emit Approval(msg.sender, _spender, _value);\r\n        return true;\r\n    }\r\n}\r\n",
  "sourcePath": "/Users/cryptotom/code/gitcoin/communiteths/contracts/bancor/token/ERC20Token.sol",
  "compiler": {
    "name": "solc",
    "version": "0.4.26+commit.4563c3fc.Emscripten.clang"
  },
  "schemaVersion": "3.0.11",
  "updatedAt": "2019-10-27T15:33:38.287Z",
  "devdoc": {
    "methods": {
      "approve(address,uint256)": {
        "details": "allow another account/contract to spend some tokens on your behalf\r throws on any error rather then return a false flag to minimize user errors\r \r also, to minimize the risk of the approve/transferFrom attack vector\r (see https://docs.google.com/document/d/1YLPtQxZu1UAvO9cZ1O2RPXBbT0mooh4DYKjA_jp-RLM/), approve has to be called twice\r in 2 separate transactions - once to change the allowance to 0 and secondly to change it to the new allowance value\r \r",
        "params": {
          "_spender": "approved address\r",
          "_value": "allowance amount\r \r"
        },
        "return": "true if the approval was successful, false if it wasn't\r"
      },
      "transfer(address,uint256)": {
        "details": "send coins\r throws on any error rather then return a false flag to minimize user errors\r \r",
        "params": {
          "_to": "target address\r",
          "_value": "transfer amount\r \r"
        },
        "return": "true if the transfer was successful, false if it wasn't\r"
      },
      "transferFrom(address,address,uint256)": {
        "details": "an account/contract attempts to get the coins\r throws on any error rather then return a false flag to minimize user errors\r \r",
        "params": {
          "_from": "source address\r",
          "_to": "target address\r",
          "_value": "transfer amount\r \r"
        },
        "return": "true if the transfer was successful, false if it wasn't\r"
      }
    }
  },
  "userdoc": {
    "methods": {}
  }
}