{
  "contractName": "EtherToken",
  "abi": [
    {
      "constant": true,
      "inputs": [],
      "name": "name",
      "outputs": [
        {
          "name": "",
          "type": "string"
        }
      ],
      "payable": false,
      "stateMutability": "view",
      "type": "function"
    },
    {
      "constant": false,
      "inputs": [
        {
          "name": "_spender",
          "type": "address"
        },
        {
          "name": "_value",
          "type": "uint256"
        }
      ],
      "name": "approve",
      "outputs": [
        {
          "name": "success",
          "type": "bool"
        }
      ],
      "payable": false,
      "stateMutability": "nonpayable",
      "type": "function"
    },
    {
      "constant": true,
      "inputs": [],
      "name": "totalSupply",
      "outputs": [
        {
          "name": "",
          "type": "uint256"
        }
      ],
      "payable": false,
      "stateMutability": "view",
      "type": "function"
    },
    {
      "constant": true,
      "inputs": [],
      "name": "decimals",
      "outputs": [
        {
          "name": "",
          "type": "uint8"
        }
      ],
      "payable": false,
      "stateMutability": "view",
      "type": "function"
    },
    {
      "constant": true,
      "inputs": [],
      "name": "standard",
      "outputs": [
        {
          "name": "",
          "type": "string"
        }
      ],
      "payable": false,
      "stateMutability": "view",
      "type": "function"
    },
    {
      "constant": false,
      "inputs": [
        {
          "name": "_token",
          "type": "address"
        },
        {
          "name": "_to",
          "type": "address"
        },
        {
          "name": "_amount",
          "type": "uint256"
        }
      ],
      "name": "withdrawTokens",
      "outputs": [],
      "payable": false,
      "stateMutability": "nonpayable",
      "type": "function"
    },
    {
      "constant": true,
      "inputs": [
        {
          "name": "",
          "type": "address"
        }
      ],
      "name": "balanceOf",
      "outputs": [
        {
          "name": "",
          "type": "uint256"
        }
      ],
      "payable": false,
      "stateMutability": "view",
      "type": "function"
    },
    {
      "constant": false,
      "inputs": [],
      "name": "acceptOwnership",
      "outputs": [],
      "payable": false,
      "stateMutability": "nonpayable",
      "type": "function"
    },
    {
      "constant": true,
      "inputs": [],
      "name": "owner",
      "outputs": [
        {
          "name": "",
          "type": "address"
        }
      ],
      "payable": false,
      "stateMutability": "view",
      "type": "function"
    },
    {
      "constant": true,
      "inputs": [],
      "name": "symbol",
      "outputs": [
        {
          "name": "",
          "type": "string"
        }
      ],
      "payable": false,
      "stateMutability": "view",
      "type": "function"
    },
    {
      "constant": true,
      "inputs": [],
      "name": "newOwner",
      "outputs": [
        {
          "name": "",
          "type": "address"
        }
      ],
      "payable": false,
      "stateMutability": "view",
      "type": "function"
    },
    {
      "constant": true,
      "inputs": [
        {
          "name": "",
          "type": "address"
        },
        {
          "name": "",
          "type": "address"
        }
      ],
      "name": "allowance",
      "outputs": [
        {
          "name": "",
          "type": "uint256"
        }
      ],
      "payable": false,
      "stateMutability": "view",
      "type": "function"
    },
    {
      "constant": false,
      "inputs": [
        {
          "name": "_newOwner",
          "type": "address"
        }
      ],
      "name": "transferOwnership",
      "outputs": [],
      "payable": false,
      "stateMutability": "nonpayable",
      "type": "function"
    },
    {
      "inputs": [],
      "payable": false,
      "stateMutability": "nonpayable",
      "type": "constructor"
    },
    {
      "payable": true,
      "stateMutability": "payable",
      "type": "fallback"
    },
    {
      "anonymous": false,
      "inputs": [
        {
          "indexed": false,
          "name": "_amount",
          "type": "uint256"
        }
      ],
      "name": "Issuance",
      "type": "event"
    },
    {
      "anonymous": false,
      "inputs": [
        {
          "indexed": false,
          "name": "_amount",
          "type": "uint256"
        }
      ],
      "name": "Destruction",
      "type": "event"
    },
    {
      "anonymous": false,
      "inputs": [
        {
          "indexed": true,
          "name": "_from",
          "type": "address"
        },
        {
          "indexed": true,
          "name": "_to",
          "type": "address"
        },
        {
          "indexed": false,
          "name": "_value",
          "type": "uint256"
        }
      ],
      "name": "Transfer",
      "type": "event"
    },
    {
      "anonymous": false,
      "inputs": [
        {
          "indexed": true,
          "name": "_owner",
          "type": "address"
        },
        {
          "indexed": true,
          "name": "_spender",
          "type": "address"
        },
        {
          "indexed": false,
          "name": "_value",
          "type": "uint256"
        }
      ],
      "name": "Approval",
      "type": "event"
    },
    {
      "anonymous": false,
      "inputs": [
        {
          "indexed": true,
          "name": "_prevOwner",
          "type": "address"
        },
        {
          "indexed": true,
          "name": "_newOwner",
          "type": "address"
        }
      ],
      "name": "OwnerUpdate",
      "type": "event"
    },
    {
      "constant": false,
      "inputs": [],
      "name": "deposit",
      "outputs": [],
      "payable": true,
      "stateMutability": "payable",
      "type": "function"
    },
    {
      "constant": false,
      "inputs": [
        {
          "name": "_amount",
          "type": "uint256"
        }
      ],
      "name": "withdraw",
      "outputs": [],
      "payable": false,
      "stateMutability": "nonpayable",
      "type": "function"
    },
    {
      "constant": false,
      "inputs": [
        {
          "name": "_to",
          "type": "address"
        },
        {
          "name": "_amount",
          "type": "uint256"
        }
      ],
      "name": "withdrawTo",
      "outputs": [],
      "payable": false,
      "stateMutability": "nonpayable",
      "type": "function"
    },
    {
      "constant": false,
      "inputs": [
        {
          "name": "_to",
          "type": "address"
        },
        {
          "name": "_value",
          "type": "uint256"
        }
      ],
      "name": "transfer",
      "outputs": [
        {
          "name": "success",
          "type": "bool"
        }
      ],
      "payable": false,
      "stateMutability": "nonpayable",
      "type": "function"
    },
    {
      "constant": false,
      "inputs": [
        {
          "name": "_from",
          "type": "address"
        },
        {
          "name": "_to",
          "type": "address"
        },
        {
          "name": "_value",
          "type": "uint256"
        }
      ],
      "name": "transferFrom",
      "outputs": [
        {
          "name": "success",
          "type": "bool"
        }
      ],
      "payable": false,
      "stateMutability": "nonpayable",
      "type": "function"
    }
  ],
  "bytecode": "0x60c0604052600960808190527f546f6b656e20302e31000000000000000000000000000000000000000000000060a090815262000040916002919062000186565b50604080516020810191829052600090819052620000619160039162000186565b50604080516020810191829052600090819052620000829160049162000186565b506005805460ff1916905560006006553480156200009f57600080fd5b50604080518082018252600b81527f457468657220546f6b656e0000000000000000000000000000000000000000006020808301919091528251808401909352600383527f45544800000000000000000000000000000000000000000000000000000000009083015260008054600160a060020a03191633178155815191929160129110801562000131575060008251115b15156200013d57600080fd5b82516200015290600390602086019062000186565b5081516200016890600490602085019062000186565b506005805460ff191660ff92909216919091179055506200022b9050565b828054600181600116156101000203166002900490600052602060002090601f016020900481019282601f10620001c957805160ff1916838001178555620001f9565b82800160010185558215620001f9579182015b82811115620001f9578251825591602001919060010190620001dc565b50620002079291506200020b565b5090565b6200022891905b8082111562000207576000815560010162000212565b90565b610c54806200023b6000396000f3006080604052600436106100fb5763ffffffff7c010000000000000000000000000000000000000000000000000000000060003504166306fdde038114610105578063095ea7b31461018f57806318160ddd146101c7578063205c2878146101ee57806323b872dd146102125780632e1a7d4d1461023c578063313ce567146102545780635a3b7e421461027f5780635e35359e1461029457806370a08231146102be57806379ba5097146102df5780638da5cb5b146102f457806395d89b4114610325578063a9059cbb1461033a578063d0e30db0146100fb578063d4ee1d901461035e578063dd62ed3e14610373578063f2fde38b1461039a575b6101036103bb565b005b34801561011157600080fd5b5061011a61045b565b6040805160208082528351818301528351919283929083019185019080838360005b8381101561015457818101518382015260200161013c565b50505050905090810190601f1680156101815780820380516001836020036101000a031916815260200191505b509250505060405180910390f35b34801561019b57600080fd5b506101b3600160a060020a03600435166024356104e9565b604080519115158252519081900360200190f35b3480156101d357600080fd5b506101dc6105a2565b60408051918252519081900360200190f35b3480156101fa57600080fd5b50610103600160a060020a03600435166024356105a8565b34801561021e57600080fd5b506101b3600160a060020a0360043581169060243516604435610699565b34801561024857600080fd5b506101036004356106d0565b34801561026057600080fd5b506102696106dd565b6040805160ff9092168252519081900360200190f35b34801561028b57600080fd5b5061011a6106e6565b3480156102a057600080fd5b50610103600160a060020a036004358116906024351660443561073e565b3480156102ca57600080fd5b506101dc600160a060020a0360043516610834565b3480156102eb57600080fd5b50610103610846565b34801561030057600080fd5b506103096108ce565b60408051600160a060020a039092168252519081900360200190f35b34801561033157600080fd5b5061011a6108dd565b34801561034657600080fd5b506101b3600160a060020a0360043516602435610938565b34801561036a57600080fd5b5061030961096d565b34801561037f57600080fd5b506101dc600160a060020a036004358116906024351661097c565b3480156103a657600080fd5b50610103600160a060020a0360043516610999565b336000908152600760205260409020546103db903463ffffffff6109fa16565b336000908152600760205260409020556006546103fe903463ffffffff6109fa16565b6006556040805134815290517f9386c90217c323f58030f9dadcbc938f807a940f4ff41cd4cead9562f5da7dc39181900360200190a160408051348152905133913091600080516020610c098339815191529181900360200190a3565b6003805460408051602060026001851615610100026000190190941693909304601f810184900484028201840190925281815292918301828280156104e15780601f106104b6576101008083540402835291602001916104e1565b820191906000526020600020905b8154815290600101906020018083116104c457829003601f168201915b505050505081565b600082600160a060020a038116151561050157600080fd5b82158061052f5750336000908152600860209081526040808320600160a060020a0388168452909152902054155b151561053a57600080fd5b336000818152600860209081526040808320600160a060020a03891680855290835292819020879055805187815290519293927f8c5be1e5ebec7d5bd14f71427d1e84f3dd0314c0f7b2291e5b200ac8c7c3b925929181900390910190a35060019392505050565b60065481565b81600160a060020a0381163014156105bf57600080fd5b336000908152600760205260409020546105df908363ffffffff610a1316565b33600090815260076020526040902055600654610602908363ffffffff610a1316565b600655604051600160a060020a0384169083156108fc029084906000818181858888f1935050505015801561063b573d6000803e3d6000fd5b5060408051838152905130913391600080516020610c098339815191529181900360200190a36040805183815290517f9a1b418bc061a5d80270261562e6986a35d995f8051145f277be16103abd34539181900360200190a1505050565b600082600160a060020a0381163014156106b257600080fd5b6106bd858585610a28565b15156106c557fe5b506001949350505050565b6106da33826105a8565b50565b60055460ff1681565b6002805460408051602060018416156101000260001901909316849004601f810184900484028201840190925281815292918301828280156104e15780601f106104b6576101008083540402835291602001916104e1565b600054600160a060020a0316331461075557600080fd5b82600160a060020a038116151561076b57600080fd5b82600160a060020a038116151561078157600080fd5b83600160a060020a03811630141561079857600080fd5b85600160a060020a031663a9059cbb86866040518363ffffffff167c01000000000000000000000000000000000000000000000000000000000281526004018083600160a060020a0316600160a060020a0316815260200182815260200192505050600060405180830381600087803b15801561081457600080fd5b505af1158015610828573d6000803e3d6000fd5b50505050505050505050565b60076020526000908152604090205481565b600154600160a060020a0316331461085d57600080fd5b60015460008054604051600160a060020a0393841693909116917f343765429aea5a34b3ff6a3785a98a5abb2597aca87bfbb58632c173d585373a91a3600180546000805473ffffffffffffffffffffffffffffffffffffffff19908116600160a060020a03841617909155169055565b600054600160a060020a031681565b6004805460408051602060026001851615610100026000190190941693909304601f810184900484028201840190925281815292918301828280156104e15780601f106104b6576101008083540402835291602001916104e1565b600082600160a060020a03811630141561095157600080fd5b61095b8484610b51565b151561096357fe5b5060019392505050565b600154600160a060020a031681565b600860209081526000928352604080842090915290825290205481565b600054600160a060020a031633146109b057600080fd5b600054600160a060020a03828116911614156109cb57600080fd5b6001805473ffffffffffffffffffffffffffffffffffffffff1916600160a060020a0392909216919091179055565b600082820183811015610a0c57600080fd5b9392505050565b600081831015610a2257600080fd5b50900390565b600083600160a060020a0381161515610a4057600080fd5b83600160a060020a0381161515610a5657600080fd5b600160a060020a0386166000908152600860209081526040808320338452909152902054610a8a908563ffffffff610a1316565b600160a060020a038716600081815260086020908152604080832033845282528083209490945591815260079091522054610acb908563ffffffff610a1316565b600160a060020a038088166000908152600760205260408082209390935590871681522054610b00908563ffffffff6109fa16565b600160a060020a0380871660008181526007602090815260409182902094909455805188815290519193928a1692600080516020610c0983398151915292918290030190a350600195945050505050565b600082600160a060020a0381161515610b6957600080fd5b33600090815260076020526040902054610b89908463ffffffff610a1316565b3360009081526007602052604080822092909255600160a060020a03861681522054610bbb908463ffffffff6109fa16565b600160a060020a038516600081815260076020908152604091829020939093558051868152905191923392600080516020610c098339815191529281900390910190a350600193925050505600ddf252ad1be2c89b69c2b068fc378daa952ba7f163c4a11628f55a4df523b3efa165627a7a723058206244542e198bf1258881571dacf4871a448e343be4faa3d168079a9f5f204d710029",
  "source": "pragma solidity ^0.4.24;\r\nimport './ERC20Token.sol';\r\nimport './interfaces/IEtherToken.sol';\r\nimport '../utility/Owned.sol';\r\nimport '../utility/TokenHolder.sol';\r\nimport '../utility/SafeMath.sol';\r\n\r\n/**\r\n  * @dev Ether tokenization contract\r\n  * \r\n  * 'Owned' is specified here for readability reasons\r\n*/\r\ncontract EtherToken is IEtherToken, Owned, ERC20Token, TokenHolder {\r\n    using SafeMath for uint256;\r\n\r\n    /**\r\n      * @dev triggered when the total supply is increased\r\n      * \r\n      * @param _amount  amount that gets added to the supply\r\n    */\r\n    event Issuance(uint256 _amount);\r\n\r\n    /**\r\n      * @dev triggered when the total supply is decreased\r\n      * \r\n      * @param _amount  amount that gets removed from the supply\r\n    */\r\n    event Destruction(uint256 _amount);\r\n\r\n    /**\r\n      * @dev initializes a new EtherToken instance\r\n    */\r\n    constructor()\r\n        public\r\n        ERC20Token('Ether Token', 'ETH', 18) {\r\n    }\r\n\r\n    /**\r\n      * @dev deposit ether in the account\r\n    */\r\n    function deposit() public payable {\r\n        balanceOf[msg.sender] = balanceOf[msg.sender].add(msg.value); // add the value to the account balance\r\n        totalSupply = totalSupply.add(msg.value); // increase the total supply\r\n\r\n        emit Issuance(msg.value);\r\n        emit Transfer(this, msg.sender, msg.value);\r\n    }\r\n\r\n    /**\r\n      * @dev withdraw ether from the account\r\n      * \r\n      * @param _amount  amount of ether to withdraw\r\n    */\r\n    function withdraw(uint256 _amount) public {\r\n        withdrawTo(msg.sender, _amount);\r\n    }\r\n\r\n    /**\r\n      * @dev withdraw ether from the account to a target account\r\n      * \r\n      * @param _to      account to receive the ether\r\n      * @param _amount  amount of ether to withdraw\r\n    */\r\n    function withdrawTo(address _to, uint256 _amount)\r\n        public\r\n        notThis(_to)\r\n    {\r\n        balanceOf[msg.sender] = balanceOf[msg.sender].sub(_amount); // deduct the amount from the account balance\r\n        totalSupply = totalSupply.sub(_amount); // decrease the total supply\r\n        _to.transfer(_amount); // send the amount to the target account\r\n\r\n        emit Transfer(msg.sender, this, _amount);\r\n        emit Destruction(_amount);\r\n    }\r\n\r\n    // ERC20 standard method overrides with some extra protection\r\n\r\n    /**\r\n      * @dev send coins\r\n      * throws on any error rather then return a false flag to minimize user errors\r\n      * \r\n      * @param _to      target address\r\n      * @param _value   transfer amount\r\n      * \r\n      * @return true if the transfer was successful, false if it wasn't\r\n    */\r\n    function transfer(address _to, uint256 _value)\r\n        public\r\n        notThis(_to)\r\n        returns (bool success)\r\n    {\r\n        assert(super.transfer(_to, _value));\r\n        return true;\r\n    }\r\n\r\n    /**\r\n      * @dev an account/contract attempts to get the coins\r\n      * throws on any error rather then return a false flag to minimize user errors\r\n      * \r\n      * @param _from    source address\r\n      * @param _to      target address\r\n      * @param _value   transfer amount\r\n      * \r\n      * @return true if the transfer was successful, false if it wasn't\r\n    */\r\n    function transferFrom(address _from, address _to, uint256 _value)\r\n        public\r\n        notThis(_to)\r\n        returns (bool success)\r\n    {\r\n        assert(super.transferFrom(_from, _to, _value));\r\n        return true;\r\n    }\r\n\r\n    /**\r\n      * @dev deposit ether in the account\r\n    */\r\n    function() public payable {\r\n        deposit();\r\n    }\r\n}\r\n",
  "sourcePath": "/Users/cryptotom/code/gitcoin/communiteths/contracts/bancor/token/EtherToken.sol",
  "compiler": {
    "name": "solc",
    "version": "0.4.26+commit.4563c3fc.Emscripten.clang"
  },
  "schemaVersion": "3.0.11",
  "updatedAt": "2019-09-13T02:05:18.050Z",
  "devdoc": {
    "methods": {
      "acceptOwnership()": {
        "details": "used by a new owner to accept an ownership transfer\r"
      },
      "approve(address,uint256)": {
        "details": "allow another account/contract to spend some tokens on your behalf\r throws on any error rather then return a false flag to minimize user errors\r \r also, to minimize the risk of the approve/transferFrom attack vector\r (see https://docs.google.com/document/d/1YLPtQxZu1UAvO9cZ1O2RPXBbT0mooh4DYKjA_jp-RLM/), approve has to be called twice\r in 2 separate transactions - once to change the allowance to 0 and secondly to change it to the new allowance value\r \r",
        "params": {
          "_spender": "approved address\r",
          "_value": "allowance amount\r \r"
        },
        "return": "true if the approval was successful, false if it wasn't\r"
      },
      "deposit()": {
        "details": "deposit ether in the account\r"
      },
      "transfer(address,uint256)": {
        "details": "send coins\r throws on any error rather then return a false flag to minimize user errors\r \r",
        "params": {
          "_to": "target address\r",
          "_value": "transfer amount\r \r"
        },
        "return": "true if the transfer was successful, false if it wasn't\r"
      },
      "transferFrom(address,address,uint256)": {
        "details": "an account/contract attempts to get the coins\r throws on any error rather then return a false flag to minimize user errors\r \r",
        "params": {
          "_from": "source address\r",
          "_to": "target address\r",
          "_value": "transfer amount\r \r"
        },
        "return": "true if the transfer was successful, false if it wasn't\r"
      },
      "transferOwnership(address)": {
        "details": "allows transferring the contract ownership\r the new owner still needs to accept the transfer\r can only be called by the contract owner\r \r",
        "params": {
          "_newOwner": "new contract owner\r"
        }
      },
      "withdraw(uint256)": {
        "details": "withdraw ether from the account\r \r",
        "params": {
          "_amount": "amount of ether to withdraw\r"
        }
      },
      "withdrawTo(address,uint256)": {
        "details": "withdraw ether from the account to a target account\r \r",
        "params": {
          "_amount": "amount of ether to withdraw\r",
          "_to": "account to receive the ether\r"
        }
      },
      "withdrawTokens(address,address,uint256)": {
        "details": "withdraws tokens held by the contract and sends them to an account\r can only be called by the owner\r \r",
        "params": {
          "_amount": "amount to withdraw\r",
          "_to": "account to receive the new amount\r",
          "_token": "ERC20 token contract address\r"
        }
      }
    }
  },
  "userdoc": {
    "methods": {}
  }
}