{
  "contractName": "FeatureIds",
  "abi": [
    {
      "constant": true,
      "inputs": [],
      "name": "CONVERTER_CONVERSION_WHITELIST",
      "outputs": [
        {
          "name": "",
          "type": "uint256"
        }
      ],
      "payable": false,
      "stateMutability": "view",
      "type": "function"
    }
  ],
  "bytecode": "0x6080604052348015600f57600080fd5b5060988061001e6000396000f300608060405260043610603e5763ffffffff7c010000000000000000000000000000000000000000000000000000000060003504166392d1abb781146043575b600080fd5b348015604e57600080fd5b5060556067565b60408051918252519081900360200190f35b6001815600a165627a7a72305820c618deb28e1f7befc90a8f83a9261354336a906d451a53392936fa252fd935240029",
  "source": "pragma solidity ^0.4.24;\r\n\r\n/**\r\n  * @dev Id definitions for bancor contract features\r\n  * \r\n  * Can be used to query the ContractFeatures contract to check whether a certain feature is supported by a contract\r\n*/\r\ncontract FeatureIds {\r\n    // converter features\r\n    uint256 public constant CONVERTER_CONVERSION_WHITELIST = 1 << 0;\r\n}\r\n",
  "sourcePath": "/Users/cryptotom/code/gitcoin/communiteths/contracts/bancor/FeatureIds.sol",
  "compiler": {
    "name": "solc",
    "version": "0.4.26+commit.4563c3fc.Emscripten.clang"
  },
  "schemaVersion": "3.0.11",
  "updatedAt": "2019-10-27T15:33:38.172Z",
  "devdoc": {
    "methods": {}
  },
  "userdoc": {
    "methods": {}
  }
}