{
  "contractName": "ICommunity",
  "abi": [
    {
      "constant": true,
      "inputs": [],
      "name": "owner",
      "outputs": [
        {
          "name": "",
          "type": "address"
        }
      ],
      "payable": false,
      "stateMutability": "pure",
      "type": "function"
    },
    {
      "constant": true,
      "inputs": [],
      "name": "name",
      "outputs": [
        {
          "name": "",
          "type": "string"
        }
      ],
      "payable": false,
      "stateMutability": "pure",
      "type": "function"
    },
    {
      "constant": true,
      "inputs": [],
      "name": "benefit",
      "outputs": [
        {
          "name": "",
          "type": "string"
        }
      ],
      "payable": false,
      "stateMutability": "pure",
      "type": "function"
    },
    {
      "constant": true,
      "inputs": [],
      "name": "token",
      "outputs": [
        {
          "name": "",
          "type": "address"
        }
      ],
      "payable": false,
      "stateMutability": "pure",
      "type": "function"
    }
  ],
  "bytecode": "0x608060405234801561001057600080fd5b50610164806100206000396000f3006080604052600436106100615763ffffffff7c010000000000000000000000000000000000000000000000000000000060003504166306fdde0381146100665780632e5113b7146100665780638da5cb5b146100f0578063fc0c546a146100f0575b600080fd5b34801561007257600080fd5b5061007b61012e565b6040805160208082528351818301528351919283929083019185019080838360005b838110156100b557818101518382015260200161009d565b50505050905090810190601f1680156100e25780820380516001836020036101000a031916815260200191505b509250505060405180910390f35b3480156100fc57600080fd5b50610105610133565b6040805173ffffffffffffffffffffffffffffffffffffffff9092168252519081900360200190f35b606090565b6000905600a165627a7a723058200924279b1e3863ea2590d3a3a0864d13d28d4a924668f30b22b9e4c478fb83800029",
  "source": "pragma solidity ^0.4.24;\n\nimport \"../bancor/token/SmartToken.sol\";\n\n/*\n    Community interface\n*/\ncontract ICommunity {\n    function owner() public pure returns (address) {}\n    function name() public pure returns (string) {}\n    function benefit() public pure returns (string) {}\n    function token() public pure returns (SmartToken) {}\n}\n",
  "sourcePath": "/Users/cryptotom/code/gitcoin/communiteths/contracts/interfaces/ICommunity.sol",
  "compiler": {
    "name": "solc",
    "version": "0.4.26+commit.4563c3fc.Emscripten.clang"
  },
  "schemaVersion": "3.0.11",
  "updatedAt": "2019-09-13T02:05:18.082Z",
  "devdoc": {
    "methods": {}
  },
  "userdoc": {
    "methods": {}
  }
}