{
  "contractName": "Managed",
  "abi": [
    {
      "constant": true,
      "inputs": [],
      "name": "newManager",
      "outputs": [
        {
          "name": "",
          "type": "address"
        }
      ],
      "payable": false,
      "stateMutability": "view",
      "type": "function"
    },
    {
      "constant": true,
      "inputs": [],
      "name": "manager",
      "outputs": [
        {
          "name": "",
          "type": "address"
        }
      ],
      "payable": false,
      "stateMutability": "view",
      "type": "function"
    },
    {
      "constant": false,
      "inputs": [],
      "name": "acceptOwnership",
      "outputs": [],
      "payable": false,
      "stateMutability": "nonpayable",
      "type": "function"
    },
    {
      "constant": true,
      "inputs": [],
      "name": "owner",
      "outputs": [
        {
          "name": "",
          "type": "address"
        }
      ],
      "payable": false,
      "stateMutability": "view",
      "type": "function"
    },
    {
      "constant": true,
      "inputs": [],
      "name": "newOwner",
      "outputs": [
        {
          "name": "",
          "type": "address"
        }
      ],
      "payable": false,
      "stateMutability": "view",
      "type": "function"
    },
    {
      "constant": false,
      "inputs": [
        {
          "name": "_newOwner",
          "type": "address"
        }
      ],
      "name": "transferOwnership",
      "outputs": [],
      "payable": false,
      "stateMutability": "nonpayable",
      "type": "function"
    },
    {
      "inputs": [],
      "payable": false,
      "stateMutability": "nonpayable",
      "type": "constructor"
    },
    {
      "anonymous": false,
      "inputs": [
        {
          "indexed": true,
          "name": "_prevManager",
          "type": "address"
        },
        {
          "indexed": true,
          "name": "_newManager",
          "type": "address"
        }
      ],
      "name": "ManagerUpdate",
      "type": "event"
    },
    {
      "anonymous": false,
      "inputs": [
        {
          "indexed": true,
          "name": "_prevOwner",
          "type": "address"
        },
        {
          "indexed": true,
          "name": "_newOwner",
          "type": "address"
        }
      ],
      "name": "OwnerUpdate",
      "type": "event"
    },
    {
      "constant": false,
      "inputs": [
        {
          "name": "_newManager",
          "type": "address"
        }
      ],
      "name": "transferManagement",
      "outputs": [],
      "payable": false,
      "stateMutability": "nonpayable",
      "type": "function"
    },
    {
      "constant": false,
      "inputs": [],
      "name": "acceptManagement",
      "outputs": [],
      "payable": false,
      "stateMutability": "nonpayable",
      "type": "function"
    }
  ],
  "bytecode": "0x608060405234801561001057600080fd5b506000805433600160a060020a031991821681178355600280549092161790556103c390819061004090396000f30060806040526004361061008d5763ffffffff7c0100000000000000000000000000000000000000000000000000000000600035041663429060298114610092578063481c6a75146100c357806379ba5097146100d85780638da5cb5b146100ef578063c8c2fe6c14610104578063d4ee1d9014610119578063e4edf8521461012e578063f2fde38b1461014f575b600080fd5b34801561009e57600080fd5b506100a7610170565b60408051600160a060020a039092168252519081900360200190f35b3480156100cf57600080fd5b506100a761017f565b3480156100e457600080fd5b506100ed61018e565b005b3480156100fb57600080fd5b506100a7610216565b34801561011057600080fd5b506100ed610225565b34801561012557600080fd5b506100a76102af565b34801561013a57600080fd5b506100ed600160a060020a03600435166102be565b34801561015b57600080fd5b506100ed600160a060020a0360043516610336565b600354600160a060020a031681565b600254600160a060020a031681565b600154600160a060020a031633146101a557600080fd5b60015460008054604051600160a060020a0393841693909116917f343765429aea5a34b3ff6a3785a98a5abb2597aca87bfbb58632c173d585373a91a3600180546000805473ffffffffffffffffffffffffffffffffffffffff19908116600160a060020a03841617909155169055565b600054600160a060020a031681565b600354600160a060020a0316331461023c57600080fd5b600354600254604051600160a060020a0392831692909116907fbe4cc281795971a471c980e842627a7f1ea3892ddfce8c5b6357cd2611c1973290600090a3600380546002805473ffffffffffffffffffffffffffffffffffffffff19908116600160a060020a03841617909155169055565b600154600160a060020a031681565b600054600160a060020a03163314806102e15750600254600160a060020a031633145b15156102ec57600080fd5b600254600160a060020a038281169116141561030757600080fd5b6003805473ffffffffffffffffffffffffffffffffffffffff1916600160a060020a0392909216919091179055565b600054600160a060020a0316331461034d57600080fd5b600054600160a060020a038281169116141561036857600080fd5b6001805473ffffffffffffffffffffffffffffffffffffffff1916600160a060020a03929092169190911790555600a165627a7a723058207ee235d9e12ebfaf5c62f44ff3d2b9e17430821b224c959c4967f9cf8e109a9e0029",
  "source": "pragma solidity ^0.4.24;\r\nimport './Owned.sol';\r\n\r\n/**\r\n  * @dev Provides support and utilities for contract management\r\n  * Note that a managed contract must also have an owner\r\n*/\r\ncontract Managed is Owned {\r\n    address public manager;\r\n    address public newManager;\r\n\r\n    /**\r\n      * @dev triggered when the manager is updated\r\n      * \r\n      * @param _prevManager previous manager\r\n      * @param _newManager  new manager\r\n    */\r\n    event ManagerUpdate(address indexed _prevManager, address indexed _newManager);\r\n\r\n    /**\r\n      * @dev initializes a new Managed instance\r\n    */\r\n    constructor() public {\r\n        manager = msg.sender;\r\n    }\r\n\r\n    // allows execution by the manager only\r\n    modifier managerOnly {\r\n        assert(msg.sender == manager);\r\n        _;\r\n    }\r\n\r\n    // allows execution by either the owner or the manager only\r\n    modifier ownerOrManagerOnly {\r\n        require(msg.sender == owner || msg.sender == manager);\r\n        _;\r\n    }\r\n\r\n    /**\r\n      * @dev allows transferring the contract management\r\n      * the new manager still needs to accept the transfer\r\n      * can only be called by the contract manager\r\n      * \r\n      * @param _newManager    new contract manager\r\n    */\r\n    function transferManagement(address _newManager) public ownerOrManagerOnly {\r\n        require(_newManager != manager);\r\n        newManager = _newManager;\r\n    }\r\n\r\n    /**\r\n      * @dev used by a new manager to accept a management transfer\r\n    */\r\n    function acceptManagement() public {\r\n        require(msg.sender == newManager);\r\n        emit ManagerUpdate(manager, newManager);\r\n        manager = newManager;\r\n        newManager = address(0);\r\n    }\r\n}\r\n",
  "sourcePath": "/Users/cryptotom/code/gitcoin/communiteths/contracts/bancor/utility/Managed.sol",
  "compiler": {
    "name": "solc",
    "version": "0.4.26+commit.4563c3fc.Emscripten.clang"
  },
  "schemaVersion": "3.0.11",
  "updatedAt": "2019-10-30T08:26:43.639Z",
  "devdoc": {
    "methods": {
      "acceptManagement()": {
        "details": "used by a new manager to accept a management transfer\r"
      },
      "acceptOwnership()": {
        "details": "used by a new owner to accept an ownership transfer\r"
      },
      "transferManagement(address)": {
        "details": "allows transferring the contract management\r the new manager still needs to accept the transfer\r can only be called by the contract manager\r \r",
        "params": {
          "_newManager": "new contract manager\r"
        }
      },
      "transferOwnership(address)": {
        "details": "allows transferring the contract ownership\r the new owner still needs to accept the transfer\r can only be called by the contract owner\r \r",
        "params": {
          "_newOwner": "new contract owner\r"
        }
      }
    }
  },
  "userdoc": {
    "methods": {}
  }
}