{
  "contractName": "Network",
  "abi": [
    {
      "anonymous": false,
      "inputs": [
        {
          "indexed": false,
          "name": "network",
          "type": "address"
        },
        {
          "indexed": false,
          "name": "community",
          "type": "address"
        },
        {
          "indexed": false,
          "name": "token",
          "type": "address"
        }
      ],
      "name": "CommunityCreated",
      "type": "event"
    },
    {
      "constant": false,
      "inputs": [
        {
          "name": "_name",
          "type": "string"
        },
        {
          "name": "_benefit",
          "type": "string"
        },
        {
          "name": "_tokenName",
          "type": "string"
        },
        {
          "name": "_tokenSymbol",
          "type": "string"
        }
      ],
      "name": "createCommunity",
      "outputs": [
        {
          "name": "success",
          "type": "bool"
        }
      ],
      "payable": false,
      "stateMutability": "nonpayable",
      "type": "function"
    },
    {
      "constant": true,
      "inputs": [],
      "name": "getCommunities",
      "outputs": [
        {
          "name": "",
          "type": "address[]"
        }
      ],
      "payable": false,
      "stateMutability": "view",
      "type": "function"
    },
    {
      "constant": false,
      "inputs": [
        {
          "name": "_community",
          "type": "address"
        }
      ],
      "name": "joinCommunity",
      "outputs": [],
      "payable": false,
      "stateMutability": "nonpayable",
      "type": "function"
    }
  ],
  "bytecode": "0x608060405234801561001057600080fd5b506127de806100206000396000f3006080604052600436106100565763ffffffff7c010000000000000000000000000000000000000000000000000000000060003504166373ec7df0811461005b578063c251b5651461007e578063f9ca9e28146100e3575b600080fd5b34801561006757600080fd5b5061007c600160a060020a036004351661020a565b005b34801561008a57600080fd5b5061009361034f565b60408051602080825283518183015283519192839290830191858101910280838360005b838110156100cf5781810151838201526020016100b7565b505050509050019250505060405180910390f35b3480156100ef57600080fd5b506040805160206004803580820135601f81018490048402850184019095528484526101f694369492936024939284019190819084018382808284375050604080516020601f89358b018035918201839004830284018301909452808352979a99988101979196509182019450925082915084018382808284375050604080516020601f89358b018035918201839004830284018301909452808352979a99988101979196509182019450925082915084018382808284375050604080516020601f89358b018035918201839004830284018301909452808352979a9998810197919650918201945092508291508401838280828437509497506103b19650505050505050565b604080519115158252519081900360200190f35b604080517f28ffe6c80000000000000000000000000000000000000000000000000000000081523360048201529051600160a060020a038316916328ffe6c89160248083019260209291908290030181600087803b15801561026b57600080fd5b505af115801561027f573d6000803e3d6000fd5b505050506040513d602081101561029557600080fd5b5051151561030457604080517f08c379a000000000000000000000000000000000000000000000000000000000815260206004820181905260248201527f556e61626c6520746f20616464207573657220746f20636f6d6d756e6974792e604482015290519081900360640190fd5b336000908152600160208181526040832080549283018155835290912001805473ffffffffffffffffffffffffffffffffffffffff1916600160a060020a0392909216919091179055565b606060008054806020026020016040519081016040528092919081815260200182805480156103a757602002820191906000526020600020905b8154600160a060020a03168152600190910190602001808311610389575b5050505050905090565b60008033868686866103c16106c9565b8086600160a060020a0316600160a060020a0316815260200180602001806020018060200180602001858103855289818151815260200191508051906020019080838360005b8381101561041f578181015183820152602001610407565b50505050905090810190601f16801561044c5780820380516001836020036101000a031916815260200191505b5085810384528851815288516020918201918a019080838360005b8381101561047f578181015183820152602001610467565b50505050905090810190601f1680156104ac5780820380516001836020036101000a031916815260200191505b50858103835287518152875160209182019189019080838360005b838110156104df5781810151838201526020016104c7565b50505050905090810190601f16801561050c5780820380516001836020036101000a031916815260200191505b50858103825286518152865160209182019188019080838360005b8381101561053f578181015183820152602001610527565b50505050905090810190601f16801561056c5780820380516001836020036101000a031916815260200191505b509950505050505050505050604051809103906000f080158015610594573d6000803e3d6000fd5b50600080546001810182558180527f290decd9548b62a8d60345a988386fc84ba6bc95484008f6362f93160ef3e56301805473ffffffffffffffffffffffffffffffffffffffff1916600160a060020a038416908117909155604080517ffc0c546a00000000000000000000000000000000000000000000000000000000815290519394507fa1d5744e33f2d9cf5537c7ea77603378e4dbda6a0bebd8d33a3e613a4d401bb793309386939263fc0c546a9260048083019360209383900390910190829087803b15801561066757600080fd5b505af115801561067b573d6000803e3d6000fd5b505050506040513d602081101561069157600080fd5b505160408051600160a060020a039485168152928416602084015292168183015290519081900360600190a150600195945050505050565b6040516120d9806106da833901905600608060405234801561001057600080fd5b506040516120d93803806120d98339810160409081528151602080840151928401516060850151608086015160008054600160a060020a031916600160a060020a038716179055948601805194969095928101949181019392019161007a9160019187019061026a565b50825161008e90600290602086019061026a565b508181601261009b6102e8565b60ff82166040820152606080825284519082015283518190602080830191608084019188019080838360005b838110156100df5781810151838201526020016100c7565b50505050905090810190601f16801561010c5780820380516001836020036101000a031916815260200191505b50838103825285518152855160209182019187019080838360005b8381101561013f578181015183820152602001610127565b50505050905090810190601f16801561016c5780820380516001836020036101000a031916815260200191505b5095505050505050604051809103906000f080158015610190573d6000803e3d6000fd5b5060038054600160a060020a031916600160a060020a039283161790819055166101b86102f8565b600160a060020a03909116815260405190819003602001906000f0801580156101e5573d6000803e3d6000fd5b5060048054600160a060020a0319908116600160a060020a03938416179091556000805483168152600660205260408120805460ff1916600190811790915581546005805492830181559092527f036b6384b5eca791c62761152d0c79bb0604c104a5fb6f4eb0703f3154bb3db0018054919093169116179055506103259350505050565b828054600181600116156101000203166002900490600052602060002090601f016020900481019282601f106102ab57805160ff19168380011785556102d8565b828001600101855582156102d8579182015b828111156102d85782518255916020019190600101906102bd565b506102e4929150610308565b5090565b6040516110118061082f83390190565b6040516108998061184083390190565b61032291905b808211156102e4576000815560010161030e565b90565b6104fb806103346000396000f30060806040526004361061008d5763ffffffff7c010000000000000000000000000000000000000000000000000000000060003504166306fdde038114610092578063199d5a881461011c57806328ffe6c8146101515780632e5113b7146101725780638da5cb5b146101875780639eab5253146101b8578063eddd9d821461021d578063fc0c546a14610232575b600080fd5b34801561009e57600080fd5b506100a7610247565b6040805160208082528351818301528351919283929083019185019080838360005b838110156100e15781810151838201526020016100c9565b50505050905090810190601f16801561010e5780820380516001836020036101000a031916815260200191505b509250505060405180910390f35b34801561012857600080fd5b5061013d600160a060020a03600435166102d4565b604080519115158252519081900360200190f35b34801561015d57600080fd5b5061013d600160a060020a03600435166102e9565b34801561017e57600080fd5b506100a76103e8565b34801561019357600080fd5b5061019c610440565b60408051600160a060020a039092168252519081900360200190f35b3480156101c457600080fd5b506101cd61044f565b60408051602080825283518183015283519192839290830191858101910280838360005b838110156102095781810151838201526020016101f1565b505050509050019250505060405180910390f35b34801561022957600080fd5b5061019c6104b1565b34801561023e57600080fd5b5061019c6104c0565b60018054604080516020600284861615610100026000190190941693909304601f810184900484028201840190925281815292918301828280156102cc5780601f106102a1576101008083540402835291602001916102cc565b820191906000526020600020905b8154815290600101906020018083116102af57829003601f168201915b505050505081565b60066020526000908152604090205460ff1681565b600160a060020a03811660009081526006602052604081205460ff161561037157604080517f08c379a000000000000000000000000000000000000000000000000000000000815260206004820152601960248201527f5573657220697320616c72656164792061206d656d6265722e00000000000000604482015290519081900360640190fd5b50600160a060020a03166000818152600660205260408120805460ff1916600190811790915560058054808301825592527f036b6384b5eca791c62761152d0c79bb0604c104a5fb6f4eb0703f3154bb3db0909101805473ffffffffffffffffffffffffffffffffffffffff191690921790915590565b6002805460408051602060018416156101000260001901909316849004601f810184900484028201840190925281815292918301828280156102cc5780601f106102a1576101008083540402835291602001916102cc565b600054600160a060020a031681565b606060058054806020026020016040519081016040528092919081815260200182805480156104a757602002820191906000526020600020905b8154600160a060020a03168152600190910190602001808311610489575b5050505050905090565b600454600160a060020a031681565b600354600160a060020a0316815600a165627a7a723058208776c6b9317aacdb70e94b3129f142405993967b1b86828d6a0ebe55e848b04e002960c0604052600960808190527f546f6b656e20302e31000000000000000000000000000000000000000000000060a0908152620000409160029190620001d6565b506040805160208101918290526000908190526200006191600391620001d6565b506040805160208101918290526000908190526200008291600491620001d6565b506005805460ff1916905560006006556040805180820190915260038082527f302e3300000000000000000000000000000000000000000000000000000000006020909201918252620000d891600991620001d6565b50600a805460ff19166001179055348015620000f357600080fd5b506040516200101138038062001011833981016040908152815160208301519183015160008054600160a060020a0319163317815591840180519094939093019290918491849184911180156200014b575060008251115b15156200015757600080fd5b82516200016c906003906020860190620001d6565b50815162000182906004906020850190620001d6565b506005805460ff90921660ff1990921691909117905550506040805130815290517ff4cd1f8571e8d9c97ffcb81558807ab73f9803d54de5da6a0420593c82a4a9f09181900360200190a15050506200027b565b828054600181600116156101000203166002900490600052602060002090601f016020900481019282601f106200021957805160ff191683800117855562000249565b8280016001018555821562000249579182015b82811115620002495782518255916020019190600101906200022c565b50620002579291506200025b565b5090565b6200027891905b8082111562000257576000815560010162000262565b90565b610d86806200028b6000396000f3006080604052600436106101115763ffffffff7c010000000000000000000000000000000000000000000000000000000060003504166306fdde038114610116578063095ea7b3146101a05780631608f18f146101d857806318160ddd146101f457806323b872dd1461021b578063313ce5671461024557806354fd4d50146102705780635a3b7e42146102855780635e35359e1461029a57806370a08231146102c457806379ba5097146102e5578063867904b4146102fa5780638da5cb5b1461031e57806395d89b411461034f578063a24835d114610364578063a9059cbb14610388578063bef97c87146103ac578063d4ee1d90146103c1578063dd62ed3e146103d6578063f2fde38b146103fd575b600080fd5b34801561012257600080fd5b5061012b61041e565b6040805160208082528351818301528351919283929083019185019080838360005b8381101561016557818101518382015260200161014d565b50505050905090810190601f1680156101925780820380516001836020036101000a031916815260200191505b509250505060405180910390f35b3480156101ac57600080fd5b506101c4600160a060020a03600435166024356104ac565b604080519115158252519081900360200190f35b3480156101e457600080fd5b506101f26004351515610565565b005b34801561020057600080fd5b5061020961058e565b60408051918252519081900360200190f35b34801561022757600080fd5b506101c4600160a060020a0360043581169060243516604435610594565b34801561025157600080fd5b5061025a6105c2565b6040805160ff9092168252519081900360200190f35b34801561027c57600080fd5b5061012b6105cb565b34801561029157600080fd5b5061012b610626565b3480156102a657600080fd5b506101f2600160a060020a036004358116906024351660443561067e565b3480156102d057600080fd5b50610209600160a060020a0360043516610774565b3480156102f157600080fd5b506101f2610786565b34801561030657600080fd5b506101f2600160a060020a036004351660243561080e565b34801561032a57600080fd5b50610333610917565b60408051600160a060020a039092168252519081900360200190f35b34801561035b57600080fd5b5061012b610926565b34801561037057600080fd5b506101f2600160a060020a0360043516602435610981565b34801561039457600080fd5b506101c4600160a060020a0360043516602435610a6a565b3480156103b857600080fd5b506101c4610a96565b3480156103cd57600080fd5b50610333610a9f565b3480156103e257600080fd5b50610209600160a060020a0360043581169060243516610aae565b34801561040957600080fd5b506101f2600160a060020a0360043516610acb565b6003805460408051602060026001851615610100026000190190941693909304601f810184900484028201840190925281815292918301828280156104a45780601f10610479576101008083540402835291602001916104a4565b820191906000526020600020905b81548152906001019060200180831161048757829003601f168201915b505050505081565b600082600160a060020a03811615156104c457600080fd5b8215806104f25750336000908152600860209081526040808320600160a060020a0388168452909152902054155b15156104fd57600080fd5b336000818152600860209081526040808320600160a060020a03891680855290835292819020879055805187815290519293927f8c5be1e5ebec7d5bd14f71427d1e84f3dd0314c0f7b2291e5b200ac8c7c3b925929181900390910190a35060019392505050565b600054600160a060020a0316331461057c57600080fd5b600a805460ff19169115919091179055565b60065481565b600a5460009060ff1615156105a557fe5b6105b0848484610b2c565b15156105b857fe5b5060019392505050565b60055460ff1681565b6009805460408051602060026001851615610100026000190190941693909304601f810184900484028201840190925281815292918301828280156104a45780601f10610479576101008083540402835291602001916104a4565b6002805460408051602060018416156101000260001901909316849004601f810184900484028201840190925281815292918301828280156104a45780601f10610479576101008083540402835291602001916104a4565b600054600160a060020a0316331461069557600080fd5b82600160a060020a03811615156106ab57600080fd5b82600160a060020a03811615156106c157600080fd5b83600160a060020a0381163014156106d857600080fd5b85600160a060020a031663a9059cbb86866040518363ffffffff167c01000000000000000000000000000000000000000000000000000000000281526004018083600160a060020a0316600160a060020a0316815260200182815260200192505050600060405180830381600087803b15801561075457600080fd5b505af1158015610768573d6000803e3d6000fd5b50505050505050505050565b60076020526000908152604090205481565b600154600160a060020a0316331461079d57600080fd5b60015460008054604051600160a060020a0393841693909116917f343765429aea5a34b3ff6a3785a98a5abb2597aca87bfbb58632c173d585373a91a3600180546000805473ffffffffffffffffffffffffffffffffffffffff19908116600160a060020a03841617909155169055565b600054600160a060020a0316331461082557600080fd5b81600160a060020a038116151561083b57600080fd5b82600160a060020a03811630141561085257600080fd5b600654610865908463ffffffff610c5516565b600655600160a060020a038416600090815260076020526040902054610891908463ffffffff610c5516565b600160a060020a03851660009081526007602090815260409182902092909255805185815290517f9386c90217c323f58030f9dadcbc938f807a940f4ff41cd4cead9562f5da7dc3929181900390910190a1604080518481529051600160a060020a038616913091600080516020610d3b8339815191529181900360200190a350505050565b600054600160a060020a031681565b6004805460408051602060026001851615610100026000190190941693909304601f810184900484028201840190925281815292918301828280156104a45780601f10610479576101008083540402835291602001916104a4565b33600160a060020a03831614806109a25750600054600160a060020a031633145b15156109ad57600080fd5b600160a060020a0382166000908152600760205260409020546109d6908263ffffffff610c6e16565b600160a060020a038316600090815260076020526040902055600654610a02908263ffffffff610c6e16565b6006556040805182815290513091600160a060020a03851691600080516020610d3b8339815191529181900360200190a36040805182815290517f9a1b418bc061a5d80270261562e6986a35d995f8051145f277be16103abd34539181900360200190a15050565b600a5460009060ff161515610a7b57fe5b610a858383610c83565b1515610a8d57fe5b50600192915050565b600a5460ff1681565b600154600160a060020a031681565b600860209081526000928352604080842090915290825290205481565b600054600160a060020a03163314610ae257600080fd5b600054600160a060020a0382811691161415610afd57600080fd5b6001805473ffffffffffffffffffffffffffffffffffffffff1916600160a060020a0392909216919091179055565b600083600160a060020a0381161515610b4457600080fd5b83600160a060020a0381161515610b5a57600080fd5b600160a060020a0386166000908152600860209081526040808320338452909152902054610b8e908563ffffffff610c6e16565b600160a060020a038716600081815260086020908152604080832033845282528083209490945591815260079091522054610bcf908563ffffffff610c6e16565b600160a060020a038088166000908152600760205260408082209390935590871681522054610c04908563ffffffff610c5516565b600160a060020a0380871660008181526007602090815260409182902094909455805188815290519193928a1692600080516020610d3b83398151915292918290030190a350600195945050505050565b600082820183811015610c6757600080fd5b9392505050565b600081831015610c7d57600080fd5b50900390565b600082600160a060020a0381161515610c9b57600080fd5b33600090815260076020526040902054610cbb908463ffffffff610c6e16565b3360009081526007602052604080822092909255600160a060020a03861681522054610ced908463ffffffff610c5516565b600160a060020a038516600081815260076020908152604091829020939093558051868152905191923392600080516020610d3b8339815191529281900390910190a350600193925050505600ddf252ad1be2c89b69c2b068fc378daa952ba7f163c4a11628f55a4df523b3efa165627a7a723058209f7d65c4d3346d6683e2d78b9e3bc7b212dd201e577f60a1e4382b44bc48d51d0029608060405234801561001057600080fd5b50604051602080610899833981016040525160008054600160a060020a0319163317905580600160a060020a038116151561004a57600080fd5b5060028054600160a060020a031916600160a060020a039290921691909117905561081f8061007a6000396000f3006080604052600436106100ab5763ffffffff60e060020a6000350416631120a77681146100b057806321e6b53d146100e157806338a5e0161461010457806341a5b33d146101195780635e35359e1461014357806379ba50971461016d57806385d5e631146101825780638da5cb5b1461019c578063d4ee1d90146101b1578063d924f0c3146101c6578063f2fde38b146101e7578063fc0c546a14610208578063fe417fa51461021d575b600080fd5b3480156100bc57600080fd5b506100c5610241565b60408051600160a060020a039092168252519081900360200190f35b3480156100ed57600080fd5b50610102600160a060020a0360043516610250565b005b34801561011057600080fd5b506101026102e9565b34801561012557600080fd5b50610102600160a060020a036004358116906024351660443561036d565b34801561014f57600080fd5b50610102600160a060020a0360043581169060243516604435610417565b34801561017957600080fd5b506101026104f4565b34801561018e57600080fd5b50610102600435151561057c565b3480156101a857600080fd5b506100c56105fa565b3480156101bd57600080fd5b506100c5610609565b3480156101d257600080fd5b50610102600160a060020a0360043516610618565b3480156101f357600080fd5b50610102600160a060020a036004351661065e565b34801561021457600080fd5b506100c56106bf565b34801561022957600080fd5b50610102600160a060020a03600435166024356106ce565b600354600160a060020a031681565b600054600160a060020a0316331461026757600080fd5b600254604080517ff2fde38b000000000000000000000000000000000000000000000000000000008152600160a060020a0384811660048301529151919092169163f2fde38b91602480830192600092919082900301818387803b1580156102ce57600080fd5b505af11580156102e2573d6000803e3d6000fd5b5050505050565b600054600160a060020a0316331461030057600080fd5b600260009054906101000a9004600160a060020a0316600160a060020a03166379ba50976040518163ffffffff1660e060020a028152600401600060405180830381600087803b15801561035357600080fd5b505af1158015610367573d6000803e3d6000fd5b50505050565b600054600160a060020a0316331461038457600080fd5b600254604080517f5e35359e000000000000000000000000000000000000000000000000000000008152600160a060020a03868116600483015285811660248301526044820185905291519190921691635e35359e91606480830192600092919082900301818387803b1580156103fa57600080fd5b505af115801561040e573d6000803e3d6000fd5b50505050505050565b600054600160a060020a0316331461042e57600080fd5b82600160a060020a038116151561044457600080fd5b82600160a060020a038116151561045a57600080fd5b83600160a060020a03811630141561047157600080fd5b85600160a060020a031663a9059cbb86866040518363ffffffff1660e060020a0281526004018083600160a060020a0316600160a060020a0316815260200182815260200192505050600060405180830381600087803b1580156104d457600080fd5b505af11580156104e8573d6000803e3d6000fd5b50505050505050505050565b600154600160a060020a0316331461050b57600080fd5b60015460008054604051600160a060020a0393841693909116917f343765429aea5a34b3ff6a3785a98a5abb2597aca87bfbb58632c173d585373a91a3600180546000805473ffffffffffffffffffffffffffffffffffffffff19908116600160a060020a03841617909155169055565b600054600160a060020a0316331461059357600080fd5b600254604080517f1608f18f00000000000000000000000000000000000000000000000000000000815283151560048201529051600160a060020a0390921691631608f18f9160248082019260009290919082900301818387803b1580156102ce57600080fd5b600054600160a060020a031681565b600154600160a060020a031681565b600054600160a060020a0316331461062f57600080fd5b6003805473ffffffffffffffffffffffffffffffffffffffff1916600160a060020a0392909216919091179055565b600054600160a060020a0316331461067557600080fd5b600054600160a060020a038281169116141561069057600080fd5b6001805473ffffffffffffffffffffffffffffffffffffffff1916600160a060020a0392909216919091179055565b600254600160a060020a031681565b600354600160a060020a031633146106e557600080fd5b600254604080517fa24835d1000000000000000000000000000000000000000000000000000000008152600160a060020a038581166004830152602482018590529151919092169163a24835d191604480830192600092919082900301818387803b15801561075357600080fd5b505af1158015610767573d6000803e3d6000fd5b5050600254604080517f867904b4000000000000000000000000000000000000000000000000000000008152336004820152602481018690529051600160a060020a03909216935063867904b4925060448082019260009290919082900301818387803b1580156107d757600080fd5b505af11580156107eb573d6000803e3d6000fd5b5050505050505600a165627a7a7230582029f17a1def8b09ceadcb86216713bfd9e70a62ef9952107cc3f319c90ffb8f050029a165627a7a723058208a7bf600fcc8393e1df6e5c1522dda0861350851131d5cb0817df6374edf21d20029",
  "source": "pragma solidity ^0.4.26;\n\nimport \"./interfaces/INetwork.sol\";\n\ncontract Network is INetwork {\n    Community[] private communities;\n\n    /** @dev Network, Community, and Token addresses of a new community.\n     */\n    event CommunityCreated(\n        Network network,\n        Community community,\n        SmartToken token\n    );\n\n    /** @dev Return joined communities by user address.\n     */\n    mapping (address => Community[]) userCommunities;\n\n    /** @dev Create a new community and add to the network's communities.\n      *\n      * @param _name Name of the community to be created\n      * @param _tokenName Name of the community's token\n      * @param _tokenSymbol Symbol of the community's token\n      * @param _benefit The benefit of joining the community\n      */\n    function createCommunity(\n        string _name,\n        string _benefit,\n        string _tokenName,\n        string _tokenSymbol\n    ) public returns (bool success) {\n        Community community = new Community(\n            msg.sender, // Owner\n            _name, // Community Name\n            _benefit, // Community benefit\n            _tokenName, // Token Name\n            _tokenSymbol // Token Symbol\n        );\n\n        communities.push(community);\n\n        emit CommunityCreated(\n            this,\n            community,\n            community.token()\n        );\n\n        return true;\n    }\n\n    /** @dev Get a list of the network's communities.\n     *\n     * @return An array of the network's communities' addresses.\n     */\n    function getCommunities() public view returns (Community[]) { return communities; }\n\n    /** @dev Add current user to community.\n     *\n     * @param _community Community to add current user to.\n     */\n    function joinCommunity(Community _community) public {\n        require(_community.join(msg.sender), \"Unable to add user to community.\");\n        userCommunities[msg.sender].push(_community);\n    }\n}\n",
  "sourcePath": "/Users/cryptotom/code/gitcoin/communiteths/contracts/Network.sol",
  "compiler": {
    "name": "solc",
    "version": "0.4.26+commit.4563c3fc.Emscripten.clang"
  },
  "schemaVersion": "3.0.11",
  "updatedAt": "2019-09-13T02:32:33.204Z",
  "devdoc": {
    "methods": {
      "createCommunity(string,string,string,string)": {
        "details": "Create a new community and add to the network's communities.",
        "params": {
          "_benefit": "The benefit of joining the community",
          "_name": "Name of the community to be created",
          "_tokenName": "Name of the community's token",
          "_tokenSymbol": "Symbol of the community's token"
        }
      },
      "getCommunities()": {
        "details": "Get a list of the network's communities.",
        "return": "An array of the network's communities' addresses."
      },
      "joinCommunity(address)": {
        "details": "Add current user to community.",
        "params": {
          "_community": "Community to add current user to."
        }
      }
    }
  },
  "userdoc": {
    "methods": {}
  }
}