{
  "contractName": "Network",
  "abi": [
    {
      "constant": true,
      "inputs": [],
      "name": "networkToken",
      "outputs": [
        {
          "name": "",
          "type": "address"
        }
      ],
      "payable": false,
      "stateMutability": "view",
      "type": "function"
    },
    {
      "constant": true,
      "inputs": [],
      "name": "contractRegistry",
      "outputs": [
        {
          "name": "",
          "type": "address"
        }
      ],
      "payable": false,
      "stateMutability": "view",
      "type": "function"
    },
    {
      "constant": true,
      "inputs": [],
      "name": "etherToken",
      "outputs": [
        {
          "name": "",
          "type": "address"
        }
      ],
      "payable": false,
      "stateMutability": "view",
      "type": "function"
    },
    {
      "constant": true,
      "inputs": [],
      "name": "converter",
      "outputs": [
        {
          "name": "",
          "type": "address"
        }
      ],
      "payable": false,
      "stateMutability": "view",
      "type": "function"
    },
    {
      "inputs": [
        {
          "name": "_etherToken",
          "type": "address"
        },
        {
          "name": "_networkToken",
          "type": "address"
        },
        {
          "name": "_converter",
          "type": "address"
        },
        {
          "name": "_contractRegistry",
          "type": "address"
        }
      ],
      "payable": false,
      "stateMutability": "nonpayable",
      "type": "constructor"
    },
    {
      "anonymous": false,
      "inputs": [
        {
          "indexed": false,
          "name": "network",
          "type": "address"
        },
        {
          "indexed": false,
          "name": "community",
          "type": "address"
        },
        {
          "indexed": false,
          "name": "token",
          "type": "address"
        }
      ],
      "name": "CommunityCreated",
      "type": "event"
    },
    {
      "constant": false,
      "inputs": [
        {
          "name": "_name",
          "type": "string"
        },
        {
          "name": "_benefit",
          "type": "string"
        },
        {
          "name": "_tokenName",
          "type": "string"
        },
        {
          "name": "_tokenSymbol",
          "type": "string"
        }
      ],
      "name": "createCommunity",
      "outputs": [],
      "payable": false,
      "stateMutability": "nonpayable",
      "type": "function"
    },
    {
      "constant": true,
      "inputs": [],
      "name": "getCommunities",
      "outputs": [
        {
          "name": "",
          "type": "address[]"
        }
      ],
      "payable": false,
      "stateMutability": "view",
      "type": "function"
    },
    {
      "constant": false,
      "inputs": [
        {
          "name": "_community",
          "type": "address"
        }
      ],
      "name": "joinCommunity",
      "outputs": [],
      "payable": false,
      "stateMutability": "nonpayable",
      "type": "function"
    }
  ],
  "bytecode": "0x608060405234801561001057600080fd5b5060405160808061208d833981016040908152815160208301519183015160609093015160018054600160a060020a03938416600160a060020a0319918216179091556002805494841694821694909417909355600380549483169484169490941790935560048054919093169116179055611ffc806100916000396000f3006080604052600436106100825763ffffffff7c01000000000000000000000000000000000000000000000000000000006000350416636ca95a4e811461008757806373ec7df0146100b8578063abf410e5146100db578063b8066bcb146100f0578063bd38837b14610105578063c251b5651461011a578063f9ca9e281461017f575b600080fd5b34801561009357600080fd5b5061009c610292565b60408051600160a060020a039092168252519081900360200190f35b3480156100c457600080fd5b506100d9600160a060020a03600435166102a1565b005b3480156100e757600080fd5b5061009c6103e7565b3480156100fc57600080fd5b5061009c6103f6565b34801561011157600080fd5b5061009c610405565b34801561012657600080fd5b5061012f610414565b60408051602080825283518183015283519192839290830191858101910280838360005b8381101561016b578181015183820152602001610153565b505050509050019250505060405180910390f35b34801561018b57600080fd5b506040805160206004803580820135601f81018490048402850184019095528484526100d994369492936024939284019190819084018382808284375050604080516020601f89358b018035918201839004830284018301909452808352979a99988101979196509182019450925082915084018382808284375050604080516020601f89358b018035918201839004830284018301909452808352979a99988101979196509182019450925082915084018382808284375050604080516020601f89358b018035918201839004830284018301909452808352979a9998810197919650918201945092508291508401838280828437509497506104769650505050505050565b600254600160a060020a031681565b604080517f28ffe6c80000000000000000000000000000000000000000000000000000000081523360048201529051600160a060020a038316916328ffe6c89160248083019260209291908290030181600087803b15801561030257600080fd5b505af1158015610316573d6000803e3d6000fd5b505050506040513d602081101561032c57600080fd5b5051151561039b57604080517f08c379a000000000000000000000000000000000000000000000000000000000815260206004820181905260248201527f556e61626c6520746f20616464207573657220746f20636f6d6d756e6974792e604482015290519081900360640190fd5b33600090815260056020908152604082208054600181018255908352912001805473ffffffffffffffffffffffffffffffffffffffff1916600160a060020a0392909216919091179055565b600454600160a060020a031681565b600154600160a060020a031681565b600354600160a060020a031681565b6060600080548060200260200160405190810160405280929190818152602001828054801561046c57602002820191906000526020600020905b8154600160a060020a0316815260019091019060200180831161044e575b5050505050905090565b60003385858585610485610788565b8086600160a060020a0316600160a060020a0316815260200180602001806020018060200180602001858103855289818151815260200191508051906020019080838360005b838110156104e35781810151838201526020016104cb565b50505050905090810190601f1680156105105780820380516001836020036101000a031916815260200191505b5085810384528851815288516020918201918a019080838360005b8381101561054357818101518382015260200161052b565b50505050905090810190601f1680156105705780820380516001836020036101000a031916815260200191505b50858103835287518152875160209182019189019080838360005b838110156105a357818101518382015260200161058b565b50505050905090810190601f1680156105d05780820380516001836020036101000a031916815260200191505b50858103825286518152865160209182019188019080838360005b838110156106035781810151838201526020016105eb565b50505050905090810190601f1680156106305780820380516001836020036101000a031916815260200191505b509950505050505050505050604051809103906000f080158015610658573d6000803e3d6000fd5b50600080546001810182558180527f290decd9548b62a8d60345a988386fc84ba6bc95484008f6362f93160ef3e56301805473ffffffffffffffffffffffffffffffffffffffff1916600160a060020a038416908117909155604080517ffc0c546a00000000000000000000000000000000000000000000000000000000815290519394507fa1d5744e33f2d9cf5537c7ea77603378e4dbda6a0bebd8d33a3e613a4d401bb793309386939263fc0c546a9260048083019360209383900390910190829087803b15801561072b57600080fd5b505af115801561073f573d6000803e3d6000fd5b505050506040513d602081101561075557600080fd5b505160408051600160a060020a039485168152928416602084015292168183015290519081900360600190a15050505050565b60405161183880610799833901905600608060405234801561001057600080fd5b506040516118383803806118388339810160409081528151602080840151928401516060850151608086015160008054600160a060020a031916600160a060020a038716179055948601805194969095928101949181019392019161007a91600191870190610215565b50825161008e906002906020860190610215565b508181601261009b610293565b60ff82166040820152606080825284519082015283518190602080830191608084019188019080838360005b838110156100df5781810151838201526020016100c7565b50505050905090810190601f16801561010c5780820380516001836020036101000a031916815260200191505b50838103825285518152855160209182019187019080838360005b8381101561013f578181015183820152602001610127565b50505050905090810190601f16801561016c5780820380516001836020036101000a031916815260200191505b5095505050505050604051809103906000f080158015610190573d6000803e3d6000fd5b5060038054600160a060020a0319908116600160a060020a03938416179091556000805483168152600660205260408120805460ff1916600190811790915581546005805492830181559092527f036b6384b5eca791c62761152d0c79bb0604c104a5fb6f4eb0703f3154bb3db0018054919093169116179055506102c09350505050565b828054600181600116156101000203166002900490600052602060002090601f016020900481019282601f1061025657805160ff1916838001178555610283565b82800160010185558215610283579182015b82811115610283578251825591602001919060010190610268565b5061028f9291506102a3565b5090565b6040516110118061082783390190565b6102bd91905b8082111561028f57600081556001016102a9565b90565b610558806102cf6000396000f3006080604052600436106100985763ffffffff7c010000000000000000000000000000000000000000000000000000000060003504166306fdde03811461009d578063199d5a881461012757806328ffe6c81461015c5780632e5113b71461017d5780638da5cb5b146101925780639eab5253146101c3578063b19337a414610228578063bd38837b1461024b578063fc0c546a14610260575b600080fd5b3480156100a957600080fd5b506100b2610275565b6040805160208082528351818301528351919283929083019185019080838360005b838110156100ec5781810151838201526020016100d4565b50505050905090810190601f1680156101195780820380516001836020036101000a031916815260200191505b509250505060405180910390f35b34801561013357600080fd5b50610148600160a060020a0360043516610302565b604080519115158252519081900360200190f35b34801561016857600080fd5b50610148600160a060020a0360043516610317565b34801561018957600080fd5b506100b2610416565b34801561019e57600080fd5b506101a761046e565b60408051600160a060020a039092168252519081900360200190f35b3480156101cf57600080fd5b506101d861047d565b60408051602080825283518183015283519192839290830191858101910280838360005b838110156102145781810151838201526020016101fc565b505050509050019250505060405180910390f35b34801561023457600080fd5b50610249600160a060020a03600435166104df565b005b34801561025757600080fd5b506101a761050e565b34801561026c57600080fd5b506101a761051d565b60018054604080516020600284861615610100026000190190941693909304601f810184900484028201840190925281815292918301828280156102fa5780601f106102cf576101008083540402835291602001916102fa565b820191906000526020600020905b8154815290600101906020018083116102dd57829003601f168201915b505050505081565b60066020526000908152604090205460ff1681565b600160a060020a03811660009081526006602052604081205460ff161561039f57604080517f08c379a000000000000000000000000000000000000000000000000000000000815260206004820152601960248201527f5573657220697320616c72656164792061206d656d6265722e00000000000000604482015290519081900360640190fd5b50600160a060020a03166000818152600660205260408120805460ff1916600190811790915560058054808301825592527f036b6384b5eca791c62761152d0c79bb0604c104a5fb6f4eb0703f3154bb3db0909101805473ffffffffffffffffffffffffffffffffffffffff191690921790915590565b6002805460408051602060018416156101000260001901909316849004601f810184900484028201840190925281815292918301828280156102fa5780601f106102cf576101008083540402835291602001916102fa565b600054600160a060020a031681565b606060058054806020026020016040519081016040528092919081815260200182805480156104d557602002820191906000526020600020905b8154600160a060020a031681526001909101906020018083116104b7575b5050505050905090565b6004805473ffffffffffffffffffffffffffffffffffffffff1916600160a060020a0392909216919091179055565b600454600160a060020a031681565b600354600160a060020a0316815600a165627a7a723058203caa4b84faf8a71bbe6d3ac115cb12ca23f5ec283719290e8e831a3693aaf5e9002960c0604052600960808190527f546f6b656e20302e31000000000000000000000000000000000000000000000060a0908152620000409160029190620001d6565b506040805160208101918290526000908190526200006191600391620001d6565b506040805160208101918290526000908190526200008291600491620001d6565b506005805460ff1916905560006006556040805180820190915260038082527f302e3300000000000000000000000000000000000000000000000000000000006020909201918252620000d891600991620001d6565b50600a805460ff19166001179055348015620000f357600080fd5b506040516200101138038062001011833981016040908152815160208301519183015160008054600160a060020a0319163317815591840180519094939093019290918491849184911180156200014b575060008251115b15156200015757600080fd5b82516200016c906003906020860190620001d6565b50815162000182906004906020850190620001d6565b506005805460ff90921660ff1990921691909117905550506040805130815290517ff4cd1f8571e8d9c97ffcb81558807ab73f9803d54de5da6a0420593c82a4a9f09181900360200190a15050506200027b565b828054600181600116156101000203166002900490600052602060002090601f016020900481019282601f106200021957805160ff191683800117855562000249565b8280016001018555821562000249579182015b82811115620002495782518255916020019190600101906200022c565b50620002579291506200025b565b5090565b6200027891905b8082111562000257576000815560010162000262565b90565b610d86806200028b6000396000f3006080604052600436106101115763ffffffff7c010000000000000000000000000000000000000000000000000000000060003504166306fdde038114610116578063095ea7b3146101a05780631608f18f146101d857806318160ddd146101f457806323b872dd1461021b578063313ce5671461024557806354fd4d50146102705780635a3b7e42146102855780635e35359e1461029a57806370a08231146102c457806379ba5097146102e5578063867904b4146102fa5780638da5cb5b1461031e57806395d89b411461034f578063a24835d114610364578063a9059cbb14610388578063bef97c87146103ac578063d4ee1d90146103c1578063dd62ed3e146103d6578063f2fde38b146103fd575b600080fd5b34801561012257600080fd5b5061012b61041e565b6040805160208082528351818301528351919283929083019185019080838360005b8381101561016557818101518382015260200161014d565b50505050905090810190601f1680156101925780820380516001836020036101000a031916815260200191505b509250505060405180910390f35b3480156101ac57600080fd5b506101c4600160a060020a03600435166024356104ac565b604080519115158252519081900360200190f35b3480156101e457600080fd5b506101f26004351515610565565b005b34801561020057600080fd5b5061020961058e565b60408051918252519081900360200190f35b34801561022757600080fd5b506101c4600160a060020a0360043581169060243516604435610594565b34801561025157600080fd5b5061025a6105c2565b6040805160ff9092168252519081900360200190f35b34801561027c57600080fd5b5061012b6105cb565b34801561029157600080fd5b5061012b610626565b3480156102a657600080fd5b506101f2600160a060020a036004358116906024351660443561067e565b3480156102d057600080fd5b50610209600160a060020a0360043516610774565b3480156102f157600080fd5b506101f2610786565b34801561030657600080fd5b506101f2600160a060020a036004351660243561080e565b34801561032a57600080fd5b50610333610917565b60408051600160a060020a039092168252519081900360200190f35b34801561035b57600080fd5b5061012b610926565b34801561037057600080fd5b506101f2600160a060020a0360043516602435610981565b34801561039457600080fd5b506101c4600160a060020a0360043516602435610a6a565b3480156103b857600080fd5b506101c4610a96565b3480156103cd57600080fd5b50610333610a9f565b3480156103e257600080fd5b50610209600160a060020a0360043581169060243516610aae565b34801561040957600080fd5b506101f2600160a060020a0360043516610acb565b6003805460408051602060026001851615610100026000190190941693909304601f810184900484028201840190925281815292918301828280156104a45780601f10610479576101008083540402835291602001916104a4565b820191906000526020600020905b81548152906001019060200180831161048757829003601f168201915b505050505081565b600082600160a060020a03811615156104c457600080fd5b8215806104f25750336000908152600860209081526040808320600160a060020a0388168452909152902054155b15156104fd57600080fd5b336000818152600860209081526040808320600160a060020a03891680855290835292819020879055805187815290519293927f8c5be1e5ebec7d5bd14f71427d1e84f3dd0314c0f7b2291e5b200ac8c7c3b925929181900390910190a35060019392505050565b600054600160a060020a0316331461057c57600080fd5b600a805460ff19169115919091179055565b60065481565b600a5460009060ff1615156105a557fe5b6105b0848484610b2c565b15156105b857fe5b5060019392505050565b60055460ff1681565b6009805460408051602060026001851615610100026000190190941693909304601f810184900484028201840190925281815292918301828280156104a45780601f10610479576101008083540402835291602001916104a4565b6002805460408051602060018416156101000260001901909316849004601f810184900484028201840190925281815292918301828280156104a45780601f10610479576101008083540402835291602001916104a4565b600054600160a060020a0316331461069557600080fd5b82600160a060020a03811615156106ab57600080fd5b82600160a060020a03811615156106c157600080fd5b83600160a060020a0381163014156106d857600080fd5b85600160a060020a031663a9059cbb86866040518363ffffffff167c01000000000000000000000000000000000000000000000000000000000281526004018083600160a060020a0316600160a060020a0316815260200182815260200192505050600060405180830381600087803b15801561075457600080fd5b505af1158015610768573d6000803e3d6000fd5b50505050505050505050565b60076020526000908152604090205481565b600154600160a060020a0316331461079d57600080fd5b60015460008054604051600160a060020a0393841693909116917f343765429aea5a34b3ff6a3785a98a5abb2597aca87bfbb58632c173d585373a91a3600180546000805473ffffffffffffffffffffffffffffffffffffffff19908116600160a060020a03841617909155169055565b600054600160a060020a0316331461082557600080fd5b81600160a060020a038116151561083b57600080fd5b82600160a060020a03811630141561085257600080fd5b600654610865908463ffffffff610c5516565b600655600160a060020a038416600090815260076020526040902054610891908463ffffffff610c5516565b600160a060020a03851660009081526007602090815260409182902092909255805185815290517f9386c90217c323f58030f9dadcbc938f807a940f4ff41cd4cead9562f5da7dc3929181900390910190a1604080518481529051600160a060020a038616913091600080516020610d3b8339815191529181900360200190a350505050565b600054600160a060020a031681565b6004805460408051602060026001851615610100026000190190941693909304601f810184900484028201840190925281815292918301828280156104a45780601f10610479576101008083540402835291602001916104a4565b33600160a060020a03831614806109a25750600054600160a060020a031633145b15156109ad57600080fd5b600160a060020a0382166000908152600760205260409020546109d6908263ffffffff610c6e16565b600160a060020a038316600090815260076020526040902055600654610a02908263ffffffff610c6e16565b6006556040805182815290513091600160a060020a03851691600080516020610d3b8339815191529181900360200190a36040805182815290517f9a1b418bc061a5d80270261562e6986a35d995f8051145f277be16103abd34539181900360200190a15050565b600a5460009060ff161515610a7b57fe5b610a858383610c83565b1515610a8d57fe5b50600192915050565b600a5460ff1681565b600154600160a060020a031681565b600860209081526000928352604080842090915290825290205481565b600054600160a060020a03163314610ae257600080fd5b600054600160a060020a0382811691161415610afd57600080fd5b6001805473ffffffffffffffffffffffffffffffffffffffff1916600160a060020a0392909216919091179055565b600083600160a060020a0381161515610b4457600080fd5b83600160a060020a0381161515610b5a57600080fd5b600160a060020a0386166000908152600860209081526040808320338452909152902054610b8e908563ffffffff610c6e16565b600160a060020a038716600081815260086020908152604080832033845282528083209490945591815260079091522054610bcf908563ffffffff610c6e16565b600160a060020a038088166000908152600760205260408082209390935590871681522054610c04908563ffffffff610c5516565b600160a060020a0380871660008181526007602090815260409182902094909455805188815290519193928a1692600080516020610d3b83398151915292918290030190a350600195945050505050565b600082820183811015610c6757600080fd5b9392505050565b600081831015610c7d57600080fd5b50900390565b600082600160a060020a0381161515610c9b57600080fd5b33600090815260076020526040902054610cbb908463ffffffff610c6e16565b3360009081526007602052604080822092909255600160a060020a03861681522054610ced908463ffffffff610c5516565b600160a060020a038516600081815260076020908152604091829020939093558051868152905191923392600080516020610d3b8339815191529281900390910190a350600193925050505600ddf252ad1be2c89b69c2b068fc378daa952ba7f163c4a11628f55a4df523b3efa165627a7a723058209f7d65c4d3346d6683e2d78b9e3bc7b212dd201e577f60a1e4382b44bc48d51d0029a165627a7a723058202001ea873addbd2a02a7adbf132263cf42c7c6eb53e280658011ad5508dec4b50029",
  "source": "pragma solidity ^0.4.26;\n\nimport \"./interfaces/INetwork.sol\";\nimport \"./bancor/utility/ContractRegistry.sol\";\nimport \"./bancor/converter/BancorConverter.sol\";\n\ncontract Network is INetwork {\n    Community[] private communities;\n    SmartToken public etherToken;\n    SmartToken public networkToken;\n    BancorConverter public converter;\n    ContractRegistry public contractRegistry;\n\n    /** @dev Network, Community, and Token addresses of a new community.\n     */\n    event CommunityCreated(\n        Network network,\n        Community community,\n        SmartToken token\n    );\n\n    /** @dev Return joined communities by user address.\n     */\n    mapping (address => Community[]) userCommunities;\n\n    constructor(\n        SmartToken _etherToken,\n        SmartToken _networkToken,\n        BancorConverter _converter,\n        ContractRegistry _contractRegistry\n    ) public {\n        etherToken = _etherToken;\n        networkToken = _networkToken;\n        converter = _converter;\n        contractRegistry = _contractRegistry;\n    }\n\n    /** @dev Create a new community and add to the network's communities.\n      *\n      * @param _name Name of the community to be created\n      * @param _benefit The benefit of joining the community\n      * @param _tokenName Name of the community's token\n      * @param _tokenSymbol Symbol of the community's token\n      */\n    function createCommunity(\n        string _name,\n        string _benefit,\n        string _tokenName,\n        string _tokenSymbol\n    ) public {\n        Community community = new Community(\n            msg.sender, // Owner\n            _name, // Community Name\n            _benefit, // Community benefit\n            _tokenName, // Token Name\n            _tokenSymbol // Token Symbol\n        );\n\n        communities.push(community);\n\n        emit CommunityCreated(\n            this,\n            community,\n            community.token()\n        );\n    }\n\n    /** @dev Get a list of the network's communities.\n     *\n     * @return An array of the network's communities' addresses.\n     */\n    function getCommunities() public view returns (Community[]) { return communities; }\n\n    /** @dev Add current user to community.\n     *\n     * @param _community Community to add current user to.\n     */\n    function joinCommunity(Community _community) public {\n        require(_community.join(msg.sender), \"Unable to add user to community.\");\n        userCommunities[msg.sender].push(_community);\n    }\n}\n",
  "sourcePath": "/Users/cryptotom/code/gitcoin/communiteths/contracts/Network.sol",
  "compiler": {
    "name": "solc",
    "version": "0.4.26+commit.4563c3fc.Emscripten.clang"
  },
  "schemaVersion": "3.0.11",
  "updatedAt": "2019-09-16T21:12:01.120Z",
  "devdoc": {
    "methods": {
      "createCommunity(string,string,string,string)": {
        "details": "Create a new community and add to the network's communities.",
        "params": {
          "_benefit": "The benefit of joining the community",
          "_name": "Name of the community to be created",
          "_tokenName": "Name of the community's token",
          "_tokenSymbol": "Symbol of the community's token"
        }
      },
      "getCommunities()": {
        "details": "Get a list of the network's communities.",
        "return": "An array of the network's communities' addresses."
      },
      "joinCommunity(address)": {
        "details": "Add current user to community.",
        "params": {
          "_community": "Community to add current user to."
        }
      }
    }
  },
  "userdoc": {
    "methods": {}
  }
}