{
  "contractName": "Network",
  "abi": [
    {
      "constant": true,
      "inputs": [],
      "name": "networkToken",
      "outputs": [
        {
          "name": "",
          "type": "address"
        }
      ],
      "payable": false,
      "stateMutability": "view",
      "type": "function"
    },
    {
      "constant": true,
      "inputs": [],
      "name": "etherToken",
      "outputs": [
        {
          "name": "",
          "type": "address"
        }
      ],
      "payable": false,
      "stateMutability": "view",
      "type": "function"
    },
    {
      "constant": true,
      "inputs": [],
      "name": "converter",
      "outputs": [
        {
          "name": "",
          "type": "address"
        }
      ],
      "payable": false,
      "stateMutability": "view",
      "type": "function"
    },
    {
      "inputs": [
        {
          "name": "_etherToken",
          "type": "address"
        },
        {
          "name": "_networkToken",
          "type": "address"
        },
        {
          "name": "_converter",
          "type": "address"
        }
      ],
      "payable": false,
      "stateMutability": "nonpayable",
      "type": "constructor"
    },
    {
      "anonymous": false,
      "inputs": [
        {
          "indexed": false,
          "name": "network",
          "type": "address"
        },
        {
          "indexed": false,
          "name": "community",
          "type": "address"
        },
        {
          "indexed": false,
          "name": "token",
          "type": "address"
        }
      ],
      "name": "CommunityCreated",
      "type": "event"
    },
    {
      "constant": false,
      "inputs": [
        {
          "name": "_name",
          "type": "string"
        },
        {
          "name": "_tokenName",
          "type": "string"
        },
        {
          "name": "_tokenSymbol",
          "type": "string"
        }
      ],
      "name": "createCommunity",
      "outputs": [],
      "payable": false,
      "stateMutability": "nonpayable",
      "type": "function"
    },
    {
      "constant": false,
      "inputs": [
        {
          "name": "_community",
          "type": "address"
        },
        {
          "name": "_reserveRatio",
          "type": "uint32"
        },
        {
          "name": "_amountDeposited",
          "type": "uint256"
        }
      ],
      "name": "createConnector",
      "outputs": [],
      "payable": false,
      "stateMutability": "nonpayable",
      "type": "function"
    },
    {
      "constant": true,
      "inputs": [],
      "name": "getCommunities",
      "outputs": [
        {
          "name": "",
          "type": "address[]"
        }
      ],
      "payable": false,
      "stateMutability": "view",
      "type": "function"
    },
    {
      "constant": false,
      "inputs": [
        {
          "name": "_community",
          "type": "address"
        }
      ],
      "name": "joinCommunity",
      "outputs": [],
      "payable": false,
      "stateMutability": "nonpayable",
      "type": "function"
    }
  ],
  "bytecode": "0x608060405234801561001057600080fd5b506040516060806121fb83398101604090815281516020830151919092015160018054600160a060020a0319908116600160a060020a03958616179091556002805482169385169390931790925560038054909216921691909117905561217f8061007c6000396000f3006080604052600436106100695763ffffffff60e060020a6000350416636ca95a4e811461006e57806373ec7df01461009f57806375586d4a146100c2578063b8066bcb14610197578063bd38837b146101ac578063c251b565146101c1578063ce6f3ada14610226575b600080fd5b34801561007a57600080fd5b50610083610253565b60408051600160a060020a039092168252519081900360200190f35b3480156100ab57600080fd5b506100c0600160a060020a0360043516610262565b005b3480156100ce57600080fd5b506040805160206004803580820135601f81018490048402850184019095528484526100c094369492936024939284019190819084018382808284375050604080516020601f89358b018035918201839004830284018301909452808352979a99988101979196509182019450925082915084018382808284375050604080516020601f89358b018035918201839004830284018301909452808352979a9998810197919650918201945092508291508401838280828437509497506103a89650505050505050565b3480156101a357600080fd5b50610083610649565b3480156101b857600080fd5b50610083610658565b3480156101cd57600080fd5b506101d6610667565b60408051602080825283518183015283519192839290830191858101910280838360005b838110156102125781810151838201526020016101fa565b505050509050019250505060405180910390f35b34801561023257600080fd5b506100c0600160a060020a036004351663ffffffff602435166044356106c9565b600254600160a060020a031681565b604080517f28ffe6c80000000000000000000000000000000000000000000000000000000081523360048201529051600160a060020a038316916328ffe6c89160248083019260209291908290030181600087803b1580156102c357600080fd5b505af11580156102d7573d6000803e3d6000fd5b505050506040513d60208110156102ed57600080fd5b5051151561035c57604080517f08c379a000000000000000000000000000000000000000000000000000000000815260206004820181905260248201527f556e61626c6520746f20616464207573657220746f20636f6d6d756e6974792e604482015290519081900360640190fd5b33600090815260046020908152604082208054600181018255908352912001805473ffffffffffffffffffffffffffffffffffffffff1916600160a060020a0392909216919091179055565b6000338484846103b66108d8565b600160a060020a03851681526080602080830182815286519284019290925285516040840191606085019160a086019189019080838360005b838110156104075781810151838201526020016103ef565b50505050905090810190601f1680156104345780820380516001836020036101000a031916815260200191505b50848103835286518152865160209182019188019080838360005b8381101561046757818101518382015260200161044f565b50505050905090810190601f1680156104945780820380516001836020036101000a031916815260200191505b50848103825285518152855160209182019187019080838360005b838110156104c75781810151838201526020016104af565b50505050905090810190601f1680156104f45780820380516001836020036101000a031916815260200191505b50975050505050505050604051809103906000f08015801561051a573d6000803e3d6000fd5b50600080546001810182558180527f290decd9548b62a8d60345a988386fc84ba6bc95484008f6362f93160ef3e56301805473ffffffffffffffffffffffffffffffffffffffff1916600160a060020a038416908117909155604080517ffc0c546a00000000000000000000000000000000000000000000000000000000815290519394507fa1d5744e33f2d9cf5537c7ea77603378e4dbda6a0bebd8d33a3e613a4d401bb793309386939263fc0c546a9260048083019360209383900390910190829087803b1580156105ed57600080fd5b505af1158015610601573d6000803e3d6000fd5b505050506040513d602081101561061757600080fd5b505160408051600160a060020a039485168152928416602084015292168183015290519081900360600190a150505050565b600154600160a060020a031681565b600354600160a060020a031681565b606060008054806020026020016040519081016040528092919081815260200182805480156106bf57602002820191906000526020600020905b8154600160a060020a031681526001909101906020018083116106a1575b5050505050905090565b600360009054906101000a9004600160a060020a0316600160a060020a0316633f4d2fc284600160a060020a031663fc0c546a6040518163ffffffff1660e060020a028152600401602060405180830381600087803b15801561072b57600080fd5b505af115801561073f573d6000803e3d6000fd5b505050506040513d602081101561075557600080fd5b50516040805163ffffffff84811660e060020a028252600160a060020a0390931660048201529186166024830152600060448301819052905160648084019382900301818387803b1580156107a957600080fd5b505af11580156107bd573d6000803e3d6000fd5b50505050600260009054906101000a9004600160a060020a0316600160a060020a03166323b872dd84600160a060020a0316638da5cb5b6040518163ffffffff1660e060020a028152600401602060405180830381600087803b15801561082357600080fd5b505af1158015610837573d6000803e3d6000fd5b505050506040513d602081101561084d57600080fd5b50516003546040805160e060020a63ffffffff8616028152600160a060020a039384166004820152929091166024830152604482018590525160648083019260209291908290030181600087803b1580156108a757600080fd5b505af11580156108bb573d6000803e3d6000fd5b505050506040513d60208110156108d157600080fd5b5050505050565b60405161186b806108e9833901905600608060405234801561001057600080fd5b5060405161186b38038061186b833981016040908152815160208084015192840151606085015160008054600160a060020a031916600160a060020a03861617905593850180519395909491810193910191610071916001918601906101f7565b508181601261007e610275565b60ff82166040820152606080825284519082015283518190602080830191608084019188019080838360005b838110156100c25781810151838201526020016100aa565b50505050905090810190601f1680156100ef5780820380516001836020036101000a031916815260200191505b50838103825285518152855160209182019187019080838360005b8381101561012257818101518382015260200161010a565b50505050905090810190601f16801561014f5780820380516001836020036101000a031916815260200191505b5095505050505050604051809103906000f080158015610173573d6000803e3d6000fd5b5060028054600160a060020a0319908116600160a060020a03938416179091556000805483168152600460205260408120805460ff1916600190811790915581546003805492830181559092527fc2575a0e9e593c00f959f8c92f12db2869c3395a3b0502d05e2516446f71f85b018054919093169116179055506102a292505050565b828054600181600116156101000203166002900490600052602060002090601f016020900481019282601f1061023857805160ff1916838001178555610265565b82800160010185558215610265579182015b8281111561026557825182559160200191906001019061024a565b50610271929150610285565b5090565b6040516110118061085a83390190565b61029f91905b80821115610271576000815560010161028b565b90565b6105a9806102b16000396000f3006080604052600436106100825763ffffffff7c010000000000000000000000000000000000000000000000000000000060003504166301ee8927811461008757806306fdde03146100b9578063199d5a881461014357806328ffe6c8146101785780638da5cb5b146101995780639eab5253146101ca578063fc0c546a1461022f575b600080fd5b34801561009357600080fd5b506100b7600160a060020a036004351660243563ffffffff60443516606435610244565b005b3480156100c557600080fd5b506100ce61035c565b6040805160208082528351818301528351919283929083019185019080838360005b838110156101085781810151838201526020016100f0565b50505050905090810190601f1680156101355780820380516001836020036101000a031916815260200191505b509250505060405180910390f35b34801561014f57600080fd5b50610164600160a060020a03600435166103e9565b604080519115158252519081900360200190f35b34801561018457600080fd5b50610164600160a060020a03600435166103fe565b3480156101a557600080fd5b506101ae6104fd565b60408051600160a060020a039092168252519081900360200190f35b3480156101d657600080fd5b506101df61050c565b60408051602080825283518183015283519192839290830191858101910280838360005b8381101561021b578181015183820152602001610203565b505050509050019250505060405180910390f35b34801561023b57600080fd5b506101ae61056e565b60025460008054604080517f867904b4000000000000000000000000000000000000000000000000000000008152600160a060020a039283166004820152602481018890529051919093169263867904b492604480830193919282900301818387803b1580156102b357600080fd5b505af11580156102c7573d6000803e3d6000fd5b5050604080517fce6f3ada00000000000000000000000000000000000000000000000000000000815230600482015263ffffffff86166024820152604481018590529051600160a060020a038816935063ce6f3ada9250606480830192600092919082900301818387803b15801561033e57600080fd5b505af1158015610352573d6000803e3d6000fd5b5050505050505050565b60018054604080516020600284861615610100026000190190941693909304601f810184900484028201840190925281815292918301828280156103e15780601f106103b6576101008083540402835291602001916103e1565b820191906000526020600020905b8154815290600101906020018083116103c457829003601f168201915b505050505081565b60046020526000908152604090205460ff1681565b600160a060020a03811660009081526004602052604081205460ff161561048657604080517f08c379a000000000000000000000000000000000000000000000000000000000815260206004820152601960248201527f5573657220697320616c72656164792061206d656d6265722e00000000000000604482015290519081900360640190fd5b50600160a060020a03166000818152600460205260408120805460ff1916600190811790915560038054808301825592527fc2575a0e9e593c00f959f8c92f12db2869c3395a3b0502d05e2516446f71f85b909101805473ffffffffffffffffffffffffffffffffffffffff191690921790915590565b600054600160a060020a031681565b6060600380548060200260200160405190810160405280929190818152602001828054801561056457602002820191906000526020600020905b8154600160a060020a03168152600190910190602001808311610546575b5050505050905090565b600254600160a060020a0316815600a165627a7a7230582018322da6c5feddb8549732ef2adfb0038ce83abe4568218bf2938701d5c14fe3002960c0604052600960808190527f546f6b656e20302e31000000000000000000000000000000000000000000000060a0908152620000409160029190620001d6565b506040805160208101918290526000908190526200006191600391620001d6565b506040805160208101918290526000908190526200008291600491620001d6565b506005805460ff1916905560006006556040805180820190915260038082527f302e3300000000000000000000000000000000000000000000000000000000006020909201918252620000d891600991620001d6565b50600a805460ff19166001179055348015620000f357600080fd5b506040516200101138038062001011833981016040908152815160208301519183015160008054600160a060020a0319163317815591840180519094939093019290918491849184911180156200014b575060008251115b15156200015757600080fd5b82516200016c906003906020860190620001d6565b50815162000182906004906020850190620001d6565b506005805460ff90921660ff1990921691909117905550506040805130815290517ff4cd1f8571e8d9c97ffcb81558807ab73f9803d54de5da6a0420593c82a4a9f09181900360200190a15050506200027b565b828054600181600116156101000203166002900490600052602060002090601f016020900481019282601f106200021957805160ff191683800117855562000249565b8280016001018555821562000249579182015b82811115620002495782518255916020019190600101906200022c565b50620002579291506200025b565b5090565b6200027891905b8082111562000257576000815560010162000262565b90565b610d86806200028b6000396000f3006080604052600436106101115763ffffffff7c010000000000000000000000000000000000000000000000000000000060003504166306fdde038114610116578063095ea7b3146101a05780631608f18f146101d857806318160ddd146101f457806323b872dd1461021b578063313ce5671461024557806354fd4d50146102705780635a3b7e42146102855780635e35359e1461029a57806370a08231146102c457806379ba5097146102e5578063867904b4146102fa5780638da5cb5b1461031e57806395d89b411461034f578063a24835d114610364578063a9059cbb14610388578063bef97c87146103ac578063d4ee1d90146103c1578063dd62ed3e146103d6578063f2fde38b146103fd575b600080fd5b34801561012257600080fd5b5061012b61041e565b6040805160208082528351818301528351919283929083019185019080838360005b8381101561016557818101518382015260200161014d565b50505050905090810190601f1680156101925780820380516001836020036101000a031916815260200191505b509250505060405180910390f35b3480156101ac57600080fd5b506101c4600160a060020a03600435166024356104ac565b604080519115158252519081900360200190f35b3480156101e457600080fd5b506101f26004351515610565565b005b34801561020057600080fd5b5061020961058e565b60408051918252519081900360200190f35b34801561022757600080fd5b506101c4600160a060020a0360043581169060243516604435610594565b34801561025157600080fd5b5061025a6105c2565b6040805160ff9092168252519081900360200190f35b34801561027c57600080fd5b5061012b6105cb565b34801561029157600080fd5b5061012b610626565b3480156102a657600080fd5b506101f2600160a060020a036004358116906024351660443561067e565b3480156102d057600080fd5b50610209600160a060020a0360043516610774565b3480156102f157600080fd5b506101f2610786565b34801561030657600080fd5b506101f2600160a060020a036004351660243561080e565b34801561032a57600080fd5b50610333610917565b60408051600160a060020a039092168252519081900360200190f35b34801561035b57600080fd5b5061012b610926565b34801561037057600080fd5b506101f2600160a060020a0360043516602435610981565b34801561039457600080fd5b506101c4600160a060020a0360043516602435610a6a565b3480156103b857600080fd5b506101c4610a96565b3480156103cd57600080fd5b50610333610a9f565b3480156103e257600080fd5b50610209600160a060020a0360043581169060243516610aae565b34801561040957600080fd5b506101f2600160a060020a0360043516610acb565b6003805460408051602060026001851615610100026000190190941693909304601f810184900484028201840190925281815292918301828280156104a45780601f10610479576101008083540402835291602001916104a4565b820191906000526020600020905b81548152906001019060200180831161048757829003601f168201915b505050505081565b600082600160a060020a03811615156104c457600080fd5b8215806104f25750336000908152600860209081526040808320600160a060020a0388168452909152902054155b15156104fd57600080fd5b336000818152600860209081526040808320600160a060020a03891680855290835292819020879055805187815290519293927f8c5be1e5ebec7d5bd14f71427d1e84f3dd0314c0f7b2291e5b200ac8c7c3b925929181900390910190a35060019392505050565b600054600160a060020a0316331461057c57600080fd5b600a805460ff19169115919091179055565b60065481565b600a5460009060ff1615156105a557fe5b6105b0848484610b2c565b15156105b857fe5b5060019392505050565b60055460ff1681565b6009805460408051602060026001851615610100026000190190941693909304601f810184900484028201840190925281815292918301828280156104a45780601f10610479576101008083540402835291602001916104a4565b6002805460408051602060018416156101000260001901909316849004601f810184900484028201840190925281815292918301828280156104a45780601f10610479576101008083540402835291602001916104a4565b600054600160a060020a0316331461069557600080fd5b82600160a060020a03811615156106ab57600080fd5b82600160a060020a03811615156106c157600080fd5b83600160a060020a0381163014156106d857600080fd5b85600160a060020a031663a9059cbb86866040518363ffffffff167c01000000000000000000000000000000000000000000000000000000000281526004018083600160a060020a0316600160a060020a0316815260200182815260200192505050600060405180830381600087803b15801561075457600080fd5b505af1158015610768573d6000803e3d6000fd5b50505050505050505050565b60076020526000908152604090205481565b600154600160a060020a0316331461079d57600080fd5b60015460008054604051600160a060020a0393841693909116917f343765429aea5a34b3ff6a3785a98a5abb2597aca87bfbb58632c173d585373a91a3600180546000805473ffffffffffffffffffffffffffffffffffffffff19908116600160a060020a03841617909155169055565b600054600160a060020a0316331461082557600080fd5b81600160a060020a038116151561083b57600080fd5b82600160a060020a03811630141561085257600080fd5b600654610865908463ffffffff610c5516565b600655600160a060020a038416600090815260076020526040902054610891908463ffffffff610c5516565b600160a060020a03851660009081526007602090815260409182902092909255805185815290517f9386c90217c323f58030f9dadcbc938f807a940f4ff41cd4cead9562f5da7dc3929181900390910190a1604080518481529051600160a060020a038616913091600080516020610d3b8339815191529181900360200190a350505050565b600054600160a060020a031681565b6004805460408051602060026001851615610100026000190190941693909304601f810184900484028201840190925281815292918301828280156104a45780601f10610479576101008083540402835291602001916104a4565b33600160a060020a03831614806109a25750600054600160a060020a031633145b15156109ad57600080fd5b600160a060020a0382166000908152600760205260409020546109d6908263ffffffff610c6e16565b600160a060020a038316600090815260076020526040902055600654610a02908263ffffffff610c6e16565b6006556040805182815290513091600160a060020a03851691600080516020610d3b8339815191529181900360200190a36040805182815290517f9a1b418bc061a5d80270261562e6986a35d995f8051145f277be16103abd34539181900360200190a15050565b600a5460009060ff161515610a7b57fe5b610a858383610c83565b1515610a8d57fe5b50600192915050565b600a5460ff1681565b600154600160a060020a031681565b600860209081526000928352604080842090915290825290205481565b600054600160a060020a03163314610ae257600080fd5b600054600160a060020a0382811691161415610afd57600080fd5b6001805473ffffffffffffffffffffffffffffffffffffffff1916600160a060020a0392909216919091179055565b600083600160a060020a0381161515610b4457600080fd5b83600160a060020a0381161515610b5a57600080fd5b600160a060020a0386166000908152600860209081526040808320338452909152902054610b8e908563ffffffff610c6e16565b600160a060020a038716600081815260086020908152604080832033845282528083209490945591815260079091522054610bcf908563ffffffff610c6e16565b600160a060020a038088166000908152600760205260408082209390935590871681522054610c04908563ffffffff610c5516565b600160a060020a0380871660008181526007602090815260409182902094909455805188815290519193928a1692600080516020610d3b83398151915292918290030190a350600195945050505050565b600082820183811015610c6757600080fd5b9392505050565b600081831015610c7d57600080fd5b50900390565b600082600160a060020a0381161515610c9b57600080fd5b33600090815260076020526040902054610cbb908463ffffffff610c6e16565b3360009081526007602052604080822092909255600160a060020a03861681522054610ced908463ffffffff610c5516565b600160a060020a038516600081815260076020908152604091829020939093558051868152905191923392600080516020610d3b8339815191529281900390910190a350600193925050505600ddf252ad1be2c89b69c2b068fc378daa952ba7f163c4a11628f55a4df523b3efa165627a7a723058209f7d65c4d3346d6683e2d78b9e3bc7b212dd201e577f60a1e4382b44bc48d51d0029a165627a7a72305820eaf43d200fb272d1de42bb11395fd67068df2dad303ef99171385eb6017bbb170029",
  "source": "pragma solidity ^0.4.26;\n\nimport \"./Community.sol\";\nimport \"./bancor/token/SmartToken.sol\";\nimport \"./bancor/converter/BancorConverter.sol\";\n\ncontract Network {\n    Community[] private communities;\n    SmartToken public etherToken;\n    SmartToken public networkToken;\n    BancorConverter public converter;\n\n    /** @dev Network, Community, and Token addresses of a new community.\n     */\n    event CommunityCreated(\n        Network network,\n        Community community,\n        SmartToken token\n    );\n\n    /** @dev Return joined communities by user address.\n     */\n    mapping (address => Community[]) userCommunities;\n\n    constructor(\n        SmartToken _etherToken,\n        SmartToken _networkToken,\n        BancorConverter _converter\n    ) public {\n        etherToken = _etherToken;\n        networkToken = _networkToken;\n        converter = _converter;\n    }\n\n    /** @dev Create a new community and add to the network's communities.\n      *\n      * @param _name Name of the community to be created\n      * @param _tokenName Name of the community's token\n      * @param _tokenSymbol Symbol of the community's token\n      */\n    function createCommunity(\n        string _name,\n        string _tokenName,\n        string _tokenSymbol\n    ) public {\n        Community community = new Community(\n            msg.sender, // Owner\n            _name, // Community Name\n            _tokenName, // Token Name\n            _tokenSymbol // Token Symbol\n        );\n\n        communities.push(community);\n\n        emit CommunityCreated(\n            this,\n            community,\n            community.token()\n        );\n    }\n\n    function createConnector(\n        Community _community,\n        uint32 _reserveRatio,\n        uint256 _amountDeposited\n    ) public {\n        converter.addConnector(_community.token(), _reserveRatio, false);\n        networkToken.transferFrom(_community.owner(), converter, _amountDeposited);\n    }\n\n    /** @dev Get a list of the network's communities.\n     *\n     * @return An array of the network's communities' addresses.\n     */\n    function getCommunities() public view returns (Community[]) { return communities; }\n\n    /** @dev Add current user to community.\n     *\n     * @param _community Community to add current user to.\n     */\n    function joinCommunity(Community _community) public {\n        require(_community.join(msg.sender), \"Unable to add user to community.\");\n        userCommunities[msg.sender].push(_community);\n    }\n}\n",
  "sourcePath": "/Users/cryptotom/code/gitcoin/communiteths/contracts/Network.sol",
  "compiler": {
    "name": "solc",
    "version": "0.4.26+commit.4563c3fc.Emscripten.clang"
  },
  "schemaVersion": "3.0.11",
  "updatedAt": "2019-10-27T15:36:05.320Z",
  "devdoc": {
    "methods": {
      "createCommunity(string,string,string)": {
        "details": "Create a new community and add to the network's communities.",
        "params": {
          "_name": "Name of the community to be created",
          "_tokenName": "Name of the community's token",
          "_tokenSymbol": "Symbol of the community's token"
        }
      },
      "getCommunities()": {
        "details": "Get a list of the network's communities.",
        "return": "An array of the network's communities' addresses."
      },
      "joinCommunity(address)": {
        "details": "Add current user to community.",
        "params": {
          "_community": "Community to add current user to."
        }
      }
    }
  },
  "userdoc": {
    "methods": {}
  }
}