{
  "contractName": "NewBancorConverter",
  "abi": [
    {
      "inputs": [
        {
          "name": "_amount",
          "type": "uint256"
        },
        {
          "name": "_fee",
          "type": "uint256"
        }
      ],
      "payable": false,
      "stateMutability": "nonpayable",
      "type": "constructor"
    },
    {
      "constant": true,
      "inputs": [
        {
          "name": "_fromToken",
          "type": "address"
        },
        {
          "name": "_toToken",
          "type": "address"
        },
        {
          "name": "_amount",
          "type": "uint256"
        }
      ],
      "name": "getReturn",
      "outputs": [
        {
          "name": "",
          "type": "uint256"
        },
        {
          "name": "",
          "type": "uint256"
        }
      ],
      "payable": false,
      "stateMutability": "view",
      "type": "function"
    }
  ],
  "bytecode": "0x608060405234801561001057600080fd5b5060405160408061010a83398101604052805160209091015160009190915560015560ca806100406000396000f300608060405260043610603e5763ffffffff7c01000000000000000000000000000000000000000000000000000000006000350416631e1401f881146043575b600080fd5b348015604e57600080fd5b50607773ffffffffffffffffffffffffffffffffffffffff600435811690602435166044356090565b6040805192835260208301919091528051918290030190f35b6000546001549350939150505600a165627a7a72305820f91d9dea727015efac721353b019bb5077b321fa3b471248f2785c6aa87db3900029",
  "source": "pragma solidity ^0.4.24;\nimport '../BancorNetwork.sol';\n\ncontract OldBancorConverter {\n    uint256 private amount;\n\n    constructor(uint256 _amount) public {\n        amount = _amount;\n    }\n\n    function getReturn(IERC20Token _fromToken, IERC20Token _toToken, uint256 _amount) external view returns (uint256) {\n        _fromToken;\n        _toToken;\n        _amount;\n        return (amount);\n    }\n}\n\ncontract NewBancorConverter {\n    uint256 private amount;\n    uint256 private fee;\n\n    constructor(uint256 _amount, uint256 _fee) public {\n        amount = _amount;\n        fee = _fee;\n    }\n\n    function getReturn(IERC20Token _fromToken, IERC20Token _toToken, uint256 _amount) external view returns (uint256, uint256) {\n        _fromToken;\n        _toToken;\n        _amount;\n        return (amount, fee);\n    }\n}\n\ncontract TestBancorNetwork is BancorNetwork {\n    OldBancorConverter private oldBancorConverter;\n    NewBancorConverter private newBancorConverter;\n\n    constructor(uint256 _amount, uint256 _fee) public BancorNetwork(IContractRegistry(address(1))) {\n        oldBancorConverter = new OldBancorConverter(_amount);\n        newBancorConverter = new NewBancorConverter(_amount, _fee);\n    }\n\n    function getReturnOld() external view returns (uint256, uint256) {\n        return getReturn(address(oldBancorConverter), IERC20Token(0), IERC20Token(0), uint256(0));\n    }\n\n    function getReturnNew() external view returns (uint256, uint256) {\n        return getReturn(address(newBancorConverter), IERC20Token(0), IERC20Token(0), uint256(0));\n    }\n}\n",
  "sourcePath": "/Users/cryptotom/code/gitcoin/communiteths/contracts/bancor/helpers/TestBancorNetwork.sol",
  "compiler": {
    "name": "solc",
    "version": "0.4.26+commit.4563c3fc.Emscripten.clang"
  },
  "schemaVersion": "3.0.11",
  "updatedAt": "2019-10-30T08:52:19.094Z",
  "devdoc": {
    "methods": {}
  },
  "userdoc": {
    "methods": {}
  }
}