{
  "contractName": "SmartTokenController",
  "abi": [
    {
      "constant": true,
      "inputs": [],
      "name": "bancorX",
      "outputs": [
        {
          "name": "",
          "type": "address"
        }
      ],
      "payable": false,
      "stateMutability": "view",
      "type": "function"
    },
    {
      "constant": false,
      "inputs": [
        {
          "name": "_token",
          "type": "address"
        },
        {
          "name": "_to",
          "type": "address"
        },
        {
          "name": "_amount",
          "type": "uint256"
        }
      ],
      "name": "withdrawTokens",
      "outputs": [],
      "payable": false,
      "stateMutability": "nonpayable",
      "type": "function"
    },
    {
      "constant": false,
      "inputs": [],
      "name": "acceptOwnership",
      "outputs": [],
      "payable": false,
      "stateMutability": "nonpayable",
      "type": "function"
    },
    {
      "constant": true,
      "inputs": [],
      "name": "owner",
      "outputs": [
        {
          "name": "",
          "type": "address"
        }
      ],
      "payable": false,
      "stateMutability": "view",
      "type": "function"
    },
    {
      "constant": true,
      "inputs": [],
      "name": "newOwner",
      "outputs": [
        {
          "name": "",
          "type": "address"
        }
      ],
      "payable": false,
      "stateMutability": "view",
      "type": "function"
    },
    {
      "constant": false,
      "inputs": [
        {
          "name": "_newOwner",
          "type": "address"
        }
      ],
      "name": "transferOwnership",
      "outputs": [],
      "payable": false,
      "stateMutability": "nonpayable",
      "type": "function"
    },
    {
      "constant": true,
      "inputs": [],
      "name": "token",
      "outputs": [
        {
          "name": "",
          "type": "address"
        }
      ],
      "payable": false,
      "stateMutability": "view",
      "type": "function"
    },
    {
      "inputs": [
        {
          "name": "_token",
          "type": "address"
        }
      ],
      "payable": false,
      "stateMutability": "nonpayable",
      "type": "constructor"
    },
    {
      "anonymous": false,
      "inputs": [
        {
          "indexed": true,
          "name": "_prevOwner",
          "type": "address"
        },
        {
          "indexed": true,
          "name": "_newOwner",
          "type": "address"
        }
      ],
      "name": "OwnerUpdate",
      "type": "event"
    },
    {
      "constant": false,
      "inputs": [
        {
          "name": "_newOwner",
          "type": "address"
        }
      ],
      "name": "transferTokenOwnership",
      "outputs": [],
      "payable": false,
      "stateMutability": "nonpayable",
      "type": "function"
    },
    {
      "constant": false,
      "inputs": [],
      "name": "acceptTokenOwnership",
      "outputs": [],
      "payable": false,
      "stateMutability": "nonpayable",
      "type": "function"
    },
    {
      "constant": false,
      "inputs": [
        {
          "name": "_disable",
          "type": "bool"
        }
      ],
      "name": "disableTokenTransfers",
      "outputs": [],
      "payable": false,
      "stateMutability": "nonpayable",
      "type": "function"
    },
    {
      "constant": false,
      "inputs": [
        {
          "name": "_token",
          "type": "address"
        },
        {
          "name": "_to",
          "type": "address"
        },
        {
          "name": "_amount",
          "type": "uint256"
        }
      ],
      "name": "withdrawFromToken",
      "outputs": [],
      "payable": false,
      "stateMutability": "nonpayable",
      "type": "function"
    },
    {
      "constant": false,
      "inputs": [
        {
          "name": "_from",
          "type": "address"
        },
        {
          "name": "_amount",
          "type": "uint256"
        }
      ],
      "name": "claimTokens",
      "outputs": [],
      "payable": false,
      "stateMutability": "nonpayable",
      "type": "function"
    },
    {
      "constant": false,
      "inputs": [
        {
          "name": "_bancorX",
          "type": "address"
        }
      ],
      "name": "setBancorX",
      "outputs": [],
      "payable": false,
      "stateMutability": "nonpayable",
      "type": "function"
    }
  ],
  "bytecode": "0x608060405234801561001057600080fd5b50604051602080610899833981016040525160008054600160a060020a0319163317905580600160a060020a038116151561004a57600080fd5b5060028054600160a060020a031916600160a060020a039290921691909117905561081f8061007a6000396000f3006080604052600436106100ab5763ffffffff60e060020a6000350416631120a77681146100b057806321e6b53d146100e157806338a5e0161461010457806341a5b33d146101195780635e35359e1461014357806379ba50971461016d57806385d5e631146101825780638da5cb5b1461019c578063d4ee1d90146101b1578063d924f0c3146101c6578063f2fde38b146101e7578063fc0c546a14610208578063fe417fa51461021d575b600080fd5b3480156100bc57600080fd5b506100c5610241565b60408051600160a060020a039092168252519081900360200190f35b3480156100ed57600080fd5b50610102600160a060020a0360043516610250565b005b34801561011057600080fd5b506101026102e9565b34801561012557600080fd5b50610102600160a060020a036004358116906024351660443561036d565b34801561014f57600080fd5b50610102600160a060020a0360043581169060243516604435610417565b34801561017957600080fd5b506101026104f4565b34801561018e57600080fd5b50610102600435151561057c565b3480156101a857600080fd5b506100c56105fa565b3480156101bd57600080fd5b506100c5610609565b3480156101d257600080fd5b50610102600160a060020a0360043516610618565b3480156101f357600080fd5b50610102600160a060020a036004351661065e565b34801561021457600080fd5b506100c56106bf565b34801561022957600080fd5b50610102600160a060020a03600435166024356106ce565b600354600160a060020a031681565b600054600160a060020a0316331461026757600080fd5b600254604080517ff2fde38b000000000000000000000000000000000000000000000000000000008152600160a060020a0384811660048301529151919092169163f2fde38b91602480830192600092919082900301818387803b1580156102ce57600080fd5b505af11580156102e2573d6000803e3d6000fd5b5050505050565b600054600160a060020a0316331461030057600080fd5b600260009054906101000a9004600160a060020a0316600160a060020a03166379ba50976040518163ffffffff1660e060020a028152600401600060405180830381600087803b15801561035357600080fd5b505af1158015610367573d6000803e3d6000fd5b50505050565b600054600160a060020a0316331461038457600080fd5b600254604080517f5e35359e000000000000000000000000000000000000000000000000000000008152600160a060020a03868116600483015285811660248301526044820185905291519190921691635e35359e91606480830192600092919082900301818387803b1580156103fa57600080fd5b505af115801561040e573d6000803e3d6000fd5b50505050505050565b600054600160a060020a0316331461042e57600080fd5b82600160a060020a038116151561044457600080fd5b82600160a060020a038116151561045a57600080fd5b83600160a060020a03811630141561047157600080fd5b85600160a060020a031663a9059cbb86866040518363ffffffff1660e060020a0281526004018083600160a060020a0316600160a060020a0316815260200182815260200192505050600060405180830381600087803b1580156104d457600080fd5b505af11580156104e8573d6000803e3d6000fd5b50505050505050505050565b600154600160a060020a0316331461050b57600080fd5b60015460008054604051600160a060020a0393841693909116917f343765429aea5a34b3ff6a3785a98a5abb2597aca87bfbb58632c173d585373a91a3600180546000805473ffffffffffffffffffffffffffffffffffffffff19908116600160a060020a03841617909155169055565b600054600160a060020a0316331461059357600080fd5b600254604080517f1608f18f00000000000000000000000000000000000000000000000000000000815283151560048201529051600160a060020a0390921691631608f18f9160248082019260009290919082900301818387803b1580156102ce57600080fd5b600054600160a060020a031681565b600154600160a060020a031681565b600054600160a060020a0316331461062f57600080fd5b6003805473ffffffffffffffffffffffffffffffffffffffff1916600160a060020a0392909216919091179055565b600054600160a060020a0316331461067557600080fd5b600054600160a060020a038281169116141561069057600080fd5b6001805473ffffffffffffffffffffffffffffffffffffffff1916600160a060020a0392909216919091179055565b600254600160a060020a031681565b600354600160a060020a031633146106e557600080fd5b600254604080517fa24835d1000000000000000000000000000000000000000000000000000000008152600160a060020a038581166004830152602482018590529151919092169163a24835d191604480830192600092919082900301818387803b15801561075357600080fd5b505af1158015610767573d6000803e3d6000fd5b5050600254604080517f867904b4000000000000000000000000000000000000000000000000000000008152336004820152602481018690529051600160a060020a03909216935063867904b4925060448082019260009290919082900301818387803b1580156107d757600080fd5b505af11580156107eb573d6000803e3d6000fd5b5050505050505600a165627a7a7230582029f17a1def8b09ceadcb86216713bfd9e70a62ef9952107cc3f319c90ffb8f050029",
  "source": "pragma solidity ^0.4.24;\r\nimport './interfaces/ISmartTokenController.sol';\r\nimport './interfaces/ISmartToken.sol';\r\nimport '../utility/TokenHolder.sol';\r\n\r\n/**\r\n  * @dev The smart token controller is an upgradable part of the smart token that allows\r\n  * more functionality as well as fixes for bugs/exploits.\r\n  * Once it accepts ownership of the token, it becomes the token's sole controller\r\n  * that can execute any of its functions.\r\n  * \r\n  * To upgrade the controller, ownership must be transferred to a new controller, along with\r\n  * any relevant data.\r\n  * \r\n  * The smart token must be set on construction and cannot be changed afterwards.\r\n  * Wrappers are provided (as opposed to a single 'execute' function) for each of the token's functions, for easier access.\r\n  * \r\n  * Note that the controller can transfer token ownership to a new controller that\r\n  * doesn't allow executing any function on the token, for a trustless solution.\r\n  * Doing that will also remove the owner's ability to upgrade the controller.\r\n*/\r\ncontract SmartTokenController is ISmartTokenController, TokenHolder {\r\n    ISmartToken public token;   // Smart Token contract\r\n    address public bancorX;     // BancorX contract\r\n\r\n    /**\r\n      * @dev initializes a new SmartTokenController instance\r\n      * \r\n      * @param  _token      smart token governed by the controller\r\n    */\r\n    constructor(ISmartToken _token)\r\n        public\r\n        validAddress(_token)\r\n    {\r\n        token = _token;\r\n    }\r\n\r\n    // ensures that the controller is the token's owner\r\n    modifier active() {\r\n        require(token.owner() == address(this));\r\n        _;\r\n    }\r\n\r\n    // ensures that the controller is not the token's owner\r\n    modifier inactive() {\r\n        require(token.owner() != address(this));\r\n        _;\r\n    }\r\n\r\n    /**\r\n      * @dev allows transferring the token ownership\r\n      * the new owner needs to accept the transfer\r\n      * can only be called by the contract owner\r\n      * \r\n      * @param _newOwner    new token owner\r\n    */\r\n    function transferTokenOwnership(address _newOwner) public ownerOnly {\r\n        token.transferOwnership(_newOwner);\r\n    }\r\n\r\n    /**\r\n      * @dev used by a new owner to accept a token ownership transfer\r\n      * can only be called by the contract owner\r\n    */\r\n    function acceptTokenOwnership() public ownerOnly {\r\n        token.acceptOwnership();\r\n    }\r\n\r\n    /**\r\n      * @dev disables/enables token transfers\r\n      * can only be called by the contract owner\r\n      * \r\n      * @param _disable    true to disable transfers, false to enable them\r\n    */\r\n    function disableTokenTransfers(bool _disable) public ownerOnly {\r\n        token.disableTransfers(_disable);\r\n    }\r\n\r\n    /**\r\n      * @dev withdraws tokens held by the controller and sends them to an account\r\n      * can only be called by the owner\r\n      * \r\n      * @param _token   ERC20 token contract address\r\n      * @param _to      account to receive the new amount\r\n      * @param _amount  amount to withdraw\r\n    */\r\n    function withdrawFromToken(IERC20Token _token, address _to, uint256 _amount) public ownerOnly {\r\n        ITokenHolder(token).withdrawTokens(_token, _to, _amount);\r\n    }\r\n\r\n    /**\r\n      * @dev allows the associated BancorX contract to claim tokens from any address (so that users\r\n      * dont have to first give allowance when calling BancorX)\r\n      * \r\n      * @param _from      address to claim the tokens from\r\n      * @param _amount    the amount of tokens to claim\r\n     */\r\n    function claimTokens(address _from, uint256 _amount) public {\r\n        // only the associated BancorX contract may call this method\r\n        require(msg.sender == bancorX);\r\n\r\n        // destroy the tokens belonging to _from, and issue the same amount to bancorX\r\n        token.destroy(_from, _amount);\r\n        token.issue(msg.sender, _amount);\r\n    }\r\n\r\n    /**\r\n      * @dev allows the owner to set the associated BancorX contract\r\n      * @param _bancorX    BancorX contract\r\n     */\r\n    function setBancorX(address _bancorX) public ownerOnly {\r\n        bancorX = _bancorX;\r\n    }\r\n}\r\n",
  "sourcePath": "/Users/cryptotom/code/gitcoin/communiteths/contracts/bancor/token/SmartTokenController.sol",
  "compiler": {
    "name": "solc",
    "version": "0.4.26+commit.4563c3fc.Emscripten.clang"
  },
  "schemaVersion": "3.0.11",
  "updatedAt": "2019-09-14T02:07:59.192Z",
  "devdoc": {
    "methods": {
      "acceptOwnership()": {
        "details": "used by a new owner to accept an ownership transfer\r"
      },
      "acceptTokenOwnership()": {
        "details": "used by a new owner to accept a token ownership transfer\r can only be called by the contract owner\r"
      },
      "claimTokens(address,uint256)": {
        "details": "allows the associated BancorX contract to claim tokens from any address (so that users\r dont have to first give allowance when calling BancorX)\r \r",
        "params": {
          "_amount": "the amount of tokens to claim\r",
          "_from": "address to claim the tokens from\r"
        }
      },
      "disableTokenTransfers(bool)": {
        "details": "disables/enables token transfers\r can only be called by the contract owner\r \r",
        "params": {
          "_disable": "true to disable transfers, false to enable them\r"
        }
      },
      "setBancorX(address)": {
        "details": "allows the owner to set the associated BancorX contract\r",
        "params": {
          "_bancorX": "BancorX contract\r"
        }
      },
      "transferOwnership(address)": {
        "details": "allows transferring the contract ownership\r the new owner still needs to accept the transfer\r can only be called by the contract owner\r \r",
        "params": {
          "_newOwner": "new contract owner\r"
        }
      },
      "transferTokenOwnership(address)": {
        "details": "allows transferring the token ownership\r the new owner needs to accept the transfer\r can only be called by the contract owner\r \r",
        "params": {
          "_newOwner": "new token owner\r"
        }
      },
      "withdrawFromToken(address,address,uint256)": {
        "details": "withdraws tokens held by the controller and sends them to an account\r can only be called by the owner\r \r",
        "params": {
          "_amount": "amount to withdraw\r",
          "_to": "account to receive the new amount\r",
          "_token": "ERC20 token contract address\r"
        }
      },
      "withdrawTokens(address,address,uint256)": {
        "details": "withdraws tokens held by the contract and sends them to an account\r can only be called by the owner\r \r",
        "params": {
          "_amount": "amount to withdraw\r",
          "_to": "account to receive the new amount\r",
          "_token": "ERC20 token contract address\r"
        }
      }
    }
  },
  "userdoc": {
    "methods": {}
  }
}