{
  "contractName": "TestBancorNetwork",
  "abi": [
    {
      "constant": false,
      "inputs": [
        {
          "name": "_token",
          "type": "address"
        },
        {
          "name": "_register",
          "type": "bool"
        }
      ],
      "name": "registerEtherToken",
      "outputs": [],
      "payable": false,
      "stateMutability": "nonpayable",
      "type": "function"
    },
    {
      "constant": false,
      "inputs": [
        {
          "name": "_signerAddress",
          "type": "address"
        }
      ],
      "name": "setSignerAddress",
      "outputs": [],
      "payable": false,
      "stateMutability": "nonpayable",
      "type": "function"
    },
    {
      "constant": true,
      "inputs": [
        {
          "name": "_path",
          "type": "address[]"
        },
        {
          "name": "_amount",
          "type": "uint256"
        }
      ],
      "name": "getReturnByPath",
      "outputs": [
        {
          "name": "",
          "type": "uint256"
        },
        {
          "name": "",
          "type": "uint256"
        }
      ],
      "payable": false,
      "stateMutability": "view",
      "type": "function"
    },
    {
      "constant": true,
      "inputs": [],
      "name": "BANCOR_CONVERTER_UPGRADER",
      "outputs": [
        {
          "name": "",
          "type": "bytes32"
        }
      ],
      "payable": false,
      "stateMutability": "view",
      "type": "function"
    },
    {
      "constant": false,
      "inputs": [
        {
          "name": "_path",
          "type": "address[]"
        },
        {
          "name": "_amount",
          "type": "uint256"
        },
        {
          "name": "_minReturn",
          "type": "uint256"
        },
        {
          "name": "_for",
          "type": "address"
        },
        {
          "name": "_block",
          "type": "uint256"
        },
        {
          "name": "_nonce",
          "type": "uint256"
        },
        {
          "name": "_v",
          "type": "uint8"
        },
        {
          "name": "_r",
          "type": "bytes32"
        },
        {
          "name": "_s",
          "type": "bytes32"
        }
      ],
      "name": "convertForPrioritized",
      "outputs": [
        {
          "name": "",
          "type": "uint256"
        }
      ],
      "payable": true,
      "stateMutability": "payable",
      "type": "function"
    },
    {
      "constant": true,
      "inputs": [],
      "name": "BNT_TOKEN",
      "outputs": [
        {
          "name": "",
          "type": "bytes32"
        }
      ],
      "payable": false,
      "stateMutability": "view",
      "type": "function"
    },
    {
      "constant": true,
      "inputs": [],
      "name": "CONTRACT_REGISTRY",
      "outputs": [
        {
          "name": "",
          "type": "bytes32"
        }
      ],
      "payable": false,
      "stateMutability": "view",
      "type": "function"
    },
    {
      "constant": false,
      "inputs": [
        {
          "name": "_path",
          "type": "address[]"
        },
        {
          "name": "_amount",
          "type": "uint256"
        },
        {
          "name": "_minReturn",
          "type": "uint256"
        },
        {
          "name": "_for",
          "type": "address"
        },
        {
          "name": "_affiliateAccount",
          "type": "address"
        },
        {
          "name": "_affiliateFee",
          "type": "uint256"
        }
      ],
      "name": "claimAndConvertFor2",
      "outputs": [
        {
          "name": "",
          "type": "uint256"
        }
      ],
      "payable": false,
      "stateMutability": "nonpayable",
      "type": "function"
    },
    {
      "constant": false,
      "inputs": [
        {
          "name": "_path",
          "type": "address[]"
        },
        {
          "name": "_amount",
          "type": "uint256"
        },
        {
          "name": "_minReturn",
          "type": "uint256"
        },
        {
          "name": "_for",
          "type": "address"
        },
        {
          "name": "_signature",
          "type": "uint256[]"
        },
        {
          "name": "_affiliateAccount",
          "type": "address"
        },
        {
          "name": "_affiliateFee",
          "type": "uint256"
        }
      ],
      "name": "convertForPrioritized4",
      "outputs": [
        {
          "name": "",
          "type": "uint256"
        }
      ],
      "payable": true,
      "stateMutability": "payable",
      "type": "function"
    },
    {
      "constant": false,
      "inputs": [
        {
          "name": "_path",
          "type": "address[]"
        },
        {
          "name": "_amount",
          "type": "uint256"
        },
        {
          "name": "_minReturn",
          "type": "uint256"
        },
        {
          "name": "_affiliateAccount",
          "type": "address"
        },
        {
          "name": "_affiliateFee",
          "type": "uint256"
        }
      ],
      "name": "convert2",
      "outputs": [
        {
          "name": "",
          "type": "uint256"
        }
      ],
      "payable": true,
      "stateMutability": "payable",
      "type": "function"
    },
    {
      "constant": true,
      "inputs": [],
      "name": "BANCOR_CONVERTER_FACTORY",
      "outputs": [
        {
          "name": "",
          "type": "bytes32"
        }
      ],
      "payable": false,
      "stateMutability": "view",
      "type": "function"
    },
    {
      "constant": true,
      "inputs": [],
      "name": "signerAddress",
      "outputs": [
        {
          "name": "",
          "type": "address"
        }
      ],
      "payable": false,
      "stateMutability": "view",
      "type": "function"
    },
    {
      "constant": true,
      "inputs": [],
      "name": "maxAffiliateFee",
      "outputs": [
        {
          "name": "",
          "type": "uint256"
        }
      ],
      "payable": false,
      "stateMutability": "view",
      "type": "function"
    },
    {
      "constant": false,
      "inputs": [
        {
          "name": "_token",
          "type": "address"
        },
        {
          "name": "_to",
          "type": "address"
        },
        {
          "name": "_amount",
          "type": "uint256"
        }
      ],
      "name": "withdrawTokens",
      "outputs": [],
      "payable": false,
      "stateMutability": "nonpayable",
      "type": "function"
    },
    {
      "constant": true,
      "inputs": [],
      "name": "BNT_CONVERTER",
      "outputs": [
        {
          "name": "",
          "type": "bytes32"
        }
      ],
      "payable": false,
      "stateMutability": "view",
      "type": "function"
    },
    {
      "constant": false,
      "inputs": [
        {
          "name": "_path",
          "type": "address[]"
        },
        {
          "name": "_amount",
          "type": "uint256"
        },
        {
          "name": "_minReturn",
          "type": "uint256"
        },
        {
          "name": "_toBlockchain",
          "type": "bytes32"
        },
        {
          "name": "_to",
          "type": "bytes32"
        },
        {
          "name": "_conversionId",
          "type": "uint256"
        },
        {
          "name": "_block",
          "type": "uint256"
        },
        {
          "name": "_v",
          "type": "uint8"
        },
        {
          "name": "_r",
          "type": "bytes32"
        },
        {
          "name": "_s",
          "type": "bytes32"
        }
      ],
      "name": "xConvertPrioritized",
      "outputs": [
        {
          "name": "",
          "type": "uint256"
        }
      ],
      "payable": true,
      "stateMutability": "payable",
      "type": "function"
    },
    {
      "constant": false,
      "inputs": [
        {
          "name": "_path",
          "type": "address[]"
        },
        {
          "name": "_amount",
          "type": "uint256"
        },
        {
          "name": "_minReturn",
          "type": "uint256"
        },
        {
          "name": "_for",
          "type": "address"
        },
        {
          "name": "_block",
          "type": "uint256"
        },
        {
          "name": "_v",
          "type": "uint8"
        },
        {
          "name": "_r",
          "type": "bytes32"
        },
        {
          "name": "_s",
          "type": "bytes32"
        }
      ],
      "name": "convertForPrioritized2",
      "outputs": [
        {
          "name": "",
          "type": "uint256"
        }
      ],
      "payable": true,
      "stateMutability": "payable",
      "type": "function"
    },
    {
      "constant": true,
      "inputs": [],
      "name": "BANCOR_FORMULA",
      "outputs": [
        {
          "name": "",
          "type": "bytes32"
        }
      ],
      "payable": false,
      "stateMutability": "view",
      "type": "function"
    },
    {
      "constant": false,
      "inputs": [],
      "name": "acceptOwnership",
      "outputs": [],
      "payable": false,
      "stateMutability": "nonpayable",
      "type": "function"
    },
    {
      "constant": true,
      "inputs": [],
      "name": "registry",
      "outputs": [
        {
          "name": "",
          "type": "address"
        }
      ],
      "payable": false,
      "stateMutability": "view",
      "type": "function"
    },
    {
      "constant": true,
      "inputs": [
        {
          "name": "",
          "type": "address"
        }
      ],
      "name": "etherTokens",
      "outputs": [
        {
          "name": "",
          "type": "bool"
        }
      ],
      "payable": false,
      "stateMutability": "view",
      "type": "function"
    },
    {
      "constant": true,
      "inputs": [],
      "name": "CONTRACT_FEATURES",
      "outputs": [
        {
          "name": "",
          "type": "bytes32"
        }
      ],
      "payable": false,
      "stateMutability": "view",
      "type": "function"
    },
    {
      "constant": true,
      "inputs": [
        {
          "name": "",
          "type": "bytes32"
        }
      ],
      "name": "conversionHashes",
      "outputs": [
        {
          "name": "",
          "type": "bool"
        }
      ],
      "payable": false,
      "stateMutability": "view",
      "type": "function"
    },
    {
      "constant": true,
      "inputs": [],
      "name": "owner",
      "outputs": [
        {
          "name": "",
          "type": "address"
        }
      ],
      "payable": false,
      "stateMutability": "view",
      "type": "function"
    },
    {
      "constant": true,
      "inputs": [],
      "name": "BANCOR_NETWORK",
      "outputs": [
        {
          "name": "",
          "type": "bytes32"
        }
      ],
      "payable": false,
      "stateMutability": "view",
      "type": "function"
    },
    {
      "constant": true,
      "inputs": [],
      "name": "BANCOR_GAS_PRICE_LIMIT",
      "outputs": [
        {
          "name": "",
          "type": "bytes32"
        }
      ],
      "payable": false,
      "stateMutability": "view",
      "type": "function"
    },
    {
      "constant": true,
      "inputs": [],
      "name": "CONVERTER_CONVERSION_WHITELIST",
      "outputs": [
        {
          "name": "",
          "type": "uint256"
        }
      ],
      "payable": false,
      "stateMutability": "view",
      "type": "function"
    },
    {
      "constant": false,
      "inputs": [
        {
          "name": "_registry",
          "type": "address"
        }
      ],
      "name": "setRegistry",
      "outputs": [],
      "payable": false,
      "stateMutability": "nonpayable",
      "type": "function"
    },
    {
      "constant": false,
      "inputs": [
        {
          "name": "_path",
          "type": "address[]"
        },
        {
          "name": "_amount",
          "type": "uint256"
        },
        {
          "name": "_minReturn",
          "type": "uint256"
        },
        {
          "name": "_for",
          "type": "address"
        },
        {
          "name": "_affiliateAccount",
          "type": "address"
        },
        {
          "name": "_affiliateFee",
          "type": "uint256"
        }
      ],
      "name": "convertFor2",
      "outputs": [
        {
          "name": "",
          "type": "uint256"
        }
      ],
      "payable": true,
      "stateMutability": "payable",
      "type": "function"
    },
    {
      "constant": false,
      "inputs": [
        {
          "name": "_path",
          "type": "address[]"
        },
        {
          "name": "_amount",
          "type": "uint256"
        },
        {
          "name": "_minReturn",
          "type": "uint256"
        },
        {
          "name": "_for",
          "type": "address"
        }
      ],
      "name": "claimAndConvertFor",
      "outputs": [
        {
          "name": "",
          "type": "uint256"
        }
      ],
      "payable": false,
      "stateMutability": "nonpayable",
      "type": "function"
    },
    {
      "constant": false,
      "inputs": [
        {
          "name": "_path",
          "type": "address[]"
        },
        {
          "name": "_amount",
          "type": "uint256"
        },
        {
          "name": "_minReturn",
          "type": "uint256"
        },
        {
          "name": "_for",
          "type": "address"
        },
        {
          "name": "_customVal",
          "type": "uint256"
        },
        {
          "name": "_block",
          "type": "uint256"
        },
        {
          "name": "_v",
          "type": "uint8"
        },
        {
          "name": "_r",
          "type": "bytes32"
        },
        {
          "name": "_s",
          "type": "bytes32"
        }
      ],
      "name": "convertForPrioritized3",
      "outputs": [
        {
          "name": "",
          "type": "uint256"
        }
      ],
      "payable": true,
      "stateMutability": "payable",
      "type": "function"
    },
    {
      "constant": true,
      "inputs": [],
      "name": "BANCOR_X",
      "outputs": [
        {
          "name": "",
          "type": "bytes32"
        }
      ],
      "payable": false,
      "stateMutability": "view",
      "type": "function"
    },
    {
      "constant": false,
      "inputs": [
        {
          "name": "_path",
          "type": "address[]"
        },
        {
          "name": "_amount",
          "type": "uint256"
        },
        {
          "name": "_minReturn",
          "type": "uint256"
        },
        {
          "name": "_toBlockchain",
          "type": "bytes32"
        },
        {
          "name": "_to",
          "type": "bytes32"
        },
        {
          "name": "_conversionId",
          "type": "uint256"
        }
      ],
      "name": "xConvert",
      "outputs": [
        {
          "name": "",
          "type": "uint256"
        }
      ],
      "payable": true,
      "stateMutability": "payable",
      "type": "function"
    },
    {
      "constant": false,
      "inputs": [
        {
          "name": "_path",
          "type": "address[]"
        },
        {
          "name": "_amount",
          "type": "uint256"
        },
        {
          "name": "_minReturn",
          "type": "uint256"
        }
      ],
      "name": "claimAndConvert",
      "outputs": [
        {
          "name": "",
          "type": "uint256"
        }
      ],
      "payable": false,
      "stateMutability": "nonpayable",
      "type": "function"
    },
    {
      "constant": false,
      "inputs": [
        {
          "name": "_path",
          "type": "address[]"
        },
        {
          "name": "_amount",
          "type": "uint256"
        },
        {
          "name": "_minReturn",
          "type": "uint256"
        },
        {
          "name": "_for",
          "type": "address"
        }
      ],
      "name": "convertFor",
      "outputs": [
        {
          "name": "",
          "type": "uint256"
        }
      ],
      "payable": true,
      "stateMutability": "payable",
      "type": "function"
    },
    {
      "constant": true,
      "inputs": [],
      "name": "BANCOR_X_UPGRADER",
      "outputs": [
        {
          "name": "",
          "type": "bytes32"
        }
      ],
      "payable": false,
      "stateMutability": "view",
      "type": "function"
    },
    {
      "constant": false,
      "inputs": [
        {
          "name": "_path",
          "type": "address[]"
        },
        {
          "name": "_amount",
          "type": "uint256"
        },
        {
          "name": "_minReturn",
          "type": "uint256"
        },
        {
          "name": "_toBlockchain",
          "type": "bytes32"
        },
        {
          "name": "_to",
          "type": "bytes32"
        },
        {
          "name": "_conversionId",
          "type": "uint256"
        },
        {
          "name": "_signature",
          "type": "uint256[]"
        }
      ],
      "name": "xConvertPrioritized2",
      "outputs": [
        {
          "name": "",
          "type": "uint256"
        }
      ],
      "payable": true,
      "stateMutability": "payable",
      "type": "function"
    },
    {
      "constant": true,
      "inputs": [],
      "name": "newOwner",
      "outputs": [
        {
          "name": "",
          "type": "address"
        }
      ],
      "payable": false,
      "stateMutability": "view",
      "type": "function"
    },
    {
      "constant": false,
      "inputs": [
        {
          "name": "_path",
          "type": "address[]"
        },
        {
          "name": "_amount",
          "type": "uint256"
        },
        {
          "name": "_minReturn",
          "type": "uint256"
        },
        {
          "name": "_affiliateAccount",
          "type": "address"
        },
        {
          "name": "_affiliateFee",
          "type": "uint256"
        }
      ],
      "name": "claimAndConvert2",
      "outputs": [
        {
          "name": "",
          "type": "uint256"
        }
      ],
      "payable": false,
      "stateMutability": "nonpayable",
      "type": "function"
    },
    {
      "constant": false,
      "inputs": [
        {
          "name": "_newOwner",
          "type": "address"
        }
      ],
      "name": "transferOwnership",
      "outputs": [],
      "payable": false,
      "stateMutability": "nonpayable",
      "type": "function"
    },
    {
      "constant": false,
      "inputs": [
        {
          "name": "_path",
          "type": "address[]"
        },
        {
          "name": "_amount",
          "type": "uint256"
        },
        {
          "name": "_minReturn",
          "type": "uint256"
        }
      ],
      "name": "convert",
      "outputs": [
        {
          "name": "",
          "type": "uint256"
        }
      ],
      "payable": true,
      "stateMutability": "payable",
      "type": "function"
    },
    {
      "constant": false,
      "inputs": [
        {
          "name": "_maxAffiliateFee",
          "type": "uint256"
        }
      ],
      "name": "setMaxAffiliateFee",
      "outputs": [],
      "payable": false,
      "stateMutability": "nonpayable",
      "type": "function"
    },
    {
      "constant": true,
      "inputs": [],
      "name": "NON_STANDARD_TOKEN_REGISTRY",
      "outputs": [
        {
          "name": "",
          "type": "bytes32"
        }
      ],
      "payable": false,
      "stateMutability": "view",
      "type": "function"
    },
    {
      "inputs": [
        {
          "name": "_amount",
          "type": "uint256"
        },
        {
          "name": "_fee",
          "type": "uint256"
        }
      ],
      "payable": false,
      "stateMutability": "nonpayable",
      "type": "constructor"
    },
    {
      "anonymous": false,
      "inputs": [
        {
          "indexed": true,
          "name": "_prevOwner",
          "type": "address"
        },
        {
          "indexed": true,
          "name": "_newOwner",
          "type": "address"
        }
      ],
      "name": "OwnerUpdate",
      "type": "event"
    },
    {
      "constant": true,
      "inputs": [],
      "name": "getReturnOld",
      "outputs": [
        {
          "name": "",
          "type": "uint256"
        },
        {
          "name": "",
          "type": "uint256"
        }
      ],
      "payable": false,
      "stateMutability": "view",
      "type": "function"
    },
    {
      "constant": true,
      "inputs": [],
      "name": "getReturnNew",
      "outputs": [
        {
          "name": "",
          "type": "uint256"
        },
        {
          "name": "",
          "type": "uint256"
        }
      ],
      "payable": false,
      "stateMutability": "view",
      "type": "function"
    }
  ],
  "bytecode": "0x608060405261753060025560038054600160a060020a03191690553480156200002757600080fd5b5060405160408062003b9a8339810160405280516020909101516000805433600160a060020a031991821617909155600480549091166001179055816200006d62000110565b90815260405190819003602001906000f08015801562000091573d6000803e3d6000fd5b5060078054600160a060020a031916600160a060020a03929092169190911790558181620000be62000120565b9182526020820152604080519182900301906000f080158015620000e6573d6000803e3d6000fd5b5060088054600160a060020a031916600160a060020a039290921691909117905550620001319050565b60405160f2806200399e83390190565b60405161010a8062003a9083390190565b61385d80620001416000396000f30060806040526004361061020b5763ffffffff60e060020a60003504166302ef521e8114610210578063046dc166146102385780630c8496cc146102595780630c87355e146102c95780631134269a146102f05780631d000b611461036d57806325f9bfef146103825780632978c10e146103975780634de006cb1461040e578063569706eb146104ba5780635a46f06c1461051d5780635b7633d0146105325780635d732ff2146105635780635e35359e1461057857806362614ae6146105a25780636896b999146105b7578063699e7546146106325780636b08f2ef146106475780636d7bd3fc146106be57806379ba5097146106d35780637b103999146106e85780638077ccf7146106fd57806383315b6e1461073257806389e63a60146107475780638da5cb5b1461075f5780639232494e146107745780639249993a1461078957806392d1abb71461079e57806398e95740146107b3578063a91ee0dc146107c8578063ab6214ce146107e9578063b1e9932b14610853578063b406d386146108be578063c4a8598e1461093b578063c52173de14610950578063c7ba24bc146109af578063c98fefed14610a0d578063cc97b38f14610a6b578063ce20096314610a80578063d4ee1d9014610b1d578063e57738e514610b32578063f2fde38b14610ba2578063f3898a9714610bc3578063f3bc7d2a14610c14578063f5286b9c14610c2c575b600080fd5b34801561021c57600080fd5b50610236600160a060020a03600435166024351515610c41565b005b34801561024457600080fd5b50610236600160a060020a0360043516610cb2565b34801561026557600080fd5b50604080516020600480358082013583810280860185019096528085526102b0953695939460249493850192918291850190849080828437509497505093359450610d279350505050565b6040805192835260208301919091528051918290030190f35b3480156102d557600080fd5b506102de6114f2565b60408051918252519081900360200190f35b604080516020600480358082013583810280860185019096528085526102de9536959394602494938501929182918501908490808284375094975050843595505050602083013592600160a060020a0360408201351692506060810135915060808101359060ff60a0820135169060c08101359060e00135611516565b34801561037957600080fd5b506102de611542565b34801561038e57600080fd5b506102de611566565b3480156103a357600080fd5b50604080516020600480358082013583810280860185019096528085526102de9536959394602494938501929182918501908490808284375094975050843595505050602083013592600160a060020a0360408201358116935060608201351691506080013561158a565b604080516020600480358082013583810280860185019096528085526102de953695939460249493850192918291850190849080828437505060408051602060608901358a01803582810280850184018652818552999c8b359c848d01359c96870135600160a060020a03169b919a5098506080909501965092945081019282918501908490808284375094975050508335600160a060020a03169450505060209091013590506115ce565b604080516020600480358082013583810280860185019096528085526102de9536959394602494938501929182918501908490808284375094975050843595505050602083013592600160a060020a0360408201351692506060013590506116ec565b34801561052957600080fd5b506102de611706565b34801561053e57600080fd5b5061054761172a565b60408051600160a060020a039092168252519081900360200190f35b34801561056f57600080fd5b506102de611739565b34801561058457600080fd5b50610236600160a060020a036004358116906024351660443561173f565b3480156105ae57600080fd5b506102de61181c565b604080516020600480358082013583810280860185019096528085526102de9536959394602494938501929182918501908490808284375094975050843595505050602083013592604081013592506060810135915060808101359060a08101359060ff60c0820135169060e0810135906101000135611840565b34801561063e57600080fd5b506102b0611872565b604080516020600480358082013583810280860185019096528085526102de9536959394602494938501929182918501908490808284375094975050843595505050602083013592600160a060020a0360408201351692506060810135915060ff6080820135169060a08101359060c00135611897565b3480156106ca57600080fd5b506102de6118ba565b3480156106df57600080fd5b506102366118de565b3480156106f457600080fd5b50610547611966565b34801561070957600080fd5b5061071e600160a060020a0360043516611975565b604080519115158252519081900360200190f35b34801561073e57600080fd5b506102de61198a565b34801561075357600080fd5b5061071e6004356119ae565b34801561076b57600080fd5b506105476119c3565b34801561078057600080fd5b506102de6119d2565b34801561079557600080fd5b506102de6119f6565b3480156107aa57600080fd5b506102de611a1a565b3480156107bf57600080fd5b506102b0611a1f565b3480156107d457600080fd5b50610236600160a060020a0360043516611a3c565b604080516020600480358082013583810280860185019096528085526102de9536959394602494938501929182918501908490808284375094975050843595505050602083013592600160a060020a03604082013581169350606082013516915060800135611ab1565b34801561085f57600080fd5b50604080516020600480358082013583810280860185019096528085526102de953695939460249493850192918291850190849080828437509497505084359550505060208301359260400135600160a060020a03169150611ad99050565b604080516020600480358082013583810280860185019096528085526102de9536959394602494938501929182918501908490808284375094975050843595505050602083013592600160a060020a0360408201351692506060810135915060808101359060ff60a0820135169060c08101359060e00135611af3565b34801561094757600080fd5b506102de611b09565b604080516020600480358082013583810280860185019096528085526102de9536959394602494938501929182918501908490808284375094975050843595505050602083013592604081013592506060810135915060800135611b2d565b3480156109bb57600080fd5b50604080516020600480358082013583810280860185019096528085526102de95369593946024949385019291829185019084908082843750949750508435955050506020909201359150611b4a9050565b604080516020600480358082013583810280860185019096528085526102de953695939460249493850192918291850190849080828437509497505084359550505060208301359260400135600160a060020a03169150611b629050565b348015610a7757600080fd5b506102de611b73565b604080516020600480358082013583810280860185019096528085526102de95369593946024949385019291829185019084908082843750506040805160a088013589018035602081810284810182018652828552999c8b359c828d01359c968701359b60608801359b5060808801359a50919850965060c09095019492810192829185019084908082843750949750611b979650505050505050565b348015610b2957600080fd5b50610547611e1e565b348015610b3e57600080fd5b50604080516020600480358082013583810280860185019096528085526102de9536959394602494938501929182918501908490808284375094975050843595505050602083013592600160a060020a036040820135169250606001359050611e2d565b348015610bae57600080fd5b50610236600160a060020a0360043516611e3d565b604080516020600480358082013583810280860185019096528085526102de95369593946024949385019291829185019084908082843750949750508435955050506020909201359150611e9e9050565b348015610c2057600080fd5b50610236600435611eae565b348015610c3857600080fd5b506102de611eda565b600054600160a060020a03163314610c5857600080fd5b81600160a060020a0381161515610c6e57600080fd5b82600160a060020a038116301415610c8557600080fd5b5050600160a060020a03919091166000908152600560205260409020805460ff1916911515919091179055565b600054600160a060020a03163314610cc957600080fd5b80600160a060020a0381161515610cdf57600080fd5b81600160a060020a038116301415610cf657600080fd5b50506003805473ffffffffffffffffffffffffffffffffffffffff1916600160a060020a0392909216919091179055565b600080600080600080600080600080600080600080600460009054906101000a9004600160a060020a0316600160a060020a03166321f8a7217f42616e636f72466f726d756c61000000000000000000000000000000000000006040518263ffffffff1660e060020a028152600401808260001916600019168152602001915050602060405180830381600087803b158015610dc257600080fd5b505af1158015610dd6573d6000803e3d6000fd5b505050506040513d6020811015610dec57600080fd5b810190808051906020019092919050505091508e97508f6000815181101515610e1157fe5b906020019060200201519b50600190505b8f518110156114dc578f81815181101515610e3957fe5b906020019060200201519a508f81600101815181101515610e5657fe5b9060200190602002015199508a600160a060020a0316638da5cb5b6040518163ffffffff1660e060020a028152600401602060405180830381600087803b158015610ea057600080fd5b505af1158015610eb4573d6000803e3d6000fd5b505050506040513d6020811015610eca57600080fd5b50519850600160a060020a038a8116908c1614156111f05782600160a060020a03168b600160a060020a031614610f6a578a600160a060020a03166318160ddd6040518163ffffffff1660e060020a028152600401602060405180830381600087803b158015610f3957600080fd5b505af1158015610f4d573d6000803e3d6000fd5b505050506040513d6020811015610f6357600080fd5b5051610f6c565b855b9550610f78898d611efe565b1515610f8357600080fd5b88600160a060020a031663d89595128d6040518263ffffffff1660e060020a0281526004018082600160a060020a0316600160a060020a03168152602001915050602060405180830381600087803b158015610fde57600080fd5b505af1158015610ff2573d6000803e3d6000fd5b505050506040513d602081101561100857600080fd5b50519450611016898d611f9d565b604080517f29a00e7c000000000000000000000000000000000000000000000000000000008152600481018990526024810188905263ffffffff83166044820152606481018b90529051919550600160a060020a038416916329a00e7c916084808201926020929091908290030181600087803b15801561109657600080fd5b505af11580156110aa573d6000803e3d6000fd5b505050506040513d60208110156110c057600080fd5b5051604080517f579cd3ca000000000000000000000000000000000000000000000000000000008152905191995061117691620f42409161116a91600160a060020a038e169163579cd3ca9160048083019260209291908290030181600087803b15801561112d57600080fd5b505af1158015611141573d6000803e3d6000fd5b505050506040513d602081101561115757600080fd5b50518b9063ffffffff9081169061203c16565b9063ffffffff61207516565b96508688039750878b600160a060020a03166318160ddd6040518163ffffffff1660e060020a028152600401602060405180830381600087803b1580156111bc57600080fd5b505af11580156111d0573d6000803e3d6000fd5b505050506040513d60208110156111e657600080fd5b50510195506114cc565b8a600160a060020a03168c600160a060020a031614156114ba5782600160a060020a03168b600160a060020a031614611292578a600160a060020a03166318160ddd6040518163ffffffff1660e060020a028152600401602060405180830381600087803b15801561126157600080fd5b505af1158015611275573d6000803e3d6000fd5b505050506040513d602081101561128b57600080fd5b5051611294565b855b955088600160a060020a031663d89595128b6040518263ffffffff1660e060020a0281526004018082600160a060020a0316600160a060020a03168152602001915050602060405180830381600087803b1580156112f157600080fd5b505af1158015611305573d6000803e3d6000fd5b505050506040513d602081101561131b57600080fd5b50519450611329898b611f9d565b604080517f49f9b0f7000000000000000000000000000000000000000000000000000000008152600481018990526024810188905263ffffffff83166044820152606481018b90529051919550600160a060020a038416916349f9b0f7916084808201926020929091908290030181600087803b1580156113a957600080fd5b505af11580156113bd573d6000803e3d6000fd5b505050506040513d60208110156113d357600080fd5b5051604080517f579cd3ca000000000000000000000000000000000000000000000000000000008152905191995061144091620f42409161116a91600160a060020a038e169163579cd3ca9160048083019260209291908290030181600087803b15801561112d57600080fd5b96508688039750878b600160a060020a03166318160ddd6040518163ffffffff1660e060020a028152600401602060405180830381600087803b15801561148657600080fd5b505af115801561149a573d6000803e3d6000fd5b505050506040513d60208110156114b057600080fd5b50510395506114cc565b6114c6898d8c8b612098565b90985096505b989a508a988a9250600201610e22565b50959e949d50939b505050505050505050505050565b7f42616e636f72436f6e766572746572557067726164657200000000000000000081565b60006115348a8a8a8a61152c8e8c8b8b8b6121b6565b6000806115ce565b9a9950505050505050505050565b7f424e54546f6b656e00000000000000000000000000000000000000000000000081565b7f436f6e747261637452656769737472790000000000000000000000000000000081565b60008087600081518110151561159c57fe5b9060200190602002015190506115b48133308a6122a5565b6115c2888888888888611ab1565b98975050505050505050565b60008060006115df8a88898961263e565b6116038a60008151811015156115f157fe5b906020019060200201518a6000612a9c565b6116108a8a8a8888612b4a565b91508960018b510381518110151561162457fe5b6020908102909101810151600160a060020a0381166000908152600590925260409091205490915060ff16156116d45780600160a060020a031663205c287888846040518363ffffffff1660e060020a0281526004018083600160a060020a0316600160a060020a0316815260200182815260200192505050600060405180830381600087803b1580156116b757600080fd5b505af11580156116cb573d6000803e3d6000fd5b505050506116df565b6116df818884612f55565b5098975050505050505050565b60006116fc868686338787611ab1565b9695505050505050565b7f42616e636f72436f6e766572746572466163746f72790000000000000000000081565b600354600160a060020a031681565b60025481565b600054600160a060020a0316331461175657600080fd5b82600160a060020a038116151561176c57600080fd5b82600160a060020a038116151561178257600080fd5b83600160a060020a03811630141561179957600080fd5b85600160a060020a031663a9059cbb86866040518363ffffffff1660e060020a0281526004018083600160a060020a0316600160a060020a0316815260200182815260200192505050600060405180830381600087803b1580156117fc57600080fd5b505af1158015611810573d6000803e3d6000fd5b50505050505050505050565b7f424e54436f6e766572746572000000000000000000000000000000000000000081565b600060606118518b878787876121b6565b90506118628c8c8c8c8c8c87611b97565b9c9b505050505050505050505050565b600854600090819061188f90600160a060020a0316828080612098565b915091509091565b60006118ad8989898961152c8d8b8b8b8b6121b6565b9998505050505050505050565b7f42616e636f72466f726d756c610000000000000000000000000000000000000081565b600154600160a060020a031633146118f557600080fd5b60015460008054604051600160a060020a0393841693909116917f343765429aea5a34b3ff6a3785a98a5abb2597aca87bfbb58632c173d585373a91a3600180546000805473ffffffffffffffffffffffffffffffffffffffff19908116600160a060020a03841617909155169055565b600454600160a060020a031681565b60056020526000908152604090205460ff1681565b7f436f6e747261637446656174757265730000000000000000000000000000000081565b60066020526000908152604090205460ff1681565b600054600160a060020a031681565b7f42616e636f724e6574776f726b0000000000000000000000000000000000000081565b7f42616e636f7247617350726963654c696d69740000000000000000000000000081565b600181565b600754600090819061188f90600160a060020a0316828080612098565b600054600160a060020a03163314611a5357600080fd5b80600160a060020a0381161515611a6957600080fd5b81600160a060020a038116301415611a8057600080fd5b50506004805473ffffffffffffffffffffffffffffffffffffffff1916600160a060020a0392909216919091179055565b6000611ace87878787611ac786808080806121b6565b88886115ce565b979650505050505050565b6000611aea8585858560008061158a565b95945050505050565b60006115348a8a8a8a61152c8b8b8b8b8b6121b6565b7f42616e636f72580000000000000000000000000000000000000000000000000081565b6000611ace878787878787611b4588808080806121b6565b611b97565b6000611b5a848484600080611e2d565b949350505050565b6000611aea85858585600080611ab1565b7f42616e636f72585570677261646572000000000000000000000000000000000081565b600080825160001480611bc1575087836000815181101515611bb557fe5b90602001906020020151145b1515611bcc57600080fd5b611bd88933308661263e565b600480546040805160e260020a632ecd14d30281527f424e54546f6b656e0000000000000000000000000000000000000000000000009381019390935251600160a060020a039091169163bb34534c9160248083019260209291908290030181600087803b158015611c4957600080fd5b505af1158015611c5d573d6000803e3d6000fd5b505050506040513d6020811015611c7357600080fd5b50518951600160a060020a03909116908a906000198101908110611c9357fe5b60209081029091010151600160a060020a031614611cb057600080fd5b611cd4896000815181101515611cc257fe5b90602001906020020151896001612a9c565b611ce2898989600080612b4a565b600480546040805160e260020a632ecd14d30281527f42616e636f7258000000000000000000000000000000000000000000000000009381019390935251929350600160a060020a03169163bb34534c916024808201926020929091908290030181600087803b158015611d5557600080fd5b505af1158015611d69573d6000803e3d6000fd5b505050506040513d6020811015611d7f57600080fd5b5051604080517f427c0374000000000000000000000000000000000000000000000000000000008152600481018990526024810188905260448101849052606481018790529051600160a060020a039092169163427c03749160848082019260009290919082900301818387803b158015611df957600080fd5b505af1158015611e0d573d6000803e3d6000fd5b50929b9a5050505050505050505050565b600154600160a060020a031681565b60006116fc86868633878761158a565b600054600160a060020a03163314611e5457600080fd5b600054600160a060020a0382811691161415611e6f57600080fd5b6001805473ffffffffffffffffffffffffffffffffffffffff1916600160a060020a0392909216919091179055565b6000611b5a8484846000806116ec565b600054600160a060020a03163314611ec557600080fd5b620f4240811115611ed557600080fd5b600255565b7f4e6f6e5374616e64617264546f6b656e5265676973747279000000000000000081565b60008060008060008087600160a060020a0316630e53aae9886040518263ffffffff1660e060020a0281526004018082600160a060020a0316600160a060020a0316815260200191505060a060405180830381600087803b158015611f6257600080fd5b505af1158015611f76573d6000803e3d6000fd5b505050506040513d60a0811015611f8c57600080fd5b506060015198975050505050505050565b60008060008060008087600160a060020a0316630e53aae9886040518263ffffffff1660e060020a0281526004018082600160a060020a0316600160a060020a0316815260200191505060a060405180830381600087803b15801561200157600080fd5b505af1158015612015573d6000803e3d6000fd5b505050506040513d60a081101561202b57600080fd5b506020015198975050505050505050565b60008083151561204f576000915061206e565b5082820282848281151561205f57fe5b041461206a57600080fd5b8091505b5092915050565b60008080831161208457600080fd5b828481151561208f57fe5b04949350505050565b6000806120a3613816565b604080517f67657452657475726e28616464726573732c616464726573732c75696e74323581527f36290000000000000000000000000000000000000000000000000000000000006020808301919091528251918290036022018220600160a060020a03808b166024850152891660448401526064808401899052845180850390910181526084909301845290820180517bffffffffffffffffffffffffffffffffffffffffffffffffffffffff167fffffffff0000000000000000000000000000000000000000000000000000000060e060020a9384900490930292909216919091178152815191929184918b5afa80151561219f57600080fd5b505080516020909101519097909650945050505050565b60608060ff85161580156121c8575083155b80156121d2575082155b156121ed57604080516000815260208101909152915061229b565b60408051600580825260c08201909252906020820160a0803883390190505090508681600081518110151561221e57fe5b60209081029091010152805186908290600190811061223957fe5b60209081029091010152805160ff8616908290600290811061225757fe5b60209081029091010152805184908290600390811061227257fe5b60209081029091010152805183908290600490811061228d57fe5b602090810290910101529050805b5095945050505050565b600480546040805160e260020a632ecd14d30281527f4e6f6e5374616e64617264546f6b656e52656769737472790000000000000000938101939093525160009283928392600160a060020a039091169163bb34534c91602480830192602092919082900301818787803b15801561231c57600080fd5b505af1158015612330573d6000803e3d6000fd5b505050506040513d602081101561234657600080fd5b5051604080517faeea10bd000000000000000000000000000000000000000000000000000000008152600160a060020a038a8116600483015291519295509085169163aeea10bd916024808201926020929091908290030181600087803b1580156123b057600080fd5b505af11580156123c4573d6000803e3d6000fd5b505050506040513d60208110156123da57600080fd5b50511561258d5786600160a060020a03166370a08231866040518263ffffffff1660e060020a0281526004018082600160a060020a0316600160a060020a03168152602001915050602060405180830381600087803b15801561243c57600080fd5b505af1158015612450573d6000803e3d6000fd5b505050506040513d602081101561246657600080fd5b5051604080517f23b872dd000000000000000000000000000000000000000000000000000000008152600160a060020a0389811660048301528881166024830152604482018890529151929450908916916323b872dd9160648082019260009290919082900301818387803b1580156124de57600080fd5b505af11580156124f2573d6000803e3d6000fd5b5050505086600160a060020a03166370a08231866040518263ffffffff1660e060020a0281526004018082600160a060020a0316600160a060020a03168152602001915050602060405180830381600087803b15801561255157600080fd5b505af1158015612565573d6000803e3d6000fd5b505050506040513d602081101561257b57600080fd5b5051905081811161258857fe5b612635565b604080517f23b872dd000000000000000000000000000000000000000000000000000000008152600160a060020a0388811660048301528781166024830152604482018790529151918916916323b872dd916064808201926020929091908290030181600087803b15801561260157600080fd5b505af1158015612615573d6000803e3d6000fd5b505050506040513d602081101561262b57600080fd5b5051151561263557fe5b50505050505050565b60008060008060006002895111801561265957506015895111155b801561266a57508851600290066001145b151561267557600080fd5b600480546040805160e260020a632ecd14d30281527f436f6e74726163744665617475726573000000000000000000000000000000009381019390935251600160a060020a039091169163bb34534c9160248083019260209291908290030181600087803b1580156126e657600080fd5b505af11580156126fa573d6000803e3d6000fd5b505050506040513d602081101561271057600080fd5b50519450600193505b885184101561295e57888481518110151561273057fe5b90602001906020020151600160a060020a0316638da5cb5b6040518163ffffffff1660e060020a028152600401602060405180830381600087803b15801561277757600080fd5b505af115801561278b573d6000803e3d6000fd5b505050506040513d60208110156127a157600080fd5b5051604080517fa5fbf287000000000000000000000000000000000000000000000000000000008152600160a060020a0380841660048301526001602483015291519295509087169163a5fbf287916044808201926020929091908290030181600087803b15801561281257600080fd5b505af1158015612826573d6000803e3d6000fd5b505050506040513d602081101561283c57600080fd5b5051156129535782600160a060020a031663c45d3d926040518163ffffffff1660e060020a028152600401602060405180830381600087803b15801561288157600080fd5b505af1158015612895573d6000803e3d6000fd5b505050506040513d60208110156128ab57600080fd5b50519150600160a060020a0382161580612948575081600160a060020a0316633af32abf886040518263ffffffff1660e060020a0281526004018082600160a060020a0316600160a060020a03168152602001915050602060405180830381600087803b15801561291b57600080fd5b505af115801561292f573d6000803e3d6000fd5b505050506040513d602081101561294557600080fd5b50515b151561295357600080fd5b600284019350612719565b8551600511612977576129728989886132d4565b612a91565b600480546040805160e260020a632ecd14d30281527f42616e636f7247617350726963654c696d6974000000000000000000000000009381019390935251600160a060020a039091169163bb34534c9160248083019260209291908290030181600087803b1580156129e857600080fd5b505af11580156129fc573d6000803e3d6000fd5b505050506040513d6020811015612a1257600080fd5b5051604080517f6b4dff1f0000000000000000000000000000000000000000000000000000000081523a60048201529051919250600160a060020a03831691636b4dff1f9160248082019260009290919082900301818387803b158015612a7857600080fd5b505af1158015612a8c573d6000803e3d6000fd5b505050505b505050505050505050565b6000341115612b33573482148015612acc5750600160a060020a03831660009081526005602052604090205460ff165b1515612ad757600080fd5b82600160a060020a031663d0e30db0346040518263ffffffff1660e060020a0281526004016000604051808303818588803b158015612b1557600080fd5b505af1158015612b29573d6000803e3d6000fd5b5050505050612b45565b8015612b4557612b45833330856122a5565b505050565b845160009085906000190182808080600160a060020a0389161515612b7d578715612b7457600080fd5b60009350612c3a565b876000108015612b8f57506002548811155b1515612b9a57600080fd5b600480546040805160e260020a632ecd14d30281527f424e54546f6b656e0000000000000000000000000000000000000000000000009381019390935251600160a060020a039091169163bb34534c9160248083019260209291908290030181600087803b158015612c0b57600080fd5b505af1158015612c1f573d6000803e3d6000fd5b505050506040513d6020811015612c3557600080fd5b505193505b600292505b848311612f45578b60018403815181101515612c5757fe5b90602001906020020151600160a060020a0316638da5cb5b6040518163ffffffff1660e060020a028152600401602060405180830381600087803b158015612c9e57600080fd5b505af1158015612cb2573d6000803e3d6000fd5b505050506040513d6020811015612cc857600080fd5b50518c519092508c906001198501908110612cdf57fe5b90602001906020020151600160a060020a03168c60018503815181101515612d0357fe5b60209081029091010151600160a060020a031614612d4057612d408c60028503815181101515612d2f57fe5b9060200190602002015183886135e1565b81600160a060020a0316635e5144eb8d60028603815181101515612d6057fe5b906020019060200201518e86815181101515612d7857fe5b9060200190602002015189898814612d91576001612d93565b8e5b6040518563ffffffff1660e060020a0281526004018085600160a060020a0316600160a060020a0316815260200184600160a060020a0316600160a060020a03168152602001838152602001828152602001945050505050602060405180830381600087803b158015612e0557600080fd5b505af1158015612e19573d6000803e3d6000fd5b505050506040513d6020811015612e2f57600080fd5b50518c51909650600160a060020a038516908d9085908110612e4d57fe5b90602001906020020151600160a060020a03161415612f3a57612e7d620f424061116a888b63ffffffff61203c16565b90508b83815181101515612e8d57fe5b90602001906020020151600160a060020a031663a9059cbb8a836040518363ffffffff1660e060020a0281526004018083600160a060020a0316600160a060020a0316815260200182815260200192505050602060405180830381600087803b158015612ef957600080fd5b505af1158015612f0d573d6000803e3d6000fd5b505050506040513d6020811015612f2357600080fd5b50511515612f3057600080fd5b8086039550600093505b600283019250612c3f565b50939a9950505050505050505050565b600480546040805160e260020a632ecd14d30281527f4e6f6e5374616e64617264546f6b656e52656769737472790000000000000000938101939093525160009283928392600160a060020a039091169163bb34534c91602480830192602092919082900301818787803b158015612fcc57600080fd5b505af1158015612fe0573d6000803e3d6000fd5b505050506040513d6020811015612ff657600080fd5b5051604080517faeea10bd000000000000000000000000000000000000000000000000000000008152600160a060020a03898116600483015291519295509085169163aeea10bd916024808201926020929091908290030181600087803b15801561306057600080fd5b505af1158015613074573d6000803e3d6000fd5b505050506040513d602081101561308a57600080fd5b5051156132355785600160a060020a03166370a08231866040518263ffffffff1660e060020a0281526004018082600160a060020a0316600160a060020a03168152602001915050602060405180830381600087803b1580156130ec57600080fd5b505af1158015613100573d6000803e3d6000fd5b505050506040513d602081101561311657600080fd5b5051604080517fa9059cbb000000000000000000000000000000000000000000000000000000008152600160a060020a0388811660048301526024820188905291519294509088169163a9059cbb9160448082019260009290919082900301818387803b15801561318657600080fd5b505af115801561319a573d6000803e3d6000fd5b5050505085600160a060020a03166370a08231866040518263ffffffff1660e060020a0281526004018082600160a060020a0316600160a060020a03168152602001915050602060405180830381600087803b1580156131f957600080fd5b505af115801561320d573d6000803e3d6000fd5b505050506040513d602081101561322357600080fd5b5051905081811161323057fe5b6132cc565b85600160a060020a031663a9059cbb86866040518363ffffffff1660e060020a0281526004018083600160a060020a0316600160a060020a0316815260200182815260200192505050602060405180830381600087803b15801561329857600080fd5b505af11580156132ac573d6000803e3d6000fd5b505050506040513d60208110156132c257600080fd5b505115156132cc57fe5b505050505050565b60008060008360018151811015156132e857fe5b90602001906020020151925082431115151561330357600080fd5b823a863387600081518110151561331657fe5b906020019060200201518a6040516020018087815260200186815260200185600160a060020a0316600160a060020a03166c0100000000000000000000000002815260140184600160a060020a0316600160a060020a03166c01000000000000000000000000028152601401838152602001828051906020019060200280838360005b838110156133b1578181015183820152602001613399565b5050505090500196505050505050506040516020818303038152906040526040518082805190602001908083835b602083106133fe5780518252601f1990920191602091820191016133df565b51815160209384036101000a6000190180199092169116179052604080519290940182900390912060008181526006909252929020549195505060ff16159150613449905057600080fd5b604080517f19457468657265756d205369676e6564204d6573736167653a0a333200000000602080830191909152603c80830186905283518084039091018152605c90920192839052815191929182918401908083835b602083106134bf5780518252601f1990920191602091820191016134a0565b5181516020939093036101000a600019018019909116921691909117905260405192018290039091206003548851919550600160a060020a03169350600192508491508790600290811061350f57fe5b9060200190602002015187600381518110151561352857fe5b6020908102909101015188518990600490811061354157fe5b60209081029091018101516040805160008082528185018084529790975260ff9095168582015260608501939093526080840152905160a0808401949293601f19830193908390039091019190865af11580156135a2573d6000803e3d6000fd5b50505060206040510351600160a060020a03161415156135c157600080fd5b506000908152600660205260409020805460ff1916600117905550505050565b604080517fdd62ed3e000000000000000000000000000000000000000000000000000000008152306004820152600160a060020a0384811660248301529151839286169163dd62ed3e9160448083019260209291908290030181600087803b15801561364c57600080fd5b505af1158015613660573d6000803e3d6000fd5b505050506040513d602081101561367657600080fd5b50511061368257612b45565b604080517fdd62ed3e000000000000000000000000000000000000000000000000000000008152306004820152600160a060020a03848116602483015291519185169163dd62ed3e916044808201926020929091908290030181600087803b1580156136ed57600080fd5b505af1158015613701573d6000803e3d6000fd5b505050506040513d602081101561371757600080fd5b50511561379f57604080517f095ea7b3000000000000000000000000000000000000000000000000000000008152600160a060020a03848116600483015260006024830181905292519086169263095ea7b3926044808201939182900301818387803b15801561378657600080fd5b505af115801561379a573d6000803e3d6000fd5b505050505b82600160a060020a031663095ea7b383836040518363ffffffff1660e060020a0281526004018083600160a060020a0316600160a060020a0316815260200182815260200192505050600060405180830381600087803b15801561380257600080fd5b505af1158015612635573d6000803e3d6000fd5b604080518082018252906002908290803883395091929150505600a165627a7a723058209113b8c8b18bdfd28b774b731c12a1823c40afc7c0dab583c5c695353ee247f60029608060405234801561001057600080fd5b506040516020806100f2833981016040525160005560bf806100336000396000f300608060405260043610603e5763ffffffff7c01000000000000000000000000000000000000000000000000000000006000350416631e1401f881146043575b600080fd5b348015604e57600080fd5b50607773ffffffffffffffffffffffffffffffffffffffff600435811690602435166044356089565b60408051918252519081900360200190f35b60005493925050505600a165627a7a72305820ace4574ff9773631b60542b399b3f84d9e03441d409d2ff287b76f48a98313780029608060405234801561001057600080fd5b5060405160408061010a83398101604052805160209091015160009190915560015560ca806100406000396000f300608060405260043610603e5763ffffffff7c01000000000000000000000000000000000000000000000000000000006000350416631e1401f881146043575b600080fd5b348015604e57600080fd5b50607773ffffffffffffffffffffffffffffffffffffffff600435811690602435166044356090565b6040805192835260208301919091528051918290030190f35b6000546001549350939150505600a165627a7a72305820f91d9dea727015efac721353b019bb5077b321fa3b471248f2785c6aa87db3900029",
  "source": "pragma solidity ^0.4.24;\nimport '../BancorNetwork.sol';\n\ncontract OldBancorConverter {\n    uint256 private amount;\n\n    constructor(uint256 _amount) public {\n        amount = _amount;\n    }\n\n    function getReturn(IERC20Token _fromToken, IERC20Token _toToken, uint256 _amount) external view returns (uint256) {\n        _fromToken;\n        _toToken;\n        _amount;\n        return (amount);\n    }\n}\n\ncontract NewBancorConverter {\n    uint256 private amount;\n    uint256 private fee;\n\n    constructor(uint256 _amount, uint256 _fee) public {\n        amount = _amount;\n        fee = _fee;\n    }\n\n    function getReturn(IERC20Token _fromToken, IERC20Token _toToken, uint256 _amount) external view returns (uint256, uint256) {\n        _fromToken;\n        _toToken;\n        _amount;\n        return (amount, fee);\n    }\n}\n\ncontract TestBancorNetwork is BancorNetwork {\n    OldBancorConverter private oldBancorConverter;\n    NewBancorConverter private newBancorConverter;\n\n    constructor(uint256 _amount, uint256 _fee) public BancorNetwork(IContractRegistry(address(1))) {\n        oldBancorConverter = new OldBancorConverter(_amount);\n        newBancorConverter = new NewBancorConverter(_amount, _fee);\n    }\n\n    function getReturnOld() external view returns (uint256, uint256) {\n        return getReturn(address(oldBancorConverter), IERC20Token(0), IERC20Token(0), uint256(0));\n    }\n\n    function getReturnNew() external view returns (uint256, uint256) {\n        return getReturn(address(newBancorConverter), IERC20Token(0), IERC20Token(0), uint256(0));\n    }\n}\n",
  "sourcePath": "/Users/cryptotom/code/gitcoin/communiteths/contracts/bancor/helpers/TestBancorNetwork.sol",
  "compiler": {
    "name": "solc",
    "version": "0.4.26+commit.4563c3fc.Emscripten.clang"
  },
  "schemaVersion": "3.0.11",
  "updatedAt": "2019-10-30T08:26:43.611Z",
  "devdoc": {
    "methods": {
      "acceptOwnership()": {
        "details": "used by a new owner to accept an ownership transfer\r"
      },
      "claimAndConvert(address[],uint256,uint256)": {
        "details": "deprecated, backward compatibility\r"
      },
      "claimAndConvert2(address[],uint256,uint256,address,uint256)": {
        "details": "claims the caller's tokens, converts them to any other token in the bancor network\r by following a predefined conversion path and transfers the result tokens back to the sender\r note that allowance must be set beforehand\r \r",
        "params": {
          "_affiliateAccount": "affiliate account\r",
          "_affiliateFee": "affiliate fee in PPM\r \r",
          "_amount": "amount to convert from (in the initial source token)\r",
          "_minReturn": "if the conversion results in an amount smaller than the minimum return - it is cancelled, must be nonzero\r",
          "_path": "conversion path, see conversion path format above\r"
        },
        "return": "tokens issued in return\r"
      },
      "claimAndConvertFor(address[],uint256,uint256,address)": {
        "details": "deprecated, backward compatibility\r"
      },
      "claimAndConvertFor2(address[],uint256,uint256,address,address,uint256)": {
        "details": "claims the caller's tokens, converts them to any other token in the bancor network\r by following a predefined conversion path and transfers the result tokens to a target account\r note that allowance must be set beforehand\r \r",
        "params": {
          "_affiliateAccount": "affiliate account\r",
          "_affiliateFee": "affiliate fee in PPM\r \r",
          "_amount": "amount to convert from (in the initial source token)\r",
          "_for": "account that will receive the conversion result\r",
          "_minReturn": "if the conversion results in an amount smaller than the minimum return - it is cancelled, must be nonzero\r",
          "_path": "conversion path, see conversion path format above\r"
        },
        "return": "tokens issued in return\r"
      },
      "convert(address[],uint256,uint256)": {
        "details": "deprecated, backward compatibility\r"
      },
      "convert2(address[],uint256,uint256,address,uint256)": {
        "details": "converts the token to any other token in the bancor network by following\r a predefined conversion path and transfers the result tokens back to the sender\r note that the converter should already own the source tokens\r \r",
        "params": {
          "_affiliateAccount": "affiliate account\r",
          "_affiliateFee": "affiliate fee in PPM\r \r",
          "_amount": "amount to convert from (in the initial source token)\r",
          "_minReturn": "if the conversion results in an amount smaller than the minimum return - it is cancelled, must be nonzero\r",
          "_path": "conversion path, see conversion path format above\r"
        },
        "return": "tokens issued in return\r"
      },
      "convertFor(address[],uint256,uint256,address)": {
        "details": "deprecated, backward compatibility\r"
      },
      "convertFor2(address[],uint256,uint256,address,address,uint256)": {
        "details": "converts the token to any other token in the bancor network by following\r a predefined conversion path and transfers the result tokens to a target account\r note that the converter should already own the source tokens\r \r",
        "params": {
          "_affiliateAccount": "affiliate account\r",
          "_affiliateFee": "affiliate fee in PPM\r \r",
          "_amount": "amount to convert from (in the initial source token)\r",
          "_for": "account that will receive the conversion result\r",
          "_minReturn": "if the conversion results in an amount smaller than the minimum return - it is cancelled, must be nonzero\r",
          "_path": "conversion path, see conversion path format above\r"
        },
        "return": "tokens issued in return\r"
      },
      "convertForPrioritized(address[],uint256,uint256,address,uint256,uint256,uint8,bytes32,bytes32)": {
        "details": "deprecated, backward compatibility\r"
      },
      "convertForPrioritized2(address[],uint256,uint256,address,uint256,uint8,bytes32,bytes32)": {
        "details": "deprecated, backward compatibility\r"
      },
      "convertForPrioritized3(address[],uint256,uint256,address,uint256,uint256,uint8,bytes32,bytes32)": {
        "details": "deprecated, backward compatibility\r"
      },
      "convertForPrioritized4(address[],uint256,uint256,address,uint256[],address,uint256)": {
        "details": "converts the token to any other token in the bancor network\r by following a predefined conversion path and transfers the result\r tokens to a target account.\r this version of the function also allows the verified signer\r to bypass the universal gas price limit.\r note that the converter should already own the source tokens\r \r",
        "params": {
          "_affiliateAccount": "affiliate account\r",
          "_affiliateFee": "affiliate fee in PPM\r \r",
          "_amount": "amount to convert from (in the initial source token)\r",
          "_for": "account that will receive the conversion result\r",
          "_minReturn": "if the conversion results in an amount smaller than the minimum return - it is cancelled, must be nonzero\r",
          "_path": "conversion path, see conversion path format above\r",
          "_signature": "an array of the following elements:\r                            [0] uint256     custom value that was signed for prioritized conversion\r                            [1] uint256     if the current block exceeded the given parameter - it is cancelled\r                            [2] uint8       (signature[128:130]) associated with the signer address and helps to validate if the signature is legit\r                            [3] bytes32     (signature[0:64]) associated with the signer address and helps to validate if the signature is legit\r                            [4] bytes32     (signature[64:128]) associated with the signer address and helps to validate if the signature is legit\r                            if the array is empty (length == 0), then the gas-price limit is verified instead of the signature\r"
        },
        "return": "tokens issued in return\r"
      },
      "getReturnByPath(address[],uint256)": {
        "details": "returns the expected return amount for converting a specific amount by following\r a given conversion path.\r notice that there is no support for circular paths.\r \r",
        "params": {
          "_amount": "amount to convert from (in the initial source token)\r \r",
          "_path": "conversion path, see conversion path format above\r"
        },
        "return": "expected conversion return amount and conversion fee\r"
      },
      "registerEtherToken(address,bool)": {
        "details": "allows the owner to register/unregister ether tokens\r \r",
        "params": {
          "_register": "true to register, false to unregister\r",
          "_token": "ether token contract address\r"
        }
      },
      "setMaxAffiliateFee(uint256)": {
        "details": "allows the owner to update the maximum affiliate-fee\r \r",
        "params": {
          "_maxAffiliateFee": "maximum affiliate-fee\r"
        }
      },
      "setRegistry(address)": {
        "details": "allows the owner to update the contract registry contract address\r \r",
        "params": {
          "_registry": "address of a contract registry contract\r"
        }
      },
      "setSignerAddress(address)": {
        "details": "allows the owner to update the signer address\r \r",
        "params": {
          "_signerAddress": "new signer address\r"
        }
      },
      "transferOwnership(address)": {
        "details": "allows transferring the contract ownership\r the new owner still needs to accept the transfer\r can only be called by the contract owner\r \r",
        "params": {
          "_newOwner": "new contract owner\r"
        }
      },
      "withdrawTokens(address,address,uint256)": {
        "details": "withdraws tokens held by the contract and sends them to an account\r can only be called by the owner\r \r",
        "params": {
          "_amount": "amount to withdraw\r",
          "_to": "account to receive the new amount\r",
          "_token": "ERC20 token contract address\r"
        }
      },
      "xConvert(address[],uint256,uint256,bytes32,bytes32,uint256)": {
        "details": "converts any other token to BNT in the bancor network\r by following a predefined conversion path and transfers the resulting\r tokens to BancorX.\r note that the network should already have been given allowance of the source token (if not ETH)\r \r",
        "params": {
          "_amount": "amount to convert from (in the initial source token)\r",
          "_conversionId": "pre-determined unique (if non zero) id which refers to this transaction \r \r",
          "_minReturn": "if the conversion results in an amount smaller than the minimum return - it is cancelled, must be nonzero\r",
          "_path": "conversion path, see conversion path format above\r",
          "_to": "address/account on _toBlockchain to send the BNT to\r",
          "_toBlockchain": "blockchain BNT will be issued on\r"
        },
        "return": "the amount of BNT received from this conversion\r"
      },
      "xConvertPrioritized(address[],uint256,uint256,bytes32,bytes32,uint256,uint256,uint8,bytes32,bytes32)": {
        "details": "deprecated, backward compatibility\r"
      },
      "xConvertPrioritized2(address[],uint256,uint256,bytes32,bytes32,uint256,uint256[])": {
        "details": "converts any other token to BNT in the bancor network\r by following a predefined conversion path and transfers the resulting\r tokens to BancorX.\r this version of the function also allows the verified signer\r to bypass the universal gas price limit.\r note that the network should already have been given allowance of the source token (if not ETH)\r \r",
        "params": {
          "_amount": "amount to convert from (in the initial source token)\r",
          "_conversionId": "pre-determined unique (if non zero) id which refers to this transaction \r",
          "_minReturn": "if the conversion results in an amount smaller than the minimum return - it is cancelled, must be nonzero\r",
          "_path": "conversion path, see conversion path format above\r",
          "_signature": "an array of the following elements:\r                        [0] uint256     custom value that was signed for prioritized conversion; must be equal to _amount\r                        [1] uint256     if the current block exceeded the given parameter - it is cancelled\r                        [2] uint8       (signature[128:130]) associated with the signer address and helps to validate if the signature is legit\r                        [3] bytes32     (signature[0:64]) associated with the signer address and helps to validate if the signature is legit\r                        [4] bytes32     (signature[64:128]) associated with the signer address and helps to validate if the signature is legit\r                        if the array is empty (length == 0), then the gas-price limit is verified instead of the signature\r \r",
          "_to": "address/account on _toBlockchain to send the BNT to\r",
          "_toBlockchain": "blockchain BNT will be issued on\r"
        },
        "return": "the amount of BNT received from this conversion\r"
      }
    }
  },
  "userdoc": {
    "methods": {}
  }
}