{
  "contractName": "TestBancorFormula",
  "abi": [
    {
      "constant": true,
      "inputs": [
        {
          "name": "_supply",
          "type": "uint256"
        },
        {
          "name": "_connectorBalance",
          "type": "uint256"
        },
        {
          "name": "_connectorWeight",
          "type": "uint32"
        },
        {
          "name": "_depositAmount",
          "type": "uint256"
        }
      ],
      "name": "calculatePurchaseReturn",
      "outputs": [
        {
          "name": "",
          "type": "uint256"
        }
      ],
      "payable": false,
      "stateMutability": "view",
      "type": "function"
    },
    {
      "constant": true,
      "inputs": [
        {
          "name": "_supply",
          "type": "uint256"
        },
        {
          "name": "_connectorBalance",
          "type": "uint256"
        },
        {
          "name": "_connectorWeight",
          "type": "uint32"
        },
        {
          "name": "_sellAmount",
          "type": "uint256"
        }
      ],
      "name": "calculateSaleReturn",
      "outputs": [
        {
          "name": "",
          "type": "uint256"
        }
      ],
      "payable": false,
      "stateMutability": "view",
      "type": "function"
    },
    {
      "constant": true,
      "inputs": [],
      "name": "version",
      "outputs": [
        {
          "name": "",
          "type": "string"
        }
      ],
      "payable": false,
      "stateMutability": "view",
      "type": "function"
    },
    {
      "constant": true,
      "inputs": [
        {
          "name": "_fromConnectorBalance",
          "type": "uint256"
        },
        {
          "name": "_fromConnectorWeight",
          "type": "uint32"
        },
        {
          "name": "_toConnectorBalance",
          "type": "uint256"
        },
        {
          "name": "_toConnectorWeight",
          "type": "uint32"
        },
        {
          "name": "_amount",
          "type": "uint256"
        }
      ],
      "name": "calculateCrossConnectorReturn",
      "outputs": [
        {
          "name": "",
          "type": "uint256"
        }
      ],
      "payable": false,
      "stateMutability": "view",
      "type": "function"
    },
    {
      "inputs": [],
      "payable": false,
      "stateMutability": "nonpayable",
      "type": "constructor"
    },
    {
      "constant": true,
      "inputs": [
        {
          "name": "_baseN",
          "type": "uint256"
        },
        {
          "name": "_baseD",
          "type": "uint256"
        },
        {
          "name": "_expN",
          "type": "uint32"
        },
        {
          "name": "_expD",
          "type": "uint32"
        }
      ],
      "name": "powerTest",
      "outputs": [
        {
          "name": "",
          "type": "uint256"
        },
        {
          "name": "",
          "type": "uint8"
        }
      ],
      "payable": false,
      "stateMutability": "view",
      "type": "function"
    },
    {
      "constant": true,
      "inputs": [
        {
          "name": "x",
          "type": "uint256"
        }
      ],
      "name": "generalLogTest",
      "outputs": [
        {
          "name": "",
          "type": "uint256"
        }
      ],
      "payable": false,
      "stateMutability": "pure",
      "type": "function"
    },
    {
      "constant": true,
      "inputs": [
        {
          "name": "_n",
          "type": "uint256"
        }
      ],
      "name": "floorLog2Test",
      "outputs": [
        {
          "name": "",
          "type": "uint8"
        }
      ],
      "payable": false,
      "stateMutability": "pure",
      "type": "function"
    },
    {
      "constant": true,
      "inputs": [
        {
          "name": "_x",
          "type": "uint256"
        }
      ],
      "name": "findPositionInMaxExpArrayTest",
      "outputs": [
        {
          "name": "",
          "type": "uint8"
        }
      ],
      "payable": false,
      "stateMutability": "view",
      "type": "function"
    },
    {
      "constant": true,
      "inputs": [
        {
          "name": "_x",
          "type": "uint256"
        },
        {
          "name": "_precision",
          "type": "uint8"
        }
      ],
      "name": "generalExpTest",
      "outputs": [
        {
          "name": "",
          "type": "uint256"
        }
      ],
      "payable": false,
      "stateMutability": "pure",
      "type": "function"
    },
    {
      "constant": true,
      "inputs": [
        {
          "name": "x",
          "type": "uint256"
        }
      ],
      "name": "optimalLogTest",
      "outputs": [
        {
          "name": "",
          "type": "uint256"
        }
      ],
      "payable": false,
      "stateMutability": "pure",
      "type": "function"
    },
    {
      "constant": true,
      "inputs": [
        {
          "name": "x",
          "type": "uint256"
        }
      ],
      "name": "optimalExpTest",
      "outputs": [
        {
          "name": "",
          "type": "uint256"
        }
      ],
      "payable": false,
      "stateMutability": "pure",
      "type": "function"
    }
  ],
  "bytecode": "0x60c0604052600360808190527f302e33000000000000000000000000000000000000000000000000000000000060a0908152620000409160009190620007f7565b503480156200004e57600080fd5b506001606060020a641c35fedd1502036021556001605e60020a646c3390ecc902036022556001606160020a640cf801476102036023556001605f60020a6431bdb23e1d02036024556001605b60020a6502fb1d8fe08302036025556001605a60020a6505b771955b3702036026556001605960020a650af67a93bb5102036027556001605860020a6515060c256cb302036028556001605860020a651428a2f98d7302036029556001605660020a654d51566397090203602a556001605560020a65944620b0e70f0203602b557011c592761c666fffffffffffffffffffff602c5570110a688680a757ffffffffffffffffffff602d55701056f1b5bedf77ffffffffffffffffffff602e55700faadceceeff8bffffffffffffffffffff602f55700f05dc6b27edadffffffffffffffffffff603055700e67a5a25da4107fffffffffffffffffff603155700dcff115b14eedffffffffffffffffffff603255700d3e7a392431239fffffffffffffffffff603355700cb2ff529eb71e4fffffffffffffffffff603455700c2d415c3db974afffffffffffffffffff603555700bad03e7d883f69bffffffffffffffffff603655700b320d03b2c343d5ffffffffffffffffff603755700abc25204e02828dffffffffffffffffff603855700a4b16f74ee4bb207fffffffffffffffff6039557009deaf736ac1f569ffffffffffffffffff603a55700976bd9952c7aa957fffffffffffffffff603b557009131271922eaa606fffffffffffffffff603c557008b380f3558668c46fffffffffffffffff603d55700857ddf0117efa215bffffffffffffffff603e556001608360020a03603f557007abbf6f6abb9d087fffffffffffffffff60405570075af62cbac95f7dfa7fffffffffffffff60415570070d7fb7452e187ac13fffffffffffffff6042557006c3390ecc8af379295fffffffffffffff60435570067c00a3b07ffc01fd6fffffffffffffff604455700637b647c39cbb9d3d27ffffffffffffff6045557005f63b1fc104dbd39587ffffffffffffff6046557005b771955b36e12f7235ffffffffffffff60475570057b3d49dda84556d6f6ffffffffffffff60485570054183095b2c8ececf30ffffffffffffff60495570050a28be635ca2b888f77fffffffffffff604a557004d5156639708c9db33c3fffffffffffff604b557004a23105873875bd52dfdfffffffffffff604c55700471649d87199aa990756fffffffffffff604d557004429a21a029d4c1457cfbffffffffffff604e55700415bc6d6fb7dd71af2cb3ffffffffffff604f557003eab73b3bbfe282243ce1ffffffffffff6050557003c1771ac9fb6b4c18e229ffffffffffff605155700399e96897690418f785257fffffffffff605255700373fc456c53bb779bf0ea9fffffffffff60535570034f9e8e490c48e67e6ab8bfffffffffff60545570032cbfd4a7adc790560b3337ffffffffff60555570030b50570f6e5d2acca94613ffffffffff6056557002eb40f9f620fda6b56c2861ffffffffff6057557002cc8340ecb0d0f520a6af58ffffffffff6058557002af09481380a0a35cf1ba02ffffffffff605955700292c5bdd3b92ec810287b1b3fffffffff605a55700277abdcdab07d5a77ac6d6b9fffffffff605b5570025daf6654b1eaa55fd64df5efffffffff605c55700244c49c648baa98192dce88b7ffffffff605d5570022ce03cd5619a311b2471268bffffffff605e55700215f77c045fbe885654a44a0fffffffff605f556001608160020a036060557001eaefdbdaaee7421fc4d3ede5ffffffff6061557001d6bd8b2eb257df7e8ca57b09bfffffff6062557001c35fedd14b861eb0443f7f133fffffff6063557001b0ce43b322bcde4a56e8ada5afffffff60645570019f0028ec1fff007f5a195a39dfffffff60655570018ded91f0e72ee74f49b15ba527ffffff60665570017d8ec7f04136f4e5615fd41a63ffffff60675570016ddc6556cdb84bdc8d12d22e6fffffff60685570015ecf52776a1155b5bd8395814f7fffff60695570015060c256cb23b3b3cc3754cf40ffffff606a557001428a2f98d728ae223ddab715be3fffff606b5570013545598e5c23276ccf0ede68034fffff606c557001288c4161ce1d6f54b7f61081194fffff606d5570011c592761c666aa641d5a01a40f17ffff606e55700110a688680a7530515f3e6e6cfdcdffff606f557001056f1b5bedf75c6bcb2ce8aed428ffff6070556ffaadceceeff8a0890f3875f008277fff6071556ff05dc6b27edad306388a600f6ba0bfff6072556fe67a5a25da41063de1495d5b18cdbfff6073556fdcff115b14eedde6fc3aa5353f2e4fff6074556fd3e7a3924312399f9aae2e0f868f8fff6075556fcb2ff529eb71e41582cccd5a1ee26fff6076556fc2d415c3db974ab32a51840c0b67edff6077556fbad03e7d883f69ad5b0a186184e06bff6078556fb320d03b2c343d4829abd6075f0cc5ff6079556fabc25204e02828d73c6e80bcdb1a95bf607a556fa4b16f74ee4bb2040a1ec6c15fbbf2df607b556f9deaf736ac1f569deb1b5ae3f36c130f607c556f976bd9952c7aa957f5937d790ef65037607d556f9131271922eaa6064b73a22d0bd4f2bf607e556f8b380f3558668c46c91c49a2f8e967b9607f556f857ddf0117efa215952912839f6473e66080556200089c565b828054600181600116156101000203166002900490600052602060002090601f016020900481019282601f106200083a57805160ff19168380011785556200086a565b828001600101855582156200086a579182015b828111156200086a5782518255916020019190600101906200084d565b50620008789291506200087c565b5090565b6200089991905b8082111562000878576000815560010162000883565b90565b61162780620008ac6000396000f3006080604052600436106100ae5763ffffffff7c010000000000000000000000000000000000000000000000000000000060003504166329a00e7c81146100b35780633e8a38ab146100ec5780634982d52d1461010457806349f9b0f71461011c57806354fd4d501461014357806365098bb3146101cd5780636cab5055146101fb5780638c5ce82a14610219578063a25a34b11461025e578063acdee8cb1461028c578063ce782e08146102a4575b600080fd5b3480156100bf57600080fd5b506100da60043560243563ffffffff604435166064356102bc565b60408051918252519081900360200190f35b3480156100f857600080fd5b506100da60043561039c565b34801561011057600080fd5b506100da6004356103ad565b34801561012857600080fd5b506100da60043560243563ffffffff604435166064356103b8565b34801561014f57600080fd5b506101586104b5565b6040805160208082528351818301528351919283929083019185019080838360005b8381101561019257818101518382015260200161017a565b50505050905090810190601f1680156101bf5780820380516001836020036101000a031916815260200191505b509250505060405180910390f35b3480156101d957600080fd5b506100da60043563ffffffff6024358116906044359060643516608435610543565b34801561020757600080fd5b506100da60043560ff60243516610658565b34801561022557600080fd5b5061024360043560243563ffffffff6044358116906064351661066b565b6040805192835260ff90911660208301528051918290030190f35b34801561026a57600080fd5b50610276600435610687565b6040805160ff9092168252519081900360200190f35b34801561029857600080fd5b506100da600435610692565b3480156102b057600080fd5b5061027660043561069d565b600080600080600080891180156102d35750600088115b80156102e5575060008763ffffffff16115b80156102fa5750620f424063ffffffff881611155b151561030557600080fd5b8515156103155760009450610390565b63ffffffff8716620f4240141561034857876103378a8863ffffffff6106a816565b81151561034057fe5b049450610390565b610358868963ffffffff6106e116565b9150610369828989620f42406106f3565b909450925060ff83166103828a8663ffffffff6106a816565b9060020a9004905088810394505b50505050949350505050565b60006103a7826107dd565b92915050565b60006103a782610c02565b60008060008060008060008a1180156103d15750600089115b80156103e3575060008863ffffffff16115b80156103f85750620f424063ffffffff891611155b80156104045750898711155b151561040f57600080fd5b86151561041f57600095506104a8565b8987141561042f578895506104a8565b63ffffffff8816620f4240141561046257896104518a8963ffffffff6106a816565b81151561045a57fe5b0495506104a8565b868a0392506104768a84620f42408b6106f3565b909550935061048b898663ffffffff6106a816565b91505060ff831660020a8802848183038115156104a457fe5b0495505b5050505050949350505050565b6000805460408051602060026001851615610100026000190190941693909304601f8101849004840282018401909252818152929183018282801561053b5780601f106105105761010080835404028352916020019161053b565b820191906000526020600020905b81548152906001019060200180831161051e57829003601f168201915b505050505081565b60008060008060008060008b118015610562575060008a63ffffffff16115b80156105775750620f424063ffffffff8b1611155b80156105835750600089115b8015610595575060008863ffffffff16115b80156105aa5750620f424063ffffffff891611155b15156105b557600080fd5b8763ffffffff168a63ffffffff1614156105fa576105d98b8863ffffffff6106e116565b6105e98a8963ffffffff6106a816565b8115156105f257fe5b04955061064a565b61060a8b8863ffffffff6106e116565b9250610618838c8c8b6106f3565b909550935061062d898663ffffffff6106a816565b91505060ff831660020a88028481830381151561064657fe5b0495505b505050505095945050505050565b60006106648383610cd5565b9392505050565b60008061067a868686866106f3565b9150915094509492505050565b60006103a7826110f8565b60006103a782611185565b60006103a782611592565b6000808315156106bb57600091506106da565b508282028284828115156106cb57fe5b04146106d657600080fd5b8091505b5092915050565b6000828201838110156106d657600080fd5b600080808080807002000000000000000000000000000000008a1061071757600080fd5b88607f60020a8b0281151561072857fe5b04925070015bf0a8b1457695355fb8ac404e7a79e38310156107545761074d836107dd565b9350610760565b61075d83610c02565b93505b8663ffffffff168863ffffffff16850281151561077957fe5b0491507008000000000000000000000000000000008210156107a95761079e82611185565b607f955095506107d0565b6107b2826110f8565b90506107ca60ff607f8390031660020a830482610cd5565b81955095505b5050505094509492505050565b6000808080806fd3094c70f034de4b96ff7d5b6f99fcd8861061082c576f4000000000000000000000000000000093909301926fd3094c70f034de4b96ff7d5b6f99fcd8607f60020a87020495505b6fa45af1e1f40c333b3de1db4dd55f29a78610610875576f2000000000000000000000000000000093909301926fa45af1e1f40c333b3de1db4dd55f29a7607f60020a87020495505b6f910b022db7ae67ce76b441c27035c6a186106108be576f1000000000000000000000000000000093909301926f910b022db7ae67ce76b441c27035c6a1607f60020a87020495505b6f88415abbe9a76bead8d00cf112e4d4a88610610907576f0800000000000000000000000000000093909301926f88415abbe9a76bead8d00cf112e4d4a8607f60020a87020495505b6f84102b00893f64c705e841d5d4064bd38610610950576f0400000000000000000000000000000093909301926f84102b00893f64c705e841d5d4064bd3607f60020a87020495505b6f8204055aaef1c8bd5c3259f4822735a28610610999576f0200000000000000000000000000000093909301926f8204055aaef1c8bd5c3259f4822735a2607f60020a87020495505b6f810100ab00222d861931c15e39b44e9986106109e2576f0100000000000000000000000000000093909301926f810100ab00222d861931c15e39b44e99607f60020a87020495505b6f808040155aabbbe9451521693554f7338610610a2a576e80000000000000000000000000000093909301926f808040155aabbbe9451521693554f733607f60020a87020495505b6f7fffffffffffffffffffffffffffffff1986019250829150607f60020a8280020490507001000000000000000000000000000000008381038302049390930192607f60020a8282020491507002000000000000000000000000000000006faaaaaaaaaaaaaaaaaaaaaaaaaaaaaaaa8490038302049390930192607f60020a8282020491507003000000000000000000000000000000006f999999999999999999999999999999998490038302049390930192607f60020a8282020491507004000000000000000000000000000000006f924924924924924924924924924924928490038302049390930192607f60020a8282020491507005000000000000000000000000000000006f8e38e38e38e38e38e38e38e38e38e38e8490038302049390930192607f60020a8282020491507006000000000000000000000000000000006f8ba2e8ba2e8ba2e8ba2e8ba2e8ba2e8b8490038302049390930192607f60020a8282020491507007000000000000000000000000000000006f89d89d89d89d89d89d89d89d89d89d898490038302049390930192607f60020a8282020491507008000000000000000000000000000000006f888888888888888888888888888888888490038302049390930195945050505050565b60008080807001000000000000000000000000000000008510610c4657610c2e607f60020a8604611592565b60ff8116600281900a90960495607f60020a02935091505b607f60020a851115610ca55750607f5b60008160ff161115610ca557607f60020a8580020494507001000000000000000000000000000000008510610c9c576002948590049460ff600019830116900a92909201915b60001901610c56565b6f05b9de1d10bf4103d647b0955897ba806f03f80fe03f80fe03f80fe03f80fe03f884020493505b505050919050565b6000806000849150600090508360ff168583029060020a90049150816f03442c4e6074a82f1797f72ac000000002810190508360ff168583029060020a90049150816f0116b96f757c380fb287fd0e4000000002810190508360ff168583029060020a90049150816e45ae5bdd5f0e03eca1ff439000000002810190508360ff168583029060020a90049150816e0defabf91302cd95b9ffda5000000002810190508360ff168583029060020a90049150816e02529ca9832b22439efff9b800000002810190508360ff168583029060020a90049150816d54f1cf12bd04e516b6da8800000002810190508360ff168583029060020a90049150816d0a9e39e257a09ca2d6db5100000002810190508360ff168583029060020a90049150816d012e066e7b839fa050c30900000002810190508360ff168583029060020a90049150816c1e33d7d926c329a1ad1a80000002810190508360ff168583029060020a90049150816c02bee513bdb4a6b19b5f80000002810190508360ff168583029060020a90049150816b3a9316fa79b88eccf2a0000002810190508360ff168583029060020a90049150816b048177ebe1fa81237520000002810190508360ff168583029060020a90049150816a5263fe90242dcbacf0000002810190508360ff168583029060020a90049150816a057e22099c030d9410000002810190508360ff168583029060020a90049150816957e22099c030d941000002810190508360ff168583029060020a900491508169052b6b5456997631000002810190508360ff168583029060020a9004915081684985f67696bf74800002810190508360ff168583029060020a90049150816803dea12ea99e49800002810190508360ff168583029060020a90049150816731880f2214b6e00002810190508360ff168583029060020a900491508167025bcff56eb3600002810190508360ff168583029060020a9004915081661b722e10ab100002810190508360ff168583029060020a90049150816601317c7007700002810190508360ff168583029060020a9004915081650cba84aafa0002810190508360ff168583029060020a90049150816482573a0a0002810190508360ff168583029060020a90049150816405035ad90002810190508360ff168583029060020a9004915081632f881b0002810190508360ff168583029060020a90049150816301b2934002810190508360ff168583029060020a9004915081620efc4002810190508360ff168583029060020a9004915081617fe002810190508360ff168583029060020a900491508161042002810190508360ff168583029060020a9004915081602102810190508360ff168583029060020a9004915081600102810190508360ff1660019060020a02856f0688589cc0e9505e2f2fee5580000000838115156110ec57fe5b04010195945050505050565b60006020607f825b8160ff168360010160ff16101561114557600260ff8484011604905084600160ff83166080811061112d57fe5b01541061113c57809250611140565b8091505b611100565b84600160ff84166080811061115657fe5b01541061116557819350610ccd565b84600160ff85166080811061117657fe5b0154106100ae57829350610ccd565b6000670168244fdac78000607f60020a6f0fffffffffffffffffffffffffffffff84168080028290048082028390048083028490049485026710e1b3be415a00009092026705a0913f6b1e000091909102010192909181830204905080664807432bc180000283019250607f60020a82820281151561120057fe5b04905080660c0135dca040000283019250607f60020a82820281151561122257fe5b049050806601b707b1cdc0000283019250607f60020a82820281151561124457fe5b049050806536e0f639b8000283019250607f60020a82820281151561126557fe5b04905080650618fee9f8000283019250607f60020a82820281151561128657fe5b04905080649c197dcc000283019250607f60020a8282028115156112a657fe5b04905080640e30dce4000283019250607f60020a8282028115156112c657fe5b0490508064012ebd13000283019250607f60020a8282028115156112e657fe5b049050806317499f000283019250607f60020a82820281151561130557fe5b049050806301a9d4800283019250607f60020a82820281151561132457fe5b04905080621c63800283019250607f60020a82820281151561134257fe5b049050806201c6380283019250607f60020a82820281151561136057fe5b04905080611ab80283019250607f60020a82820281151561137d57fe5b0490508061017c0283019250607f60020a82820281151561139a57fe5b0490508060140283019250607f60020a8282028115156113b657fe5b6721c3677c82b40000919004938401048201607f60020a019290506f100000000000000000000000000000008516156114135770018ebef9eac820ae8682b9793ac6d1e7767001c3d6a24ed82218787d624d3e5eba95f984020492505b6f20000000000000000000000000000000851615611455577001368b2fc6f9609fe7aceb46aa619baed470018ebef9eac820ae8682b9793ac6d1e77884020492505b6f40000000000000000000000000000000851615611496576fbc5ab1b16779be3575bd8f0520a9f21f7001368b2fc6f9609fe7aceb46aa619baed584020492505b607f60020a8516156114ca576f454aaa8efe072e7f6ddbab84b40a55c96fbc5ab1b16779be3575bd8f0520a9f21e84020492505b70010000000000000000000000000000000085161561150b576f0960aadc109e7a3bf4578099615711ea6f454aaa8efe072e7f6ddbab84b40a55c584020492505b70020000000000000000000000000000000085161561154b576e2bf84208204f5977f9a8cf01fdce3d6f0960aadc109e7a3bf4578099615711d784020492505b700400000000000000000000000000000000851615611589576d03c6ab775dd0b95b4cbee7e65d116e2bf84208204f5977f9a8cf01fdc30784020492505b50909392505050565b600080806101008410156115c1575b60018411156115bc57600290930492600191909101906115a1565b6106da565b5060805b60008160ff1611156106da5760ff811660020a84106115ee5760ff811660020a90930492908117905b600260ff909116046115c55600a165627a7a72305820c340f1a8f6550851510e53c2433766cd9d4fd8626349dd192259174ee09363510029",
  "source": "pragma solidity ^0.4.24;\nimport '../converter/BancorFormula.sol';\n\n/*\n    BancorFormula test helper that exposes some BancorFormula functions\n*/\ncontract TestBancorFormula is BancorFormula {\n    constructor() public {\n    }\n\n    function powerTest(uint256 _baseN, uint256 _baseD, uint32 _expN, uint32 _expD) external view returns (uint256, uint8) {\n        return super.power(_baseN, _baseD, _expN, _expD);\n    }\n\n    function generalLogTest(uint256 x) external pure returns (uint256) {\n        return super.generalLog(x);\n    }\n\n    function floorLog2Test(uint256 _n) external pure returns (uint8) {\n        return super.floorLog2(_n);\n    }\n\n    function findPositionInMaxExpArrayTest(uint256 _x) external view returns (uint8) {\n        return super.findPositionInMaxExpArray(_x);\n    }\n\n    function generalExpTest(uint256 _x, uint8 _precision) external pure returns (uint256) {\n        return super.generalExp(_x, _precision);\n    }\n\n    function optimalLogTest(uint256 x) external pure returns (uint256) {\n        return super.optimalLog(x);\n    }\n\n    function optimalExpTest(uint256 x) external pure returns (uint256) {\n        return super.optimalExp(x);\n    }\n}\n",
  "sourcePath": "/Users/cryptotom/code/gitcoin/communiteths/contracts/bancor/helpers/TestBancorFormula.sol",
  "compiler": {
    "name": "solc",
    "version": "0.4.26+commit.4563c3fc.Emscripten.clang"
  },
  "schemaVersion": "3.0.11",
  "updatedAt": "2019-10-29T21:10:52.903Z",
  "devdoc": {
    "methods": {
      "calculateCrossConnectorReturn(uint256,uint32,uint256,uint32,uint256)": {
        "details": "given two connector balances/weights and a sell amount (in the first connector token),\r calculates the return for a conversion from the first connector token to the second connector token (in the second connector token)\r \r Formula:\r Return = _toConnectorBalance * (1 - (_fromConnectorBalance / (_fromConnectorBalance + _amount)) ^ (_fromConnectorWeight / _toConnectorWeight))\r \r",
        "params": {
          "_amount": "input connector amount\r \r",
          "_fromConnectorBalance": "input connector balance\r",
          "_fromConnectorWeight": "input connector weight, represented in ppm, 1-1000000\r",
          "_toConnectorBalance": "output connector balance\r",
          "_toConnectorWeight": "output connector weight, represented in ppm, 1-1000000\r"
        },
        "return": "second connector amount\r"
      },
      "calculatePurchaseReturn(uint256,uint256,uint32,uint256)": {
        "details": "given a token supply, connector balance, weight and a deposit amount (in the connector token),\r calculates the return for a given conversion (in the main token)\r \r Formula:\r Return = _supply * ((1 + _depositAmount / _connectorBalance) ^ (_connectorWeight / 1000000) - 1)\r \r",
        "params": {
          "_connectorBalance": "total connector balance\r",
          "_connectorWeight": "connector weight, represented in ppm, 1-1000000\r",
          "_depositAmount": "deposit amount, in connector token\r \r",
          "_supply": "token total supply\r"
        },
        "return": "purchase return amount\r"
      },
      "calculateSaleReturn(uint256,uint256,uint32,uint256)": {
        "details": "given a token supply, connector balance, weight and a sell amount (in the main token),\r calculates the return for a given conversion (in the connector token)\r \r Formula:\r Return = _connectorBalance * (1 - (1 - _sellAmount / _supply) ^ (1 / (_connectorWeight / 1000000)))\r \r",
        "params": {
          "_connectorBalance": "total connector\r",
          "_connectorWeight": "constant connector Weight, represented in ppm, 1-1000000\r",
          "_sellAmount": "sell amount, in the token itself\r \r",
          "_supply": "token total supply\r"
        },
        "return": "sale return amount\r"
      }
    }
  },
  "userdoc": {
    "methods": {}
  }
}