{
  "contractName": "XTransferRerouter",
  "abi": [
    {
      "constant": false,
      "inputs": [],
      "name": "acceptOwnership",
      "outputs": [],
      "payable": false,
      "stateMutability": "nonpayable",
      "type": "function"
    },
    {
      "constant": true,
      "inputs": [],
      "name": "owner",
      "outputs": [
        {
          "name": "",
          "type": "address"
        }
      ],
      "payable": false,
      "stateMutability": "view",
      "type": "function"
    },
    {
      "constant": true,
      "inputs": [],
      "name": "newOwner",
      "outputs": [
        {
          "name": "",
          "type": "address"
        }
      ],
      "payable": false,
      "stateMutability": "view",
      "type": "function"
    },
    {
      "constant": true,
      "inputs": [],
      "name": "reroutingEnabled",
      "outputs": [
        {
          "name": "",
          "type": "bool"
        }
      ],
      "payable": false,
      "stateMutability": "view",
      "type": "function"
    },
    {
      "constant": false,
      "inputs": [
        {
          "name": "_newOwner",
          "type": "address"
        }
      ],
      "name": "transferOwnership",
      "outputs": [],
      "payable": false,
      "stateMutability": "nonpayable",
      "type": "function"
    },
    {
      "inputs": [
        {
          "name": "_reroutingEnabled",
          "type": "bool"
        }
      ],
      "payable": false,
      "stateMutability": "nonpayable",
      "type": "constructor"
    },
    {
      "anonymous": false,
      "inputs": [
        {
          "indexed": true,
          "name": "_txId",
          "type": "uint256"
        },
        {
          "indexed": false,
          "name": "_toBlockchain",
          "type": "bytes32"
        },
        {
          "indexed": false,
          "name": "_to",
          "type": "bytes32"
        }
      ],
      "name": "TxReroute",
      "type": "event"
    },
    {
      "anonymous": false,
      "inputs": [
        {
          "indexed": true,
          "name": "_prevOwner",
          "type": "address"
        },
        {
          "indexed": true,
          "name": "_newOwner",
          "type": "address"
        }
      ],
      "name": "OwnerUpdate",
      "type": "event"
    },
    {
      "constant": false,
      "inputs": [
        {
          "name": "_enable",
          "type": "bool"
        }
      ],
      "name": "enableRerouting",
      "outputs": [],
      "payable": false,
      "stateMutability": "nonpayable",
      "type": "function"
    },
    {
      "constant": false,
      "inputs": [
        {
          "name": "_txId",
          "type": "uint256"
        },
        {
          "name": "_blockchain",
          "type": "bytes32"
        },
        {
          "name": "_to",
          "type": "bytes32"
        }
      ],
      "name": "rerouteTx",
      "outputs": [],
      "payable": false,
      "stateMutability": "nonpayable",
      "type": "function"
    }
  ],
  "bytecode": "0x608060405234801561001057600080fd5b506040516020806103ec833981016040525160008054600160a060020a0319163317905560018054911515740100000000000000000000000000000000000000000260a060020a60ff0219909216919091179055610379806100736000396000f3006080604052600436106100825763ffffffff7c010000000000000000000000000000000000000000000000000000000060003504166379ba509781146100875780638da5cb5b1461009e578063a3ebe71c146100cf578063d4ee1d90146100e9578063e3db16f7146100fe578063edd63c351461011c578063f2fde38b14610145575b600080fd5b34801561009357600080fd5b5061009c610166565b005b3480156100aa57600080fd5b506100b36101ee565b60408051600160a060020a039092168252519081900360200190f35b3480156100db57600080fd5b5061009c60043515156101fd565b3480156100f557600080fd5b506100b3610254565b34801561010a57600080fd5b5061009c600435602435604435610263565b34801561012857600080fd5b506101316102cb565b604080519115158252519081900360200190f35b34801561015157600080fd5b5061009c600160a060020a03600435166102ec565b600154600160a060020a0316331461017d57600080fd5b60015460008054604051600160a060020a0393841693909116917f343765429aea5a34b3ff6a3785a98a5abb2597aca87bfbb58632c173d585373a91a3600180546000805473ffffffffffffffffffffffffffffffffffffffff19908116600160a060020a03841617909155169055565b600054600160a060020a031681565b600054600160a060020a0316331461021457600080fd5b60018054911515740100000000000000000000000000000000000000000274ff000000000000000000000000000000000000000019909216919091179055565b600154600160a060020a031681565b60015474010000000000000000000000000000000000000000900460ff16151561028c57600080fd5b6040805183815260208101839052815185927fb5c80f971fb729e469ffa874c60425659ce82cb4adcfba9731af35ef87b6e619928290030190a2505050565b60015474010000000000000000000000000000000000000000900460ff1681565b600054600160a060020a0316331461030357600080fd5b600054600160a060020a038281169116141561031e57600080fd5b6001805473ffffffffffffffffffffffffffffffffffffffff1916600160a060020a03929092169190911790555600a165627a7a72305820c189fc87939e9c12578f75b2d017a795ebc84c0327f284864722d6198e0ac6e40029",
  "source": "pragma solidity ^0.4.24;\r\n\r\nimport \"../utility/Owned.sol\";\r\n\r\ncontract XTransferRerouter is Owned {\r\n    bool public reroutingEnabled;\r\n\r\n    // triggered when a rerouteTx is called\r\n    event TxReroute(\r\n        uint256 indexed _txId,\r\n        bytes32 _toBlockchain,\r\n        bytes32 _to\r\n    );\r\n\r\n    /**\r\n      * @dev initializes a new XTransferRerouter instance\r\n      * \r\n      * @param _reroutingEnabled    intializes transactions routing to enabled/disabled   \r\n     */\r\n    constructor(bool _reroutingEnabled) public {\r\n        reroutingEnabled = _reroutingEnabled;\r\n    }\r\n    /**\r\n      * @dev allows the owner to disable/enable rerouting\r\n      * \r\n      * @param _enable     true to enable, false to disable\r\n     */\r\n    function enableRerouting(bool _enable) public ownerOnly {\r\n        reroutingEnabled = _enable;\r\n    }\r\n\r\n    // allows execution only when rerouting enabled\r\n    modifier whenReroutingEnabled {\r\n        require(reroutingEnabled);\r\n        _;\r\n    }\r\n\r\n    /**\r\n      * @dev    allows a user to reroute a transaction to a new blockchain/target address\r\n      * \r\n      * @param _txId        the original transaction id\r\n      * @param _blockchain  the new blockchain name\r\n      * @param _to          the new target address/account\r\n     */\r\n    function rerouteTx(\r\n        uint256 _txId,\r\n        bytes32 _blockchain,\r\n        bytes32 _to\r\n    )\r\n        public\r\n        whenReroutingEnabled \r\n    {\r\n        emit TxReroute(_txId, _blockchain, _to);\r\n    }\r\n\r\n}",
  "sourcePath": "/Users/cryptotom/code/gitcoin/communiteths/contracts/bancor/bancorx/XTransferRerouter.sol",
  "compiler": {
    "name": "solc",
    "version": "0.4.26+commit.4563c3fc.Emscripten.clang"
  },
  "schemaVersion": "3.0.11",
  "updatedAt": "2019-10-30T08:26:43.523Z",
  "devdoc": {
    "methods": {
      "acceptOwnership()": {
        "details": "used by a new owner to accept an ownership transfer\r"
      },
      "enableRerouting(bool)": {
        "details": "allows the owner to disable/enable rerouting\r \r",
        "params": {
          "_enable": "true to enable, false to disable\r"
        }
      },
      "rerouteTx(uint256,bytes32,bytes32)": {
        "details": "allows a user to reroute a transaction to a new blockchain/target address\r \r",
        "params": {
          "_blockchain": "the new blockchain name\r",
          "_to": "the new target address/account\r",
          "_txId": "the original transaction id\r"
        }
      },
      "transferOwnership(address)": {
        "details": "allows transferring the contract ownership\r the new owner still needs to accept the transfer\r can only be called by the contract owner\r \r",
        "params": {
          "_newOwner": "new contract owner\r"
        }
      }
    }
  },
  "userdoc": {
    "methods": {}
  }
}